{
  "abi": [
    {
      "inputs": [
        {
          "components": [
            {
              "components": [
                {
                  "internalType": "uint64",
                  "name": "root",
                  "type": "uint64"
                },
                {
                  "internalType": "address[]",
                  "name": "route",
                  "type": "address[]"
                }
              ],
              "internalType": "struct SubnetID",
              "name": "networkName",
              "type": "tuple"
            },
            {
              "internalType": "uint64",
              "name": "bottomUpCheckPeriod",
              "type": "uint64"
            },
            {
              "internalType": "uint64",
              "name": "topDownCheckPeriod",
              "type": "uint64"
            },
            {
              "internalType": "uint256",
              "name": "msgFee",
              "type": "uint256"
            },
            {
              "internalType": "uint8",
              "name": "majorityPercentage",
              "type": "uint8"
            }
          ],
          "internalType": "struct Gateway.ConstructorParams",
          "name": "params",
          "type": "tuple"
        }
      ],
      "stateMutability": "nonpayable",
      "type": "constructor"
    },
    {
      "inputs": [
        {
          "internalType": "address",
          "name": "target",
          "type": "address"
        }
      ],
      "name": "AddressEmptyCode",
      "type": "error"
    },
    {
      "inputs": [
        {
          "internalType": "address",
          "name": "account",
          "type": "address"
        }
      ],
      "name": "AddressInsufficientBalance",
      "type": "error"
    },
    {
      "inputs": [],
      "name": "AlreadyInitialized",
      "type": "error"
    },
    {
      "inputs": [],
      "name": "AlreadyRegisteredSubnet",
      "type": "error"
    },
    {
      "inputs": [],
      "name": "CallFailed",
      "type": "error"
    },
    {
      "inputs": [],
      "name": "CannotReleaseZero",
      "type": "error"
    },
    {
      "inputs": [],
      "name": "CannotSendCrossMsgToItself",
      "type": "error"
    },
    {
      "inputs": [],
      "name": "EmptySubnet",
      "type": "error"
    },
    {
      "inputs": [],
      "name": "EpochAlreadyExecuted",
      "type": "error"
    },
    {
      "inputs": [],
      "name": "EpochNotVotable",
      "type": "error"
    },
    {
      "inputs": [],
      "name": "FailedInnerCall",
      "type": "error"
    },
    {
      "inputs": [],
      "name": "InconsistentPrevCheckpoint",
      "type": "error"
    },
    {
      "inputs": [],
      "name": "InsufficientFunds",
      "type": "error"
    },
    {
      "inputs": [],
      "name": "InvalidActorAddress",
      "type": "error"
    },
    {
      "inputs": [],
      "name": "InvalidCheckpointEpoch",
      "type": "error"
    },
    {
      "inputs": [],
      "name": "InvalidCheckpointSource",
      "type": "error"
    },
    {
      "inputs": [],
      "name": "InvalidCrossMsgDestinationSubnet",
      "type": "error"
    },
    {
      "inputs": [],
      "name": "InvalidCrossMsgFromSubnetId",
      "type": "error"
    },
    {
      "inputs": [],
      "name": "InvalidCrossMsgNonce",
      "type": "error"
    },
    {
      "inputs": [],
      "name": "InvalidCrossMsgsSortOrder",
      "type": "error"
    },
    {
      "inputs": [],
      "name": "InvalidMajorityPercentage",
      "type": "error"
    },
    {
      "inputs": [],
      "name": "MessagesNotSorted",
      "type": "error"
    },
    {
      "inputs": [],
      "name": "MethodNotSupportedYet",
      "type": "error"
    },
    {
      "inputs": [],
      "name": "NotEmptySubnetCircSupply",
      "type": "error"
    },
    {
      "inputs": [],
      "name": "NotEnoughBalance",
      "type": "error"
    },
    {
      "inputs": [],
      "name": "NotEnoughFee",
      "type": "error"
    },
    {
      "inputs": [],
      "name": "NotEnoughFunds",
      "type": "error"
    },
    {
      "inputs": [],
      "name": "NotEnoughFundsForMembership",
      "type": "error"
    },
    {
      "inputs": [],
      "name": "NotEnoughFundsToRelease",
      "type": "error"
    },
    {
      "inputs": [],
      "name": "NotEnoughSubnetCircSupply",
      "type": "error"
    },
    {
      "inputs": [],
      "name": "NotInitialized",
      "type": "error"
    },
    {
      "inputs": [],
      "name": "NotRegisteredSubnet",
      "type": "error"
    },
    {
      "inputs": [],
      "name": "NotSignableAccount",
      "type": "error"
    },
    {
      "inputs": [],
      "name": "NotSystemActor",
      "type": "error"
    },
    {
      "inputs": [],
      "name": "NotValidator",
      "type": "error"
    },
    {
      "inputs": [],
      "name": "PostboxNotExist",
      "type": "error"
    },
    {
      "inputs": [],
      "name": "ReentrancyGuardReentrantCall",
      "type": "error"
    },
    {
      "inputs": [],
      "name": "SubnetNotActive",
      "type": "error"
    },
    {
      "inputs": [],
      "name": "ValidatorAlreadyVoted",
      "type": "error"
    },
    {
      "inputs": [],
      "name": "ValidatorWeightIsZero",
      "type": "error"
    },
    {
      "inputs": [],
      "name": "ValidatorsAndWeightsLengthMismatch",
      "type": "error"
    },
    {
      "inputs": [],
      "name": "MIN_CHECKPOINT_PERIOD",
      "outputs": [
        {
          "internalType": "uint8",
          "name": "",
          "type": "uint8"
        }
      ],
      "stateMutability": "view",
      "type": "function"
    },
    {
      "inputs": [],
      "name": "MIN_COLLATERAL_AMOUNT",
      "outputs": [
        {
          "internalType": "uint256",
          "name": "",
          "type": "uint256"
        }
      ],
      "stateMutability": "view",
      "type": "function"
    },
    {
      "inputs": [],
      "name": "addStake",
      "outputs": [],
      "stateMutability": "payable",
      "type": "function"
    },
    {
      "inputs": [],
      "name": "appliedTopDownNonce",
      "outputs": [
        {
          "internalType": "uint64",
          "name": "",
          "type": "uint64"
        }
      ],
      "stateMutability": "view",
      "type": "function"
    },
    {
      "inputs": [],
      "name": "bottomUpCheckPeriod",
      "outputs": [
        {
          "internalType": "uint64",
          "name": "",
          "type": "uint64"
        }
      ],
      "stateMutability": "view",
      "type": "function"
    },
    {
      "inputs": [
        {
          "internalType": "uint64",
          "name": "epoch",
          "type": "uint64"
        }
      ],
      "name": "bottomUpCheckpointAtEpoch",
      "outputs": [
        {
          "internalType": "bool",
          "name": "exists",
          "type": "bool"
        },
        {
          "components": [
            {
              "components": [
                {
                  "internalType": "uint64",
                  "name": "root",
                  "type": "uint64"
                },
                {
                  "internalType": "address[]",
                  "name": "route",
                  "type": "address[]"
                }
              ],
              "internalType": "struct SubnetID",
              "name": "source",
              "type": "tuple"
            },
            {
              "internalType": "uint64",
              "name": "epoch",
              "type": "uint64"
            },
            {
              "internalType": "uint256",
              "name": "fee",
              "type": "uint256"
            },
            {
              "components": [
                {
                  "components": [
                    {
                      "components": [
                        {
                          "components": [
                            {
                              "internalType": "uint64",
                              "name": "root",
                              "type": "uint64"
                            },
                            {
                              "internalType": "address[]",
                              "name": "route",
                              "type": "address[]"
                            }
                          ],
                          "internalType": "struct SubnetID",
                          "name": "subnetId",
                          "type": "tuple"
                        },
                        {
                          "components": [
                            {
                              "internalType": "uint8",
                              "name": "addrType",
                              "type": "uint8"
                            },
                            {
                              "internalType": "bytes",
                              "name": "payload",
                              "type": "bytes"
                            }
                          ],
                          "internalType": "struct FvmAddress",
                          "name": "rawAddress",
                          "type": "tuple"
                        }
                      ],
                      "internalType": "struct IPCAddress",
                      "name": "from",
                      "type": "tuple"
                    },
                    {
                      "components": [
                        {
                          "components": [
                            {
                              "internalType": "uint64",
                              "name": "root",
                              "type": "uint64"
                            },
                            {
                              "internalType": "address[]",
                              "name": "route",
                              "type": "address[]"
                            }
                          ],
                          "internalType": "struct SubnetID",
                          "name": "subnetId",
                          "type": "tuple"
                        },
                        {
                          "components": [
                            {
                              "internalType": "uint8",
                              "name": "addrType",
                              "type": "uint8"
                            },
                            {
                              "internalType": "bytes",
                              "name": "payload",
                              "type": "bytes"
                            }
                          ],
                          "internalType": "struct FvmAddress",
                          "name": "rawAddress",
                          "type": "tuple"
                        }
                      ],
                      "internalType": "struct IPCAddress",
                      "name": "to",
                      "type": "tuple"
                    },
                    {
                      "internalType": "uint256",
                      "name": "value",
                      "type": "uint256"
                    },
                    {
                      "internalType": "uint64",
                      "name": "nonce",
                      "type": "uint64"
                    },
                    {
                      "internalType": "bytes4",
                      "name": "method",
                      "type": "bytes4"
                    },
                    {
                      "internalType": "bytes",
                      "name": "params",
                      "type": "bytes"
                    }
                  ],
                  "internalType": "struct StorableMsg",
                  "name": "message",
                  "type": "tuple"
                },
                {
                  "internalType": "bool",
                  "name": "wrapped",
                  "type": "bool"
                }
              ],
              "internalType": "struct CrossMsg[]",
              "name": "crossMsgs",
              "type": "tuple[]"
            },
            {
              "components": [
                {
                  "components": [
                    {
                      "internalType": "uint64",
                      "name": "root",
                      "type": "uint64"
                    },
                    {
                      "internalType": "address[]",
                      "name": "route",
                      "type": "address[]"
                    }
                  ],
                  "internalType": "struct SubnetID",
                  "name": "source",
                  "type": "tuple"
                },
                {
                  "internalType": "bytes32[]",
                  "name": "checks",
                  "type": "bytes32[]"
                }
              ],
              "internalType": "struct ChildCheck[]",
              "name": "children",
              "type": "tuple[]"
            },
            {
              "internalType": "bytes32",
              "name": "prevHash",
              "type": "bytes32"
            },
            {
              "internalType": "bytes",
              "name": "proof",
              "type": "bytes"
            }
          ],
          "internalType": "struct BottomUpCheckpoint",
          "name": "checkpoint",
          "type": "tuple"
        }
      ],
      "stateMutability": "view",
      "type": "function"
    },
    {
      "inputs": [
        {
          "internalType": "uint64",
          "name": "epoch",
          "type": "uint64"
        }
      ],
      "name": "bottomUpCheckpointHashAtEpoch",
      "outputs": [
        {
          "internalType": "bool",
          "name": "",
          "type": "bool"
        },
        {
          "internalType": "bytes32",
          "name": "",
          "type": "bytes32"
        }
      ],
      "stateMutability": "view",
      "type": "function"
    },
    {
      "inputs": [
        {
          "internalType": "uint64",
          "name": "",
          "type": "uint64"
        }
      ],
      "name": "bottomUpCheckpoints",
      "outputs": [
        {
          "components": [
            {
              "internalType": "uint64",
              "name": "root",
              "type": "uint64"
            },
            {
              "internalType": "address[]",
              "name": "route",
              "type": "address[]"
            }
          ],
          "internalType": "struct SubnetID",
          "name": "source",
          "type": "tuple"
        },
        {
          "internalType": "uint64",
          "name": "epoch",
          "type": "uint64"
        },
        {
          "internalType": "uint256",
          "name": "fee",
          "type": "uint256"
        },
        {
          "internalType": "bytes32",
          "name": "prevHash",
          "type": "bytes32"
        },
        {
          "internalType": "bytes",
          "name": "proof",
          "type": "bytes"
        }
      ],
      "stateMutability": "view",
      "type": "function"
    },
    {
      "inputs": [],
      "name": "bottomUpNonce",
      "outputs": [
        {
          "internalType": "uint64",
          "name": "",
          "type": "uint64"
        }
      ],
      "stateMutability": "view",
      "type": "function"
    },
    {
      "inputs": [
        {
          "components": [
            {
              "components": [
                {
                  "internalType": "uint64",
                  "name": "root",
                  "type": "uint64"
                },
                {
                  "internalType": "address[]",
                  "name": "route",
                  "type": "address[]"
                }
              ],
              "internalType": "struct SubnetID",
              "name": "source",
              "type": "tuple"
            },
            {
              "internalType": "uint64",
              "name": "epoch",
              "type": "uint64"
            },
            {
              "internalType": "uint256",
              "name": "fee",
              "type": "uint256"
            },
            {
              "components": [
                {
                  "components": [
                    {
                      "components": [
                        {
                          "components": [
                            {
                              "internalType": "uint64",
                              "name": "root",
                              "type": "uint64"
                            },
                            {
                              "internalType": "address[]",
                              "name": "route",
                              "type": "address[]"
                            }
                          ],
                          "internalType": "struct SubnetID",
                          "name": "subnetId",
                          "type": "tuple"
                        },
                        {
                          "components": [
                            {
                              "internalType": "uint8",
                              "name": "addrType",
                              "type": "uint8"
                            },
                            {
                              "internalType": "bytes",
                              "name": "payload",
                              "type": "bytes"
                            }
                          ],
                          "internalType": "struct FvmAddress",
                          "name": "rawAddress",
                          "type": "tuple"
                        }
                      ],
                      "internalType": "struct IPCAddress",
                      "name": "from",
                      "type": "tuple"
                    },
                    {
                      "components": [
                        {
                          "components": [
                            {
                              "internalType": "uint64",
                              "name": "root",
                              "type": "uint64"
                            },
                            {
                              "internalType": "address[]",
                              "name": "route",
                              "type": "address[]"
                            }
                          ],
                          "internalType": "struct SubnetID",
                          "name": "subnetId",
                          "type": "tuple"
                        },
                        {
                          "components": [
                            {
                              "internalType": "uint8",
                              "name": "addrType",
                              "type": "uint8"
                            },
                            {
                              "internalType": "bytes",
                              "name": "payload",
                              "type": "bytes"
                            }
                          ],
                          "internalType": "struct FvmAddress",
                          "name": "rawAddress",
                          "type": "tuple"
                        }
                      ],
                      "internalType": "struct IPCAddress",
                      "name": "to",
                      "type": "tuple"
                    },
                    {
                      "internalType": "uint256",
                      "name": "value",
                      "type": "uint256"
                    },
                    {
                      "internalType": "uint64",
                      "name": "nonce",
                      "type": "uint64"
                    },
                    {
                      "internalType": "bytes4",
                      "name": "method",
                      "type": "bytes4"
                    },
                    {
                      "internalType": "bytes",
                      "name": "params",
                      "type": "bytes"
                    }
                  ],
                  "internalType": "struct StorableMsg",
                  "name": "message",
                  "type": "tuple"
                },
                {
                  "internalType": "bool",
                  "name": "wrapped",
                  "type": "bool"
                }
              ],
              "internalType": "struct CrossMsg[]",
              "name": "crossMsgs",
              "type": "tuple[]"
            },
            {
              "components": [
                {
                  "components": [
                    {
                      "internalType": "uint64",
                      "name": "root",
                      "type": "uint64"
                    },
                    {
                      "internalType": "address[]",
                      "name": "route",
                      "type": "address[]"
                    }
                  ],
                  "internalType": "struct SubnetID",
                  "name": "source",
                  "type": "tuple"
                },
                {
                  "internalType": "bytes32[]",
                  "name": "checks",
                  "type": "bytes32[]"
                }
              ],
              "internalType": "struct ChildCheck[]",
              "name": "children",
              "type": "tuple[]"
            },
            {
              "internalType": "bytes32",
              "name": "prevHash",
              "type": "bytes32"
            },
            {
              "internalType": "bytes",
              "name": "proof",
              "type": "bytes"
            }
          ],
          "internalType": "struct BottomUpCheckpoint",
          "name": "commit",
          "type": "tuple"
        }
      ],
      "name": "commitChildCheck",
      "outputs": [],
      "stateMutability": "nonpayable",
      "type": "function"
    },
    {
      "inputs": [],
      "name": "crossMsgFee",
      "outputs": [
        {
          "internalType": "uint256",
          "name": "",
          "type": "uint256"
        }
      ],
      "stateMutability": "view",
      "type": "function"
    },
    {
      "inputs": [],
      "name": "executableQueue",
      "outputs": [
        {
          "internalType": "uint64",
          "name": "period",
          "type": "uint64"
        },
        {
          "internalType": "uint64",
          "name": "first",
          "type": "uint64"
        },
        {
          "internalType": "uint64",
          "name": "last",
          "type": "uint64"
        }
      ],
      "stateMutability": "view",
      "type": "function"
    },
    {
      "inputs": [
        {
          "components": [
            {
              "internalType": "uint64",
              "name": "root",
              "type": "uint64"
            },
            {
              "internalType": "address[]",
              "name": "route",
              "type": "address[]"
            }
          ],
          "internalType": "struct SubnetID",
          "name": "subnetId",
          "type": "tuple"
        },
        {
          "components": [
            {
              "internalType": "uint8",
              "name": "addrType",
              "type": "uint8"
            },
            {
              "internalType": "bytes",
              "name": "payload",
              "type": "bytes"
            }
          ],
          "internalType": "struct FvmAddress",
          "name": "to",
          "type": "tuple"
        }
      ],
      "name": "fund",
      "outputs": [],
      "stateMutability": "payable",
      "type": "function"
    },
    {
      "inputs": [],
      "name": "getGenesisEpoch",
      "outputs": [
        {
          "internalType": "uint64",
          "name": "",
          "type": "uint64"
        }
      ],
      "stateMutability": "view",
      "type": "function"
    },
    {
      "inputs": [],
      "name": "getNetworkName",
      "outputs": [
        {
          "components": [
            {
              "internalType": "uint64",
              "name": "root",
              "type": "uint64"
            },
            {
              "internalType": "address[]",
              "name": "route",
              "type": "address[]"
            }
          ],
          "internalType": "struct SubnetID",
          "name": "",
          "type": "tuple"
        }
      ],
      "stateMutability": "view",
      "type": "function"
    },
    {
      "inputs": [
        {
          "components": [
            {
              "internalType": "uint64",
              "name": "root",
              "type": "uint64"
            },
            {
              "internalType": "address[]",
              "name": "route",
              "type": "address[]"
            }
          ],
          "internalType": "struct SubnetID",
          "name": "subnetId",
          "type": "tuple"
        }
      ],
      "name": "getSubnet",
      "outputs": [
        {
          "internalType": "bool",
          "name": "",
          "type": "bool"
        },
        {
          "components": [
            {
              "internalType": "enum Status",
              "name": "status",
              "type": "uint8"
            },
            {
              "internalType": "uint64",
              "name": "topDownNonce",
              "type": "uint64"
            },
            {
              "internalType": "uint64",
              "name": "appliedBottomUpNonce",
              "type": "uint64"
            },
            {
              "internalType": "uint256",
              "name": "stake",
              "type": "uint256"
            },
            {
              "internalType": "uint256",
              "name": "genesisEpoch",
              "type": "uint256"
            },
            {
              "internalType": "uint256",
              "name": "circSupply",
              "type": "uint256"
            },
            {
              "components": [
                {
                  "internalType": "uint64",
                  "name": "root",
                  "type": "uint64"
                },
                {
                  "internalType": "address[]",
                  "name": "route",
                  "type": "address[]"
                }
              ],
              "internalType": "struct SubnetID",
              "name": "id",
              "type": "tuple"
            },
            {
              "components": [
                {
                  "components": [
                    {
                      "internalType": "uint64",
                      "name": "root",
                      "type": "uint64"
                    },
                    {
                      "internalType": "address[]",
                      "name": "route",
                      "type": "address[]"
                    }
                  ],
                  "internalType": "struct SubnetID",
                  "name": "source",
                  "type": "tuple"
                },
                {
                  "internalType": "uint64",
                  "name": "epoch",
                  "type": "uint64"
                },
                {
                  "internalType": "uint256",
                  "name": "fee",
                  "type": "uint256"
                },
                {
                  "components": [
                    {
                      "components": [
                        {
                          "components": [
                            {
                              "components": [
                                {
                                  "internalType": "uint64",
                                  "name": "root",
                                  "type": "uint64"
                                },
                                {
                                  "internalType": "address[]",
                                  "name": "route",
                                  "type": "address[]"
                                }
                              ],
                              "internalType": "struct SubnetID",
                              "name": "subnetId",
                              "type": "tuple"
                            },
                            {
                              "components": [
                                {
                                  "internalType": "uint8",
                                  "name": "addrType",
                                  "type": "uint8"
                                },
                                {
                                  "internalType": "bytes",
                                  "name": "payload",
                                  "type": "bytes"
                                }
                              ],
                              "internalType": "struct FvmAddress",
                              "name": "rawAddress",
                              "type": "tuple"
                            }
                          ],
                          "internalType": "struct IPCAddress",
                          "name": "from",
                          "type": "tuple"
                        },
                        {
                          "components": [
                            {
                              "components": [
                                {
                                  "internalType": "uint64",
                                  "name": "root",
                                  "type": "uint64"
                                },
                                {
                                  "internalType": "address[]",
                                  "name": "route",
                                  "type": "address[]"
                                }
                              ],
                              "internalType": "struct SubnetID",
                              "name": "subnetId",
                              "type": "tuple"
                            },
                            {
                              "components": [
                                {
                                  "internalType": "uint8",
                                  "name": "addrType",
                                  "type": "uint8"
                                },
                                {
                                  "internalType": "bytes",
                                  "name": "payload",
                                  "type": "bytes"
                                }
                              ],
                              "internalType": "struct FvmAddress",
                              "name": "rawAddress",
                              "type": "tuple"
                            }
                          ],
                          "internalType": "struct IPCAddress",
                          "name": "to",
                          "type": "tuple"
                        },
                        {
                          "internalType": "uint256",
                          "name": "value",
                          "type": "uint256"
                        },
                        {
                          "internalType": "uint64",
                          "name": "nonce",
                          "type": "uint64"
                        },
                        {
                          "internalType": "bytes4",
                          "name": "method",
                          "type": "bytes4"
                        },
                        {
                          "internalType": "bytes",
                          "name": "params",
                          "type": "bytes"
                        }
                      ],
                      "internalType": "struct StorableMsg",
                      "name": "message",
                      "type": "tuple"
                    },
                    {
                      "internalType": "bool",
                      "name": "wrapped",
                      "type": "bool"
                    }
                  ],
                  "internalType": "struct CrossMsg[]",
                  "name": "crossMsgs",
                  "type": "tuple[]"
                },
                {
                  "components": [
                    {
                      "components": [
                        {
                          "internalType": "uint64",
                          "name": "root",
                          "type": "uint64"
                        },
                        {
                          "internalType": "address[]",
                          "name": "route",
                          "type": "address[]"
                        }
                      ],
                      "internalType": "struct SubnetID",
                      "name": "source",
                      "type": "tuple"
                    },
                    {
                      "internalType": "bytes32[]",
                      "name": "checks",
                      "type": "bytes32[]"
                    }
                  ],
                  "internalType": "struct ChildCheck[]",
                  "name": "children",
                  "type": "tuple[]"
                },
                {
                  "internalType": "bytes32",
                  "name": "prevHash",
                  "type": "bytes32"
                },
                {
                  "internalType": "bytes",
                  "name": "proof",
                  "type": "bytes"
                }
              ],
              "internalType": "struct BottomUpCheckpoint",
              "name": "prevCheckpoint",
              "type": "tuple"
            },
            {
              "components": [
                {
                  "components": [
                    {
                      "components": [
                        {
                          "components": [
                            {
                              "internalType": "uint64",
                              "name": "root",
                              "type": "uint64"
                            },
                            {
                              "internalType": "address[]",
                              "name": "route",
                              "type": "address[]"
                            }
                          ],
                          "internalType": "struct SubnetID",
                          "name": "subnetId",
                          "type": "tuple"
                        },
                        {
                          "components": [
                            {
                              "internalType": "uint8",
                              "name": "addrType",
                              "type": "uint8"
                            },
                            {
                              "internalType": "bytes",
                              "name": "payload",
                              "type": "bytes"
                            }
                          ],
                          "internalType": "struct FvmAddress",
                          "name": "rawAddress",
                          "type": "tuple"
                        }
                      ],
                      "internalType": "struct IPCAddress",
                      "name": "from",
                      "type": "tuple"
                    },
                    {
                      "components": [
                        {
                          "components": [
                            {
                              "internalType": "uint64",
                              "name": "root",
                              "type": "uint64"
                            },
                            {
                              "internalType": "address[]",
                              "name": "route",
                              "type": "address[]"
                            }
                          ],
                          "internalType": "struct SubnetID",
                          "name": "subnetId",
                          "type": "tuple"
                        },
                        {
                          "components": [
                            {
                              "internalType": "uint8",
                              "name": "addrType",
                              "type": "uint8"
                            },
                            {
                              "internalType": "bytes",
                              "name": "payload",
                              "type": "bytes"
                            }
                          ],
                          "internalType": "struct FvmAddress",
                          "name": "rawAddress",
                          "type": "tuple"
                        }
                      ],
                      "internalType": "struct IPCAddress",
                      "name": "to",
                      "type": "tuple"
                    },
                    {
                      "internalType": "uint256",
                      "name": "value",
                      "type": "uint256"
                    },
                    {
                      "internalType": "uint64",
                      "name": "nonce",
                      "type": "uint64"
                    },
                    {
                      "internalType": "bytes4",
                      "name": "method",
                      "type": "bytes4"
                    },
                    {
                      "internalType": "bytes",
                      "name": "params",
                      "type": "bytes"
                    }
                  ],
                  "internalType": "struct StorableMsg",
                  "name": "message",
                  "type": "tuple"
                },
                {
                  "internalType": "bool",
                  "name": "wrapped",
                  "type": "bool"
                }
              ],
              "internalType": "struct CrossMsg[]",
              "name": "topDownMsgs",
              "type": "tuple[]"
            }
          ],
          "internalType": "struct Subnet",
          "name": "",
          "type": "tuple"
        }
      ],
      "stateMutability": "view",
      "type": "function"
    },
    {
      "inputs": [
        {
          "components": [
            {
              "internalType": "uint64",
              "name": "root",
              "type": "uint64"
            },
            {
              "internalType": "address[]",
              "name": "route",
              "type": "address[]"
            }
          ],
          "internalType": "struct SubnetID",
          "name": "subnetId",
          "type": "tuple"
        },
        {
          "internalType": "uint256",
          "name": "index",
          "type": "uint256"
        }
      ],
      "name": "getSubnetTopDownMsg",
      "outputs": [
        {
          "components": [
            {
              "components": [
                {
                  "components": [
                    {
                      "components": [
                        {
                          "internalType": "uint64",
                          "name": "root",
                          "type": "uint64"
                        },
                        {
                          "internalType": "address[]",
                          "name": "route",
                          "type": "address[]"
                        }
                      ],
                      "internalType": "struct SubnetID",
                      "name": "subnetId",
                      "type": "tuple"
                    },
                    {
                      "components": [
                        {
                          "internalType": "uint8",
                          "name": "addrType",
                          "type": "uint8"
                        },
                        {
                          "internalType": "bytes",
                          "name": "payload",
                          "type": "bytes"
                        }
                      ],
                      "internalType": "struct FvmAddress",
                      "name": "rawAddress",
                      "type": "tuple"
                    }
                  ],
                  "internalType": "struct IPCAddress",
                  "name": "from",
                  "type": "tuple"
                },
                {
                  "components": [
                    {
                      "components": [
                        {
                          "internalType": "uint64",
                          "name": "root",
                          "type": "uint64"
                        },
                        {
                          "internalType": "address[]",
                          "name": "route",
                          "type": "address[]"
                        }
                      ],
                      "internalType": "struct SubnetID",
                      "name": "subnetId",
                      "type": "tuple"
                    },
                    {
                      "components": [
                        {
                          "internalType": "uint8",
                          "name": "addrType",
                          "type": "uint8"
                        },
                        {
                          "internalType": "bytes",
                          "name": "payload",
                          "type": "bytes"
                        }
                      ],
                      "internalType": "struct FvmAddress",
                      "name": "rawAddress",
                      "type": "tuple"
                    }
                  ],
                  "internalType": "struct IPCAddress",
                  "name": "to",
                  "type": "tuple"
                },
                {
                  "internalType": "uint256",
                  "name": "value",
                  "type": "uint256"
                },
                {
                  "internalType": "uint64",
                  "name": "nonce",
                  "type": "uint64"
                },
                {
                  "internalType": "bytes4",
                  "name": "method",
                  "type": "bytes4"
                },
                {
                  "internalType": "bytes",
                  "name": "params",
                  "type": "bytes"
                }
              ],
              "internalType": "struct StorableMsg",
              "name": "message",
              "type": "tuple"
            },
            {
              "internalType": "bool",
              "name": "wrapped",
              "type": "bool"
            }
          ],
          "internalType": "struct CrossMsg",
          "name": "",
          "type": "tuple"
        }
      ],
      "stateMutability": "view",
      "type": "function"
    },
    {
      "inputs": [
        {
          "components": [
            {
              "internalType": "uint64",
              "name": "root",
              "type": "uint64"
            },
            {
              "internalType": "address[]",
              "name": "route",
              "type": "address[]"
            }
          ],
          "internalType": "struct SubnetID",
          "name": "subnetId",
          "type": "tuple"
        }
      ],
      "name": "getSubnetTopDownMsgsLength",
      "outputs": [
        {
          "internalType": "uint256",
          "name": "",
          "type": "uint256"
        }
      ],
      "stateMutability": "view",
      "type": "function"
    },
    {
      "inputs": [
        {
          "components": [
            {
              "internalType": "uint64",
              "name": "root",
              "type": "uint64"
            },
            {
              "internalType": "address[]",
              "name": "route",
              "type": "address[]"
            }
          ],
          "internalType": "struct SubnetID",
          "name": "subnetId",
          "type": "tuple"
        },
        {
          "internalType": "uint64",
          "name": "fromNonce",
          "type": "uint64"
        }
      ],
      "name": "getTopDownMsgs",
      "outputs": [
        {
          "components": [
            {
              "components": [
                {
                  "components": [
                    {
                      "components": [
                        {
                          "internalType": "uint64",
                          "name": "root",
                          "type": "uint64"
                        },
                        {
                          "internalType": "address[]",
                          "name": "route",
                          "type": "address[]"
                        }
                      ],
                      "internalType": "struct SubnetID",
                      "name": "subnetId",
                      "type": "tuple"
                    },
                    {
                      "components": [
                        {
                          "internalType": "uint8",
                          "name": "addrType",
                          "type": "uint8"
                        },
                        {
                          "internalType": "bytes",
                          "name": "payload",
                          "type": "bytes"
                        }
                      ],
                      "internalType": "struct FvmAddress",
                      "name": "rawAddress",
                      "type": "tuple"
                    }
                  ],
                  "internalType": "struct IPCAddress",
                  "name": "from",
                  "type": "tuple"
                },
                {
                  "components": [
                    {
                      "components": [
                        {
                          "internalType": "uint64",
                          "name": "root",
                          "type": "uint64"
                        },
                        {
                          "internalType": "address[]",
                          "name": "route",
                          "type": "address[]"
                        }
                      ],
                      "internalType": "struct SubnetID",
                      "name": "subnetId",
                      "type": "tuple"
                    },
                    {
                      "components": [
                        {
                          "internalType": "uint8",
                          "name": "addrType",
                          "type": "uint8"
                        },
                        {
                          "internalType": "bytes",
                          "name": "payload",
                          "type": "bytes"
                        }
                      ],
                      "internalType": "struct FvmAddress",
                      "name": "rawAddress",
                      "type": "tuple"
                    }
                  ],
                  "internalType": "struct IPCAddress",
                  "name": "to",
                  "type": "tuple"
                },
                {
                  "internalType": "uint256",
                  "name": "value",
                  "type": "uint256"
                },
                {
                  "internalType": "uint64",
                  "name": "nonce",
                  "type": "uint64"
                },
                {
                  "internalType": "bytes4",
                  "name": "method",
                  "type": "bytes4"
                },
                {
                  "internalType": "bytes",
                  "name": "params",
                  "type": "bytes"
                }
              ],
              "internalType": "struct StorableMsg",
              "name": "message",
              "type": "tuple"
            },
            {
              "internalType": "bool",
              "name": "wrapped",
              "type": "bool"
            }
          ],
          "internalType": "struct CrossMsg[]",
          "name": "",
          "type": "tuple[]"
        }
      ],
      "stateMutability": "view",
      "type": "function"
    },
    {
      "inputs": [
        {
          "internalType": "uint64",
          "name": "epoch",
          "type": "uint64"
        },
        {
          "internalType": "address",
          "name": "submitter",
          "type": "address"
        }
      ],
      "name": "hasValidatorVotedForSubmission",
      "outputs": [
        {
          "internalType": "bool",
          "name": "",
          "type": "bool"
        }
      ],
      "stateMutability": "view",
      "type": "function"
    },
    {
      "inputs": [
        {
          "internalType": "uint64",
          "name": "genesisEpoch",
          "type": "uint64"
        }
      ],
      "name": "initGenesisEpoch",
      "outputs": [],
      "stateMutability": "nonpayable",
      "type": "function"
    },
    {
      "inputs": [],
      "name": "initialized",
      "outputs": [
        {
          "internalType": "bool",
          "name": "",
          "type": "bool"
        }
      ],
      "stateMutability": "view",
      "type": "function"
    },
    {
      "inputs": [],
      "name": "kill",
      "outputs": [],
      "stateMutability": "nonpayable",
      "type": "function"
    },
    {
      "inputs": [],
      "name": "lastVotingExecutedEpoch",
      "outputs": [
        {
          "internalType": "uint64",
          "name": "",
          "type": "uint64"
        }
      ],
      "stateMutability": "view",
      "type": "function"
    },
    {
      "inputs": [],
      "name": "listSubnets",
      "outputs": [
        {
          "components": [
            {
              "internalType": "enum Status",
              "name": "status",
              "type": "uint8"
            },
            {
              "internalType": "uint64",
              "name": "topDownNonce",
              "type": "uint64"
            },
            {
              "internalType": "uint64",
              "name": "appliedBottomUpNonce",
              "type": "uint64"
            },
            {
              "internalType": "uint256",
              "name": "stake",
              "type": "uint256"
            },
            {
              "internalType": "uint256",
              "name": "genesisEpoch",
              "type": "uint256"
            },
            {
              "internalType": "uint256",
              "name": "circSupply",
              "type": "uint256"
            },
            {
              "components": [
                {
                  "internalType": "uint64",
                  "name": "root",
                  "type": "uint64"
                },
                {
                  "internalType": "address[]",
                  "name": "route",
                  "type": "address[]"
                }
              ],
              "internalType": "struct SubnetID",
              "name": "id",
              "type": "tuple"
            },
            {
              "components": [
                {
                  "components": [
                    {
                      "internalType": "uint64",
                      "name": "root",
                      "type": "uint64"
                    },
                    {
                      "internalType": "address[]",
                      "name": "route",
                      "type": "address[]"
                    }
                  ],
                  "internalType": "struct SubnetID",
                  "name": "source",
                  "type": "tuple"
                },
                {
                  "internalType": "uint64",
                  "name": "epoch",
                  "type": "uint64"
                },
                {
                  "internalType": "uint256",
                  "name": "fee",
                  "type": "uint256"
                },
                {
                  "components": [
                    {
                      "components": [
                        {
                          "components": [
                            {
                              "components": [
                                {
                                  "internalType": "uint64",
                                  "name": "root",
                                  "type": "uint64"
                                },
                                {
                                  "internalType": "address[]",
                                  "name": "route",
                                  "type": "address[]"
                                }
                              ],
                              "internalType": "struct SubnetID",
                              "name": "subnetId",
                              "type": "tuple"
                            },
                            {
                              "components": [
                                {
                                  "internalType": "uint8",
                                  "name": "addrType",
                                  "type": "uint8"
                                },
                                {
                                  "internalType": "bytes",
                                  "name": "payload",
                                  "type": "bytes"
                                }
                              ],
                              "internalType": "struct FvmAddress",
                              "name": "rawAddress",
                              "type": "tuple"
                            }
                          ],
                          "internalType": "struct IPCAddress",
                          "name": "from",
                          "type": "tuple"
                        },
                        {
                          "components": [
                            {
                              "components": [
                                {
                                  "internalType": "uint64",
                                  "name": "root",
                                  "type": "uint64"
                                },
                                {
                                  "internalType": "address[]",
                                  "name": "route",
                                  "type": "address[]"
                                }
                              ],
                              "internalType": "struct SubnetID",
                              "name": "subnetId",
                              "type": "tuple"
                            },
                            {
                              "components": [
                                {
                                  "internalType": "uint8",
                                  "name": "addrType",
                                  "type": "uint8"
                                },
                                {
                                  "internalType": "bytes",
                                  "name": "payload",
                                  "type": "bytes"
                                }
                              ],
                              "internalType": "struct FvmAddress",
                              "name": "rawAddress",
                              "type": "tuple"
                            }
                          ],
                          "internalType": "struct IPCAddress",
                          "name": "to",
                          "type": "tuple"
                        },
                        {
                          "internalType": "uint256",
                          "name": "value",
                          "type": "uint256"
                        },
                        {
                          "internalType": "uint64",
                          "name": "nonce",
                          "type": "uint64"
                        },
                        {
                          "internalType": "bytes4",
                          "name": "method",
                          "type": "bytes4"
                        },
                        {
                          "internalType": "bytes",
                          "name": "params",
                          "type": "bytes"
                        }
                      ],
                      "internalType": "struct StorableMsg",
                      "name": "message",
                      "type": "tuple"
                    },
                    {
                      "internalType": "bool",
                      "name": "wrapped",
                      "type": "bool"
                    }
                  ],
                  "internalType": "struct CrossMsg[]",
                  "name": "crossMsgs",
                  "type": "tuple[]"
                },
                {
                  "components": [
                    {
                      "components": [
                        {
                          "internalType": "uint64",
                          "name": "root",
                          "type": "uint64"
                        },
                        {
                          "internalType": "address[]",
                          "name": "route",
                          "type": "address[]"
                        }
                      ],
                      "internalType": "struct SubnetID",
                      "name": "source",
                      "type": "tuple"
                    },
                    {
                      "internalType": "bytes32[]",
                      "name": "checks",
                      "type": "bytes32[]"
                    }
                  ],
                  "internalType": "struct ChildCheck[]",
                  "name": "children",
                  "type": "tuple[]"
                },
                {
                  "internalType": "bytes32",
                  "name": "prevHash",
                  "type": "bytes32"
                },
                {
                  "internalType": "bytes",
                  "name": "proof",
                  "type": "bytes"
                }
              ],
              "internalType": "struct BottomUpCheckpoint",
              "name": "prevCheckpoint",
              "type": "tuple"
            },
            {
              "components": [
                {
                  "components": [
                    {
                      "components": [
                        {
                          "components": [
                            {
                              "internalType": "uint64",
                              "name": "root",
                              "type": "uint64"
                            },
                            {
                              "internalType": "address[]",
                              "name": "route",
                              "type": "address[]"
                            }
                          ],
                          "internalType": "struct SubnetID",
                          "name": "subnetId",
                          "type": "tuple"
                        },
                        {
                          "components": [
                            {
                              "internalType": "uint8",
                              "name": "addrType",
                              "type": "uint8"
                            },
                            {
                              "internalType": "bytes",
                              "name": "payload",
                              "type": "bytes"
                            }
                          ],
                          "internalType": "struct FvmAddress",
                          "name": "rawAddress",
                          "type": "tuple"
                        }
                      ],
                      "internalType": "struct IPCAddress",
                      "name": "from",
                      "type": "tuple"
                    },
                    {
                      "components": [
                        {
                          "components": [
                            {
                              "internalType": "uint64",
                              "name": "root",
                              "type": "uint64"
                            },
                            {
                              "internalType": "address[]",
                              "name": "route",
                              "type": "address[]"
                            }
                          ],
                          "internalType": "struct SubnetID",
                          "name": "subnetId",
                          "type": "tuple"
                        },
                        {
                          "components": [
                            {
                              "internalType": "uint8",
                              "name": "addrType",
                              "type": "uint8"
                            },
                            {
                              "internalType": "bytes",
                              "name": "payload",
                              "type": "bytes"
                            }
                          ],
                          "internalType": "struct FvmAddress",
                          "name": "rawAddress",
                          "type": "tuple"
                        }
                      ],
                      "internalType": "struct IPCAddress",
                      "name": "to",
                      "type": "tuple"
                    },
                    {
                      "internalType": "uint256",
                      "name": "value",
                      "type": "uint256"
                    },
                    {
                      "internalType": "uint64",
                      "name": "nonce",
                      "type": "uint64"
                    },
                    {
                      "internalType": "bytes4",
                      "name": "method",
                      "type": "bytes4"
                    },
                    {
                      "internalType": "bytes",
                      "name": "params",
                      "type": "bytes"
                    }
                  ],
                  "internalType": "struct StorableMsg",
                  "name": "message",
                  "type": "tuple"
                },
                {
                  "internalType": "bool",
                  "name": "wrapped",
                  "type": "bool"
                }
              ],
              "internalType": "struct CrossMsg[]",
              "name": "topDownMsgs",
              "type": "tuple[]"
            }
          ],
          "internalType": "struct Subnet[]",
          "name": "",
          "type": "tuple[]"
        }
      ],
      "stateMutability": "view",
      "type": "function"
    },
    {
      "inputs": [],
      "name": "majorityPercentage",
      "outputs": [
        {
          "internalType": "uint8",
          "name": "",
          "type": "uint8"
        }
      ],
      "stateMutability": "view",
      "type": "function"
    },
    {
      "inputs": [],
      "name": "minStake",
      "outputs": [
        {
          "internalType": "uint256",
          "name": "",
          "type": "uint256"
        }
      ],
      "stateMutability": "view",
      "type": "function"
    },
    {
      "inputs": [
        {
          "internalType": "bytes32",
          "name": "",
          "type": "bytes32"
        }
      ],
      "name": "postbox",
      "outputs": [
        {
          "components": [
            {
              "components": [
                {
                  "components": [
                    {
                      "internalType": "uint64",
                      "name": "root",
                      "type": "uint64"
                    },
                    {
                      "internalType": "address[]",
                      "name": "route",
                      "type": "address[]"
                    }
                  ],
                  "internalType": "struct SubnetID",
                  "name": "subnetId",
                  "type": "tuple"
                },
                {
                  "components": [
                    {
                      "internalType": "uint8",
                      "name": "addrType",
                      "type": "uint8"
                    },
                    {
                      "internalType": "bytes",
                      "name": "payload",
                      "type": "bytes"
                    }
                  ],
                  "internalType": "struct FvmAddress",
                  "name": "rawAddress",
                  "type": "tuple"
                }
              ],
              "internalType": "struct IPCAddress",
              "name": "from",
              "type": "tuple"
            },
            {
              "components": [
                {
                  "components": [
                    {
                      "internalType": "uint64",
                      "name": "root",
                      "type": "uint64"
                    },
                    {
                      "internalType": "address[]",
                      "name": "route",
                      "type": "address[]"
                    }
                  ],
                  "internalType": "struct SubnetID",
                  "name": "subnetId",
                  "type": "tuple"
                },
                {
                  "components": [
                    {
                      "internalType": "uint8",
                      "name": "addrType",
                      "type": "uint8"
                    },
                    {
                      "internalType": "bytes",
                      "name": "payload",
                      "type": "bytes"
                    }
                  ],
                  "internalType": "struct FvmAddress",
                  "name": "rawAddress",
                  "type": "tuple"
                }
              ],
              "internalType": "struct IPCAddress",
              "name": "to",
              "type": "tuple"
            },
            {
              "internalType": "uint256",
              "name": "value",
              "type": "uint256"
            },
            {
              "internalType": "uint64",
              "name": "nonce",
              "type": "uint64"
            },
            {
              "internalType": "bytes4",
              "name": "method",
              "type": "bytes4"
            },
            {
              "internalType": "bytes",
              "name": "params",
              "type": "bytes"
            }
          ],
          "internalType": "struct StorableMsg",
          "name": "message",
          "type": "tuple"
        },
        {
          "internalType": "bool",
          "name": "wrapped",
          "type": "bool"
        }
      ],
      "stateMutability": "view",
      "type": "function"
    },
    {
      "inputs": [],
      "name": "register",
      "outputs": [],
      "stateMutability": "payable",
      "type": "function"
    },
    {
      "inputs": [
        {
          "components": [
            {
              "internalType": "uint8",
              "name": "addrType",
              "type": "uint8"
            },
            {
              "internalType": "bytes",
              "name": "payload",
              "type": "bytes"
            }
          ],
          "internalType": "struct FvmAddress",
          "name": "to",
          "type": "tuple"
        }
      ],
      "name": "release",
      "outputs": [],
      "stateMutability": "payable",
      "type": "function"
    },
    {
      "inputs": [
        {
          "internalType": "uint256",
          "name": "amount",
          "type": "uint256"
        }
      ],
      "name": "releaseRewards",
      "outputs": [],
      "stateMutability": "nonpayable",
      "type": "function"
    },
    {
      "inputs": [
        {
          "internalType": "uint256",
          "name": "amount",
          "type": "uint256"
        }
      ],
      "name": "releaseStake",
      "outputs": [],
      "stateMutability": "nonpayable",
      "type": "function"
    },
    {
      "inputs": [],
      "name": "submissionPeriod",
      "outputs": [
        {
          "internalType": "uint64",
          "name": "",
          "type": "uint64"
        }
      ],
      "stateMutability": "view",
      "type": "function"
    },
    {
      "inputs": [
        {
          "components": [
            {
              "internalType": "uint64",
              "name": "epoch",
              "type": "uint64"
            },
            {
              "components": [
                {
                  "components": [
                    {
                      "components": [
                        {
                          "components": [
                            {
                              "internalType": "uint64",
                              "name": "root",
                              "type": "uint64"
                            },
                            {
                              "internalType": "address[]",
                              "name": "route",
                              "type": "address[]"
                            }
                          ],
                          "internalType": "struct SubnetID",
                          "name": "subnetId",
                          "type": "tuple"
                        },
                        {
                          "components": [
                            {
                              "internalType": "uint8",
                              "name": "addrType",
                              "type": "uint8"
                            },
                            {
                              "internalType": "bytes",
                              "name": "payload",
                              "type": "bytes"
                            }
                          ],
                          "internalType": "struct FvmAddress",
                          "name": "rawAddress",
                          "type": "tuple"
                        }
                      ],
                      "internalType": "struct IPCAddress",
                      "name": "from",
                      "type": "tuple"
                    },
                    {
                      "components": [
                        {
                          "components": [
                            {
                              "internalType": "uint64",
                              "name": "root",
                              "type": "uint64"
                            },
                            {
                              "internalType": "address[]",
                              "name": "route",
                              "type": "address[]"
                            }
                          ],
                          "internalType": "struct SubnetID",
                          "name": "subnetId",
                          "type": "tuple"
                        },
                        {
                          "components": [
                            {
                              "internalType": "uint8",
                              "name": "addrType",
                              "type": "uint8"
                            },
                            {
                              "internalType": "bytes",
                              "name": "payload",
                              "type": "bytes"
                            }
                          ],
                          "internalType": "struct FvmAddress",
                          "name": "rawAddress",
                          "type": "tuple"
                        }
                      ],
                      "internalType": "struct IPCAddress",
                      "name": "to",
                      "type": "tuple"
                    },
                    {
                      "internalType": "uint256",
                      "name": "value",
                      "type": "uint256"
                    },
                    {
                      "internalType": "uint64",
                      "name": "nonce",
                      "type": "uint64"
                    },
                    {
                      "internalType": "bytes4",
                      "name": "method",
                      "type": "bytes4"
                    },
                    {
                      "internalType": "bytes",
                      "name": "params",
                      "type": "bytes"
                    }
                  ],
                  "internalType": "struct StorableMsg",
                  "name": "message",
                  "type": "tuple"
                },
                {
                  "internalType": "bool",
                  "name": "wrapped",
                  "type": "bool"
                }
              ],
              "internalType": "struct CrossMsg[]",
              "name": "topDownMsgs",
              "type": "tuple[]"
            }
          ],
          "internalType": "struct TopDownCheckpoint",
          "name": "checkpoint",
          "type": "tuple"
        }
      ],
      "name": "submitTopDownCheckpoint",
      "outputs": [],
      "stateMutability": "nonpayable",
      "type": "function"
    },
    {
      "inputs": [
        {
          "internalType": "uint256",
          "name": "",
          "type": "uint256"
        }
      ],
      "name": "subnetKeys",
      "outputs": [
        {
          "internalType": "bytes32",
          "name": "",
          "type": "bytes32"
        }
      ],
      "stateMutability": "view",
      "type": "function"
    },
    {
      "inputs": [
        {
          "internalType": "bytes32",
          "name": "",
          "type": "bytes32"
        }
      ],
      "name": "subnets",
      "outputs": [
        {
          "internalType": "enum Status",
          "name": "status",
          "type": "uint8"
        },
        {
          "internalType": "uint64",
          "name": "topDownNonce",
          "type": "uint64"
        },
        {
          "internalType": "uint64",
          "name": "appliedBottomUpNonce",
          "type": "uint64"
        },
        {
          "internalType": "uint256",
          "name": "stake",
          "type": "uint256"
        },
        {
          "internalType": "uint256",
          "name": "genesisEpoch",
          "type": "uint256"
        },
        {
          "internalType": "uint256",
          "name": "circSupply",
          "type": "uint256"
        },
        {
          "components": [
            {
              "internalType": "uint64",
              "name": "root",
              "type": "uint64"
            },
            {
              "internalType": "address[]",
              "name": "route",
              "type": "address[]"
            }
          ],
          "internalType": "struct SubnetID",
          "name": "id",
          "type": "tuple"
        },
        {
          "components": [
            {
              "components": [
                {
                  "internalType": "uint64",
                  "name": "root",
                  "type": "uint64"
                },
                {
                  "internalType": "address[]",
                  "name": "route",
                  "type": "address[]"
                }
              ],
              "internalType": "struct SubnetID",
              "name": "source",
              "type": "tuple"
            },
            {
              "internalType": "uint64",
              "name": "epoch",
              "type": "uint64"
            },
            {
              "internalType": "uint256",
              "name": "fee",
              "type": "uint256"
            },
            {
              "components": [
                {
                  "components": [
                    {
                      "components": [
                        {
                          "components": [
                            {
                              "internalType": "uint64",
                              "name": "root",
                              "type": "uint64"
                            },
                            {
                              "internalType": "address[]",
                              "name": "route",
                              "type": "address[]"
                            }
                          ],
                          "internalType": "struct SubnetID",
                          "name": "subnetId",
                          "type": "tuple"
                        },
                        {
                          "components": [
                            {
                              "internalType": "uint8",
                              "name": "addrType",
                              "type": "uint8"
                            },
                            {
                              "internalType": "bytes",
                              "name": "payload",
                              "type": "bytes"
                            }
                          ],
                          "internalType": "struct FvmAddress",
                          "name": "rawAddress",
                          "type": "tuple"
                        }
                      ],
                      "internalType": "struct IPCAddress",
                      "name": "from",
                      "type": "tuple"
                    },
                    {
                      "components": [
                        {
                          "components": [
                            {
                              "internalType": "uint64",
                              "name": "root",
                              "type": "uint64"
                            },
                            {
                              "internalType": "address[]",
                              "name": "route",
                              "type": "address[]"
                            }
                          ],
                          "internalType": "struct SubnetID",
                          "name": "subnetId",
                          "type": "tuple"
                        },
                        {
                          "components": [
                            {
                              "internalType": "uint8",
                              "name": "addrType",
                              "type": "uint8"
                            },
                            {
                              "internalType": "bytes",
                              "name": "payload",
                              "type": "bytes"
                            }
                          ],
                          "internalType": "struct FvmAddress",
                          "name": "rawAddress",
                          "type": "tuple"
                        }
                      ],
                      "internalType": "struct IPCAddress",
                      "name": "to",
                      "type": "tuple"
                    },
                    {
                      "internalType": "uint256",
                      "name": "value",
                      "type": "uint256"
                    },
                    {
                      "internalType": "uint64",
                      "name": "nonce",
                      "type": "uint64"
                    },
                    {
                      "internalType": "bytes4",
                      "name": "method",
                      "type": "bytes4"
                    },
                    {
                      "internalType": "bytes",
                      "name": "params",
                      "type": "bytes"
                    }
                  ],
                  "internalType": "struct StorableMsg",
                  "name": "message",
                  "type": "tuple"
                },
                {
                  "internalType": "bool",
                  "name": "wrapped",
                  "type": "bool"
                }
              ],
              "internalType": "struct CrossMsg[]",
              "name": "crossMsgs",
              "type": "tuple[]"
            },
            {
              "components": [
                {
                  "components": [
                    {
                      "internalType": "uint64",
                      "name": "root",
                      "type": "uint64"
                    },
                    {
                      "internalType": "address[]",
                      "name": "route",
                      "type": "address[]"
                    }
                  ],
                  "internalType": "struct SubnetID",
                  "name": "source",
                  "type": "tuple"
                },
                {
                  "internalType": "bytes32[]",
                  "name": "checks",
                  "type": "bytes32[]"
                }
              ],
              "internalType": "struct ChildCheck[]",
              "name": "children",
              "type": "tuple[]"
            },
            {
              "internalType": "bytes32",
              "name": "prevHash",
              "type": "bytes32"
            },
            {
              "internalType": "bytes",
              "name": "proof",
              "type": "bytes"
            }
          ],
          "internalType": "struct BottomUpCheckpoint",
          "name": "prevCheckpoint",
          "type": "tuple"
        }
      ],
      "stateMutability": "view",
      "type": "function"
    },
    {
      "inputs": [],
      "name": "topDownCheckPeriod",
      "outputs": [
        {
          "internalType": "uint64",
          "name": "",
          "type": "uint64"
        }
      ],
      "stateMutability": "view",
      "type": "function"
    },
    {
      "inputs": [],
      "name": "totalSubnets",
      "outputs": [
        {
          "internalType": "uint64",
          "name": "",
          "type": "uint64"
        }
      ],
      "stateMutability": "view",
      "type": "function"
    },
    {
      "inputs": [],
      "name": "totalWeight",
      "outputs": [
        {
          "internalType": "uint256",
          "name": "",
          "type": "uint256"
        }
      ],
      "stateMutability": "view",
      "type": "function"
    },
    {
      "inputs": [],
      "name": "validatorNonce",
      "outputs": [
        {
          "internalType": "uint256",
          "name": "",
          "type": "uint256"
        }
      ],
      "stateMutability": "view",
      "type": "function"
    },
    {
      "inputs": [
        {
          "internalType": "uint256",
          "name": "",
          "type": "uint256"
        },
        {
          "internalType": "address",
          "name": "",
          "type": "address"
        }
      ],
      "name": "validatorSet",
      "outputs": [
        {
          "internalType": "uint256",
          "name": "",
          "type": "uint256"
        }
      ],
      "stateMutability": "view",
      "type": "function"
    }
  ],
  "bytecode": {
    "object": "0x610140604081815234620004a357620064328038038091620000228286620004fb565b84398201906020928381840312620004a35780516001600160401b0391828211620004a357019360a085850312620004a35782519160a0830183811082821117620004c9578085528651828111620004a35787018581880312620004a3576200008b82620004df565b62000096816200051f565b82528381015190838211620004a357019580601f88011215620004a357865190838211620004c95760059782891b90885193620000d688840186620004fb565b84528680850192820101928311620004a3578601905b828210620004a85750505060c085015283526200010b8287016200051f565b928281019384526200011f8588016200051f565b91858201838152608060608a015199606085019a8b52015160ff811694858203620004a35783916080860152169060019660009588875560648111620004925760805286600a938481106000146200048b575083955b8660a0528560018060401b03199716876002541617600255518581511660049788541617875501518051908582116200047857680100000000000000008211620004785788908c83815491558084106200044b575b50908694939291018c89528989208b8a5b8481106200042c5750505050508290670de0b6b3a764000060c0525116838110600014620004265750825b60e0525116818110156200041857509791849197925b610100998a5251976101209889528751906200023882620004df565b80835416825288519081858754918281520196885285882090885b8b828210620003f957505050506200026f8286970383620004fb565b84830191825289519586946310c5511f60e31b8652850152606484019251166024840152519088604484015281518091528360848401920190865b89828210620003d857505050508190038173__$a0fe38a9a81205afccc10810b09a4d3f45$__5af4928315620003ce57829362000385575b50505062000373575b505190615efd92836200053584396080518381816124400152615db5015260a0518381816113d901528181612dae0152615d80015260c0518381816123c601528181612525015281816127b101526128f3015260e0518381816130c7015261586a015251826120620152518181816120ee0152818161287e01528181612b690152614c730152f35b60ff19601154161760115538620002eb565b9080929350813d8311620003c6575b620003a08183620004fb565b81010312620003c25751908115158203620003bf5750388080620002e2565b80fd5b5080fd5b503d62000394565b85513d84823e3d90fd5b83516001600160a01b031685528996889650948501949093019201620002aa565b83546001600160a01b03168a5298909701978a97928101920162000253565b90509791849197926200021c565b62000206565b83516001600160a01b031683820155899750928c01928d9101620001db565b8d8a528b84848c2092830192015b82811062000469575050620001ca565b8b81558c94508d910162000459565b634e487b7160e01b885260418752602488fd5b9562000175565b89516375c3b42760e01b8152600490fd5b600080fd5b81516001600160a01b0381168103620004a3578152908601908601620000ec565b634e487b7160e01b600052604160045260246000fd5b604081019081106001600160401b03821117620004c957604052565b601f909101601f19168101906001600160401b03821190821017620004c957604052565b51906001600160401b0382168203620004a35756fe6080604052600436101561001257600080fd5b6000803560e01c806302e30f9a146130f657806306c46853146130b15780630ea746f21461304557806310d500e114613008578063133f74ea14612f5e5780631354931514612ef957806313f3538814612e00578063158ef93e14612ddd578063185fde7e14612d9857806318f44b7014612b105780631aa3a008146128e5578063223d9056146128a157806324729425146128665780632cc14ea2146127d4578063375b3c0a1461279957806341b6a2e81461277057806341c0e1b51461257257806345f54485146124c857806351392fc01461249d578063548b3b3814612464578063599c7bd1146124265780635a627dbc146123765780635d0296851461226d57806366d7bbbc146122085780636b2c1eef146120d25780636cb2ecee146120915780637d9740f41461204c5780638789f83b146120215780638cfd78e714611fcd57806391be4d4114611faa57806394074b0314611f7157806396c82e5714611f53578063986acf381461137c5780639d3070b514611338578063a1ada3031461131c578063a2b67158146112f3578063ad81e244146112ca578063c66c66a114611272578063d4e149a814610315578063e17a684f146102f75763f8703bb8146101e057600080fd5b346102f4576020806003193601126102f0576004356101fd613fd6565b80156102de5761020c33615a2d565b9290156102cc5780610223600461024495016132e3565b60405180958192632cff562160e11b835284600484015260248301906136c9565b038173__$a0fe38a9a81205afccc10810b09a4d3f45$__5af49081156102c1578491610286575b5061027f92506001600160a01b0316613f87565b6001815580f35b905082813d83116102ba575b61029c8183613240565b810103126102b6576102b061027f92613d97565b3861026b565b8280fd5b503d610292565b6040513d86823e3d90fd5b604051630e991abd60e41b8152600490fd5b60405163c79cad7b60e01b8152600490fd5b5080fd5b80fd5b50346102f457806003193601126102f4576020600e54604051908152f35b50346102f4576003196020368201126102f0576001600160401b03600435116102f05760e090600435360301126102f45760ff60115416156112605761038e602061036d366103686004803501806141b0565b613a08565b60405180938192632cff562160e11b835284600484015260248301906136c9565b038173__$a0fe38a9a81205afccc10810b09a4d3f45$__5af4801561102d578290611225575b6103be9150614966565b336001600160a01b0390911603611213576103d833615a2d565b905060ff81541660068110156111ff576001036111ed5760088101546001600160401b039081169061040e6004356024016141c5565b1611156111db5760a46004350135611128575b610429615860565b91156110ce575b73__$1cd67d4dc9e627f0bec7928aa480e7d951$__3b156110ca5760405163445cc97560e01b8152600480820184905260a060248301528592906104e0906104919061047f90803501806143cb565b60e060a4860152610184850190614414565b6001600160401b036104a76004356024016139ca565b1660c48501526044600435013560e48501526104cd6064600435016004356004016143df565b85830360a3190161010487015290614566565b6104f46084600435016004356004016143df565b60a31985840301610124860152808352602083019060208160051b850101938388915b83831061103857505050505050828492610560829360a4600435013561014485015261054d60c460043501600435600401614492565b85830360a31901610164870152906144c4565b600f6044840152601060648401526001600160401b039091166084830152038173__$1cd67d4dc9e627f0bec7928aa480e7d951$__5af4801561102d57611019575b50906105b860646004350160043560040161468d565b8591505b808210610fb7575050906105dd60036105e393015460446004350135613f22565b90613f22565b600382015490808210610fa5576105f991613f2f565b600382015561063e61060f6004803501806141b0565b6001600160401b03610620826141c5565b16600684019060018060401b0319825416179055602081019061468d565b6001600160401b038111610f9157600783019161065b8284613ed6565b9184526020842091845b828110610f685785856001600160401b036106846004356024016141c5565b1660018060401b0319600883015416176008820155604460043501356009820155600a81016106bd60646004350160043560040161468d565b906106c882846140ec565b918452602084208492805b838510610a715786866106f060846004350160043560040161468d565b9190600160401b831161099157600b82015483600b8401558084106109f8575b50600b82018452602084208491805b8584106108755786600d8660a46004350135600c820155019061074c60c4600435016004356004016146d7565b9092906001600160401b038111610861576107718161076b8454613370565b84614709565b82601f82116001146107fe578394829394926107f3575b50508160011b916000199060031b1c19161790555b6107e06107d26107da6107b46004803501806141b0565b6107c860646004350160043560040161468d565b9390913690613a08565b92369161483c565b90615379565b6107f06044600435013533615967565b80f35b013590508480610788565b601f198216948385526020852091855b87811061084957508360019596971061082f575b505050811b01905561079d565b0135600019600384901b60f8161c19169055848080610822565b9092602060018192868601358155019401910161080e565b634e487b7160e01b83526041600452602483fd5b61087f81836141b0565b6108b861088c82806141b0565b6001600160401b0361089d826141c5565b87546001600160401b0319169116178655602081019061468d565b6001600160401b0381116109e45760018601916108d58284613ed6565b918a5260208a20918a5b8281106109bb57505050508060206108f892019061468d565b906001600160401b0382116109a757600160401b8211610991576002850154826002870155808310610964575b5060028501895260208920895b8381106109505750505050600360206001920193019301929161071f565b600190602084359401938184015501610932565b600286016000526020600020908382015b8183018110610985575050610925565b60008155600101610975565b634e487b7160e01b600052604160045260246000fd5b634e487b7160e01b89526041600452602489fd5b8135906001600160a01b03821682036109e057602060019293019281860155016108df565b8c80fd5b634e487b7160e01b8a52604160045260248afd5b6003818102048103610a5b576003848102048403610a5b57600b830160005260206000208460030281015b8260030282018110610a36575050610710565b80600060039255610a4960018201613eb2565b610a556002820161417b565b01610a23565b634e487b7160e01b600052601160045260246000fd5b610a7b81836141b0565b610a8581806146c2565b610a8f81806141b0565b610ac8610a9c82806141b0565b6001600160401b03610aad826141c5565b89546001600160401b0319169116178855602081019061468d565b6001600160401b038111610eb8576001880191610ae58284613ed6565b918c5260208c20918c5b828110610f435750505050610b0c600287019160208101906141b0565b80359160ff8316809303610e8b57610b319260ff1982541617905560208101906146d7565b906001600160401b038211610e77578190610b5c82610b5360038b0154613370565b60038b01614709565b8b90601f8311600114610ed7578c92610ecc575b50508160011b916000199060031b1c19161760038601555b60048501610bd4610b9c60208401846141b0565b91610ba783806141b0565b906001600160401b03610bb9836141c5565b82546001600160401b0319169116179055602081019061468d565b6001600160401b038111610eb8576005880191610bf18284613ed6565b918c5260208c20918c5b828110610e8f5750505050610c18600687019160208101906141b0565b80359160ff8316809303610e8b57610c3d9260ff1982541617905560208101906146d7565b906001600160401b038211610e77578190610c6882610c5f60078b0154613370565b60078b01614709565b8b90601f8311600114610e0b578c92610e00575b50508160011b916000199060031b1c19161760078601555b6040810135600886015560098501906001600160401b03610cb7606083016141c5565b83546001600160401b03191691161782556080810135916001600160e01b031983168303610dfc57610cf692610cec9161474e565b60a08101906146d7565b906001600160401b0382116109e457610d1f82610d16600a890154613370565b600a8901614709565b8990601f8311600114610d8c5760209392918b9183610d81575b50508160011b916000199060031b1c191617600a8601555b0135908115158203610d7d576020600c91610d71600194600b8801613d65565b019301940193916106d3565b8780fd5b013590508b80610d39565b600a87018b5260208b20918b5b601f1985168110610de4575091839160019360209695601f19811610610dca575b505050811b01600a860155610d51565b0135600019600384901b60f8161c191690558b8080610dba565b90926020600181928686013581550194019101610d99565b8a80fd5b013590508b80610c7c565b600789018d5260208d208d9450915b601f1984168510610e5f576001945083601f19811610610e45575b505050811b016007860155610c94565b0135600019600384901b60f8161c191690558b8080610e35565b81810135835560209485019460019093019201610e1a565b634e487b7160e01b8b52604160045260248bfd5b8b80fd5b8135906001600160a01b0382168203610eb45760206001929301928186015501610bfb565b8e80fd5b634e487b7160e01b8c52604160045260248cfd5b013590508b80610b70565b600389018d5260208d208d9450915b601f1984168510610f2b576001945083601f19811610610f11575b505050811b016003860155610b88565b0135600019600384901b60f8161c191690558b8080610f01565b81810135835560209485019460019093019201610ee6565b8135906001600160a01b0382168203610eb45760206001929301928186015501610aef565b8135906001600160a01b0382168203610f8d5760206001929301928186015501610665565b8680fd5b634e487b7160e01b84526041600452602484fd5b604051631d36ca1560e21b8152600490fd5b9092610fcd60646004350160043560040161468d565b851015611005576001916040610ff5610fef610ffd948960051b8101906141b0565b806146c2565b013590613f22565b9301906105bc565b634e487b7160e01b87526032600452602487fd5b611022906131c0565b6102b65782386105a2565b6040513d84823e3d90fd5b91939590929496979850601f1982820301865261105587846143cb565b9061107f61107461106684806143cb565b604084526040840190614414565b9260208101906143df565b82840360209093019290925281835290916001600160fb1b0383116110c65760208092819260019560051b809284830137010198019601930190918b989796959492610517565b8d80fd5b8380fd5b600482036110f9575b6002820180546001600160401b0319166001600160401b038316179055610430565b60045482546001600160401b0319166001600160401b03919091161782556111236001830161435a565b6110d7565b611153602061113960068401613582565b604051809381926339aa47fb60e01b83526004830161422e565b038173__$1cd67d4dc9e627f0bec7928aa480e7d951$__5af49081156111d0578391611199575b5060043560a4013514610421576040516312232e5d60e11b8152600490fd5b90506020813d6020116111c8575b816111b460209383613240565b810103126111c357513861117a565b600080fd5b3d91506111a7565b6040513d85823e3d90fd5b60405163fae4eadb60e01b8152600490fd5b60405163c18316bf60e01b8152600490fd5b634e487b7160e01b83526021600452602483fd5b604051637f39132760e11b8152600490fd5b506020813d602011611258575b8161123f60209383613240565b810103126102f0576112536103be91613d97565b6103b4565b3d9150611232565b6040516321c4e35760e21b8152600490fd5b50346102f4576112a761129f61129a61128a36613b6a565b611292613bf5565b503690613a08565b615b44565b919091613c47565b906112c660405192839215158352604060208401526040830190613adc565b0390f35b50346102f457806003193601126102f4576001546040516001600160401b039091168152602090f35b50346102f457806003193601126102f4576006546040516001600160401b039091168152602090f35b50346102f457806003193601126102f4576020604051600a8152f35b50346102f45760203660031901126102f457600435906001600160401b0382116102f4576020600e61137061129a3660048701613a08565b90500154604051908152f35b50346102f45761138b36613b6a565b611393614bd3565b61139c816141c5565b6001546001600160401b03918216918116821115611f415760401c6001600160401b031690818110611f0757036001600160401b038111611f2d577f00000000000000000000000000000000000000000000000000000000000000006001600160401b03168015611f19576001600160401b039182160616611f0757600e548252600d6020526040822033835260205260408220549060ff6011541615611260578115611ef55761147760206114548184018461468d565b604051638984147560e01b81526004810184905293849283926024840191614566565b038173__$33b79814e84bf6cf5e47244090b19ce5f8$__5af49081156102c1578491611ebb575b5015611ea9576001600160401b036114b5826141c5565b168352601260205260408320906040813603126110ca57604051926114d9846131a5565b6114e2826139ca565b845260208201356001600160401b038111611d2057820136601f82011215611d20576115389461151a6020923690848135910161483c565b8282015260405180968192630edf122560e41b835260048301614e0c565b038173__$1cd67d4dc9e627f0bec7928aa480e7d951$__5af4938415611e9e578594611e6a575b50611569826141c5565b600c549186928554918289526003870160205260408920338a5260205260ff60408a205416611e5857828891611638948b526003890160205260408b20338c5260205260408b20600160ff19825416179055600189016115ca828254613f22565b9055818b526004890160205260408b20838c526020526115ef60408c20918254613f22565b9055808a526004880160205260408a2090600289019182548c5260205260408b2054908b526004890160205260408b20838c5260205260408b205411611e50575b505085615db1565b6004811015611e3c5786919060038103611dbf575061165681615d70565b15611d37575050506001925b808552600583016020526116b6602060408720611698600160405192611687846131a5565b818060401b0381541684520161352c565b8282015260405180938192632d34315760e01b835260048301614e0c565b038173__$1cd67d4dc9e627f0bec7928aa480e7d951$__5af4908115611d2c578691611cee575b50611817575b50506060916117b6575b50805115611723575b6107f09060405161170681613225565b83815260405190611716826131a5565b8482526020820152615379565b60025460401c6001600160401b03169061173c82615d70565b611748575b90506116f6565b508152601260205261175c60408220614de1565b805461176781613359565b916117756040519384613240565b81835283526020808420849184015b83831061179857505050506107f090611741565b600c60206001926117a885613502565b815201920192019190611784565b6117c09150614de1565b80546117cb81613359565b916117d96040519384613240565b81835283526020808420849184015b8383106117f95750505050386116ed565b600c602060019261180985613502565b8152019201920191906117e8565b8452600582016020526040842090600190611855906001600160401b0361183d826141c5565b16838060401b0319855416178455602081019061468d565b919092019161186482846140ec565b918552602085208592805b83851061187e575050506116e3565b61188881836141b0565b9061189382806146c2565b61189d81806141b0565b6118aa610a9c82806141b0565b6001600160401b038111611c3d5760018801916118c78284613ed6565b918d5260208d20918d5b828110611cc857505050508060206118ea9201906141b0565b80359060ff82168203610e8b576119169160ff60028901911660ff1982541617905560208101906146d7565b906001600160401b038211610eb857819061193882610b5360038b0154613370565b8c90601f8311600114611c5c578d92611c51575b50508160011b916000199060031b1c19161760038601555b60048501611978610b9c60208401846141b0565b6001600160401b038111611c3d5760058801916119958284613ed6565b918d5260208d20918d905b828210611c1457505050508060206119b99201906141b0565b80359060ff82168203610e8b576119e59160ff60068901911660ff1982541617905560208101906146d7565b906001600160401b038211610eb8578190611a0782610c5f60078b0154613370565b8c90601f8311600114611ba8578d92611b9d575b50508160011b916000199060031b1c19161760078601555b604081013560088601556001600160401b03611a51606083016141c5565b6009870180546001600160401b0319169290911691909117905560808101356001600160e01b031981169003611b995780610cec6080611a969301356009880161474e565b906001600160401b038211610e77578190611ac182611ab8600a8a0154613370565b600a8a01614709565b8b90601f8311600114611b2d578c92611b22575b50508160011b916000199060031b1c191617600a8501555b60208201358015159003611b1e576020600c91611b12826001950135600b8801613d65565b0193019401939161186f565b8880fd5b013590503880611ad5565b600a88018d5260208d208d9450915b601f1984168510611b81576001945083601f19811610611b67575b505050811b01600a850155611aed565b0135600019600384901b60f8161c19169055388080611b57565b81810135835560209485019460019093019201611b3c565b8980fd5b013590503880611a1b565b600789018e5260208e208e9450915b601f1984168510611bfc576001945083601f19811610611be2575b505050811b016007860155611a33565b0135600019600384901b60f8161c19169055388080611bd2565b81810135835560209485019460019093019201611bb7565b8035916001600160a01b0383168303611c3957602060019201928186015501906119a0565b8f80fd5b634e487b7160e01b8d52604160045260248dfd5b01359050388061194c565b600389018e5260208e208e9450915b601f1984168510611cb0576001945083601f19811610611c96575b505050811b016003860155611964565b0135600019600384901b60f8161c19169055388080611c86565b81810135835560209485019460019093019201611c6b565b81356001600160a01b0381169003610eb4576001906020833593019281860155016118d1565b90506020813d602011611d24575b81611d0960209383613240565b81010312611d2057611d1a90613d76565b386116dd565b8580fd5b3d9150611cfc565b6040513d88823e3d90fd5b94919473__$b7b8687e33476c74e3b4e0a64c4768a343$__3b156102f05760405163199b9ca560e01b8152600260048201526001600160401b039091166024820152818160448173__$b7b8687e33476c74e3b4e0a64c4768a343$__5af4801561102d57611da7575b5050611662565b611db0906131c0565b611dbb578438611da0565b8480fd5b905060029150949194036116625773__$e0f829f5071d7e628aa77eca0c12e35bc2$__3b15611dbb57604051635a27a53960e11b815260048101849052858160248173__$e0f829f5071d7e628aa77eca0c12e35bc2$__5af48015611d2c57611e29575b50611662565b611e35909591956131c0565b9338611e23565b634e487b7160e01b87526021600452602487fd5b558638611630565b6040516337138f5f60e11b8152600490fd5b9093506020813d602011611e96575b81611e8660209383613240565b81010312611dbb5751923861155f565b3d9150611e79565b6040513d87823e3d90fd5b604051630bd9169f60e01b8152600490fd5b90506020813d602011611eed575b81611ed660209383613240565b810103126110ca57611ee790613d76565b3861149e565b3d9150611ec9565b604051632ec5b44960e01b8152600490fd5b60405163b4f68f9760e01b8152600490fd5b634e487b7160e01b84526012600452602484fd5b634e487b7160e01b83526011600452602483fd5b604051631f30cc6360e21b8152600490fd5b50346102f457806003193601126102f4576020600c54604051908152f35b50346102f457806003193601126102f457611f8a613b9b565b506112c6611f96613263565b6040519182916020835260208301906136c9565b50346102f457806003193601126102f4576020604051670de0b6b3a76400008152f35b50346102f45760203660031901126102f457604061201591600435815260096020522060ff600b611ffd83613496565b920154166040519283926040845260408401906137ab565b90151560208301520390f35b50346102f457806003193601126102f457600b546040805191901c6001600160401b03168152602090f35b50346102f457806003193601126102f4576040517f00000000000000000000000000000000000000000000000000000000000000006001600160401b03168152602090f35b50346102f45760203660031901126102f4576120b36120ae6139b4565b614d19565b906112c660405192839215158352604060208401526040830190613897565b506120dc36613b6a565b6120e4614bd3565b6120ec614c71565b7f0000000000000000000000000000000000000000000000000000000000000000908261215a61211c8434613f2f565b604051630c30422f60e11b81526080600482015293849283929161214260848501614cac565b336024860152848103600319016044860152906144e5565b906064830152038173__$33b79814e84bf6cf5e47244090b19ce5f8$__5af480156111d0576121c29184916121e6575b506004612195615860565b91505060018060401b039485600b54166060855101526121ba60038301918254613f22565b90550161522e565b600b54906121d1818316613f0a565b6001600160401b0319909216911617600b5580f35b61220291503d8086833e6121fa8183613240565b810190614adf565b3861218a565b50346102f45760403660031901126102f45760ff60406020926122296139b4565b6122316139de565b6000196001851b019091168252601285528282208054835260030185528282206001600160a01b03909116825284522054604051911615158152f35b50346102f457806003193601126102f45760085461228a81613359565b906122986040519283613240565b808252601f196122a782613359565b01835b81811061235f575050825b81811061231d57505060405190602092838301848452825180915260408401948060408360051b870101940192955b8287106122f15785850386f35b90919293828061230d600193603f198a82030186528851613adc565b96019201960195929190926122e4565b80612329600192613aab565b90549060031b1c8552600760205261234360408620613c47565b61234d8286615271565b526123588185615271565b50016122b5565b60209061236a613bf5565b828287010152016122aa565b50806003193601126102f45734156124145761239133615a2d565b90156102cc57600181016123a6348254613f22565b80915581549060ff82166006811015612400576002146123c4578380f35b7f000000000000000000000000000000000000000000000000000000000000000011156123f057808380f35b60ff191660011790553880808380f35b634e487b7160e01b85526021600452602485fd5b604051631036b5ad60e31b8152600490fd5b50346102f457806003193601126102f457602060405160ff7f0000000000000000000000000000000000000000000000000000000000000000168152f35b50346102f45760203660031901126102f457600435906008548210156102f457602061248f83613aab565b90546040519160031b1c8152f35b50346102f457806003193601126102f4576001546040805191901c6001600160401b03168152602090f35b50346102f4576020806003193601126102f0576004356124e6613fd6565b80156102de576124f533615a2d565b9290156102cc5760018301928354938385106125605760048392610223926125208761024499613f2f565b8091557f000000000000000000000000000000000000000000000000000000000000000011612550575b016132e3565b805460ff1916600217815561254a565b6040516379b33e7960e01b8152600490fd5b50346102f457806003193601126102f45761258c33615a2d565b90156102cc5760038082015461275e576001828101546006549093919291906001600160401b038082166000190181811161274a576001600160401b0319909216911617600655612608906125e3906004016132e3565b604051906390ba52cf60e01b82528180602094859384600484015260248301906136c9565b038173__$a0fe38a9a81205afccc10810b09a4d3f45$__5af4908115611d2c57869161271d575b50855260078152604085209285845585818501556002908682860155868486015586600486015561266260058601613eb2565b86600686015561267460078601613eb2565b86600886015586600986015561268c600a8601614065565b600b850192835493888155846126c6575b886107f0896126c0600e8b85600c8201556126ba600d8201613ff9565b01614065565b33613f87565b84860294868604036127095788528720928301925b8381106126e8578061269d565b80888692556126f8838201613eb2565b61270384820161417b565b016126db565b634e487b7160e01b89526011600452602489fd5b90508181813d8311612743575b6127348183613240565b81010312611d2057513861262f565b503d61272a565b634e487b7160e01b88526011600452602488fd5b604051637c67c70160e11b8152600490fd5b50346102f457806003193601126102f457600b546040516001600160401b039091168152602090f35b50346102f457806003193601126102f45760206040517f00000000000000000000000000000000000000000000000000000000000000008152f35b50346102f45760203660031901126102f457612849906001600160401b03906112c690604090836128036139b4565b168152600a60205220612815816132e3565b92600282015416906003810154906128346007600683015492016133aa565b9160405196879660a0885260a08801906136c9565b936020870152604086015260608501528382036080850152613747565b50346102f457806003193601126102f45760206040517f00000000000000000000000000000000000000000000000000000000000000008152f35b50346102f45760403660031901126102f45760406020916128c06139de565b6004358252600d84528282206001600160a01b03909116825283522054604051908152f35b50806003193601126102f4577f0000000000000000000000000000000000000000000000000000000000000000341061241457612920613263565b6129568273__$a0fe38a9a81205afccc10810b09a4d3f45$__926040518093819263aa5106cb60e01b8352339060048401613e73565b0381855af49081156111d0578391612aee575b5061297381615b44565b90612adc5781516004820180546001600160401b03199081166001600160401b0393841617909155602080850151805193969295919491939060058301908883116109e4579086839694926129ca82979584613ed6565b01908a52848a208a5b878110612abf57505050612a1b9450346001820155600160ff1982541617815560024391015560405180809581946390ba52cf60e01b835286600484015260248301906136c9565b03915af4918215611e9e578592612a91575b5050600854600160401b811015612a7d57806001612a4e9201600855613aab565b819291549060031b91821b91600019901b191617905560065491612a73818416613f0a565b1691161760065580f35b634e487b7160e01b85526041600452602485fd5b90809250813d8311612ab8575b612aa88183613240565b810103126110ca57513880612a2d565b503d612a9e565b82516001600160a01b0316818301558896909201916001016129d3565b604051631b538cdf60e11b8152600490fd5b612b0a91503d8085833e612b028183613240565b810190613e4e565b38612969565b506003196040368201126102f057600435906001600160401b038083116110ca576040828460040194360301126110ca57602435818111611dbb576040838236030112611dbb57612b5f614bd3565b612b67614c71565b7f00000000000000000000000000000000000000000000000000000000000000009285612bd7612b978634613f2f565b60405163266a83ad60e21b815260806004820152948592839291612bbe608485018c614414565b90336024860152878583030160448601526004016144e5565b906064830152038173__$33b79814e84bf6cf5e47244090b19ce5f8$__5af4918215611d2c578692612d7c575b506020928383510151519187612c4f73__$a0fe38a9a81205afccc10810b09a4d3f45$__94612c5e604051948593849363089032d560e01b85526040600486015260448501906136c9565b90838203016024840152614cac565b0381865af48015612d7157612c7a918991612d57575b50615b44565b9690156102cc57612cd98594600e89612ce095612d039b54908160081c1680606086510152612cb1610100600160481b0391613f0a565b60081b1690610100600160481b0319161781556040835101516121ba60038301918254613f22565b3690613a08565b906040518080978194632cff562160e11b835286600484015260248301906136c9565b03915af49081156102c1578491612d20575b506107f09250615967565b905082813d8311612d50575b612d368183613240565b810103126102b657612d4a6107f092613d97565b38612d15565b503d612d2c565b612d6b91503d808b833e612b028183613240565b38612c74565b6040513d8a823e3d90fd5b612d919192503d8088833e6121fa8183613240565b9038612c04565b50346102f457806003193601126102f4576040517f00000000000000000000000000000000000000000000000000000000000000006001600160401b03168152602090f35b50346102f457806003193601126102f457602060ff601154166040519015158152f35b50346102f45760203660031901126102f457612e1a6139b4565b604051635d3f8a6960e01b815233600482015260208160248173__$e800e3908cdbb6b1b5bd452383a17b18f7$__5af49081156111d0578391612ec0575b5015612eae5760115460ff8116612e9d5760018054600160401b600160801b03191660409390931b600160401b600160801b031692909217825560ff19161760115580f35b60405162dc149f60e41b8152600490fd5b60405163f0d97f3b60e01b8152600490fd5b90506020813d8211612ef1575b81612eda60209383613240565b810103126102b657612eeb90613d76565b38612e58565b3d9150612ecd565b50346102f457600319906040368301126102f4576001600160401b039160043591908383116102f05760409083360301126102f45760243592831683036102f4576112c6612f4a8484600401615285565b60405191829160208352602083019061383b565b50346102f4576020806003193601126102f057612f9d81612f806120ae6139b4565b604094919451809481926339aa47fb60e01b83526004830161422e565b038173__$1cd67d4dc9e627f0bec7928aa480e7d951$__5af49182156102c1578492612fd5575b506040809450519215158352820152f35b9080925081813d8311613001575b612fed8183613240565b810103126110ca5760409350519038612fc4565b503d612fe3565b50346102f457806003193601126102f45760606002546040519060018060401b03908181168352818160401c16602084015260801c166040820152f35b50346102f45760403660031901126102f457600435906001600160401b0382116102f4576112c661309d61309761308a6130823660048801613a08565b612c74613cf6565b6024359150600e01613d49565b50613502565b604051918291602083526020830190613819565b50346102f457806003193601126102f4576040517f00000000000000000000000000000000000000000000000000000000000000006001600160401b03168152602090f35b50346102f45760203660031901126102f457604090600435815260076020522080546112c660018301549261319760028201549160038101546131476006613140600485016132e3565b9301613582565b93604051978761315b8a60ff819b166136a6565b60018060401b0390818160081c1660208b015260481c1660408901526060880152608087015260a08601526101008060c08701528501906136c9565b9083820360e0850152613897565b604081019081106001600160401b0382111761099157604052565b6001600160401b03811161099157604052565b60c081019081106001600160401b0382111761099157604052565b60e081019081106001600160401b0382111761099157604052565b61012081019081106001600160401b0382111761099157604052565b602081019081106001600160401b0382111761099157604052565b601f909101601f19168101906001600160401b0382119082101761099157604052565b60405190613270826131a5565b6004546001600160401b031682526040516005805480835260009182526020918591600080516020615ea8833981519152918591858301915b868282106132c4575050506132c092500384613240565b0152565b85546001600160a01b03168452600195860195899550930192016132a9565b906040516132f0816131a5565b809260018060401b03815416825260018091019160405191828481955492838652602080960191600052856000209060005b8786821061333a57505050506132c092500384613240565b83546001600160a01b0316855289955090930192918101918101613322565b6001600160401b0381116109915760051b60200190565b90600182811c921680156133a0575b602083101461338a57565b634e487b7160e01b600052602260045260246000fd5b91607f169161337f565b90604051918260008254926133be84613370565b90818452600194858116908160001461342d57506001146133ea575b50506133e892500383613240565b565b9093915060005260209081600020936000915b8183106134155750506133e8935082010138806133da565b855488840185015294850194879450918301916133fd565b9150506133e894506020925060ff191682840152151560051b82010138806133da565b906040519161345e836131a5565b60208361346a836132e3565b815261348e60036040519461347e866131a5565b60ff6002820154168652016133aa565b828401520152565b906040516134a3816131d3565b60a06134fd600a83956134b581613450565b85526134c360048201613450565b60208601526008810154604086015260098101546001600160401b0381166060870152841b6001600160e01b0319166080860152016133aa565b910152565b9060405161350f816131a5565b602060ff600b839561352081613496565b85520154161515910152565b90815461353881613359565b926135466040519485613240565b818452600090815260208082208186015b848410613565575050505050565b600c8360019261357485613502565b815201920193019290613557565b90604091825190613592826131ee565b819361359d826132e3565b835260029060018060401b0382840154166020908186015260039081850154838701526135cc6004860161352c565b606087015260058501908154936135e285613359565b956135ef82519788613240565b85875260009384528284209184908489015b88871061362f57505050505050505050600760c0926134fd926080860152600681015460a0860152016133aa565b878683519261363d846131a5565b613646886132e3565b84528688019385518084875491828152019689528489209089905b80821061368b57505050613679816001970382613240565b83820152815201950196019593613601565b8254895297909501968e96508c956001928301920190613661565b9060068210156136b35752565b634e487b7160e01b600052602160045260246000fd5b80516001600160401b03168252602090810151604082840181905281519084018190526060909301929082019160005b828110613707575050505090565b83516001600160a01b0316855293810193928101926001016136f9565b60005b8381106137375750506000910152565b8181015183820152602001613727565b9060209161376081518092818552858086019101613724565b601f01601f1916010190565b604060206137a893816137868551858452858401906136c9565b940151908281860391015260ff81511684520151918160208201520190613747565b90565b6137a89160a06137d96137c7845160c0855260c085019061376c565b6020850151848203602086015261376c565b926040810151604084015260018060401b03606082015116606084015263ffffffff60e01b608082015116608084015201519060a0818403910152613747565b9060208061383084516040855260408501906137ab565b930151151591015290565b908082519081815260208091019281808460051b8301019501936000915b8483106138695750505050505090565b9091929394958480613887600193601f198682030187528a51613819565b9801930193019194939290613859565b9190916138ad815160e0855260e08501906136c9565b9260209160018060401b038382015116838301526138e160409586830151878501526060830151848203606086015261383b565b9460808201519383870360808501528451908188528088019281808460051b8b0101970193600091825b85841061393c57505050505050506137a89394508060a060c092015160a084015201519060c0818403910152613747565b9091929380959699601f198d82030185528a51826139618251878552878501906136c9565b910151918381830391015282808351928381520192019084905b80821061399b5750505090806001929b019401940192959493919061390b565b919380600192948651815201940192018893929161397b565b600435906001600160401b03821682036111c357565b35906001600160401b03821682036111c357565b602435906001600160a01b03821682036111c357565b35906001600160a01b03821682036111c357565b91906040838203126111c35760405192613a21846131a5565b83613a2b826139ca565b815260209180830135906001600160401b0382116111c357019280601f850112156111c3578335613a5b81613359565b94613a696040519687613240565b818652848087019260051b8201019283116111c35784809101915b838310613a9357505050500152565b8190613a9e846139f4565b8152019101908490613a84565b600854811015613ac657600860005260206000200190600090565b634e487b7160e01b600052603260045260246000fd5b906137a891613aec8282516136a6565b60018060401b038060208301511660208401526040820151166040830152606081015160608301526080810151608083015260a081015160a0830152613b56613b4460c08301516101208060c08701528501906136c9565b60e083015184820360e0860152613897565b91610100809201519181840391015261383b565b600319906020818301126111c357600435916001600160401b0383116111c357826040920301126111c35760040190565b60405190613ba8826131a5565b6060602083600081520152565b60405190613bc2826131ee565b606060c083613bcf613b9b565b815260006020820152600060408201528280820152826080820152600060a08201520152565b60405190613c0282613209565b6060610100836000808252806020830152806040830152808483015280608083015260a0820152613c31613b9b565b60c0820152613c3e613bb5565b60e08201520152565b90604051613c5481613209565b8092805460ff811660068110156136b357610100926134fd92600e92865260018060401b0390818160081c16602088015260481c1660408601526001810154606086015260028101546080860152600381015460a0860152613cb8600482016132e3565b60c0860152613cc960068201613582565b60e08601520161352c565b60405190613ce1826131a5565b81613cea613b9b565b815260206134fd613b9b565b60405190613d03826131a5565b6000602083604051613d14816131d3565b613d1c613cd4565b8152613d26613cd4565b83820152836040820152836060820152836080820152606060a082015281520152565b8054821015613ac657600052600c602060002091020190600090565b9060ff801983541691151516179055565b519081151582036111c357565b51906001600160401b03821682036111c357565b51906001600160a01b03821682036111c357565b91906040838203126111c35760405192613dc4846131a5565b83613dce82613d83565b815260208281015190926001600160401b0382116111c357019280601f850112156111c3578351613dfe81613359565b94613e0c6040519687613240565b818652848087019260051b8201019283116111c35784809101915b838310613e3657505050500152565b8190613e4184613d97565b8152019101908490613e27565b906020828203126111c35781516001600160401b0381116111c3576137a89201613dab565b90613e8b6020919493946040845260408401906136c9565b6001600160a01b03909416910152565b818110613ea6575050565b60008155600101613e9b565b80546000825580613ec1575050565b6133e891600052602060002090810190613e9b565b90600160401b811161099157815490808355818110613ef457505050565b6133e89260005260206000209182019101613e9b565b6001600160401b0390811660010191908211610a5b57565b91908201809211610a5b57565b91908203918211610a5b57565b6001600160401b03811161099157601f01601f191660200190565b3d15613f82573d90613f6882613f3c565b91613f766040519384613240565b82523d6000602084013e565b606090565b814710613fc4576000918291829182916001600160a01b03165af1613faa613f57565b5015613fb257565b604051633204506f60e01b8152600490fd5b60405163356680b760e01b8152600490fd5b600260005414613fe7576002600055565b604051633ee5aeb560e01b8152600490fd5b6140038154613370565b908161400d575050565b81601f6000931160011461401f575055565b90808391825261403e601f60208420940160051c840160018501613e9b565b5555565b60036133e8916000815561405860018201613eb2565b6000600282015501613ff9565b805460008083558161407657505050565b600c9282840292848404036140d857815260208120918201915b82811061409d5750505050565b806140a88592614042565b6140b460048201614042565b8260088201558260098201556140cc600a8201613ff9565b82600b82015501614090565b634e487b7160e01b82526011600452602482fd5b600160401b82116109915780549082815581831061410957505050565b600c928284029284840403610a5b578084029084820403610a5b5760009182526020822092830192015b8281106141405750505050565b8061414b8592614042565b61415760048201614042565b82600882015582600982015561416f600a8201613ff9565b82600b82015501614133565b8054906000908181558261418e57505050565b815260208120918201915b8281106141a557505050565b818155600101614199565b903590603e19813603018212156111c3570190565b356001600160401b03811681036111c35790565b90815180825260208092019182818360051b82019501936000915b8483106142045750505050505090565b909192939495848061421e83856001950387528a51613819565b98019301930191949392906141f4565b91909160209081815261424d845160e0848401526101008301906136c9565b9060018060401b0383860151169460409586830152858101516060830152614287606082015193601f1994858583030160808601526141d9565b95608082015194848489030160a08501528551908189528089019281808460051b8c0101980193600091825b8584106142e457505050505050506137a894955060c08160a060e09301518285015201519282850301910152613747565b909192938a8a8e8398999d030185528b51826143078251878552878501906136c9565b910151918381830391015282808351928381520192019084905b8082106143415750505090806001929c01940194019295949391906142b3565b9193806001929486518152019401920188939291614321565b600581146143c857600554906001600160401b0382116109915761437e8282613ed6565b600090815260208120600080516020615ea883398151915280545b8484106143a7575050505050565b600191820180546001600160a01b0390921684860155939091019290614399565b50565b9035603e19823603018112156111c3570190565b9035601e19823603018112156111c3570160208101919035906001600160401b0382116111c3578160051b360383136111c357565b60408201916001600160401b0361442a836139ca565b168152606061443e602093848101906143df565b839195604086839601525201929160005b82811061445d575050505090565b909192938280600192838060a01b03614475896139f4565b1681520195019392910161444f565b359060ff821682036111c357565b9035601e19823603018112156111c3570160208101919035906001600160401b0382116111c35781360383136111c357565b908060209392818452848401376000828201840152601f01601f1916010190565b9060406145076137a89360ff6144fa82614484565b1684526020810190614492565b91909281602082015201916144c4565b6137a89161453661452b61106684806143cb565b9260208101906143cb565b9060208184039101526144e5565b35906001600160e01b0319821682036111c357565b359081151582036111c357565b909182815260208091019283918160051b8501948460009081925b85841061459357505050505050505090565b909192939495969781810388526145aa89846143cb565b90813560be1983360301811215611d2057828892836146788161467160019882970160408087526146626145de83806143cb565b926145f560c09485858c01526101008b0190614517565b92614602878301836143cb565b9461461c603f19956060978d898982850301910152614517565b95608092840135838d01528f806146399160401b039185016139ca565b169160a092838d015261465563ffffffff60e01b918501614544565b16908b0152810190614492565b918884030160e08901526144c4565b9401614559565b15159101529a01980196959401929190614581565b903590601e19813603018212156111c357018035906001600160401b0382116111c357602001918160051b360383136111c357565b90359060be19813603018212156111c3570190565b903590601e19813603018212156111c357018035906001600160401b0382116111c3576020019181360383136111c357565b9190601f811161471857505050565b6133e8926000526020600020906020601f840160051c83019310614744575b601f0160051c0190613e9b565b9091508190614737565b805463ffffffff60401b191660a09290921c63ffffffff60401b16919091179055565b81601f820112156111c35780359061478882613f3c565b926147966040519485613240565b828452602083830101116111c357816000926020809301838601378301015290565b91906040838203126111c357604051926147d1846131a5565b6001600160401b0390849080358381116111c357846147f1918301613a08565b82526020810135908382116111c357016040818503126111c35760405193614818856131a5565b61482182614484565b855260208201359384116111c35760209361348e9201614771565b929161484782613359565b9160409061485782519485613240565b839581855260208095019160051b8101938085116111c35781925b8584106148825750505050505050565b6001600160401b039084358281116111c35784019086828503126111c35786516148ab816131a5565b82358481116111c35783019360c0858703126111c3578851946148cd866131d3565b80358281116111c357876148e29183016147b8565b86528b8101358281116111c357876148fb9183016147b8565b8c870152898101358a87015260606149148183016139ca565b908701526080614925818301614544565b9087015260a094858201359283116111c3578c96879661494b8a614957968a9601614771565b90820152845201614559565b83820152815201930192614872565b600080600160401b600160a01b03831660ff60981b146149a1575b1561499d5761498f906149b4565b90614998575090565b905090565b5090565b50506001600160401b0381166001614981565b60009081526016600a6020836002607f60991b015afa9181519161040a8360018060a01b03169360a01c61ffff1603614a0a575b831580156149ff575b6149f85750565b9250829150565b5060163d14156149f1565b600093509150816149e8565b81601f820112156111c3578051614a2c81613f3c565b92614a3a6040519485613240565b818452602082840101116111c3576137a89160208085019101613724565b91906040838203126111c35760405192614a71846131a5565b80516001600160401b039185918381116111c35784614a91918301613dab565b82526020810151908382116111c357016040818503126111c35760405193614ab8856131a5565b815160ff811681036111c357855260208201519384116111c35760209361348e9201614a16565b906020828203126111c35781516001600160401b03928382116111c35701916040838303126111c35760405192614b15846131a5565b80518281116111c357810160c0818503126111c35760405190614b37826131d3565b80518481116111c35785614b4c918301614a58565b825260208101518481116111c35785614b66918301614a58565b602083015260408101516040830152614b8160608201613d83565b606083015260808101516001600160e01b0319811681036111c357608083015260a08101519384116111c357614bcb94602094614bbe9201614a16565b60a0820152845201613d76565b602082015290565b604051630972932760e21b815233600482015260208160248173__$e800e3908cdbb6b1b5bd452383a17b18f7$__5af4908115614c6557600091614c2c575b5015614c1a57565b604051630a23da2b60e31b8152600490fd5b906020823d8211614c5d575b81614c4560209383613240565b810103126102f45750614c5790613d76565b38614c12565b3d9150614c38565b6040513d6000823e3d90fd5b7f00000000000000000000000000000000000000000000000000000000000000003410614c9a57565b6040516334472ad760e11b8152600490fd5b6004546001600160401b0316815260406020808301829052600580549284018390526000908152606090930192600080516020615ea883398151915292915b828210614cf9575050505090565b83546001600160a01b031685529384019360019384019390910190614ceb565b614d21613bb5565b506001600160401b03166000908152600a602090815260408220614d6d90614d4890613582565b9282845160405180948192630c133d1360e31b835284600484015260248301906136c9565b038173__$a0fe38a9a81205afccc10810b09a4d3f45$__5af4928315614dd4578193614d9b575b5050501591565b9091809350813d8311614dcd575b614db38183613240565b810103126102f45750614dc590613d76565b388080614d94565b503d614da9565b50604051903d90823e3d90fd5b60059060028101546000520160205260016040600020614e08828060401b03825416615c56565b0190565b602080825282516001600160401b03168282015291909101516040808301526137a891606001906141d9565b815180518051805184546001600160401b03199081166001600160401b039283161786556020928301518051969793969395949293600192838a0192909190868211610991578990614e8a8386613ed6565b01600093845289842085855b8481106152135750505050508760028a019401519360ff8551169060ff19918282541617905560039489868c019101518051908882116151ff578190614ee682614ee08654613370565b86614709565b8c90601f8311600114615194578792615189575b505060001982891b1c191690861b1790555b60048a01898801519081519088825116858254161790558a60058d0191015190815191898311615175578c90614f428484613ed6565b019086528b8620878d88905b8582106151595794505050505060068c019101519160ff835116908254161790558860078b01910151805190878211612a7d57614f9582614f8f8554613370565b85614709565b8a90601f83116001146150f357614ff6949392918691836150e8575b505060001982891b1c191690861b1790555b604087015160088b0155606087015160098b01805490921690871617815560808701516001600160e01b0319169061474e565b60a0600a890195015180519485116150d45761501c856150168854613370565b88614709565b8791601f86116001146150665794809381936133e89b9a989693600b9a989561505b575b50501b92600019911b1c19161790555b015115159101613d65565b015193503880615040565b9294939190601f198516878552898520945b8181106150bf5750918593916133e89b9a9896600b9a989694106150a5575b50505050811b019055615050565b01519060f884600019921b161c1916905538808080615097565b82840151865594870194928a01928a01615078565b634e487b7160e01b82526041600452602482fd5b015190503880614fb1565b9392918b8792601f1983168589528289209289905b8282106151425750509683614ff6981061512a575b505050811b019055614fc3565b0151600019838b1b60f8161c1916905538808061511d565b838a015185558b969094019392830192018f615108565b84516001600160a01b031684830155909301928991018e614f4e565b634e487b7160e01b87526041600452602487fd5b015190503880614efa565b889350908d91601f198416868a52838a20938a905b8282106151de57505084116151c6575b505050811b019055614f0c565b0151600019838b1b60f8161c191690553880806151b9565b91929395968291958786015181550195019301908f918b96959493926151a9565b634e487b7160e01b86526041600452602486fd5b83516001600160a01b031683820155928c0192879101614e96565b8054600160401b8110156109915761524b91600182018155613d49565b91909161525b576133e891614e38565b634e487b7160e01b600052600060045260246000fd5b8051821015613ac65760209160051b010190565b61129a615293913690613a08565b901561536b57600e0180546001600160401b03909216918083101561535557826152bc91613f2f565b906152c682613359565b926152d46040519485613240565b828452601f196152e384613359565b0160005b81811061533e57505060005b838110615301575050505090565b6153176130976153118484613f22565b85613d49565b6153218287615271565b5261532c8186615271565b506000198114610a5b576001016152f3565b602090615349613cf6565b828289010152016152e7565b50505060405161536481613225565b6000815290565b505060405161536481613225565b81519160005b83811061538c5750505050565b806153a361539c60019385615271565b51856153a9565b0161537f565b9060209182825101515173__$a0fe38a9a81205afccc10810b09a4d3f45$__91604092835191630c133d1360e31b9182845260049388858201528881806153f56024998a8301906136c9565b0381855af490811561585557600091615820575b506158105785875163ffffffff60e01b608082015116156157f1575b505086519261544987519463f47ad7eb60e01b8652888787015260448601906137ab565b8985806154616003199485838203018c840152614cac565b038173__$386b5c41ce93e8b832daf8008b3d30ae09$__5af49485156157a957908a916000966157b4575b50895182015151895163c836244d60e01b81528881018b90529291839182916154cb916154bd9060448501906136c9565b90838203018c840152614cac565b0381865af49081156157a957600091615774575b506155265750505050505060096133e8938251818101908282526155178161550987820189613819565b03601f198101835282613240565b51902060005252600020614e38565b60028499989596991015615760579083929160018996951461564a575b505050156155d7575b9161556f60009385519788948594635c46fefb60e11b8652850152830190613819565b038173__$33b79814e84bf6cf5e47244090b19ce5f8$__5af49081156155cd5750615598575050565b3d806000843e6155a88184613240565b820190828203126111c35781516001600160401b0381116111c3576143c89201614a16565b513d6000823e3d90fd5b600b54815160600151919250906001600160401b0382861c81169116810361563a576000938693909261556f92600160401b600160801b039061561990613f0a565b600160401b600160801b031990921691881b1617600b5591935061554c9050565b845163a57cadff60e01b81528490fd5b879591929394955192839182528288830152818061566a8d8201886136c9565b03915af49081156157555790879493929160009161571a575b5015615691575b8080615543565b61569d91929350615b44565b901561570a5780548351606001516001600160401b03604883901c8116911681036156fa57879493929190600160481b600160881b03906156dd90613f0a565b60481b16600160481b600160881b0319919091161790553861568a565b865163a57cadff60e01b81528690fd5b8451630e991abd60e41b81528490fd5b9192939482813d831161574e575b6157328183613240565b810103126102f457509061574887949392613d76565b38615683565b503d615728565b86513d6000823e3d90fd5b88602187634e487b7160e01b600052526000fd5b908a82813d83116157a2575b61578a8183613240565b810103126102f4575061579c90613d76565b386154df565b503d615780565b88513d6000823e3d90fd5b90959181813d83116157ea575b6157cb8183613240565b810103126102f057519060028210156102f457509389906154bd61548c565b503d6157c1565b01514710615800578538615425565b855163569d45cf60e11b81528490fd5b855163461e815d60e01b81528490fd5b908982813d831161584e575b6158368183613240565b810103126102f4575061584890613d76565b38615409565b503d61582c565b87513d6000823e3d90fd5b6001600160401b037f000000000000000000000000000000000000000000000000000000000000000081168015615951578161589f8282431604613f0a565b1602908116908103610a5b578060009081526020600a81526158ea6040832092826158c9856132e3565b60405180948192630c133d1360e31b835284600484015260248301906136c9565b038173__$a0fe38a9a81205afccc10810b09a4d3f45$__5af4928315614dd4578193615918575b5050501592565b9091809350813d831161594a575b6159308183613240565b810103126102f4575061594290613d76565b388080615911565b503d615926565b634e487b7160e01b600052601260045260246000fd5b81156159c95761597690614966565b604051632a7edd8f60e21b60208201908152602480830194909452928152606081016001600160401b0381118282101761099157604052516143c892600091829182855af16159c3613f57565b916159cd565b5050565b9015615a0b578151156159de575090565b803b156159e9575090565b604051639996b31560e01b81526001600160a01b039091166004820152602490fd5b50805115615a1b57805190602001fd5b604051630a12f52160e11b8152600490fd5b6001600160a01b03919082811615615b3257604051615a4b816131a5565b6004546001600160401b0316815260405160058054808352600091825290956020808401958895909490939092600080516020615ea8833981519152919087905b828210615b165750505050615aa682615ac4970383613240565b82015260405163aa5106cb60e01b8152938492839260048401613e73565b038173__$a0fe38a9a81205afccc10810b09a4d3f45$__5af49081156111d05783615af7939492615afb575b5050615b44565b9091565b615b0f92503d8091833e612b028183613240565b3880615af0565b835481168a52988401988b985060019384019390910190615a8c565b6040516370e4510960e01b8152600490fd5b615b8273__$a0fe38a9a81205afccc10810b09a4d3f45$__91604051906390ba52cf60e01b82528180602094859384600484015260248301906136c9565b0381865af4908115614c6557600091615c27575b5090615bd9916000526007815280604060002093615bb6600486016132e3565b906040518080968194630c133d1360e31b835286600484015260248301906136c9565b03915af4908115614c6557600091615bf3575b5090501591565b82813d8311615c20575b615c078183613240565b810103126102f45750615c1990613d76565b8038615bec565b503d615bfd565b908282813d8311615c4f575b615c3d8183613240565b810103126102f4575051615bd9615b96565b503d615c33565b615c5f81615d70565b156143c857604051634953836d60e11b8152600260048201526001600160401b03918216602482018190529173__$b7b8687e33476c74e3b4e0a64c4768a343$__9190602082604481865af48015614c65578492600091615d33575b50615d20575b5050803b156111c3576000604491604051928380926394ecccfd60e01b8252600260048301528660248301525af48015614c6557615d11575b50600180546001600160401b031916919091179055565b615d1a906131c0565b38615cfa565b60025460401c16036159c9578138615cc1565b9192506020823d8211615d68575b81615d4e60209383613240565b810103126102f4575090615d628492613d76565b38615cbb565b3d9150615d41565b6001546001600160401b039081167f0000000000000000000000000000000000000000000000000000000000000000821601818111610a5b57811691161490565b60ff7f000000000000000000000000000000000000000000000000000000000000000016808302908382041483151715610a5b576064900460405191637d2ef4e560e11b835280600484015260208360248173__$e0f829f5071d7e628aa77eca0c12e35bc2$__5af4928315614c6557600093615e73575b50600101549080821115615e6a57808311615e6157615e5192615e4b91613f2f565b92613f2f565b1115615e5c57600190565b600290565b50505050600390565b50505050600090565b90926020823d8211615e9f575b81615e8d60209383613240565b810103126102f4575051916001615e29565b3d9150615e8056fe036b6384b5eca791c62761152d0c79bb0604c104a5fb6f4eb0703f3154bb3db0a2646970667358221220709653ad4d3ee662591672c3ca402fbf436ad484362c5df0a992ff916e272b1e64736f6c63430008130033",
    "linkReferences": {
      "src/lib/AccountHelper.sol": {
        "AccountHelper": [
          {
            "start": 13162,
            "length": 20
          },
          {
            "start": 20771,
            "length": 20
          }
        ]
      },
      "src/lib/CheckpointHelper.sol": {
        "CheckpointHelper": [
          {
            "start": 2407,
            "length": 20
          },
          {
            "start": 2743,
            "length": 20
          },
          {
            "start": 5772,
            "length": 20
          },
          {
            "start": 6769,
            "length": 20
          },
          {
            "start": 7151,
            "length": 20
          },
          {
            "start": 13526,
            "length": 20
          }
        ]
      },
      "src/lib/CrossMsgHelper.sol": {
        "CrossMsgHelper": [
          {
            "start": 6576,
            "length": 20
          },
          {
            "start": 9881,
            "length": 20
          },
          {
            "start": 12566,
            "length": 20
          },
          {
            "start": 23208,
            "length": 20
          }
        ]
      },
      "src/lib/EpochVoteSubmissionHelper.sol": {
        "EpochVoteSubmissionHelper": [
          {
            "start": 8964,
            "length": 20
          },
          {
            "start": 9016,
            "length": 20
          },
          {
            "start": 25402,
            "length": 20
          }
        ]
      },
      "src/lib/ExecutableQueueHelper.sol": {
        "ExecutableQueueHelper": [
          {
            "start": 8817,
            "length": 20
          },
          {
            "start": 8885,
            "length": 20
          },
          {
            "start": 25026,
            "length": 20
          }
        ]
      },
      "src/lib/StorableMsgHelper.sol": {
        "StorableMsgHelper": [
          {
            "start": 22938,
            "length": 20
          }
        ]
      },
      "src/lib/SubnetIDHelper.sol": {
        "SubnetIDHelper": [
          {
            "start": 701,
            "length": 20
          },
          {
            "start": 1917,
            "length": 20
          },
          {
            "start": 2247,
            "length": 20
          },
          {
            "start": 11073,
            "length": 20
          },
          {
            "start": 11867,
            "length": 20
          },
          {
            "start": 12618,
            "length": 20
          },
          {
            "start": 21158,
            "length": 20
          },
          {
            "start": 22762,
            "length": 20
          },
          {
            "start": 24099,
            "length": 20
          },
          {
            "start": 24573,
            "length": 20
          },
          {
            "start": 24702,
            "length": 20
          }
        ]
      }
    }
  },
  "methodIdentifiers": {
    "MIN_CHECKPOINT_PERIOD()": "a1ada303",
    "MIN_COLLATERAL_AMOUNT()": "91be4d41",
    "addStake()": "5a627dbc",
    "appliedTopDownNonce()": "8789f83b",
    "bottomUpCheckPeriod()": "06c46853",
    "bottomUpCheckpointAtEpoch(uint64)": "6cb2ecee",
    "bottomUpCheckpointHashAtEpoch(uint64)": "133f74ea",
    "bottomUpCheckpoints(uint64)": "2cc14ea2",
    "bottomUpNonce()": "41b6a2e8",
    "commitChildCheck(((uint64,address[]),uint64,uint256,((((uint64,address[]),(uint8,bytes)),((uint64,address[]),(uint8,bytes)),uint256,uint64,bytes4,bytes),bool)[],((uint64,address[]),bytes32[])[],bytes32,bytes))": "d4e149a8",
    "crossMsgFee()": "24729425",
    "executableQueue()": "10d500e1",
    "fund((uint64,address[]),(uint8,bytes))": "18f44b70",
    "getGenesisEpoch()": "51392fc0",
    "getNetworkName()": "94074b03",
    "getSubnet((uint64,address[]))": "c66c66a1",
    "getSubnetTopDownMsg((uint64,address[]),uint256)": "0ea746f2",
    "getSubnetTopDownMsgsLength((uint64,address[]))": "9d3070b5",
    "getTopDownMsgs((uint64,address[]),uint64)": "13549315",
    "hasValidatorVotedForSubmission(uint64,address)": "66d7bbbc",
    "initGenesisEpoch(uint64)": "13f35388",
    "initialized()": "158ef93e",
    "kill()": "41c0e1b5",
    "lastVotingExecutedEpoch()": "ad81e244",
    "listSubnets()": "5d029685",
    "majorityPercentage()": "599c7bd1",
    "minStake()": "375b3c0a",
    "postbox(bytes32)": "8cfd78e7",
    "register()": "1aa3a008",
    "release((uint8,bytes))": "6b2c1eef",
    "releaseRewards(uint256)": "f8703bb8",
    "releaseStake(uint256)": "45f54485",
    "submissionPeriod()": "185fde7e",
    "submitTopDownCheckpoint((uint64,((((uint64,address[]),(uint8,bytes)),((uint64,address[]),(uint8,bytes)),uint256,uint64,bytes4,bytes),bool)[]))": "986acf38",
    "subnetKeys(uint256)": "548b3b38",
    "subnets(bytes32)": "02e30f9a",
    "topDownCheckPeriod()": "7d9740f4",
    "totalSubnets()": "a2b67158",
    "totalWeight()": "96c82e57",
    "validatorNonce()": "e17a684f",
    "validatorSet(uint256,address)": "223d9056"
  },
  "id": 8
}