{
  "abi": [
    {
      "inputs": [
        {
          "components": [
            {
              "components": [
                {
                  "internalType": "uint64",
                  "name": "root",
                  "type": "uint64"
                },
                {
                  "internalType": "address[]",
                  "name": "route",
                  "type": "address[]"
                }
              ],
              "internalType": "struct SubnetID",
              "name": "parentId",
              "type": "tuple"
            },
            {
              "internalType": "bytes32",
              "name": "name",
              "type": "bytes32"
            },
            {
              "internalType": "address",
              "name": "ipcGatewayAddr",
              "type": "address"
            },
            {
              "internalType": "enum ConsensusType",
              "name": "consensus",
              "type": "uint8"
            },
            {
              "internalType": "uint256",
              "name": "minActivationCollateral",
              "type": "uint256"
            },
            {
              "internalType": "uint64",
              "name": "minValidators",
              "type": "uint64"
            },
            {
              "internalType": "uint64",
              "name": "bottomUpCheckPeriod",
              "type": "uint64"
            },
            {
              "internalType": "uint64",
              "name": "topDownCheckPeriod",
              "type": "uint64"
            },
            {
              "internalType": "uint8",
              "name": "majorityPercentage",
              "type": "uint8"
            },
            {
              "internalType": "bytes",
              "name": "genesis",
              "type": "bytes"
            }
          ],
          "internalType": "struct SubnetActor.ConstructParams",
          "name": "params",
          "type": "tuple"
        }
      ],
      "stateMutability": "nonpayable",
      "type": "constructor"
    },
    {
      "inputs": [
        {
          "internalType": "address",
          "name": "account",
          "type": "address"
        }
      ],
      "name": "AddressInsufficientBalance",
      "type": "error"
    },
    {
      "inputs": [],
      "name": "CallerHasNoStake",
      "type": "error"
    },
    {
      "inputs": [],
      "name": "CheckpointNotChained",
      "type": "error"
    },
    {
      "inputs": [],
      "name": "CollateralIsZero",
      "type": "error"
    },
    {
      "inputs": [],
      "name": "CollateralStillLockedInSubnet",
      "type": "error"
    },
    {
      "inputs": [],
      "name": "EpochAlreadyExecuted",
      "type": "error"
    },
    {
      "inputs": [],
      "name": "EpochNotVotable",
      "type": "error"
    },
    {
      "inputs": [],
      "name": "FailedInnerCall",
      "type": "error"
    },
    {
      "inputs": [],
      "name": "GatewayCannotBeZero",
      "type": "error"
    },
    {
      "inputs": [],
      "name": "InvalidMajorityPercentage",
      "type": "error"
    },
    {
      "inputs": [],
      "name": "MessagesNotSorted",
      "type": "error"
    },
    {
      "inputs": [],
      "name": "NoRewardToWithdraw",
      "type": "error"
    },
    {
      "inputs": [],
      "name": "NoValidatorsInSubnet",
      "type": "error"
    },
    {
      "inputs": [],
      "name": "NotAccount",
      "type": "error"
    },
    {
      "inputs": [],
      "name": "NotAllValidatorsHaveLeft",
      "type": "error"
    },
    {
      "inputs": [],
      "name": "NotEnoughBalanceForRewards",
      "type": "error"
    },
    {
      "inputs": [],
      "name": "NotGateway",
      "type": "error"
    },
    {
      "inputs": [],
      "name": "NotValidator",
      "type": "error"
    },
    {
      "inputs": [],
      "name": "ReentrancyGuardReentrantCall",
      "type": "error"
    },
    {
      "inputs": [],
      "name": "SubnetAlreadyKilled",
      "type": "error"
    },
    {
      "inputs": [],
      "name": "SubnetNotActive",
      "type": "error"
    },
    {
      "inputs": [],
      "name": "ValidatorAlreadyVoted",
      "type": "error"
    },
    {
      "inputs": [],
      "name": "WorkerAddressInvalid",
      "type": "error"
    },
    {
      "inputs": [],
      "name": "WrongCheckpointSource",
      "type": "error"
    },
    {
      "inputs": [],
      "name": "MIN_CHECKPOINT_PERIOD",
      "outputs": [
        {
          "internalType": "uint8",
          "name": "",
          "type": "uint8"
        }
      ],
      "stateMutability": "view",
      "type": "function"
    },
    {
      "inputs": [],
      "name": "MIN_COLLATERAL_AMOUNT",
      "outputs": [
        {
          "internalType": "uint256",
          "name": "",
          "type": "uint256"
        }
      ],
      "stateMutability": "view",
      "type": "function"
    },
    {
      "inputs": [
        {
          "internalType": "address",
          "name": "",
          "type": "address"
        }
      ],
      "name": "accumulatedRewards",
      "outputs": [
        {
          "internalType": "uint256",
          "name": "",
          "type": "uint256"
        }
      ],
      "stateMutability": "view",
      "type": "function"
    },
    {
      "inputs": [],
      "name": "bottomUpCheckPeriod",
      "outputs": [
        {
          "internalType": "uint64",
          "name": "",
          "type": "uint64"
        }
      ],
      "stateMutability": "view",
      "type": "function"
    },
    {
      "inputs": [
        {
          "internalType": "uint64",
          "name": "epoch",
          "type": "uint64"
        }
      ],
      "name": "bottomUpCheckpointAtEpoch",
      "outputs": [
        {
          "internalType": "bool",
          "name": "exists",
          "type": "bool"
        },
        {
          "components": [
            {
              "components": [
                {
                  "internalType": "uint64",
                  "name": "root",
                  "type": "uint64"
                },
                {
                  "internalType": "address[]",
                  "name": "route",
                  "type": "address[]"
                }
              ],
              "internalType": "struct SubnetID",
              "name": "source",
              "type": "tuple"
            },
            {
              "internalType": "uint64",
              "name": "epoch",
              "type": "uint64"
            },
            {
              "internalType": "uint256",
              "name": "fee",
              "type": "uint256"
            },
            {
              "components": [
                {
                  "components": [
                    {
                      "components": [
                        {
                          "components": [
                            {
                              "internalType": "uint64",
                              "name": "root",
                              "type": "uint64"
                            },
                            {
                              "internalType": "address[]",
                              "name": "route",
                              "type": "address[]"
                            }
                          ],
                          "internalType": "struct SubnetID",
                          "name": "subnetId",
                          "type": "tuple"
                        },
                        {
                          "components": [
                            {
                              "internalType": "uint8",
                              "name": "addrType",
                              "type": "uint8"
                            },
                            {
                              "internalType": "bytes",
                              "name": "payload",
                              "type": "bytes"
                            }
                          ],
                          "internalType": "struct FvmAddress",
                          "name": "rawAddress",
                          "type": "tuple"
                        }
                      ],
                      "internalType": "struct IPCAddress",
                      "name": "from",
                      "type": "tuple"
                    },
                    {
                      "components": [
                        {
                          "components": [
                            {
                              "internalType": "uint64",
                              "name": "root",
                              "type": "uint64"
                            },
                            {
                              "internalType": "address[]",
                              "name": "route",
                              "type": "address[]"
                            }
                          ],
                          "internalType": "struct SubnetID",
                          "name": "subnetId",
                          "type": "tuple"
                        },
                        {
                          "components": [
                            {
                              "internalType": "uint8",
                              "name": "addrType",
                              "type": "uint8"
                            },
                            {
                              "internalType": "bytes",
                              "name": "payload",
                              "type": "bytes"
                            }
                          ],
                          "internalType": "struct FvmAddress",
                          "name": "rawAddress",
                          "type": "tuple"
                        }
                      ],
                      "internalType": "struct IPCAddress",
                      "name": "to",
                      "type": "tuple"
                    },
                    {
                      "internalType": "uint256",
                      "name": "value",
                      "type": "uint256"
                    },
                    {
                      "internalType": "uint64",
                      "name": "nonce",
                      "type": "uint64"
                    },
                    {
                      "internalType": "bytes4",
                      "name": "method",
                      "type": "bytes4"
                    },
                    {
                      "internalType": "bytes",
                      "name": "params",
                      "type": "bytes"
                    }
                  ],
                  "internalType": "struct StorableMsg",
                  "name": "message",
                  "type": "tuple"
                },
                {
                  "internalType": "bool",
                  "name": "wrapped",
                  "type": "bool"
                }
              ],
              "internalType": "struct CrossMsg[]",
              "name": "crossMsgs",
              "type": "tuple[]"
            },
            {
              "components": [
                {
                  "components": [
                    {
                      "internalType": "uint64",
                      "name": "root",
                      "type": "uint64"
                    },
                    {
                      "internalType": "address[]",
                      "name": "route",
                      "type": "address[]"
                    }
                  ],
                  "internalType": "struct SubnetID",
                  "name": "source",
                  "type": "tuple"
                },
                {
                  "internalType": "bytes32[]",
                  "name": "checks",
                  "type": "bytes32[]"
                }
              ],
              "internalType": "struct ChildCheck[]",
              "name": "children",
              "type": "tuple[]"
            },
            {
              "internalType": "bytes32",
              "name": "prevHash",
              "type": "bytes32"
            },
            {
              "internalType": "bytes",
              "name": "proof",
              "type": "bytes"
            }
          ],
          "internalType": "struct BottomUpCheckpoint",
          "name": "checkpoint",
          "type": "tuple"
        }
      ],
      "stateMutability": "view",
      "type": "function"
    },
    {
      "inputs": [
        {
          "internalType": "uint64",
          "name": "epoch",
          "type": "uint64"
        }
      ],
      "name": "bottomUpCheckpointHashAtEpoch",
      "outputs": [
        {
          "internalType": "bool",
          "name": "",
          "type": "bool"
        },
        {
          "internalType": "bytes32",
          "name": "",
          "type": "bytes32"
        }
      ],
      "stateMutability": "view",
      "type": "function"
    },
    {
      "inputs": [
        {
          "internalType": "uint64",
          "name": "",
          "type": "uint64"
        }
      ],
      "name": "committedCheckpoints",
      "outputs": [
        {
          "components": [
            {
              "internalType": "uint64",
              "name": "root",
              "type": "uint64"
            },
            {
              "internalType": "address[]",
              "name": "route",
              "type": "address[]"
            }
          ],
          "internalType": "struct SubnetID",
          "name": "source",
          "type": "tuple"
        },
        {
          "internalType": "uint64",
          "name": "epoch",
          "type": "uint64"
        },
        {
          "internalType": "uint256",
          "name": "fee",
          "type": "uint256"
        },
        {
          "internalType": "bytes32",
          "name": "prevHash",
          "type": "bytes32"
        },
        {
          "internalType": "bytes",
          "name": "proof",
          "type": "bytes"
        }
      ],
      "stateMutability": "view",
      "type": "function"
    },
    {
      "inputs": [],
      "name": "configurationNumber",
      "outputs": [
        {
          "internalType": "uint64",
          "name": "",
          "type": "uint64"
        }
      ],
      "stateMutability": "view",
      "type": "function"
    },
    {
      "inputs": [],
      "name": "consensus",
      "outputs": [
        {
          "internalType": "enum ConsensusType",
          "name": "",
          "type": "uint8"
        }
      ],
      "stateMutability": "view",
      "type": "function"
    },
    {
      "inputs": [],
      "name": "currentSubnetHash",
      "outputs": [
        {
          "internalType": "bytes32",
          "name": "",
          "type": "bytes32"
        }
      ],
      "stateMutability": "view",
      "type": "function"
    },
    {
      "inputs": [],
      "name": "executableQueue",
      "outputs": [
        {
          "internalType": "uint64",
          "name": "period",
          "type": "uint64"
        },
        {
          "internalType": "uint64",
          "name": "first",
          "type": "uint64"
        },
        {
          "internalType": "uint64",
          "name": "last",
          "type": "uint64"
        }
      ],
      "stateMutability": "view",
      "type": "function"
    },
    {
      "inputs": [],
      "name": "genesis",
      "outputs": [
        {
          "internalType": "bytes",
          "name": "",
          "type": "bytes"
        }
      ],
      "stateMutability": "view",
      "type": "function"
    },
    {
      "inputs": [],
      "name": "getGenesisEpoch",
      "outputs": [
        {
          "internalType": "uint64",
          "name": "",
          "type": "uint64"
        }
      ],
      "stateMutability": "view",
      "type": "function"
    },
    {
      "inputs": [],
      "name": "getParent",
      "outputs": [
        {
          "components": [
            {
              "internalType": "uint64",
              "name": "root",
              "type": "uint64"
            },
            {
              "internalType": "address[]",
              "name": "route",
              "type": "address[]"
            }
          ],
          "internalType": "struct SubnetID",
          "name": "",
          "type": "tuple"
        }
      ],
      "stateMutability": "view",
      "type": "function"
    },
    {
      "inputs": [],
      "name": "getValidatorSet",
      "outputs": [
        {
          "components": [
            {
              "components": [
                {
                  "internalType": "address",
                  "name": "addr",
                  "type": "address"
                },
                {
                  "internalType": "uint256",
                  "name": "weight",
                  "type": "uint256"
                },
                {
                  "components": [
                    {
                      "internalType": "uint8",
                      "name": "addrType",
                      "type": "uint8"
                    },
                    {
                      "internalType": "bytes",
                      "name": "payload",
                      "type": "bytes"
                    }
                  ],
                  "internalType": "struct FvmAddress",
                  "name": "workerAddr",
                  "type": "tuple"
                },
                {
                  "internalType": "string",
                  "name": "netAddresses",
                  "type": "string"
                }
              ],
              "internalType": "struct SubnetActor.ValidatorInfo[]",
              "name": "validators",
              "type": "tuple[]"
            },
            {
              "internalType": "uint64",
              "name": "configurationNumber",
              "type": "uint64"
            }
          ],
          "internalType": "struct SubnetActor.ValidatorSet",
          "name": "",
          "type": "tuple"
        }
      ],
      "stateMutability": "view",
      "type": "function"
    },
    {
      "inputs": [],
      "name": "getValidators",
      "outputs": [
        {
          "internalType": "address[]",
          "name": "",
          "type": "address[]"
        }
      ],
      "stateMutability": "view",
      "type": "function"
    },
    {
      "inputs": [
        {
          "internalType": "uint64",
          "name": "epoch",
          "type": "uint64"
        },
        {
          "internalType": "address",
          "name": "submitter",
          "type": "address"
        }
      ],
      "name": "hasValidatorVotedForSubmission",
      "outputs": [
        {
          "internalType": "bool",
          "name": "",
          "type": "bool"
        }
      ],
      "stateMutability": "view",
      "type": "function"
    },
    {
      "inputs": [],
      "name": "ipcGatewayAddr",
      "outputs": [
        {
          "internalType": "address",
          "name": "",
          "type": "address"
        }
      ],
      "stateMutability": "view",
      "type": "function"
    },
    {
      "inputs": [
        {
          "internalType": "string",
          "name": "netAddr",
          "type": "string"
        },
        {
          "components": [
            {
              "internalType": "uint8",
              "name": "addrType",
              "type": "uint8"
            },
            {
              "internalType": "bytes",
              "name": "payload",
              "type": "bytes"
            }
          ],
          "internalType": "struct FvmAddress",
          "name": "workerAddr",
          "type": "tuple"
        }
      ],
      "name": "join",
      "outputs": [],
      "stateMutability": "payable",
      "type": "function"
    },
    {
      "inputs": [],
      "name": "kill",
      "outputs": [],
      "stateMutability": "nonpayable",
      "type": "function"
    },
    {
      "inputs": [],
      "name": "lastVotingExecutedEpoch",
      "outputs": [
        {
          "internalType": "uint64",
          "name": "",
          "type": "uint64"
        }
      ],
      "stateMutability": "view",
      "type": "function"
    },
    {
      "inputs": [],
      "name": "leave",
      "outputs": [],
      "stateMutability": "nonpayable",
      "type": "function"
    },
    {
      "inputs": [],
      "name": "majorityPercentage",
      "outputs": [
        {
          "internalType": "uint8",
          "name": "",
          "type": "uint8"
        }
      ],
      "stateMutability": "view",
      "type": "function"
    },
    {
      "inputs": [],
      "name": "minActivationCollateral",
      "outputs": [
        {
          "internalType": "uint256",
          "name": "",
          "type": "uint256"
        }
      ],
      "stateMutability": "view",
      "type": "function"
    },
    {
      "inputs": [],
      "name": "minValidators",
      "outputs": [
        {
          "internalType": "uint64",
          "name": "",
          "type": "uint64"
        }
      ],
      "stateMutability": "view",
      "type": "function"
    },
    {
      "inputs": [],
      "name": "name",
      "outputs": [
        {
          "internalType": "bytes32",
          "name": "",
          "type": "bytes32"
        }
      ],
      "stateMutability": "view",
      "type": "function"
    },
    {
      "inputs": [],
      "name": "prevExecutedCheckpointHash",
      "outputs": [
        {
          "internalType": "bytes32",
          "name": "",
          "type": "bytes32"
        }
      ],
      "stateMutability": "view",
      "type": "function"
    },
    {
      "inputs": [
        {
          "internalType": "uint256",
          "name": "amount",
          "type": "uint256"
        }
      ],
      "name": "reward",
      "outputs": [],
      "stateMutability": "nonpayable",
      "type": "function"
    },
    {
      "inputs": [
        {
          "internalType": "address",
          "name": "",
          "type": "address"
        }
      ],
      "name": "stake",
      "outputs": [
        {
          "internalType": "uint256",
          "name": "",
          "type": "uint256"
        }
      ],
      "stateMutability": "view",
      "type": "function"
    },
    {
      "inputs": [],
      "name": "status",
      "outputs": [
        {
          "internalType": "enum Status",
          "name": "",
          "type": "uint8"
        }
      ],
      "stateMutability": "view",
      "type": "function"
    },
    {
      "inputs": [],
      "name": "submissionPeriod",
      "outputs": [
        {
          "internalType": "uint64",
          "name": "",
          "type": "uint64"
        }
      ],
      "stateMutability": "view",
      "type": "function"
    },
    {
      "inputs": [
        {
          "components": [
            {
              "components": [
                {
                  "internalType": "uint64",
                  "name": "root",
                  "type": "uint64"
                },
                {
                  "internalType": "address[]",
                  "name": "route",
                  "type": "address[]"
                }
              ],
              "internalType": "struct SubnetID",
              "name": "source",
              "type": "tuple"
            },
            {
              "internalType": "uint64",
              "name": "epoch",
              "type": "uint64"
            },
            {
              "internalType": "uint256",
              "name": "fee",
              "type": "uint256"
            },
            {
              "components": [
                {
                  "components": [
                    {
                      "components": [
                        {
                          "components": [
                            {
                              "internalType": "uint64",
                              "name": "root",
                              "type": "uint64"
                            },
                            {
                              "internalType": "address[]",
                              "name": "route",
                              "type": "address[]"
                            }
                          ],
                          "internalType": "struct SubnetID",
                          "name": "subnetId",
                          "type": "tuple"
                        },
                        {
                          "components": [
                            {
                              "internalType": "uint8",
                              "name": "addrType",
                              "type": "uint8"
                            },
                            {
                              "internalType": "bytes",
                              "name": "payload",
                              "type": "bytes"
                            }
                          ],
                          "internalType": "struct FvmAddress",
                          "name": "rawAddress",
                          "type": "tuple"
                        }
                      ],
                      "internalType": "struct IPCAddress",
                      "name": "from",
                      "type": "tuple"
                    },
                    {
                      "components": [
                        {
                          "components": [
                            {
                              "internalType": "uint64",
                              "name": "root",
                              "type": "uint64"
                            },
                            {
                              "internalType": "address[]",
                              "name": "route",
                              "type": "address[]"
                            }
                          ],
                          "internalType": "struct SubnetID",
                          "name": "subnetId",
                          "type": "tuple"
                        },
                        {
                          "components": [
                            {
                              "internalType": "uint8",
                              "name": "addrType",
                              "type": "uint8"
                            },
                            {
                              "internalType": "bytes",
                              "name": "payload",
                              "type": "bytes"
                            }
                          ],
                          "internalType": "struct FvmAddress",
                          "name": "rawAddress",
                          "type": "tuple"
                        }
                      ],
                      "internalType": "struct IPCAddress",
                      "name": "to",
                      "type": "tuple"
                    },
                    {
                      "internalType": "uint256",
                      "name": "value",
                      "type": "uint256"
                    },
                    {
                      "internalType": "uint64",
                      "name": "nonce",
                      "type": "uint64"
                    },
                    {
                      "internalType": "bytes4",
                      "name": "method",
                      "type": "bytes4"
                    },
                    {
                      "internalType": "bytes",
                      "name": "params",
                      "type": "bytes"
                    }
                  ],
                  "internalType": "struct StorableMsg",
                  "name": "message",
                  "type": "tuple"
                },
                {
                  "internalType": "bool",
                  "name": "wrapped",
                  "type": "bool"
                }
              ],
              "internalType": "struct CrossMsg[]",
              "name": "crossMsgs",
              "type": "tuple[]"
            },
            {
              "components": [
                {
                  "components": [
                    {
                      "internalType": "uint64",
                      "name": "root",
                      "type": "uint64"
                    },
                    {
                      "internalType": "address[]",
                      "name": "route",
                      "type": "address[]"
                    }
                  ],
                  "internalType": "struct SubnetID",
                  "name": "source",
                  "type": "tuple"
                },
                {
                  "internalType": "bytes32[]",
                  "name": "checks",
                  "type": "bytes32[]"
                }
              ],
              "internalType": "struct ChildCheck[]",
              "name": "children",
              "type": "tuple[]"
            },
            {
              "internalType": "bytes32",
              "name": "prevHash",
              "type": "bytes32"
            },
            {
              "internalType": "bytes",
              "name": "proof",
              "type": "bytes"
            }
          ],
          "internalType": "struct BottomUpCheckpoint",
          "name": "checkpoint",
          "type": "tuple"
        }
      ],
      "name": "submitCheckpoint",
      "outputs": [],
      "stateMutability": "nonpayable",
      "type": "function"
    },
    {
      "inputs": [],
      "name": "topDownCheckPeriod",
      "outputs": [
        {
          "internalType": "uint64",
          "name": "",
          "type": "uint64"
        }
      ],
      "stateMutability": "view",
      "type": "function"
    },
    {
      "inputs": [],
      "name": "totalStake",
      "outputs": [
        {
          "internalType": "uint256",
          "name": "",
          "type": "uint256"
        }
      ],
      "stateMutability": "view",
      "type": "function"
    },
    {
      "inputs": [
        {
          "internalType": "uint256",
          "name": "index",
          "type": "uint256"
        }
      ],
      "name": "validatorAt",
      "outputs": [
        {
          "internalType": "address",
          "name": "",
          "type": "address"
        }
      ],
      "stateMutability": "view",
      "type": "function"
    },
    {
      "inputs": [],
      "name": "validatorCount",
      "outputs": [
        {
          "internalType": "uint256",
          "name": "",
          "type": "uint256"
        }
      ],
      "stateMutability": "view",
      "type": "function"
    },
    {
      "inputs": [
        {
          "internalType": "address",
          "name": "",
          "type": "address"
        }
      ],
      "name": "validatorNetAddresses",
      "outputs": [
        {
          "internalType": "string",
          "name": "",
          "type": "string"
        }
      ],
      "stateMutability": "view",
      "type": "function"
    },
    {
      "inputs": [
        {
          "internalType": "address",
          "name": "",
          "type": "address"
        }
      ],
      "name": "validatorWorkerAddresses",
      "outputs": [
        {
          "internalType": "uint8",
          "name": "addrType",
          "type": "uint8"
        },
        {
          "internalType": "bytes",
          "name": "payload",
          "type": "bytes"
        }
      ],
      "stateMutability": "view",
      "type": "function"
    },
    {
      "inputs": [],
      "name": "withdraw",
      "outputs": [],
      "stateMutability": "nonpayable",
      "type": "function"
    },
    {
      "stateMutability": "payable",
      "type": "receive"
    }
  ],
  "bytecode": {
    "object": "0x6101c080604052346200080d576200545780380380916200002182856200082e565b833960208282810103126200080d5781516001600160401b0381116200080d5761014081840183850103126200080d576040519261014084016001600160401b038111858210176200075057604052808201516001600160401b0381116200080d57620000969084830190848401016200087c565b8452602082820101516020850152620000b460408383010162000867565b60408501526060828201015160018110156200080d576060850152608082820101516080850152620000eb60a08383010162000852565b60a08501526200010060c08383010162000852565b60c08501526200011560e08383010162000852565b60e0850152610100828201015160ff811681036200080d5761010085015280820161012001516001600160401b0381116200080d57838201601f82858501010112156200080d57818301810151926001600160401b0384116200075057604051946200018c601f8601601f1916602001876200082e565b848652830160208584848701010101116200080d5760005b848110620007f357868660006020888301015261012082015260ff6101008201511660018060401b0360c08301511690600160005560648111620007e157608052600a811015620007db5750600a5b60a0819052600280546001600160401b03199081166001600160401b039384161790915582518051600f8054909316908416179091556020015180519182116200075057680100000000000000008211620007505760209060105483601055808410620007ba575b50016010600052602060002060005b8381106200079c57602085015161018052604085015185906001600160a01b0316156200078a5760408101516001600160a01b0316610140526060810151906001821015620007745761012091610160526080810151670de0b6b3a7640000908181106000146200076c57505b60c05260a08101516001600160401b03908116835260e082015116600a811015620007665750600a5b60e05260a0516001600160401b03908116610100526005805460ff60401b1916680500000000000000001790559101518051909181116200075057601154600181811c9116801562000745575b60208210146200072f57601f8111620006d0575b506020601f82116001146200066357819260009262000657575b50508160011b916000199060031b1c1916176011555b6040516200039f8162000812565b600f546001600160401b031681526040516010805480835260009182527f1b6847dc741a1b0cd08d278845f9d819d87b734759afb55fe2de5cb82a9ae67291839160208301915b81811062000634575050620003fe925003826200082e565b602082015262000442600073__$a0fe38a9a81205afccc10810b09a4d3f45$__926040518093819263aa5106cb60e01b83526040600484015260448301906200094b565b3060248301520381855af4908115620005d357600091620005df575b506020906200048a9260405180809581946390ba52cf60e01b835286600484015260248301906200094b565b03915af4908115620005d35760009162000598575b506101a090815260018054600160401b600160801b0319169055600580546001600160401b0319169055604051614aae9182620009a983396080518281816126e10152614986015260a05182818161025e015281816129ab0152614951015260c0518281816116ec01528181611d450152612092015260e05182611f7901526101005182612b3001526101205182611a76015261014051828181611669015281816117d40152818161210901528181612180015281816127770152818161282601528181612f7101528181614457015261456d01526101605182611e4201526101805182612af701525181818161032f0152611abd0152f35b906020823d602011620005ca575b81620005b5602093836200082e565b81010312620005c7575051816200049f565b80fd5b3d9150620005a6565b6040513d6000823e3d90fd5b903d8082843e620005f181846200082e565b82019160208184031262000630578051916001600160401b038311620005c757506020926200048a94926200062792016200087c565b9150916200045e565b5080fd5b84546001600160a01b0316835260019485019486945060209093019201620003e6565b0151905082806200037b565b601160005260206000209060005b601f1984168110620006b7575060019383601f198116106200069d575b505050811b0160115562000391565b015160001960f88460031b161c191690558280806200068e565b9091602060018192858801518155019301910162000671565b60116000526200071d907f31ecc21a745e3968a04e9570e4425bc18fa8019c68028196b546d1669c200c68601f840160051c8101916020851062000724575b601f0160051c019062000932565b8262000361565b90915081906200070f565b634e487b7160e01b600052602260045260246000fd5b90607f16906200034d565b634e487b7160e01b600052604160045260246000fd5b62000300565b9050620002d7565b634e487b7160e01b600052602160045260246000fd5b604051638b3ddc3360e01b8152600490fd5b82516001600160a01b0316818301556020909201916001016200026a565b620007d49060106000528484600020918201910162000932565b846200025b565b620001f3565b6040516375c3b42760e01b8152600490fd5b8060208092858588010101015182828901015201620001a4565b600080fd5b604081019081106001600160401b038211176200075057604052565b601f909101601f19168101906001600160401b038211908210176200075057604052565b51906001600160401b03821682036200080d57565b51906001600160a01b03821682036200080d57565b9190916040818403126200080d5760405192620008998462000812565b83620008a58362000852565b81526020838101516001600160401b03949193918582116200080d570181601f820112156200080d57805194851162000750578460051b9060405195620008ef868401886200082e565b865284808701928201019283116200080d5784809101915b8383106200091757505050500152565b8190620009248462000867565b815201910190849062000907565b8181106200093e575050565b6000815560010162000932565b80516001600160401b03168252602090810151604082840181905281519084018190526060909301929082019160005b8281106200098a575050505090565b83516001600160a01b0316855293810193928101926001016200097b56fe60a0806040526004361015610025575b50361561001b57600080fd5b610023612f6f565b005b600090813560e01c90816304fda3d414612b5f5750806306c4685314612b1a57806306fdde0314612adf5780630f43a67714612ac157806310d500e114612a84578063133f74ea146129da578063185fde7e14612995578063200d2ed21461296657806323a357051461292b57806326476204146128f257806332e0aa1f146128ba5780633ccfd60b146127e857806341c0e1b51461273057806351392fc014612705578063599c7bd1146126c75780635f832dbf146126a957806366d7bbbc1461263e5780636cb2ecee1461240f5780636cf6970a14611fe157806373f273fc14611fa85780637d9740f414611f6357806380f7602114611ea45780638b0e9f3f14611e865780638ef3f76114611e2c57806391be4d4114611e095780639890374814611d685780639e33bd0214611d2d578063a1ada30314611d11578063a7f0b3de14611c2f578063a9fb763c14611b93578063ad81e24414611b6a578063b7ab4db514611ae0578063c18f64aa14611aa5578063c5ab224114611a60578063cf33125014611803578063cfca2824146117be578063d4e25bab1461174d578063d66d9e19146115e25763f6fd83810361000f57346115df5760031960203682011261114b576001600160401b036004351161114b5760e090600435360301126115df5761021361312a565b61022160246004350161337c565b6001546001600160401b039182169181168211156115cd5760401c6001600160401b03169081811061159357036001600160401b0381116115b9577f00000000000000000000000000000000000000000000000000000000000000006001600160401b031680156115a5576001600160401b0391821606166115935760ff60055460401c16600681101561157f5760010361156d57338152600960205260408120541561155b5761030560206102e4366102df600480350180613390565b6133bc565b604051809381926390ba52cf60e01b8352846004840152602483019061345f565b038173__$a0fe38a9a81205afccc10810b09a4d3f45$__5af49081156110e6578291611529575b507f000000000000000000000000000000000000000000000000000000000000000003611517576103676064600435016004356004016134ba565b604051638984147560e01b815260206004820152602481018290529182916044600582901b84018101929186918501835b828410611418578887602081808a038173__$33b79814e84bf6cf5e47244090b19ce5f8$__5af49081156110e65782916113f9575b50156113e7576001600160401b036103e960043560240161337c565b168152600a60205260408120338252600b602052604082205460405161040e81612c71565b6004803501356001600160401b0381116111bf576104339060043691813501016133bc565b8152610443602460043501612b9a565b602082015260043560448101356040830152606401356001600160401b0381116111bf5736602382600435010112156111bf57600481813501013590610488826133a5565b916104966040519384612ca7565b80835260208301913660248360051b83600435010101116113e3576024816004350101925b60248360051b8360043501010184106112b857505050506060820152600435608401356001600160401b0381116111bf5736602382600435010112156111bf5761050b60048281350101356133a5565b906105196040519283612ca7565b600480358201908101358084526020840192913660059290921b01602401116112b4576024816004350101915b6004803583019081013560051b0160240183106111c357505050608082015260043560a481013560a083015260c401356001600160401b0381116111bf576105ba9161059b6020926004369181350101613c0f565b60c0820152604051809381926339aa47fb60e01b835260048301613a10565b038173__$1cd67d4dc9e627f0bec7928aa480e7d951$__5af49081156111b457849161117d575b506105f060246004350161337c565b60045492859385549182885260038701602052604088203360005260205260ff6040600020541661116b578285916106c3948a526003890160205260408a20336000526020526040600020600160ff1982541617905560018901610655828254612fb3565b9055818a526004890160205260408a20838b5260205261067a60408b20918254612fb3565b9055808952600488016020526040892090600289019182548b5260205260408a2054908a526004890160205260408a20838b5260205260408a205411611163575b505085614982565b600481101561114f57859190600381036110f557506106e181614941565b1561106f575060019250505b80845260058301602052610722602061070860408720613730565b604051809381926322ea8d8960e11b835260048301613a10565b038173__$1cd67d4dc9e627f0bec7928aa480e7d951$__5af4908115611064578591611035575b50610795575b50156107615761075e9061439d565b80f35b5060025460401c6001600160401b031661077a81614941565b610782575080f35b8152600a60205261075e6040822061439d565b835260058201602052604083206107df6107b3600480350180613390565b6001600160401b036107c48261337c565b84546001600160401b031916911617835560208101906134ba565b6001600160401b0381116109a45760018301916107fc8284613d06565b9186526020862091865b82811061100c575050506002820190506001600160401b0361082c60043560240161337c565b82546001600160401b031916911617905560048035604481013560038401558282019161085e916064810191016134ba565b906108698284613da6565b918652602086208692805b838510610ae6575050505050600581016108986084600435016004356004016134ba565b91906108a48383613e9b565b908652602086208691805b8484106109b857505050505060079060a460043501356006820155016108df60c460043501600435600401613032565b906001600160401b0382116109a4578190610904826108fe8654612bd8565b86612fed565b8690601f831160011461093e578792610933575b50508160011b916000199060031b1c19161790555b8361074f565b013590508680610918565b84885260208820925090601f198416885b81811061098c5750908460019594939210610972575b505050811b01905561092d565b0135600019600384901b60f8161c19169055868080610965565b9193602060018192878701358155019501920161094f565b634e487b7160e01b86526041600452602486fd5b6109c28183613390565b6109fb6109cf8280613390565b6001600160401b036109e08261337c565b87546001600160401b031916911617865560208101906134ba565b6001600160401b038111610ad2576001860191610a188284613d06565b918c5260208c20918c905b828210610aa95750505050806020610a3c9201906134ba565b906001600160401b038211610a95576002850190610a5a8383613e58565b908b5260208b208b5b838110610a81575050505060036020600192019301930192916108af565b600190602084359401938184015501610a63565b634e487b7160e01b8b52604160045260248bfd5b8035916001600160a01b0383168303610ace5760206001920192818601550190610a23565b8e80fd5b634e487b7160e01b8c52604160045260248cfd5b610af08183613390565b803560be198236030181121561100857610b0c82820180613390565b610b45610b198280613390565b6001600160401b03610b2a8261337c565b89546001600160401b031916911617885560208101906134ba565b906001600160401b038211610f5857908d916001890190610b668383613d06565b90835260208320925b828110610fe35750505050610b8c60028701916020810190613390565b80359160ff8316809303610f2a57610bb19260ff198254161790556020810190613032565b906001600160401b038211610f16578c8291610bdd83610bd460038c0154612bd8565b60038c01612fed565b81601f8411600114610f775792610f6c575b50508160011b916000199060031b1c19161760038601555b60048501610c56610c1e8484016020810190613390565b91610c298380613390565b906001600160401b03610c3b8361337c565b82546001600160401b031916911617905560208101906134ba565b906001600160401b038211610f5857908d916005890190610c778383613d06565b9083526020832092905b828210610f2e5750505050610c9e60068701916020810190613390565b80359160ff8316809303610f2a57610cc39260ff198254161790556020810190613032565b906001600160401b038211610f16578c8291610cef83610ce660078c0154612bd8565b60078c01612fed565b81601f8411600114610eaa5792610e9f575b50508160011b916000199060031b1c19161760078601555b818101604081013560088701556001600160401b0390610d3b9060600161337c565b600987018054919092166001600160401b03199091161781556080828401013591906001600160e01b031983168303610e9b57610d8792610d7b91613e35565b820160a0810190613032565b906001600160401b038211610ad257610db082610da7600a890154612bd8565b600a8901612fed565b8b908c601f8411600114610e2a579183929160209594610e1f575b50508160011b916000199060031b1c191617600a8601555b0135908115158203610e1b576020600c91610e0f600194600b88019060ff801983541691151516179055565b01930194019391610874565b8980fd5b013590508d80610dcb565b50600a87018d5260208d20918d5b601f1985168110610e83575091839160019360209695601f19811610610e69575b505050811b01600a860155610de3565b0135600019600384901b60f8161c191690558d8080610e59565b90926020600181928686013581550194019101610e38565b8c80fd5b013590508d80610d01565b60078a01815260208120909450915b601f1984168510610efe576001945083601f19811610610ee4575b505050811b016007860155610d19565b0135600019600384901b60f8161c191690558d8080610ed4565b81810135835560209485019460019093019201610eb9565b634e487b7160e01b8d52604160045260248dfd5b8d80fd5b8035916001600160a01b0383168303610f535760206001920192818601550190610c81565b508f80fd5b634e487b7160e01b8e52604160045260248efd5b013590508d80610bef565b60038a01815260208120909450915b601f1984168510610fcb576001945083601f19811610610fb1575b505050811b016003860155610c07565b0135600019600384901b60f8161c191690558d8080610fa1565b81810135835560209485019460019093019201610f86565b8135906001600160a01b0382168203610f535760206001929301928186015501610b6f565b8a80fd5b8135906001600160a01b03821682036110315760206001929301928186015501610806565b8880fd5b611057915060203d60201161105d575b61104f8183612ca7565b810190613112565b85610749565b503d611045565b6040513d87823e3d90fd5b73__$b7b8687e33476c74e3b4e0a64c4768a343$__90813b156110f15760405163199b9ca560e01b8152600260048201526001600160401b039091166024820152908290829060449082905af480156110e6576110ce575b50506106ed565b6110d790612c12565b6110e25783856110c7565b8380fd5b6040513d84823e3d90fd5b8280fd5b905060029150036106ed578373__$e0f829f5071d7e628aa77eca0c12e35bc2$__803b1561114b578160249160405192838092635a27a53960e11b82528960048301525af480156110e6576110ce5750506106ed565b5080fd5b634e487b7160e01b86526021600452602486fd5b5583886106bb565b6040516337138f5f60e11b8152600490fd5b90506020813d6020116111ac575b8161119860209383612ca7565b810103126111a75751846105e1565b600080fd5b3d915061118b565b6040513d86823e3d90fd5b8480fd5b82356001600160401b038111611031578260043501016040602319823603011261103157604051906111f482612c3b565b60248101356001600160401b0381116110085761121790602436918401016133bc565b825260448101356001600160401b0381116110085736604382840101121561100857602481830101359061124a826133a5565b926112586040519485612ca7565b82845260208401913660448560051b838501010111610f2a57604481830101925b60448560051b838501010184106112a457505050505091816020938480940152815201920191610546565b8335815260209384019301611279565b8680fd5b83356001600160401b038111610e1b5782600435010160231991604083833603011261100857604051906112eb82612c3b565b60248301356001600160401b038111610e9b5760c09084019485360301126113df576040519161131a83612c8c565b60248501356001600160401b038111610f2a5761133d9060243691880101613c56565b835260448501356001600160401b038111610f2a576113629060243691880101613c56565b60208401526064850135604084015261137d60848601612b9a565b606084015261138e60a4860161364a565b608084015260c48501356001600160401b038111610f2a57604460209586956113c16024998a6113ce9636920101613c0f565b60a082015284520161365f565b8382015281520194019390506104bb565b8b80fd5b8780fd5b604051630bd9169f60e01b8152600490fd5b611412915060203d60201161105d5761104f8183612ca7565b826103cd565b91939550919360431987820301835261143186836134ef565b60be1981360301813512156110315760208160019382611500816114f985829835016040865261146181806134ef565b906114ea61147c60c0938460408b01526101008a0190613564565b91611489868201826134ef565b6114a2603f19946060928c848882850301910152613564565b946080916040840135838d01528f806114c19160401b03918501612b9a565b169160a092838d01526114dd63ffffffff60e01b91850161364a565b16908b0152810190613511565b918884030160e0890152613543565b940161365f565b151591015297019301940191929093869594610398565b6040516375ecc72d60e01b8152600490fd5b90506020813d602011611553575b8161154460209383612ca7565b810103126111a757513861032c565b3d9150611537565b604051632ec5b44960e01b8152600490fd5b60405163c18316bf60e01b8152600490fd5b634e487b7160e01b82526021600452602482fd5b60405163b4f68f9760e01b8152600490fd5b634e487b7160e01b83526012600452602483fd5b634e487b7160e01b82526011600452602482fd5b604051631f30cc6360e21b8152600490fd5b80fd5b50346115df57806003193601126115df57600281541461173b576002815561160861312a565b6116106131ad565b338152600b6020526040812054801561155b57338252600b60205281604081205561163d816004546131f0565b60045561164933613292565b5060055460ff8160401c166006811015611727576001146116e7575b50817f00000000000000000000000000000000000000000000000000000000000000006001600160a01b0316803b1561114b578180916024604051809481936345f5448560e01b83528860048401525af180156110e6576116d3575b506116cc8233613218565b6001815580f35b6116dc90612c12565b61114b5781386116c1565b6004547f000000000000000000000000000000000000000000000000000000000000000011156116655760ff60401b1916600160411b1760055538611665565b634e487b7160e01b84526021600452602484fd5b604051633ee5aeb560e01b8152600490fd5b50346115df5760203660031901126115df576001906040906001600160a01b03611775612bae565b168152600e6020522061179e60ff825416916117976040518095819301612ed9565b0383612ca7565b6117ba6040519283928352604060208401526040830190612d70565b0390f35b50346115df57806003193601126115df576040517f00000000000000000000000000000000000000000000000000000000000000006001600160a01b03168152602090f35b50346115df57806003193601126115df5760405161182081612c3b565b60608082528260208093015260085492611839846133a5565b936118476040519586612ca7565b808552601f19611856826133a5565b01825b818110611a20575050815b81811061193d5750506005546040516001600160401b039182169591929161188b82612c3b565b815284810195865260405194808652848601915194604082880152855180935260808088019083818660051b8b0101980195925b8584106118d5578a51881660408b01528989038af35b90919293949597858061192c6001938d607f199082030188528c5190858060a01b03825116815283820151848201528661191c60408401518a60408501528a840190612e14565b9201519087818403910152612d70565b9a01940194019295949391906118bf565b6119dc61194e829794959697613064565b919054916119d28961195f86613064565b9054600391821b1c6001600160a01b039081168b52600b835260408b20549196816119898a613064565b9054908a1b1c168c52600e8452600d60408d20948d846119a88d613064565b9054908d1b1c1690525260408c2095604051986119c48a612c56565b1b1c1686528b86015261369a565b6040840152612cca565b868201526119ea8285613686565b526119f58184613686565b506000198114611a0c576001019493929194611864565b634e487b7160e01b84526011600452602484fd5b94808097949596604051611a3381612c56565b8781528783820152611a4361366c565b604082015288808201528282880101520190509594939295611859565b50346115df57806003193601126115df576040517f00000000000000000000000000000000000000000000000000000000000000006001600160401b03168152602090f35b50346115df57806003193601126115df5760206040517f00000000000000000000000000000000000000000000000000000000000000008152f35b50346115df57806003193601126115df57600854611afd816133a5565b91611b0b6040519384612ca7565b818352601f19611b1a836133a5565b013660208501375b818110611b3f57604051602080825281906117ba90820186612db0565b80611b4b600192613064565b838060a01b0391549060031b1c16611b638286613686565b5201611b22565b50346115df57806003193601126115df576001546040516001600160401b039091168152602090f35b50346115df5760208060031936011261114b5760043590611bb2612f6f565b600854918215611c1d57828110611c0b5782900490835b838110611bd4578480f35b80611be0600192613064565b838060a01b0391549060031b1c168652600c835260408620611c03858254612fb3565b905501611bc9565b604051633074cabf60e11b8152600490fd5b60405163efa9c8f160e01b8152600490fd5b50346115df57806003193601126115df57604051600090601154611c5281612bd8565b808352600191808316908115611ce95750600114611c8f575b6117ba83611c7b81870382612ca7565b604051918291602083526020830190612d70565b6011600090815260209450917f31ecc21a745e3968a04e9570e4425bc18fa8019c68028196b546d1669c200c685b828410611cd657505050810190910190611c7b81611c6b565b8054858501870152928501928101611cbd565b6117ba9550611c7b93506020915091849260ff191682840152151560051b8201019350611c6b565b50346115df57806003193601126115df576020604051600a8152f35b50346115df57806003193601126115df5760206040517f00000000000000000000000000000000000000000000000000000000000000008152f35b50346115df5760203660031901126115df57611dec906001600160401b03906117ba9060409083611d97612b84565b1681526007602052206007611dab82612ea4565b93600283015416916003810154611dd8600683015492611dd16040518096819301612ed9565b0384612ca7565b60405196879660a0885260a0880190612ded565b936020870152604086015260608501528382036080850152612d70565b50346115df57806003193601126115df576020604051670de0b6b3a76400008152f35b50346115df57806003193601126115df576040517f00000000000000000000000000000000000000000000000000000000000000006001811015611e7257602092508152f35b634e487b7160e01b83526021600452602483fd5b50346115df57806003193601126115df576020600454604051908152f35b50346115df57806003193601126115df57611ebd61366c565b50604051611eca81612c3b565b600f546001600160401b03168152604051601080548083526000918252602092917f1b6847dc741a1b0cd08d278845f9d819d87b734759afb55fe2de5cb82a9ae67291839185830191905b86828210611f4457505050611f2c92500382612ca7565b818301526117ba604051928284938452830190612ded565b85546001600160a01b0316845260019586019587955093019201611f15565b50346115df57806003193601126115df576040517f00000000000000000000000000000000000000000000000000000000000000006001600160401b03168152602090f35b50346115df5760203660031901126115df576020906040906001600160a01b03611fd0612bae565b168152600c83522054604051908152f35b50600319906040368301126115df576001600160401b03916004358381116110f157366023820112156110f1578060040135918483116110e257602494368685850101116111bf5785359281841161240b5760408460040193853603011261240b5761204b61312a565b6120536131ad565b34156123f957338652602090600b825260408720612072348254612fb3565b905561208034600454612fb3565b600455338752600b82526040872054957f000000000000000000000000000000000000000000000000000000000000000080971015612214575b50505050505060055460ff8160401c166006811015612200578394506005811460001461216f575050600454908110156120f4575b505080f35b6005805460ff60401b1916600160401b1790557f00000000000000000000000000000000000000000000000000000000000000006001600160a01b0316803b1561216b578290600460405180948193630354740160e31b83525af180156110e657156120ef575b61216490612c12565b6115df5780f35b5050fd5b6002919350146121da575b508190507f00000000000000000000000000000000000000000000000000000000000000006001600160a01b0316803b156121d75781600491604051928380926316989f6f60e21b825234905af180156110e65761215b57505080f35b50fd5b60045410156121ea575b8061217a565b60ff60401b1916600160401b17600555386121e4565b5050634e487b7160e01b8252506021600452fd5b33600052600983526040600020546120ba5761222f33613095565b50338852600d8352808960408a20936122528361224c8754612bd8565b87612fed565b8a90601f841160011461238c578b9361237f575b5050508160011b916000199060031b1c19161790555b338652600e81526040862092803560ff81168091036113e357845460ff19161784556001938401946122b19190890190613032565b92831161236c576122c68361224c8754612bd8565b8691601f8411600114612309575092829391839288946122fe575b50501b916000199060031b1c19161790555b3880808080806120ba565b0135925038806122e1565b9183601f198116878a52848a20948a905b888383106123525750505010612338575b505050811b0190556122f3565b0135600019600384901b60f8161c1916905538808061232b565b86860135885590960195938401938793509081019061231a565b634e487b7160e01b875260416004528787fd5b0101359050893880612266565b858c52868c20601f19851695509250908c908c5b888782106123de57505084600196106123c2575b50505050811b01905561227c565b60001960f88660031b161c199201013516905538808b816123b4565b8483019093013585556001909401938e9291820191016123a0565b604051635a78c58160e11b8152600490fd5b8580fd5b50346115df5760203660031901126115df5761243161242c612b84565b6138fe565b91604051928392151583526040602084015261245a815160e06040860152610120850190612ded565b9160018060401b03602083015116606085015260408201516080850152606082015192603f198582030160a0860152835180825260208201916020808360051b83010196019284915b838310612587575050505050608082015192603f198582030160c0860152835190818152602081016020808460051b84010196019380925b8484106125095788806117ba8a60c08b60a081015160e08601520151603f1984830301610100850152612d70565b919395969092949750601f19828203018452875160206125328251604085526040850190612ded565b910151828203602093840152805180835291830192019084905b80821061256f5750505060208060019299019401940191889796959394916124db565b9091926020806001928651815201940192019061254c565b919395966001919395985060208091601f19858203018652885190828061262184516040855260a08151916125e16125cc60c0948560408b01526101008a0190612e34565b82870151898203603f190160608b0152612e34565b92604082015160808901528b8060401b036060830151168389015263ffffffff60e01b608083015116908801520151603f198683030160e0870152612d70565b9301511515910152970193019301909288979492939695966124a3565b50346115df5760403660031901126115df57612658612b84565b6024356001600160a01b03811692908390036111a757604091600180841b03168152600a602052600382822080548352016020522090600052602052602060ff604060002054166040519015158152f35b50346115df57806003193601126115df576020600654604051908152f35b50346115df57806003193601126115df57602060405160ff7f0000000000000000000000000000000000000000000000000000000000000000168152f35b50346115df57806003193601126115df576001546040805191901c6001600160401b03168152602090f35b50346115df57806003193601126115df5761274961312a565b6127516131ad565b600854158015906127dd575b6127cb576005805460ff60401b1916600360401b179055807f00000000000000000000000000000000000000000000000000000000000000006001600160a01b0316803b156121d7578180916004604051809481936341c0e1b560e01b83525af180156110e65761215b5750f35b604051636b62255160e11b8152600490fd5b50600454151561275d565b50346115df57806003193601126115df5761280161312a565b338152600c602052604081205480156128a857338252600c60205260408220829055817f00000000000000000000000000000000000000000000000000000000000000006001600160a01b0316803b1561114b578190602460405180948193631f0e077760e31b83528760048401525af1801561289d57612888575b5061075e9033613218565b9161289661075e9293612c12565b919061287d565b6040513d85823e3d90fd5b6040516367300f9160e11b8152600490fd5b50346115df5760203660031901126115df5760206128d9600435613064565b905460405160039290921b1c6001600160a01b03168152f35b50346115df5760203660031901126115df576020906040906001600160a01b0361291a612bae565b168152600b83522054604051908152f35b50346115df5760203660031901126115df576117ba90611c7b906040906001600160a01b03612958612bae565b168152600d60205220612cca565b50346115df57806003193601126115df5760ff60055460401c16604051906006811015611e7257602092508152f35b50346115df57806003193601126115df576040517f00000000000000000000000000000000000000000000000000000000000000006001600160401b03168152602090f35b50346115df5760208060031936011261114b57612a19816129fc61242c612b84565b604094919451809481926339aa47fb60e01b835260048301613a10565b038173__$1cd67d4dc9e627f0bec7928aa480e7d951$__5af49182156111b4578492612a51575b506040809450519215158352820152f35b9080925081813d8311612a7d575b612a698183612ca7565b810103126110e25760409350519038612a40565b503d612a5f565b50346115df57806003193601126115df5760606002546040519060018060401b03908181168352818160401c16602084015260801c166040820152f35b50346115df57806003193601126115df576020600854604051908152f35b50346115df57806003193601126115df5760206040517f00000000000000000000000000000000000000000000000000000000000000008152f35b50346115df57806003193601126115df576040517f00000000000000000000000000000000000000000000000000000000000000006001600160401b03168152602090f35b90503461114b578160031936011261114b576005546001600160401b03168152602090f35b600435906001600160401b03821682036111a757565b35906001600160401b03821682036111a757565b600435906001600160a01b03821682036111a757565b35906001600160a01b03821682036111a757565b90600182811c92168015612c08575b6020831014612bf257565b634e487b7160e01b600052602260045260246000fd5b91607f1691612be7565b6001600160401b038111612c2557604052565b634e487b7160e01b600052604160045260246000fd5b604081019081106001600160401b03821117612c2557604052565b608081019081106001600160401b03821117612c2557604052565b60e081019081106001600160401b03821117612c2557604052565b60c081019081106001600160401b03821117612c2557604052565b601f909101601f19168101906001600160401b03821190821017612c2557604052565b9060405191826000825492612cde84612bd8565b908184526001948581169081600014612d4d5750600114612d0a575b5050612d0892500383612ca7565b565b9093915060005260209081600020936000915b818310612d35575050612d0893508201013880612cfa565b85548884018501529485019487945091830191612d1d565b915050612d0894506020925060ff191682840152151560051b8201013880612cfa565b919082519283825260005b848110612d9c575050826000602080949584010152601f8019910116010190565b602081830181015184830182015201612d7b565b90815180825260208080930193019160005b828110612dd0575050505090565b83516001600160a01b031685529381019392810192600101612dc2565b9060406020612e1193600180841b0381511684520151918160208201520190612db0565b90565b9060406020612e119360ff81511684520151918160208201520190612d70565b612e11916020612e4d8351604084526040840190612ded565b920151906020818403910152612e14565b90815480825260208092019260005281600020916000905b828210612e84575050505090565b83546001600160a01b031685529384019360019384019390910190612e76565b9060016020604051612eb581612c3b565b612ed58195848060401b038154168352611dd16040518096819301612e5e565b0152565b9060009291805491612eea83612bd8565b918282526001938481169081600014612f4c5750600114612f0c575b50505050565b90919394506000526020928360002092846000945b838610612f38575050505001019038808080612f06565b805485870183015294019385908201612f21565b9294505050602093945060ff191683830152151560051b01019038808080612f06565b7f00000000000000000000000000000000000000000000000000000000000000006001600160a01b03163303612fa157565b60405163e7e601db60e01b8152600490fd5b91908201809211612fc057565b634e487b7160e01b600052601160045260246000fd5b818110612fe1575050565b60008155600101612fd6565b9190601f8111612ffc57505050565b612d08926000526020600020906020601f840160051c83019310613028575b601f0160051c0190612fd6565b909150819061301b565b903590601e19813603018212156111a757018035906001600160401b0382116111a7576020019181360383136111a757565b60085481101561307f57600860005260206000200190600090565b634e487b7160e01b600052603260045260246000fd5b60008181526009602052604081205461310d57600854600160401b8110156130f95790826130e56130ce84600160409601600855613064565b819391549060031b91821b91600019901b19161790565b905560085492815260096020522055600190565b634e487b7160e01b82526041600452602482fd5b905090565b908160209103126111a7575180151581036111a75790565b604051630972932760e21b815233600482015260208160248173__$e800e3908cdbb6b1b5bd452383a17b18f7$__5af49081156131a157600091613183575b501561317157565b60405163b7150de560e01b8152600490fd5b61319b915060203d811161105d5761104f8183612ca7565b38613169565b6040513d6000823e3d90fd5b60ff60055460401c1660068110156131da576003146131c857565b60405163248c8efb60e11b8152600490fd5b634e487b7160e01b600052602160045260246000fd5b91908203918211612fc057565b6001600160401b038111612c2557601f01601f191660200190565b81471061327a576000918291829182916001600160a01b03165af13d15613275573d613243816131fd565b906132516040519283612ca7565b8152600060203d92013e5b1561326357565b604051630a12f52160e11b8152600490fd5b61325c565b60405163cd78605960e01b8152306004820152602490fd5b60008181526009602052604081205490919080156133775760001990808201818111613363576008549083820191821161334f5780820361331b575b5050506008548015613307578101906132e682613064565b909182549160031b1b19169055600855815260096020526040812055600190565b634e487b7160e01b84526031600452602484fd5b61333961332a6130ce93613064565b90549060031b1c928392613064565b90558452600960205260408420553880806132ce565b634e487b7160e01b86526011600452602486fd5b634e487b7160e01b85526011600452602485fd5b505090565b356001600160401b03811681036111a75790565b903590603e19813603018212156111a7570190565b6001600160401b038111612c255760051b60200190565b91906040838203126111a757604051926133d584612c3b565b836133df82612b9a565b815260209180830135906001600160401b0382116111a757019280601f850112156111a757833561340f816133a5565b9461341d6040519687612ca7565b818652848087019260051b8201019283116111a75784809101915b83831061344757505050500152565b819061345284612bc4565b8152019101908490613438565b80516001600160401b03168252602090810151604082840181905281519084018190526060909301929082019160005b82811061349d575050505090565b83516001600160a01b03168552938101939281019260010161348f565b903590601e19813603018212156111a757018035906001600160401b0382116111a757602001918160051b360383136111a757565b9035603e19823603018112156111a7570190565b359060ff821682036111a757565b9035601e19823603018112156111a7570160208101919035906001600160401b0382116111a75781360383136111a757565b908060209392818452848401376000828201840152601f01601f1916010190565b919061357083806134ef565b604082526001600160401b0393909190608082018561358e85612b9a565b16604084015260209384810135601e19823603018112156111a757019084823592019682116111a7578160051b360387136111a7578190604060608601525260a08301959060005b81811061362557505050612e1193946136186040936135f98487879601906134ef565b908681850391015260ff61360c82613503565b16835285810190613511565b9390948201520191613543565b9091968580600192838060a01b0361363c8c612bc4565b1681520198019291016135d6565b35906001600160e01b0319821682036111a757565b359081151582036111a757565b6040519061367982612c3b565b6060602083600081520152565b805182101561307f5760209160051b010190565b90600160206040516136ab81612c3b565b612ed5819560ff8154168352611dd16040518096819301612ed9565b906040516136d481612c3b565b60206136ee600283956136e681612ea4565b85520161369a565b910152565b90815480825260208092019260005281600020916000905b828210613719575050505090565b83548552938401936001938401939091019061370b565b9060409182519061374082612c71565b819361374b82612ea4565b835260018060401b0360029080828501541660209081870152600390818601548588015260049283870193845490613782826133a5565b9261378f89519485612ca7565b8284528484019160009788528588209188935b8b86861061385f5750505050505050606088015260058601908154936137c7856133a5565b956137d488519788612ca7565b85875282870193825282822091935b868510613819575050505050505060c092611dd18593612ed59360806007980152600683015460a0860152518096819301612ed9565b85846001928b5161382981612c3b565b61383287612ea4565b81528c5161384d81613846818a8c016136f3565b0382612ca7565b838201528152019301940193916137e3565b8860019282600c939d9b9d519061387582612c3b565b600a81519161388383612c8c565b61388c8b6136c7565b83526138998a8c016136c7565b8684015260088b0154818401526138da8b6117976009820154938c8516606088015260a09463ffffffff60e01b90861b166080880152518095819301612ed9565b820152815260ff600b890154161515838201528152019401940193929896986137a2565b6040519061390b82612c71565b61391361366c565b8252600090606060c0602094848682015284604082015282808201528260808201528460a0820152015260018060401b031681526007825261397f61395a60408320613730565b9280845160405180948192630c133d1360e31b8352846004840152602483019061345f565b038173__$a0fe38a9a81205afccc10810b09a4d3f45$__5af49283156139c857926139ab575b50501591565b6139c19250803d1061105d5761104f8183612ca7565b38806139a5565b604051903d90823e3d90fd5b60406020612e1193816139ee85518584528584019061345f565b940151908281860391015260ff81511684520151918160208201520190612d70565b919060209081845280519360e083820152613a31610100958683019061345f565b9160018060401b0380858301511690604091828501528183015197606098898601528884015198601f19966080938888830301858901528b51928383528a8301948b808660051b8601019e016080526000935b858510613b5f575050505050505082015194848489030160a08501528551908189528089019281808460051b8c01019801936000915b848310613aea57505050505050612e1194955060c08160a060e09301518285015201519282850301910152612d70565b90919289898d8397989c030184528a5182613b0c82518685528685019061345f565b91015191838183039101528280835192838152019201906000905b808210613b465750505090806001929b01930193019194939290613aba565b9193806001929486518152019401920187939291613b27565b9091929394959d8c8f82828f613bf18e8a8f8d9786958c60019c030190528b836080515199613ba08b5193838c528451908c60c095869101528c01906139d4565b88840151603f198c83038101888e01529691613bbb916139d4565b96840151858c0152830151169260a093848b015263ffffffff60e01b9083015116908901520151908683030160e0870152612d70565b930151151591015260808051830190529f0196950193929190613a84565b81601f820112156111a757803590613c26826131fd565b92613c346040519485612ca7565b828452602083830101116111a757816000926020809301838601378301015290565b91906040838203126111a75760405192613c6f84612c3b565b6001600160401b0390849080358381116111a75784613c8f9183016133bc565b82526020810135908382116111a757016040818503126111a75760405193613cb685612c3b565b613cbf82613503565b855260208201359384116111a757602093613cda9201613c0f565b828401520152565b80546000825580613cf1575050565b612d0891600052602060002090810190612fd6565b90600160401b8111612c2557815490808355818110613d2457505050565b612d089260005260206000209182019101612fd6565b613d448154612bd8565b9081613d4e575050565b81601f60009311600114613d60575055565b908083918252613d7f601f60208420940160051c840160018501612fd6565b5555565b6003612d089160008155613d9960018201613ce2565b6000600282015501613d3a565b600160401b8211612c2557805490828155818310613dc357505050565b600c928284029284840403612fc0578084029084820403612fc05760009182526020822092830192015b828110613dfa5750505050565b80613e058592613d83565b613e1160048201613d83565b826008820155826009820155613e29600a8201613d3a565b82600b82015501613ded565b805463ffffffff60401b191660a09290921c63ffffffff60401b16919091179055565b600160401b8211612c2557805491808255828110613e7557505050565b60009182526020822092830192015b828110613e9057505050565b818155600101613e84565b600160401b8211612c2557805490828155818310613eb857505050565b6003928284029284840403612fc0578084029084820403612fc057600091825260209081832093840193015b838110613ef2575050505050565b80838692556001613f04818301613ce2565b6002820180549086815581613f1d575b50505001613ee4565b8652848620908101905b81811015613f14578681558894508201613f27565b818114613fa5578154916001600160401b038311612c2557613f5e8383613d06565b60005260206000209060005260206000208154916000925b848410613f84575050505050565b600191820180546001600160a01b0390921684860155939091019290613f76565b5050565b90808214613fa557613fbb8154612bd8565b906001600160401b038211612c25578190613fda826108fe8654612bd8565b600090601f831160011461401157600092614006575b50508160011b916000199060031b1c1916179055565b015490503880613ff0565b81526020808220858352818320935090601f1985169083905b82821061406457505090846001959493921061404b575b505050811b019055565b015460001960f88460031b161c19169055388080614041565b849581929585015481556001809101960194019061402a565b818114613fa5578154916140918383613da6565b6000526020600020906000526020600020906000905b8382106140b45750505050565b80600191841415806140d2575b50600c8091019301910190916140a7565b806140ff575b506140f9600b60ff81840154169086019060ff801983541691151516179055565b386140c1565b806141df575b5060048085019082018082141580614170575b5050506008808201549085015561415a6009808601908301848060401b03815416858060401b031983541617825563ffffffff60e01b905460a01b1690613e35565b61416a600a808301908601613fa9565b386140d8565b6141b2575b5050600680850190820180820361418d575b80614118565b60ff90541660ff198254161790556141ab6007808301908601613fa9565b3880614187565b838060401b03905416838060401b03198254161790556141d86005808301908601613f3c565b3880614175565b61421f575b60028085019082018082036141fa575b50614105565b60ff90541660ff198254161790556142186003808301908601613fa9565b38806141f4565b818060401b03815416828060401b031985541617845561424482808301908601613f3c565b6141e4565b818114613fa5578154916001600160401b038311612c255761426b8383613e58565b60005260206000209060005260206000208154916000925b848410614291575050505050565b6001809192019384549281850155019290614283565b818114613fa5578154916142bb8383613e9b565b6000526020600020906000526020600020906000905b8382106142de5750505050565b80600191841415806142fc575b5060038091019301910190916142d1565b614317575b6143116002808301908601614249565b386142eb565b818060401b03815416828060401b031985541617845561433c82808301908601613f3c565b614301565b80546001600160401b03168252604060208301819052612e11920190600101612e5e565b60036040612e119381815261437c82820185614341565b90602081830391015260ff6002850154168152816020820152019101612ed9565b6002810154906000918252600581016020526040822060065491600682019283540361478e57506002810180549091906143df906001600160401b0316614843565b81546001600160401b031684526007602052604084208181141590816146eb575b505061442a602061441083613730565b604051809381926339aa47fb60e01b835260048301613a10565b038173__$1cd67d4dc9e627f0bec7928aa480e7d951$__5af49081156110645785916146b9575b506006557f00000000000000000000000000000000000000000000000000000000000000006001600160a01b03163b156110e257604051631a9c293560e31b81526020600482015260e06024820152928492849290916144b5610104850183614341565b92546001600160401b03166044850152600382015460648501528383036023190160848501526004820180548085529086526020808720600583901b86018201959092918891908101905b83831061460757505050505060058201926023198582030160a48601528354808252602082019160208260051b820101958852602088209288915b8383106145b6575050925460c48701525050508282036023190160e4840152829161456891600701612ed9565b0381837f00000000000000000000000000000000000000000000000000000000000000006001600160a01b03165af180156110e6576145a5575050565b6145af8291612c12565b6115df5750565b929597509297509294602060036145f4600193601f19868203018752604081526145e3604082018d614341565b908481830391015260028c016136f3565b990193019301899795938997959261453b565b9295975092975092946020600c89600193601f19868203018752604081528360ff600b61469d60c0806040870152614643610100870188614365565b61465d603f1991828982030160608a015260048a01614365565b9160088901546080890152600989015460a0908d8060401b038116828b015263ffffffff60e01b911b16908801528682030160e0870152600a8701612ed9565b9401541615159101529901930193018997959389979592614500565b90506020813d6020116146e3575b816146d460209383612ca7565b810103126111a7575138614451565b3d91506146c7565b6147559161475c575b83546002820180546001600160401b0319166001600160401b039290921691909117905560038381015490820155614732600480850190830161407d565b61474260058401600583016142a7565b8454600682015560078084019101613fa9565b3880614400565b825481546001600160401b0319166001600160401b03919091161781556147896001848101908301613f3c565b6146f4565b9092915073__$e0f829f5071d7e628aa77eca0c12e35bc2$__90813b156110f1578290602460405180948193635a27a53960e11b835260048301525af480156110e657614834575b5060029091015473__$b7b8687e33476c74e3b4e0a64c4768a343$__906001600160401b0316813b156110f15782906044604051809481936394ecccfd60e01b83526002600484015260248301525af480156110e6576145a5575050565b61483d90612c12565b386147d6565b61484c81614941565b1561493e57604051634953836d60e11b8152600260048201526001600160401b03918216602482018190529173__$b7b8687e33476c74e3b4e0a64c4768a343$__9190602082604481865af480156131a1578492600091614920575b5061490d575b5050803b156111a7576000604491604051928380926394ecccfd60e01b8252600260048301528660248301525af480156131a1576148fe575b50600180546001600160401b031916919091179055565b61490790612c12565b386148e7565b60025460401c1603613fa55781386148ae565b614938915060203d811161105d5761104f8183612ca7565b386148a8565b50565b6001546001600160401b039081167f0000000000000000000000000000000000000000000000000000000000000000821601818111612fc057811691161490565b60ff7f000000000000000000000000000000000000000000000000000000000000000016808302908382041483151715612fc0576064900460405191637d2ef4e560e11b835280600484015260208360248173__$e0f829f5071d7e628aa77eca0c12e35bc2$__5af49283156131a157600093614a44575b50600101549080821115614a3b57808311614a3257614a2292614a1c916131f0565b926131f0565b1115614a2d57600190565b600290565b50505050600390565b50505050600090565b90926020823d8211614a70575b81614a5e60209383612ca7565b810103126115df5750519160016149fa565b3d9150614a5156fea26469706673582212203fdfc8ee39f3fe7b0579dfc8926cd8caa717b104667eaf872aa3f22e1173fffe64736f6c63430008130033",
    "linkReferences": {
      "src/lib/AccountHelper.sol": {
        "AccountHelper": [
          {
            "start": 15086,
            "length": 20
          }
        ]
      },
      "src/lib/CheckpointHelper.sol": {
        "CheckpointHelper": [
          {
            "start": 3943,
            "length": 20
          },
          {
            "start": 4303,
            "length": 20
          },
          {
            "start": 13254,
            "length": 20
          },
          {
            "start": 19927,
            "length": 20
          }
        ]
      },
      "src/lib/CrossMsgHelper.sol": {
        "CrossMsgHelper": [
          {
            "start": 3411,
            "length": 20
          }
        ]
      },
      "src/lib/EpochVoteSubmissionHelper.sol": {
        "EpochVoteSubmissionHelper": [
          {
            "start": 6828,
            "length": 20
          },
          {
            "start": 20797,
            "length": 20
          },
          {
            "start": 21375,
            "length": 20
          }
        ]
      },
      "src/lib/ExecutableQueueHelper.sol": {
        "ExecutableQueueHelper": [
          {
            "start": 6682,
            "length": 20
          },
          {
            "start": 20872,
            "length": 20
          },
          {
            "start": 21027,
            "length": 20
          }
        ]
      },
      "src/lib/SubnetIDHelper.sol": {
        "SubnetIDHelper": [
          {
            "start": 1035,
            "length": 20
          },
          {
            "start": 3250,
            "length": 20
          },
          {
            "start": 17196,
            "length": 20
          }
        ]
      }
    }
  },
  "methodIdentifiers": {
    "MIN_CHECKPOINT_PERIOD()": "a1ada303",
    "MIN_COLLATERAL_AMOUNT()": "91be4d41",
    "accumulatedRewards(address)": "73f273fc",
    "bottomUpCheckPeriod()": "06c46853",
    "bottomUpCheckpointAtEpoch(uint64)": "6cb2ecee",
    "bottomUpCheckpointHashAtEpoch(uint64)": "133f74ea",
    "committedCheckpoints(uint64)": "98903748",
    "configurationNumber()": "04fda3d4",
    "consensus()": "8ef3f761",
    "currentSubnetHash()": "c18f64aa",
    "executableQueue()": "10d500e1",
    "genesis()": "a7f0b3de",
    "getGenesisEpoch()": "51392fc0",
    "getParent()": "80f76021",
    "getValidatorSet()": "cf331250",
    "getValidators()": "b7ab4db5",
    "hasValidatorVotedForSubmission(uint64,address)": "66d7bbbc",
    "ipcGatewayAddr()": "cfca2824",
    "join(string,(uint8,bytes))": "6cf6970a",
    "kill()": "41c0e1b5",
    "lastVotingExecutedEpoch()": "ad81e244",
    "leave()": "d66d9e19",
    "majorityPercentage()": "599c7bd1",
    "minActivationCollateral()": "9e33bd02",
    "minValidators()": "c5ab2241",
    "name()": "06fdde03",
    "prevExecutedCheckpointHash()": "5f832dbf",
    "reward(uint256)": "a9fb763c",
    "stake(address)": "26476204",
    "status()": "200d2ed2",
    "submissionPeriod()": "185fde7e",
    "submitCheckpoint(((uint64,address[]),uint64,uint256,((((uint64,address[]),(uint8,bytes)),((uint64,address[]),(uint8,bytes)),uint256,uint64,bytes4,bytes),bool)[],((uint64,address[]),bytes32[])[],bytes32,bytes))": "f6fd8381",
    "topDownCheckPeriod()": "7d9740f4",
    "totalStake()": "8b0e9f3f",
    "validatorAt(uint256)": "32e0aa1f",
    "validatorCount()": "0f43a677",
    "validatorNetAddresses(address)": "23a35705",
    "validatorWorkerAddresses(address)": "d4e25bab",
    "withdraw()": "3ccfd60b"
  },
  "id": 9
}