{
  "abi": [
    {
      "inputs": [
        {
          "components": [
            {
              "components": [
                {
                  "internalType": "uint64",
                  "name": "root",
                  "type": "uint64"
                },
                {
                  "internalType": "address[]",
                  "name": "route",
                  "type": "address[]"
                }
              ],
              "internalType": "struct SubnetID",
              "name": "networkName",
              "type": "tuple"
            },
            {
              "internalType": "uint64",
              "name": "bottomUpCheckPeriod",
              "type": "uint64"
            },
            {
              "internalType": "uint64",
              "name": "topDownCheckPeriod",
              "type": "uint64"
            },
            {
              "internalType": "uint256",
              "name": "msgFee",
              "type": "uint256"
            },
            {
              "internalType": "uint8",
              "name": "majorityPercentage",
              "type": "uint8"
            }
          ],
          "internalType": "struct Gateway.ConstructorParams",
          "name": "params",
          "type": "tuple"
        }
      ],
      "stateMutability": "nonpayable",
      "type": "constructor"
    },
    {
      "inputs": [],
      "name": "AlreadyInitialized",
      "type": "error"
    },
    {
      "inputs": [],
      "name": "AlreadyRegisteredSubnet",
      "type": "error"
    },
    {
      "inputs": [],
      "name": "CallFailed",
      "type": "error"
    },
    {
      "inputs": [],
      "name": "CannotReleaseZero",
      "type": "error"
    },
    {
      "inputs": [],
      "name": "CannotSendCrossMsgToItself",
      "type": "error"
    },
    {
      "inputs": [],
      "name": "EmptySubnet",
      "type": "error"
    },
    {
      "inputs": [],
      "name": "EpochAlreadyExecuted",
      "type": "error"
    },
    {
      "inputs": [],
      "name": "EpochNotVotable",
      "type": "error"
    },
    {
      "inputs": [],
      "name": "InconsistentPrevCheckpoint",
      "type": "error"
    },
    {
      "inputs": [],
      "name": "InsufficientFunds",
      "type": "error"
    },
    {
      "inputs": [],
      "name": "InvalidActorAddress",
      "type": "error"
    },
    {
      "inputs": [],
      "name": "InvalidCheckpointEpoch",
      "type": "error"
    },
    {
      "inputs": [],
      "name": "InvalidCheckpointSource",
      "type": "error"
    },
    {
      "inputs": [],
      "name": "InvalidCrossMsgDestinationAddress",
      "type": "error"
    },
    {
      "inputs": [],
      "name": "InvalidCrossMsgDestinationSubnet",
      "type": "error"
    },
    {
      "inputs": [],
      "name": "InvalidCrossMsgFromRawAddress",
      "type": "error"
    },
    {
      "inputs": [],
      "name": "InvalidCrossMsgFromSubnetId",
      "type": "error"
    },
    {
      "inputs": [],
      "name": "InvalidCrossMsgNonce",
      "type": "error"
    },
    {
      "inputs": [],
      "name": "InvalidCrossMsgsSortOrder",
      "type": "error"
    },
    {
      "inputs": [],
      "name": "InvalidMajorityPercentage",
      "type": "error"
    },
    {
      "inputs": [],
      "name": "InvalidPostboxOwner",
      "type": "error"
    },
    {
      "inputs": [],
      "name": "MessagesNotSorted",
      "type": "error"
    },
    {
      "inputs": [],
      "name": "NotEmptySubnetCircSupply",
      "type": "error"
    },
    {
      "inputs": [],
      "name": "NotEnoughBalance",
      "type": "error"
    },
    {
      "inputs": [],
      "name": "NotEnoughFee",
      "type": "error"
    },
    {
      "inputs": [],
      "name": "NotEnoughFunds",
      "type": "error"
    },
    {
      "inputs": [],
      "name": "NotEnoughFundsForMembership",
      "type": "error"
    },
    {
      "inputs": [],
      "name": "NotEnoughFundsToRelease",
      "type": "error"
    },
    {
      "inputs": [],
      "name": "NotInitialized",
      "type": "error"
    },
    {
      "inputs": [],
      "name": "NotRegisteredSubnet",
      "type": "error"
    },
    {
      "inputs": [],
      "name": "NotSignableAccount",
      "type": "error"
    },
    {
      "inputs": [],
      "name": "NotSystemActor",
      "type": "error"
    },
    {
      "inputs": [],
      "name": "NotValidator",
      "type": "error"
    },
    {
      "inputs": [],
      "name": "PostboxNotExist",
      "type": "error"
    },
    {
      "inputs": [],
      "name": "SubnetNotActive",
      "type": "error"
    },
    {
      "inputs": [],
      "name": "ValidatorAlreadyVoted",
      "type": "error"
    },
    {
      "inputs": [],
      "name": "ValidatorWeightIsZero",
      "type": "error"
    },
    {
      "inputs": [],
      "name": "ValidatorsAndWeightsLengthMismatch",
      "type": "error"
    },
    {
      "inputs": [],
      "name": "MIN_CHECKPOINT_PERIOD",
      "outputs": [
        {
          "internalType": "uint8",
          "name": "",
          "type": "uint8"
        }
      ],
      "stateMutability": "view",
      "type": "function"
    },
    {
      "inputs": [],
      "name": "MIN_COLLATERAL_AMOUNT",
      "outputs": [
        {
          "internalType": "uint256",
          "name": "",
          "type": "uint256"
        }
      ],
      "stateMutability": "view",
      "type": "function"
    },
    {
      "inputs": [],
      "name": "addStake",
      "outputs": [],
      "stateMutability": "payable",
      "type": "function"
    },
    {
      "inputs": [],
      "name": "appliedTopDownNonce",
      "outputs": [
        {
          "internalType": "uint64",
          "name": "",
          "type": "uint64"
        }
      ],
      "stateMutability": "view",
      "type": "function"
    },
    {
      "inputs": [],
      "name": "bottomUpCheckPeriod",
      "outputs": [
        {
          "internalType": "uint64",
          "name": "",
          "type": "uint64"
        }
      ],
      "stateMutability": "view",
      "type": "function"
    },
    {
      "inputs": [
        {
          "internalType": "uint64",
          "name": "epoch",
          "type": "uint64"
        }
      ],
      "name": "bottomUpCheckpointAtEpoch",
      "outputs": [
        {
          "internalType": "bool",
          "name": "exists",
          "type": "bool"
        },
        {
          "components": [
            {
              "components": [
                {
                  "internalType": "uint64",
                  "name": "root",
                  "type": "uint64"
                },
                {
                  "internalType": "address[]",
                  "name": "route",
                  "type": "address[]"
                }
              ],
              "internalType": "struct SubnetID",
              "name": "source",
              "type": "tuple"
            },
            {
              "internalType": "uint64",
              "name": "epoch",
              "type": "uint64"
            },
            {
              "internalType": "uint256",
              "name": "fee",
              "type": "uint256"
            },
            {
              "components": [
                {
                  "components": [
                    {
                      "components": [
                        {
                          "components": [
                            {
                              "internalType": "uint64",
                              "name": "root",
                              "type": "uint64"
                            },
                            {
                              "internalType": "address[]",
                              "name": "route",
                              "type": "address[]"
                            }
                          ],
                          "internalType": "struct SubnetID",
                          "name": "subnetId",
                          "type": "tuple"
                        },
                        {
                          "components": [
                            {
                              "internalType": "uint8",
                              "name": "addrType",
                              "type": "uint8"
                            },
                            {
                              "internalType": "bytes",
                              "name": "payload",
                              "type": "bytes"
                            }
                          ],
                          "internalType": "struct FvmAddress",
                          "name": "rawAddress",
                          "type": "tuple"
                        }
                      ],
                      "internalType": "struct IPCAddress",
                      "name": "from",
                      "type": "tuple"
                    },
                    {
                      "components": [
                        {
                          "components": [
                            {
                              "internalType": "uint64",
                              "name": "root",
                              "type": "uint64"
                            },
                            {
                              "internalType": "address[]",
                              "name": "route",
                              "type": "address[]"
                            }
                          ],
                          "internalType": "struct SubnetID",
                          "name": "subnetId",
                          "type": "tuple"
                        },
                        {
                          "components": [
                            {
                              "internalType": "uint8",
                              "name": "addrType",
                              "type": "uint8"
                            },
                            {
                              "internalType": "bytes",
                              "name": "payload",
                              "type": "bytes"
                            }
                          ],
                          "internalType": "struct FvmAddress",
                          "name": "rawAddress",
                          "type": "tuple"
                        }
                      ],
                      "internalType": "struct IPCAddress",
                      "name": "to",
                      "type": "tuple"
                    },
                    {
                      "internalType": "uint256",
                      "name": "value",
                      "type": "uint256"
                    },
                    {
                      "internalType": "uint64",
                      "name": "nonce",
                      "type": "uint64"
                    },
                    {
                      "internalType": "bytes4",
                      "name": "method",
                      "type": "bytes4"
                    },
                    {
                      "internalType": "bytes",
                      "name": "params",
                      "type": "bytes"
                    }
                  ],
                  "internalType": "struct StorableMsg",
                  "name": "message",
                  "type": "tuple"
                },
                {
                  "internalType": "bool",
                  "name": "wrapped",
                  "type": "bool"
                }
              ],
              "internalType": "struct CrossMsg[]",
              "name": "crossMsgs",
              "type": "tuple[]"
            },
            {
              "components": [
                {
                  "components": [
                    {
                      "internalType": "uint64",
                      "name": "root",
                      "type": "uint64"
                    },
                    {
                      "internalType": "address[]",
                      "name": "route",
                      "type": "address[]"
                    }
                  ],
                  "internalType": "struct SubnetID",
                  "name": "source",
                  "type": "tuple"
                },
                {
                  "internalType": "bytes32[]",
                  "name": "checks",
                  "type": "bytes32[]"
                }
              ],
              "internalType": "struct ChildCheck[]",
              "name": "children",
              "type": "tuple[]"
            },
            {
              "internalType": "bytes32",
              "name": "prevHash",
              "type": "bytes32"
            },
            {
              "internalType": "bytes",
              "name": "proof",
              "type": "bytes"
            }
          ],
          "internalType": "struct BottomUpCheckpoint",
          "name": "checkpoint",
          "type": "tuple"
        }
      ],
      "stateMutability": "view",
      "type": "function"
    },
    {
      "inputs": [
        {
          "internalType": "uint64",
          "name": "epoch",
          "type": "uint64"
        }
      ],
      "name": "bottomUpCheckpointHashAtEpoch",
      "outputs": [
        {
          "internalType": "bool",
          "name": "",
          "type": "bool"
        },
        {
          "internalType": "bytes32",
          "name": "",
          "type": "bytes32"
        }
      ],
      "stateMutability": "view",
      "type": "function"
    },
    {
      "inputs": [
        {
          "internalType": "uint64",
          "name": "",
          "type": "uint64"
        }
      ],
      "name": "bottomUpCheckpoints",
      "outputs": [
        {
          "components": [
            {
              "internalType": "uint64",
              "name": "root",
              "type": "uint64"
            },
            {
              "internalType": "address[]",
              "name": "route",
              "type": "address[]"
            }
          ],
          "internalType": "struct SubnetID",
          "name": "source",
          "type": "tuple"
        },
        {
          "internalType": "uint64",
          "name": "epoch",
          "type": "uint64"
        },
        {
          "internalType": "uint256",
          "name": "fee",
          "type": "uint256"
        },
        {
          "internalType": "bytes32",
          "name": "prevHash",
          "type": "bytes32"
        },
        {
          "internalType": "bytes",
          "name": "proof",
          "type": "bytes"
        }
      ],
      "stateMutability": "view",
      "type": "function"
    },
    {
      "inputs": [],
      "name": "bottomUpNonce",
      "outputs": [
        {
          "internalType": "uint64",
          "name": "",
          "type": "uint64"
        }
      ],
      "stateMutability": "view",
      "type": "function"
    },
    {
      "inputs": [
        {
          "components": [
            {
              "components": [
                {
                  "internalType": "uint64",
                  "name": "root",
                  "type": "uint64"
                },
                {
                  "internalType": "address[]",
                  "name": "route",
                  "type": "address[]"
                }
              ],
              "internalType": "struct SubnetID",
              "name": "source",
              "type": "tuple"
            },
            {
              "internalType": "uint64",
              "name": "epoch",
              "type": "uint64"
            },
            {
              "internalType": "uint256",
              "name": "fee",
              "type": "uint256"
            },
            {
              "components": [
                {
                  "components": [
                    {
                      "components": [
                        {
                          "components": [
                            {
                              "internalType": "uint64",
                              "name": "root",
                              "type": "uint64"
                            },
                            {
                              "internalType": "address[]",
                              "name": "route",
                              "type": "address[]"
                            }
                          ],
                          "internalType": "struct SubnetID",
                          "name": "subnetId",
                          "type": "tuple"
                        },
                        {
                          "components": [
                            {
                              "internalType": "uint8",
                              "name": "addrType",
                              "type": "uint8"
                            },
                            {
                              "internalType": "bytes",
                              "name": "payload",
                              "type": "bytes"
                            }
                          ],
                          "internalType": "struct FvmAddress",
                          "name": "rawAddress",
                          "type": "tuple"
                        }
                      ],
                      "internalType": "struct IPCAddress",
                      "name": "from",
                      "type": "tuple"
                    },
                    {
                      "components": [
                        {
                          "components": [
                            {
                              "internalType": "uint64",
                              "name": "root",
                              "type": "uint64"
                            },
                            {
                              "internalType": "address[]",
                              "name": "route",
                              "type": "address[]"
                            }
                          ],
                          "internalType": "struct SubnetID",
                          "name": "subnetId",
                          "type": "tuple"
                        },
                        {
                          "components": [
                            {
                              "internalType": "uint8",
                              "name": "addrType",
                              "type": "uint8"
                            },
                            {
                              "internalType": "bytes",
                              "name": "payload",
                              "type": "bytes"
                            }
                          ],
                          "internalType": "struct FvmAddress",
                          "name": "rawAddress",
                          "type": "tuple"
                        }
                      ],
                      "internalType": "struct IPCAddress",
                      "name": "to",
                      "type": "tuple"
                    },
                    {
                      "internalType": "uint256",
                      "name": "value",
                      "type": "uint256"
                    },
                    {
                      "internalType": "uint64",
                      "name": "nonce",
                      "type": "uint64"
                    },
                    {
                      "internalType": "bytes4",
                      "name": "method",
                      "type": "bytes4"
                    },
                    {
                      "internalType": "bytes",
                      "name": "params",
                      "type": "bytes"
                    }
                  ],
                  "internalType": "struct StorableMsg",
                  "name": "message",
                  "type": "tuple"
                },
                {
                  "internalType": "bool",
                  "name": "wrapped",
                  "type": "bool"
                }
              ],
              "internalType": "struct CrossMsg[]",
              "name": "crossMsgs",
              "type": "tuple[]"
            },
            {
              "components": [
                {
                  "components": [
                    {
                      "internalType": "uint64",
                      "name": "root",
                      "type": "uint64"
                    },
                    {
                      "internalType": "address[]",
                      "name": "route",
                      "type": "address[]"
                    }
                  ],
                  "internalType": "struct SubnetID",
                  "name": "source",
                  "type": "tuple"
                },
                {
                  "internalType": "bytes32[]",
                  "name": "checks",
                  "type": "bytes32[]"
                }
              ],
              "internalType": "struct ChildCheck[]",
              "name": "children",
              "type": "tuple[]"
            },
            {
              "internalType": "bytes32",
              "name": "prevHash",
              "type": "bytes32"
            },
            {
              "internalType": "bytes",
              "name": "proof",
              "type": "bytes"
            }
          ],
          "internalType": "struct BottomUpCheckpoint",
          "name": "commit",
          "type": "tuple"
        }
      ],
      "name": "commitChildCheck",
      "outputs": [],
      "stateMutability": "nonpayable",
      "type": "function"
    },
    {
      "inputs": [],
      "name": "crossMsgFee",
      "outputs": [
        {
          "internalType": "uint256",
          "name": "",
          "type": "uint256"
        }
      ],
      "stateMutability": "view",
      "type": "function"
    },
    {
      "inputs": [],
      "name": "executableQueue",
      "outputs": [
        {
          "internalType": "uint64",
          "name": "period",
          "type": "uint64"
        },
        {
          "internalType": "uint64",
          "name": "first",
          "type": "uint64"
        },
        {
          "internalType": "uint64",
          "name": "last",
          "type": "uint64"
        }
      ],
      "stateMutability": "view",
      "type": "function"
    },
    {
      "inputs": [
        {
          "components": [
            {
              "internalType": "uint64",
              "name": "root",
              "type": "uint64"
            },
            {
              "internalType": "address[]",
              "name": "route",
              "type": "address[]"
            }
          ],
          "internalType": "struct SubnetID",
          "name": "subnetId",
          "type": "tuple"
        },
        {
          "components": [
            {
              "internalType": "uint8",
              "name": "addrType",
              "type": "uint8"
            },
            {
              "internalType": "bytes",
              "name": "payload",
              "type": "bytes"
            }
          ],
          "internalType": "struct FvmAddress",
          "name": "to",
          "type": "tuple"
        }
      ],
      "name": "fund",
      "outputs": [],
      "stateMutability": "payable",
      "type": "function"
    },
    {
      "inputs": [],
      "name": "getGenesisEpoch",
      "outputs": [
        {
          "internalType": "uint64",
          "name": "",
          "type": "uint64"
        }
      ],
      "stateMutability": "view",
      "type": "function"
    },
    {
      "inputs": [],
      "name": "getNetworkName",
      "outputs": [
        {
          "components": [
            {
              "internalType": "uint64",
              "name": "root",
              "type": "uint64"
            },
            {
              "internalType": "address[]",
              "name": "route",
              "type": "address[]"
            }
          ],
          "internalType": "struct SubnetID",
          "name": "",
          "type": "tuple"
        }
      ],
      "stateMutability": "view",
      "type": "function"
    },
    {
      "inputs": [
        {
          "components": [
            {
              "internalType": "uint64",
              "name": "root",
              "type": "uint64"
            },
            {
              "internalType": "address[]",
              "name": "route",
              "type": "address[]"
            }
          ],
          "internalType": "struct SubnetID",
          "name": "subnetId",
          "type": "tuple"
        }
      ],
      "name": "getSubnet",
      "outputs": [
        {
          "internalType": "bool",
          "name": "",
          "type": "bool"
        },
        {
          "components": [
            {
              "internalType": "enum Status",
              "name": "status",
              "type": "uint8"
            },
            {
              "internalType": "uint64",
              "name": "topDownNonce",
              "type": "uint64"
            },
            {
              "internalType": "uint64",
              "name": "appliedBottomUpNonce",
              "type": "uint64"
            },
            {
              "internalType": "uint256",
              "name": "stake",
              "type": "uint256"
            },
            {
              "internalType": "uint256",
              "name": "genesisEpoch",
              "type": "uint256"
            },
            {
              "internalType": "uint256",
              "name": "circSupply",
              "type": "uint256"
            },
            {
              "components": [
                {
                  "internalType": "uint64",
                  "name": "root",
                  "type": "uint64"
                },
                {
                  "internalType": "address[]",
                  "name": "route",
                  "type": "address[]"
                }
              ],
              "internalType": "struct SubnetID",
              "name": "id",
              "type": "tuple"
            },
            {
              "components": [
                {
                  "components": [
                    {
                      "internalType": "uint64",
                      "name": "root",
                      "type": "uint64"
                    },
                    {
                      "internalType": "address[]",
                      "name": "route",
                      "type": "address[]"
                    }
                  ],
                  "internalType": "struct SubnetID",
                  "name": "source",
                  "type": "tuple"
                },
                {
                  "internalType": "uint64",
                  "name": "epoch",
                  "type": "uint64"
                },
                {
                  "internalType": "uint256",
                  "name": "fee",
                  "type": "uint256"
                },
                {
                  "components": [
                    {
                      "components": [
                        {
                          "components": [
                            {
                              "components": [
                                {
                                  "internalType": "uint64",
                                  "name": "root",
                                  "type": "uint64"
                                },
                                {
                                  "internalType": "address[]",
                                  "name": "route",
                                  "type": "address[]"
                                }
                              ],
                              "internalType": "struct SubnetID",
                              "name": "subnetId",
                              "type": "tuple"
                            },
                            {
                              "components": [
                                {
                                  "internalType": "uint8",
                                  "name": "addrType",
                                  "type": "uint8"
                                },
                                {
                                  "internalType": "bytes",
                                  "name": "payload",
                                  "type": "bytes"
                                }
                              ],
                              "internalType": "struct FvmAddress",
                              "name": "rawAddress",
                              "type": "tuple"
                            }
                          ],
                          "internalType": "struct IPCAddress",
                          "name": "from",
                          "type": "tuple"
                        },
                        {
                          "components": [
                            {
                              "components": [
                                {
                                  "internalType": "uint64",
                                  "name": "root",
                                  "type": "uint64"
                                },
                                {
                                  "internalType": "address[]",
                                  "name": "route",
                                  "type": "address[]"
                                }
                              ],
                              "internalType": "struct SubnetID",
                              "name": "subnetId",
                              "type": "tuple"
                            },
                            {
                              "components": [
                                {
                                  "internalType": "uint8",
                                  "name": "addrType",
                                  "type": "uint8"
                                },
                                {
                                  "internalType": "bytes",
                                  "name": "payload",
                                  "type": "bytes"
                                }
                              ],
                              "internalType": "struct FvmAddress",
                              "name": "rawAddress",
                              "type": "tuple"
                            }
                          ],
                          "internalType": "struct IPCAddress",
                          "name": "to",
                          "type": "tuple"
                        },
                        {
                          "internalType": "uint256",
                          "name": "value",
                          "type": "uint256"
                        },
                        {
                          "internalType": "uint64",
                          "name": "nonce",
                          "type": "uint64"
                        },
                        {
                          "internalType": "bytes4",
                          "name": "method",
                          "type": "bytes4"
                        },
                        {
                          "internalType": "bytes",
                          "name": "params",
                          "type": "bytes"
                        }
                      ],
                      "internalType": "struct StorableMsg",
                      "name": "message",
                      "type": "tuple"
                    },
                    {
                      "internalType": "bool",
                      "name": "wrapped",
                      "type": "bool"
                    }
                  ],
                  "internalType": "struct CrossMsg[]",
                  "name": "crossMsgs",
                  "type": "tuple[]"
                },
                {
                  "components": [
                    {
                      "components": [
                        {
                          "internalType": "uint64",
                          "name": "root",
                          "type": "uint64"
                        },
                        {
                          "internalType": "address[]",
                          "name": "route",
                          "type": "address[]"
                        }
                      ],
                      "internalType": "struct SubnetID",
                      "name": "source",
                      "type": "tuple"
                    },
                    {
                      "internalType": "bytes32[]",
                      "name": "checks",
                      "type": "bytes32[]"
                    }
                  ],
                  "internalType": "struct ChildCheck[]",
                  "name": "children",
                  "type": "tuple[]"
                },
                {
                  "internalType": "bytes32",
                  "name": "prevHash",
                  "type": "bytes32"
                },
                {
                  "internalType": "bytes",
                  "name": "proof",
                  "type": "bytes"
                }
              ],
              "internalType": "struct BottomUpCheckpoint",
              "name": "prevCheckpoint",
              "type": "tuple"
            },
            {
              "components": [
                {
                  "components": [
                    {
                      "components": [
                        {
                          "components": [
                            {
                              "internalType": "uint64",
                              "name": "root",
                              "type": "uint64"
                            },
                            {
                              "internalType": "address[]",
                              "name": "route",
                              "type": "address[]"
                            }
                          ],
                          "internalType": "struct SubnetID",
                          "name": "subnetId",
                          "type": "tuple"
                        },
                        {
                          "components": [
                            {
                              "internalType": "uint8",
                              "name": "addrType",
                              "type": "uint8"
                            },
                            {
                              "internalType": "bytes",
                              "name": "payload",
                              "type": "bytes"
                            }
                          ],
                          "internalType": "struct FvmAddress",
                          "name": "rawAddress",
                          "type": "tuple"
                        }
                      ],
                      "internalType": "struct IPCAddress",
                      "name": "from",
                      "type": "tuple"
                    },
                    {
                      "components": [
                        {
                          "components": [
                            {
                              "internalType": "uint64",
                              "name": "root",
                              "type": "uint64"
                            },
                            {
                              "internalType": "address[]",
                              "name": "route",
                              "type": "address[]"
                            }
                          ],
                          "internalType": "struct SubnetID",
                          "name": "subnetId",
                          "type": "tuple"
                        },
                        {
                          "components": [
                            {
                              "internalType": "uint8",
                              "name": "addrType",
                              "type": "uint8"
                            },
                            {
                              "internalType": "bytes",
                              "name": "payload",
                              "type": "bytes"
                            }
                          ],
                          "internalType": "struct FvmAddress",
                          "name": "rawAddress",
                          "type": "tuple"
                        }
                      ],
                      "internalType": "struct IPCAddress",
                      "name": "to",
                      "type": "tuple"
                    },
                    {
                      "internalType": "uint256",
                      "name": "value",
                      "type": "uint256"
                    },
                    {
                      "internalType": "uint64",
                      "name": "nonce",
                      "type": "uint64"
                    },
                    {
                      "internalType": "bytes4",
                      "name": "method",
                      "type": "bytes4"
                    },
                    {
                      "internalType": "bytes",
                      "name": "params",
                      "type": "bytes"
                    }
                  ],
                  "internalType": "struct StorableMsg",
                  "name": "message",
                  "type": "tuple"
                },
                {
                  "internalType": "bool",
                  "name": "wrapped",
                  "type": "bool"
                }
              ],
              "internalType": "struct CrossMsg[]",
              "name": "topDownMsgs",
              "type": "tuple[]"
            }
          ],
          "internalType": "struct Subnet",
          "name": "",
          "type": "tuple"
        }
      ],
      "stateMutability": "view",
      "type": "function"
    },
    {
      "inputs": [
        {
          "components": [
            {
              "internalType": "uint64",
              "name": "root",
              "type": "uint64"
            },
            {
              "internalType": "address[]",
              "name": "route",
              "type": "address[]"
            }
          ],
          "internalType": "struct SubnetID",
          "name": "subnetId",
          "type": "tuple"
        },
        {
          "internalType": "uint256",
          "name": "index",
          "type": "uint256"
        }
      ],
      "name": "getSubnetTopDownMsg",
      "outputs": [
        {
          "components": [
            {
              "components": [
                {
                  "components": [
                    {
                      "components": [
                        {
                          "internalType": "uint64",
                          "name": "root",
                          "type": "uint64"
                        },
                        {
                          "internalType": "address[]",
                          "name": "route",
                          "type": "address[]"
                        }
                      ],
                      "internalType": "struct SubnetID",
                      "name": "subnetId",
                      "type": "tuple"
                    },
                    {
                      "components": [
                        {
                          "internalType": "uint8",
                          "name": "addrType",
                          "type": "uint8"
                        },
                        {
                          "internalType": "bytes",
                          "name": "payload",
                          "type": "bytes"
                        }
                      ],
                      "internalType": "struct FvmAddress",
                      "name": "rawAddress",
                      "type": "tuple"
                    }
                  ],
                  "internalType": "struct IPCAddress",
                  "name": "from",
                  "type": "tuple"
                },
                {
                  "components": [
                    {
                      "components": [
                        {
                          "internalType": "uint64",
                          "name": "root",
                          "type": "uint64"
                        },
                        {
                          "internalType": "address[]",
                          "name": "route",
                          "type": "address[]"
                        }
                      ],
                      "internalType": "struct SubnetID",
                      "name": "subnetId",
                      "type": "tuple"
                    },
                    {
                      "components": [
                        {
                          "internalType": "uint8",
                          "name": "addrType",
                          "type": "uint8"
                        },
                        {
                          "internalType": "bytes",
                          "name": "payload",
                          "type": "bytes"
                        }
                      ],
                      "internalType": "struct FvmAddress",
                      "name": "rawAddress",
                      "type": "tuple"
                    }
                  ],
                  "internalType": "struct IPCAddress",
                  "name": "to",
                  "type": "tuple"
                },
                {
                  "internalType": "uint256",
                  "name": "value",
                  "type": "uint256"
                },
                {
                  "internalType": "uint64",
                  "name": "nonce",
                  "type": "uint64"
                },
                {
                  "internalType": "bytes4",
                  "name": "method",
                  "type": "bytes4"
                },
                {
                  "internalType": "bytes",
                  "name": "params",
                  "type": "bytes"
                }
              ],
              "internalType": "struct StorableMsg",
              "name": "message",
              "type": "tuple"
            },
            {
              "internalType": "bool",
              "name": "wrapped",
              "type": "bool"
            }
          ],
          "internalType": "struct CrossMsg",
          "name": "",
          "type": "tuple"
        }
      ],
      "stateMutability": "view",
      "type": "function"
    },
    {
      "inputs": [
        {
          "components": [
            {
              "internalType": "uint64",
              "name": "root",
              "type": "uint64"
            },
            {
              "internalType": "address[]",
              "name": "route",
              "type": "address[]"
            }
          ],
          "internalType": "struct SubnetID",
          "name": "subnetId",
          "type": "tuple"
        }
      ],
      "name": "getSubnetTopDownMsgsLength",
      "outputs": [
        {
          "internalType": "uint256",
          "name": "",
          "type": "uint256"
        }
      ],
      "stateMutability": "view",
      "type": "function"
    },
    {
      "inputs": [
        {
          "components": [
            {
              "internalType": "uint64",
              "name": "root",
              "type": "uint64"
            },
            {
              "internalType": "address[]",
              "name": "route",
              "type": "address[]"
            }
          ],
          "internalType": "struct SubnetID",
          "name": "subnetId",
          "type": "tuple"
        },
        {
          "internalType": "uint64",
          "name": "fromNonce",
          "type": "uint64"
        }
      ],
      "name": "getTopDownMsgs",
      "outputs": [
        {
          "components": [
            {
              "components": [
                {
                  "components": [
                    {
                      "components": [
                        {
                          "internalType": "uint64",
                          "name": "root",
                          "type": "uint64"
                        },
                        {
                          "internalType": "address[]",
                          "name": "route",
                          "type": "address[]"
                        }
                      ],
                      "internalType": "struct SubnetID",
                      "name": "subnetId",
                      "type": "tuple"
                    },
                    {
                      "components": [
                        {
                          "internalType": "uint8",
                          "name": "addrType",
                          "type": "uint8"
                        },
                        {
                          "internalType": "bytes",
                          "name": "payload",
                          "type": "bytes"
                        }
                      ],
                      "internalType": "struct FvmAddress",
                      "name": "rawAddress",
                      "type": "tuple"
                    }
                  ],
                  "internalType": "struct IPCAddress",
                  "name": "from",
                  "type": "tuple"
                },
                {
                  "components": [
                    {
                      "components": [
                        {
                          "internalType": "uint64",
                          "name": "root",
                          "type": "uint64"
                        },
                        {
                          "internalType": "address[]",
                          "name": "route",
                          "type": "address[]"
                        }
                      ],
                      "internalType": "struct SubnetID",
                      "name": "subnetId",
                      "type": "tuple"
                    },
                    {
                      "components": [
                        {
                          "internalType": "uint8",
                          "name": "addrType",
                          "type": "uint8"
                        },
                        {
                          "internalType": "bytes",
                          "name": "payload",
                          "type": "bytes"
                        }
                      ],
                      "internalType": "struct FvmAddress",
                      "name": "rawAddress",
                      "type": "tuple"
                    }
                  ],
                  "internalType": "struct IPCAddress",
                  "name": "to",
                  "type": "tuple"
                },
                {
                  "internalType": "uint256",
                  "name": "value",
                  "type": "uint256"
                },
                {
                  "internalType": "uint64",
                  "name": "nonce",
                  "type": "uint64"
                },
                {
                  "internalType": "bytes4",
                  "name": "method",
                  "type": "bytes4"
                },
                {
                  "internalType": "bytes",
                  "name": "params",
                  "type": "bytes"
                }
              ],
              "internalType": "struct StorableMsg",
              "name": "message",
              "type": "tuple"
            },
            {
              "internalType": "bool",
              "name": "wrapped",
              "type": "bool"
            }
          ],
          "internalType": "struct CrossMsg[]",
          "name": "",
          "type": "tuple[]"
        }
      ],
      "stateMutability": "view",
      "type": "function"
    },
    {
      "inputs": [
        {
          "internalType": "uint64",
          "name": "epoch",
          "type": "uint64"
        },
        {
          "internalType": "address",
          "name": "submitter",
          "type": "address"
        }
      ],
      "name": "hasValidatorVotedForSubmission",
      "outputs": [
        {
          "internalType": "bool",
          "name": "",
          "type": "bool"
        }
      ],
      "stateMutability": "view",
      "type": "function"
    },
    {
      "inputs": [
        {
          "internalType": "uint64",
          "name": "genesisEpoch",
          "type": "uint64"
        }
      ],
      "name": "initGenesisEpoch",
      "outputs": [],
      "stateMutability": "nonpayable",
      "type": "function"
    },
    {
      "inputs": [],
      "name": "initialized",
      "outputs": [
        {
          "internalType": "bool",
          "name": "",
          "type": "bool"
        }
      ],
      "stateMutability": "view",
      "type": "function"
    },
    {
      "inputs": [],
      "name": "kill",
      "outputs": [],
      "stateMutability": "nonpayable",
      "type": "function"
    },
    {
      "inputs": [],
      "name": "lastVotingExecutedEpoch",
      "outputs": [
        {
          "internalType": "uint64",
          "name": "",
          "type": "uint64"
        }
      ],
      "stateMutability": "view",
      "type": "function"
    },
    {
      "inputs": [],
      "name": "majorityPercentage",
      "outputs": [
        {
          "internalType": "uint8",
          "name": "",
          "type": "uint8"
        }
      ],
      "stateMutability": "view",
      "type": "function"
    },
    {
      "inputs": [],
      "name": "minStake",
      "outputs": [
        {
          "internalType": "uint256",
          "name": "",
          "type": "uint256"
        }
      ],
      "stateMutability": "view",
      "type": "function"
    },
    {
      "inputs": [
        {
          "internalType": "bytes32",
          "name": "",
          "type": "bytes32"
        }
      ],
      "name": "postbox",
      "outputs": [
        {
          "components": [
            {
              "components": [
                {
                  "components": [
                    {
                      "internalType": "uint64",
                      "name": "root",
                      "type": "uint64"
                    },
                    {
                      "internalType": "address[]",
                      "name": "route",
                      "type": "address[]"
                    }
                  ],
                  "internalType": "struct SubnetID",
                  "name": "subnetId",
                  "type": "tuple"
                },
                {
                  "components": [
                    {
                      "internalType": "uint8",
                      "name": "addrType",
                      "type": "uint8"
                    },
                    {
                      "internalType": "bytes",
                      "name": "payload",
                      "type": "bytes"
                    }
                  ],
                  "internalType": "struct FvmAddress",
                  "name": "rawAddress",
                  "type": "tuple"
                }
              ],
              "internalType": "struct IPCAddress",
              "name": "from",
              "type": "tuple"
            },
            {
              "components": [
                {
                  "components": [
                    {
                      "internalType": "uint64",
                      "name": "root",
                      "type": "uint64"
                    },
                    {
                      "internalType": "address[]",
                      "name": "route",
                      "type": "address[]"
                    }
                  ],
                  "internalType": "struct SubnetID",
                  "name": "subnetId",
                  "type": "tuple"
                },
                {
                  "components": [
                    {
                      "internalType": "uint8",
                      "name": "addrType",
                      "type": "uint8"
                    },
                    {
                      "internalType": "bytes",
                      "name": "payload",
                      "type": "bytes"
                    }
                  ],
                  "internalType": "struct FvmAddress",
                  "name": "rawAddress",
                  "type": "tuple"
                }
              ],
              "internalType": "struct IPCAddress",
              "name": "to",
              "type": "tuple"
            },
            {
              "internalType": "uint256",
              "name": "value",
              "type": "uint256"
            },
            {
              "internalType": "uint64",
              "name": "nonce",
              "type": "uint64"
            },
            {
              "internalType": "bytes4",
              "name": "method",
              "type": "bytes4"
            },
            {
              "internalType": "bytes",
              "name": "params",
              "type": "bytes"
            }
          ],
          "internalType": "struct StorableMsg",
          "name": "message",
          "type": "tuple"
        },
        {
          "internalType": "bool",
          "name": "wrapped",
          "type": "bool"
        }
      ],
      "stateMutability": "view",
      "type": "function"
    },
    {
      "inputs": [
        {
          "internalType": "bytes32",
          "name": "",
          "type": "bytes32"
        },
        {
          "internalType": "address",
          "name": "",
          "type": "address"
        }
      ],
      "name": "postboxHasOwner",
      "outputs": [
        {
          "internalType": "bool",
          "name": "",
          "type": "bool"
        }
      ],
      "stateMutability": "view",
      "type": "function"
    },
    {
      "inputs": [
        {
          "internalType": "bytes32",
          "name": "msgCid",
          "type": "bytes32"
        }
      ],
      "name": "propagate",
      "outputs": [],
      "stateMutability": "payable",
      "type": "function"
    },
    {
      "inputs": [],
      "name": "register",
      "outputs": [],
      "stateMutability": "payable",
      "type": "function"
    },
    {
      "inputs": [
        {
          "components": [
            {
              "internalType": "uint8",
              "name": "addrType",
              "type": "uint8"
            },
            {
              "internalType": "bytes",
              "name": "payload",
              "type": "bytes"
            }
          ],
          "internalType": "struct FvmAddress",
          "name": "to",
          "type": "tuple"
        }
      ],
      "name": "release",
      "outputs": [],
      "stateMutability": "payable",
      "type": "function"
    },
    {
      "inputs": [
        {
          "internalType": "uint256",
          "name": "amount",
          "type": "uint256"
        }
      ],
      "name": "releaseRewards",
      "outputs": [],
      "stateMutability": "nonpayable",
      "type": "function"
    },
    {
      "inputs": [
        {
          "internalType": "uint256",
          "name": "amount",
          "type": "uint256"
        }
      ],
      "name": "releaseStake",
      "outputs": [],
      "stateMutability": "nonpayable",
      "type": "function"
    },
    {
      "inputs": [
        {
          "components": [
            {
              "components": [
                {
                  "components": [
                    {
                      "components": [
                        {
                          "internalType": "uint64",
                          "name": "root",
                          "type": "uint64"
                        },
                        {
                          "internalType": "address[]",
                          "name": "route",
                          "type": "address[]"
                        }
                      ],
                      "internalType": "struct SubnetID",
                      "name": "subnetId",
                      "type": "tuple"
                    },
                    {
                      "components": [
                        {
                          "internalType": "uint8",
                          "name": "addrType",
                          "type": "uint8"
                        },
                        {
                          "internalType": "bytes",
                          "name": "payload",
                          "type": "bytes"
                        }
                      ],
                      "internalType": "struct FvmAddress",
                      "name": "rawAddress",
                      "type": "tuple"
                    }
                  ],
                  "internalType": "struct IPCAddress",
                  "name": "from",
                  "type": "tuple"
                },
                {
                  "components": [
                    {
                      "components": [
                        {
                          "internalType": "uint64",
                          "name": "root",
                          "type": "uint64"
                        },
                        {
                          "internalType": "address[]",
                          "name": "route",
                          "type": "address[]"
                        }
                      ],
                      "internalType": "struct SubnetID",
                      "name": "subnetId",
                      "type": "tuple"
                    },
                    {
                      "components": [
                        {
                          "internalType": "uint8",
                          "name": "addrType",
                          "type": "uint8"
                        },
                        {
                          "internalType": "bytes",
                          "name": "payload",
                          "type": "bytes"
                        }
                      ],
                      "internalType": "struct FvmAddress",
                      "name": "rawAddress",
                      "type": "tuple"
                    }
                  ],
                  "internalType": "struct IPCAddress",
                  "name": "to",
                  "type": "tuple"
                },
                {
                  "internalType": "uint256",
                  "name": "value",
                  "type": "uint256"
                },
                {
                  "internalType": "uint64",
                  "name": "nonce",
                  "type": "uint64"
                },
                {
                  "internalType": "bytes4",
                  "name": "method",
                  "type": "bytes4"
                },
                {
                  "internalType": "bytes",
                  "name": "params",
                  "type": "bytes"
                }
              ],
              "internalType": "struct StorableMsg",
              "name": "message",
              "type": "tuple"
            },
            {
              "internalType": "bool",
              "name": "wrapped",
              "type": "bool"
            }
          ],
          "internalType": "struct CrossMsg",
          "name": "crossMsg",
          "type": "tuple"
        }
      ],
      "name": "sendCrossMessage",
      "outputs": [],
      "stateMutability": "payable",
      "type": "function"
    },
    {
      "inputs": [
        {
          "internalType": "address[]",
          "name": "validators",
          "type": "address[]"
        },
        {
          "internalType": "uint256[]",
          "name": "weights",
          "type": "uint256[]"
        }
      ],
      "name": "setMembership",
      "outputs": [],
      "stateMutability": "nonpayable",
      "type": "function"
    },
    {
      "inputs": [],
      "name": "submissionPeriod",
      "outputs": [
        {
          "internalType": "uint64",
          "name": "",
          "type": "uint64"
        }
      ],
      "stateMutability": "view",
      "type": "function"
    },
    {
      "inputs": [
        {
          "components": [
            {
              "internalType": "uint64",
              "name": "epoch",
              "type": "uint64"
            },
            {
              "components": [
                {
                  "components": [
                    {
                      "components": [
                        {
                          "components": [
                            {
                              "internalType": "uint64",
                              "name": "root",
                              "type": "uint64"
                            },
                            {
                              "internalType": "address[]",
                              "name": "route",
                              "type": "address[]"
                            }
                          ],
                          "internalType": "struct SubnetID",
                          "name": "subnetId",
                          "type": "tuple"
                        },
                        {
                          "components": [
                            {
                              "internalType": "uint8",
                              "name": "addrType",
                              "type": "uint8"
                            },
                            {
                              "internalType": "bytes",
                              "name": "payload",
                              "type": "bytes"
                            }
                          ],
                          "internalType": "struct FvmAddress",
                          "name": "rawAddress",
                          "type": "tuple"
                        }
                      ],
                      "internalType": "struct IPCAddress",
                      "name": "from",
                      "type": "tuple"
                    },
                    {
                      "components": [
                        {
                          "components": [
                            {
                              "internalType": "uint64",
                              "name": "root",
                              "type": "uint64"
                            },
                            {
                              "internalType": "address[]",
                              "name": "route",
                              "type": "address[]"
                            }
                          ],
                          "internalType": "struct SubnetID",
                          "name": "subnetId",
                          "type": "tuple"
                        },
                        {
                          "components": [
                            {
                              "internalType": "uint8",
                              "name": "addrType",
                              "type": "uint8"
                            },
                            {
                              "internalType": "bytes",
                              "name": "payload",
                              "type": "bytes"
                            }
                          ],
                          "internalType": "struct FvmAddress",
                          "name": "rawAddress",
                          "type": "tuple"
                        }
                      ],
                      "internalType": "struct IPCAddress",
                      "name": "to",
                      "type": "tuple"
                    },
                    {
                      "internalType": "uint256",
                      "name": "value",
                      "type": "uint256"
                    },
                    {
                      "internalType": "uint64",
                      "name": "nonce",
                      "type": "uint64"
                    },
                    {
                      "internalType": "bytes4",
                      "name": "method",
                      "type": "bytes4"
                    },
                    {
                      "internalType": "bytes",
                      "name": "params",
                      "type": "bytes"
                    }
                  ],
                  "internalType": "struct StorableMsg",
                  "name": "message",
                  "type": "tuple"
                },
                {
                  "internalType": "bool",
                  "name": "wrapped",
                  "type": "bool"
                }
              ],
              "internalType": "struct CrossMsg[]",
              "name": "topDownMsgs",
              "type": "tuple[]"
            }
          ],
          "internalType": "struct TopDownCheckpoint",
          "name": "checkpoint",
          "type": "tuple"
        }
      ],
      "name": "submitTopDownCheckpoint",
      "outputs": [],
      "stateMutability": "nonpayable",
      "type": "function"
    },
    {
      "inputs": [
        {
          "internalType": "bytes32",
          "name": "",
          "type": "bytes32"
        }
      ],
      "name": "subnets",
      "outputs": [
        {
          "internalType": "enum Status",
          "name": "status",
          "type": "uint8"
        },
        {
          "internalType": "uint64",
          "name": "topDownNonce",
          "type": "uint64"
        },
        {
          "internalType": "uint64",
          "name": "appliedBottomUpNonce",
          "type": "uint64"
        },
        {
          "internalType": "uint256",
          "name": "stake",
          "type": "uint256"
        },
        {
          "internalType": "uint256",
          "name": "genesisEpoch",
          "type": "uint256"
        },
        {
          "internalType": "uint256",
          "name": "circSupply",
          "type": "uint256"
        },
        {
          "components": [
            {
              "internalType": "uint64",
              "name": "root",
              "type": "uint64"
            },
            {
              "internalType": "address[]",
              "name": "route",
              "type": "address[]"
            }
          ],
          "internalType": "struct SubnetID",
          "name": "id",
          "type": "tuple"
        },
        {
          "components": [
            {
              "components": [
                {
                  "internalType": "uint64",
                  "name": "root",
                  "type": "uint64"
                },
                {
                  "internalType": "address[]",
                  "name": "route",
                  "type": "address[]"
                }
              ],
              "internalType": "struct SubnetID",
              "name": "source",
              "type": "tuple"
            },
            {
              "internalType": "uint64",
              "name": "epoch",
              "type": "uint64"
            },
            {
              "internalType": "uint256",
              "name": "fee",
              "type": "uint256"
            },
            {
              "components": [
                {
                  "components": [
                    {
                      "components": [
                        {
                          "components": [
                            {
                              "internalType": "uint64",
                              "name": "root",
                              "type": "uint64"
                            },
                            {
                              "internalType": "address[]",
                              "name": "route",
                              "type": "address[]"
                            }
                          ],
                          "internalType": "struct SubnetID",
                          "name": "subnetId",
                          "type": "tuple"
                        },
                        {
                          "components": [
                            {
                              "internalType": "uint8",
                              "name": "addrType",
                              "type": "uint8"
                            },
                            {
                              "internalType": "bytes",
                              "name": "payload",
                              "type": "bytes"
                            }
                          ],
                          "internalType": "struct FvmAddress",
                          "name": "rawAddress",
                          "type": "tuple"
                        }
                      ],
                      "internalType": "struct IPCAddress",
                      "name": "from",
                      "type": "tuple"
                    },
                    {
                      "components": [
                        {
                          "components": [
                            {
                              "internalType": "uint64",
                              "name": "root",
                              "type": "uint64"
                            },
                            {
                              "internalType": "address[]",
                              "name": "route",
                              "type": "address[]"
                            }
                          ],
                          "internalType": "struct SubnetID",
                          "name": "subnetId",
                          "type": "tuple"
                        },
                        {
                          "components": [
                            {
                              "internalType": "uint8",
                              "name": "addrType",
                              "type": "uint8"
                            },
                            {
                              "internalType": "bytes",
                              "name": "payload",
                              "type": "bytes"
                            }
                          ],
                          "internalType": "struct FvmAddress",
                          "name": "rawAddress",
                          "type": "tuple"
                        }
                      ],
                      "internalType": "struct IPCAddress",
                      "name": "to",
                      "type": "tuple"
                    },
                    {
                      "internalType": "uint256",
                      "name": "value",
                      "type": "uint256"
                    },
                    {
                      "internalType": "uint64",
                      "name": "nonce",
                      "type": "uint64"
                    },
                    {
                      "internalType": "bytes4",
                      "name": "method",
                      "type": "bytes4"
                    },
                    {
                      "internalType": "bytes",
                      "name": "params",
                      "type": "bytes"
                    }
                  ],
                  "internalType": "struct StorableMsg",
                  "name": "message",
                  "type": "tuple"
                },
                {
                  "internalType": "bool",
                  "name": "wrapped",
                  "type": "bool"
                }
              ],
              "internalType": "struct CrossMsg[]",
              "name": "crossMsgs",
              "type": "tuple[]"
            },
            {
              "components": [
                {
                  "components": [
                    {
                      "internalType": "uint64",
                      "name": "root",
                      "type": "uint64"
                    },
                    {
                      "internalType": "address[]",
                      "name": "route",
                      "type": "address[]"
                    }
                  ],
                  "internalType": "struct SubnetID",
                  "name": "source",
                  "type": "tuple"
                },
                {
                  "internalType": "bytes32[]",
                  "name": "checks",
                  "type": "bytes32[]"
                }
              ],
              "internalType": "struct ChildCheck[]",
              "name": "children",
              "type": "tuple[]"
            },
            {
              "internalType": "bytes32",
              "name": "prevHash",
              "type": "bytes32"
            },
            {
              "internalType": "bytes",
              "name": "proof",
              "type": "bytes"
            }
          ],
          "internalType": "struct BottomUpCheckpoint",
          "name": "prevCheckpoint",
          "type": "tuple"
        }
      ],
      "stateMutability": "view",
      "type": "function"
    },
    {
      "inputs": [],
      "name": "topDownCheckPeriod",
      "outputs": [
        {
          "internalType": "uint64",
          "name": "",
          "type": "uint64"
        }
      ],
      "stateMutability": "view",
      "type": "function"
    },
    {
      "inputs": [],
      "name": "totalSubnets",
      "outputs": [
        {
          "internalType": "uint64",
          "name": "",
          "type": "uint64"
        }
      ],
      "stateMutability": "view",
      "type": "function"
    },
    {
      "inputs": [],
      "name": "totalWeight",
      "outputs": [
        {
          "internalType": "uint256",
          "name": "",
          "type": "uint256"
        }
      ],
      "stateMutability": "view",
      "type": "function"
    },
    {
      "inputs": [],
      "name": "validatorNonce",
      "outputs": [
        {
          "internalType": "uint256",
          "name": "",
          "type": "uint256"
        }
      ],
      "stateMutability": "view",
      "type": "function"
    },
    {
      "inputs": [
        {
          "internalType": "uint256",
          "name": "",
          "type": "uint256"
        },
        {
          "internalType": "address",
          "name": "",
          "type": "address"
        }
      ],
      "name": "validatorSet",
      "outputs": [
        {
          "internalType": "uint256",
          "name": "",
          "type": "uint256"
        }
      ],
      "stateMutability": "view",
      "type": "function"
    },
    {
      "inputs": [
        {
          "internalType": "bytes32",
          "name": "msgCid",
          "type": "bytes32"
        },
        {
          "internalType": "address[]",
          "name": "owners",
          "type": "address[]"
        }
      ],
      "name": "whitelistPropagator",
      "outputs": [],
      "stateMutability": "nonpayable",
      "type": "function"
    }
  ],
  "bytecode": {
    "object": "0x6101406040523480156200001257600080fd5b506040516200b5ad3803806200b5ad8339810160408190526200003591620003b2565b608081015160408201516001600055606460ff831611156200006a576040516375c3b42760e01b815260040160405180910390fd5b60ff8216608052600a6001600160401b038216106200008a57806200008d565b600a5b6001600160401b0390811660a0819052600280546001600160401b0319908116909217905584518051600480549190941692169190911782556020808201518051929550929350620000e59260059291019062000269565b5050670de0b6b3a764000060c052506020810151600a6001600160401b0390911610620001175780602001516200011a565b600a5b6001600160401b0390811660e0526040820151600a9116106200014257806040015162000145565b600a5b6001600160401b039081166101005260608201516101205260408051808201825260048054909316815260058054835160208281028201810190955281815292949380860193929190830182828015620001c957602002820191906000526020600020905b81546001600160a01b03168152600190910190602001808311620001aa575b5050509190925250506040516310c5511f60e31b815273__$a0fe38a9a81205afccc10810b09a4d3f45$__9263862a88f892506200020a9160040162000530565b602060405180830381865af415801562000228573d6000803e3d6000fd5b505050506040513d601f19601f820116820180604052508101906200024e91906200059c565b1562000262576011805460ff191660011790555b50620005c7565b828054828255906000526020600020908101928215620002c1579160200282015b82811115620002c157825182546001600160a01b0319166001600160a01b039091161782556020909201916001909101906200028a565b50620002cf929150620002d3565b5090565b5b80821115620002cf5760008155600101620002d4565b634e487b7160e01b600052604160045260246000fd5b60405160a081016001600160401b0381118282101715620003255762000325620002ea565b60405290565b604080519081016001600160401b0381118282101715620003255762000325620002ea565b604051601f8201601f191681016001600160401b03811182821017156200037b576200037b620002ea565b604052919050565b80516001600160401b03811681146200039b57600080fd5b919050565b805160ff811681146200039b57600080fd5b60006020808385031215620003c657600080fd5b82516001600160401b0380821115620003de57600080fd5b9084019060a08287031215620003f357600080fd5b620003fd62000300565b8251828111156200040d57600080fd5b8301604081890312156200042057600080fd5b6200042a6200032b565b620004358262000383565b815285820151848111156200044957600080fd5b80830192505088601f8301126200045f57600080fd5b815184811115620004745762000474620002ea565b8060051b94506200048787860162000350565b818152948301870194878101908b871115620004a257600080fd5b938801935b86851015620004dc57845192506001600160a01b0383168314620004cb5760008081fd5b8282529388019390880190620004a7565b838901525050825250620004f283850162000383565b84820152620005046040840162000383565b6040820152606083015160608201526200052160808401620003a0565b60808201529695505050505050565b602080825282516001600160401b0316828201528281015160408084015280516060840181905260009291820190839060808601905b80831015620005915783516001600160a01b0316825292840192600192909201919084019062000566565b509695505050505050565b600060208284031215620005af57600080fd5b81518015158114620005c057600080fd5b9392505050565b60805160a05160c05160e051610100516101205161af3b620006726000396000818161048901528181611ea101528181611fba015281816127830152818161302101528181615fd10152616951015260006106e901526000818161024b015261724001526000818161051401528181611fe501528181612de50152612fb40152600081816103f401528181616bbd01526177540152600081816105fd0152617f6d015261af3b6000f3fe6080604052600436106101f75760003560e01c806302e30f9a146101fc57806306c46853146102395780630ea746f21461028557806310d500e1146102b257806311c5080e14610312578063133f74ea14610334578063135493151461036b57806313f3538814610398578063158ef93e146103b8578063185fde7e146103e257806318f44b70146104165780631aa3a00814610429578063223d905614610431578063247294251461047757806325bf0db6146104ab5780632cc14ea2146104be5780632f757dd1146104ef578063375b3c0a146105025780633c8fe6bf1461053657806341b6a2e81461057157806341c0e1b51461059157806345f54485146105a657806351392fc0146105c6578063599c7bd1146105eb5780635a627dbc1461063157806366d7bbbc146106395780636b2c1eef146106965780636cb2ecee146106a95780637d9740f4146106d75780638789f83b1461070b5780638cfd78e71461073257806391be4d411461076057806394074b031461077c57806396c82e571461079e578063986acf38146107b45780639d3070b5146107d4578063a1ada303146107f4578063a2b6715814610809578063ad81e24414610829578063c66c66a114610849578063d4e149a814610877578063e17a684f14610897578063f75bc557146108ad578063f8703bb8146108cd575b600080fd5b34801561020857600080fd5b5061021c6102173660046185fb565b6108ed565b60405161023098979695949392919061895d565b60405180910390f35b34801561024557600080fd5b5061026d7f000000000000000000000000000000000000000000000000000000000000000081565b6040516001600160401b039091168152602001610230565b34801561029157600080fd5b506102a56102a0366004618b7e565b61101b565b6040516102309190618bc2565b3480156102be57600080fd5b506002546102e8906001600160401b0380821691600160401b8104821691600160801b9091041683565b604080516001600160401b0394851681529284166020840152921691810191909152606001610230565b34801561031e57600080fd5b5061033261032d366004618bd5565b6113d8565b005b34801561034057600080fd5b5061035461034f366004618c53565b61186f565b604080519215158352602083019190915201610230565b34801561037757600080fd5b5061038b610386366004618c88565b611908565b6040516102309190618cd9565b3480156103a457600080fd5b506103326103b3366004618c53565b611e09565b3480156103c457600080fd5b506011546103d29060ff1681565b6040519015158152602001610230565b3480156103ee57600080fd5b5061026d7f000000000000000000000000000000000000000000000000000000000000000081565b610332610424366004618cec565b611e6d565b610332611fe3565b34801561043d57600080fd5b5061046961044c366004618d4f565b600d60209081526000928352604080842090915290825290205481565b604051908152602001610230565b34801561048357600080fd5b506104697f000000000000000000000000000000000000000000000000000000000000000081565b6103326104b93660046185fb565b6121f0565b3480156104ca57600080fd5b506104de6104d9366004618c53565b6127c4565b604051610230959493929190618d74565b6103326104fd366004618dc2565b612901565b34801561050e57600080fd5b506104697f000000000000000000000000000000000000000000000000000000000000000081565b34801561054257600080fd5b506103d2610551366004618d4f565b600960209081526000928352604080842090915290825290205460ff1681565b34801561057d57600080fd5b50600b5461026d906001600160401b031681565b34801561059d57600080fd5b50610332612ad4565b3480156105b257600080fd5b506103326105c13660046185fb565b612d49565b3480156105d257600080fd5b50600154600160401b90046001600160401b031661026d565b3480156105f757600080fd5b5061061f7f000000000000000000000000000000000000000000000000000000000000000081565b60405160ff9091168152602001610230565b610332612f2c565b34801561064557600080fd5b506103d2610654366004618df6565b6001600160401b03821660009081526012602090815260408083208054845260030182528083206001600160a01b038516845290915290205460ff1692915050565b6103326106a4366004618dc2565b612fed565b3480156106b557600080fd5b506106c96106c4366004618c53565b6130b4565b604051610230929190618e24565b3480156106e357600080fd5b5061026d7f000000000000000000000000000000000000000000000000000000000000000081565b34801561071757600080fd5b50600b5461026d90600160401b90046001600160401b031681565b34801561073e57600080fd5b5061075261074d3660046185fb565b6137b8565b604051610230929190618e3f565b34801561076c57600080fd5b50610469670de0b6b3a764000081565b34801561078857600080fd5b50610791613b34565b6040516102309190618e63565b3480156107aa57600080fd5b50610469600c5481565b3480156107c057600080fd5b506103326107cf366004618dc2565b613bbc565b3480156107e057600080fd5b506104696107ef366004618e76565b61457e565b34801561080057600080fd5b5061061f600a81565b34801561081557600080fd5b5060065461026d906001600160401b031681565b34801561083557600080fd5b5060015461026d906001600160401b031681565b34801561085557600080fd5b50610869610864366004618dc2565b614596565b604051610230929190618eaa565b34801561088357600080fd5b50610332610892366004618f79565b6150ee565b3480156108a357600080fd5b50610469600e5481565b3480156108b957600080fd5b506103326108c8366004618fb3565b615b7a565b3480156108d957600080fd5b506103326108e83660046185fb565b615c85565b6007602090815260009182526040918290208054600182015460028301546003840154865180880188526004860180546001600160401b0390811683526005880180548b51818c0281018c01909c52808c5260ff89169b6101008a0484169b600160481b909a04909316999798969795968581019392919083018282801561099e57602002820191906000526020600020905b81546001600160a01b03168152600190910190602001808311610980575b50505091909252505060408051610120810182526006850180546001600160401b031660e08301908152600787018054855160208281028201810190975281815297989794965092948694929386936101008701939092909190830182828015610a3157602002820191906000526020600020905b81546001600160a01b03168152600190910190602001808311610a13575b50505050508152505081526020016002820160009054906101000a90046001600160401b03166001600160401b03166001600160401b031681526020016003820154815260200160048201805480602002602001604051908101604052809291908181526020016000905b82821015610e3b5760008481526020908190206040805161018081018252600c860290920180546001600160401b031661014084019081526001820180548451818802810188018652818152959693958795860194879486946101008901948794869486936101608d01939091830182828015610b4257602002820191906000526020600020905b81546001600160a01b03168152600190910190602001808311610b24575b5050509190925250505081526040805180820190915260028301805460ff16825260038401805460209485019484019190610b7c9061906d565b80601f0160208091040260200160405190810160405280929190818152602001828054610ba89061906d565b8015610bf55780601f10610bca57610100808354040283529160200191610bf5565b820191906000526020600020905b815481529060010190602001808311610bd857829003601f168201915b505050919092525050509052508152604080516080810182526004840180546001600160401b0316828401908152600586018054855160208281028201810190975281815296860196949593948694869360608701939091830182828015610c8657602002820191906000526020600020905b81546001600160a01b03168152600190910190602001808311610c68575b5050509190925250505081526040805180820190915260028301805460ff16825260038401805460209485019484019190610cc09061906d565b80601f0160208091040260200160405190810160405280929190818152602001828054610cec9061906d565b8015610d395780601f10610d0e57610100808354040283529160200191610d39565b820191906000526020600020905b815481529060010190602001808311610d1c57829003601f168201915b5050509190925250505090525081526008820154602082015260098201546001600160401b0381166040830152600160401b900460e01b6001600160e01b0319166060820152600a82018054608090920191610d949061906d565b80601f0160208091040260200160405190810160405280929190818152602001828054610dc09061906d565b8015610e0d5780601f10610de257610100808354040283529160200191610e0d565b820191906000526020600020905b815481529060010190602001808311610df057829003601f168201915b505050919092525050508152600b919091015460ff1615156020918201529082526001929092019101610a9c565b50505050815260200160058201805480602002602001604051908101604052809291908181526020016000905b82821015610f72576000848152602090819020604080516080810182526003860290920180546001600160401b031683830190815260018201805484518188028101880190955280855294959294869492938693606087019390929091830182828015610efe57602002820191906000526020600020905b81546001600160a01b03168152600190910190602001808311610ee0575b505050505081525050815260200160028201805480602002602001604051908101604052809291908181526020018280548015610f5a57602002820191906000526020600020905b815481526020019060010190808311610f46575b50505050508152505081526020019060010190610e68565b50505050815260200160068201548152602001600782018054610f949061906d565b80601f0160208091040260200160405190810160405280929190818152602001828054610fc09061906d565b801561100d5780601f10610fe25761010080835404028352916020019161100d565b820191906000526020600020905b815481529060010190602001808311610ff057829003601f168201915b505050505081525050905088565b611023618212565b600061102e84615cdc565b91505080600e018381548110611046576110466190a1565b60009182526020918290206040805161018081018252600c90930290910180546001600160401b031661014084019081526001820180548451818802810188018652818152959693958795860194879486946101008901948794869486936101608d019390918301828280156110e557602002820191906000526020600020905b81546001600160a01b031681526001909101906020018083116110c7575b5050509190925250505081526040805180820190915260028301805460ff1682526003840180546020948501948401919061111f9061906d565b80601f016020809104026020016040519081016040528092919081815260200182805461114b9061906d565b80156111985780601f1061116d57610100808354040283529160200191611198565b820191906000526020600020905b81548152906001019060200180831161117b57829003601f168201915b505050919092525050509052508152604080516080810182526004840180546001600160401b031682840190815260058601805485516020828102820181019097528181529686019694959394869486936060870193909183018282801561122957602002820191906000526020600020905b81546001600160a01b0316815260019091019060200180831161120b575b5050509190925250505081526040805180820190915260028301805460ff168252600384018054602094850194840191906112639061906d565b80601f016020809104026020016040519081016040528092919081815260200182805461128f9061906d565b80156112dc5780601f106112b1576101008083540402835291602001916112dc565b820191906000526020600020905b8154815290600101906020018083116112bf57829003601f168201915b5050509190925250505090525081526008820154602082015260098201546001600160401b0381166040830152600160401b900460e01b6001600160e01b0319166060820152600a820180546080909201916113379061906d565b80601f01602080910402602001604051908101604052809291908181526020018280546113639061906d565b80156113b05780601f10611385576101008083540402835291602001916113b0565b820191906000526020600020905b81548152906001019060200180831161139357829003601f168201915b505050919092525050508152600b919091015460ff1615156020909101529150505b92915050565b826113e281615e23565b60008481526008602090815260409182902082516101808101845281546001600160401b031661014082019081526001830180548651818702810187018852818152949661177796949588958795928601948794869461010089019487948694929386936101608d01939290919083018282801561148957602002820191906000526020600020905b81546001600160a01b0316815260019091019060200180831161146b575b5050509190925250505081526040805180820190915260028301805460ff168252600384018054602094850194840191906114c39061906d565b80601f01602080910402602001604051908101604052809291908181526020018280546114ef9061906d565b801561153c5780601f106115115761010080835404028352916020019161153c565b820191906000526020600020905b81548152906001019060200180831161151f57829003601f168201915b505050919092525050509052508152604080516080810182526004840180546001600160401b03168284019081526005860180548551602082810282018101909752818152968601969495939486948693606087019390918301828280156115cd57602002820191906000526020600020905b81546001600160a01b031681526001909101906020018083116115af575b5050509190925250505081526040805180820190915260028301805460ff168252600384018054602094850194840191906116079061906d565b80601f01602080910402602001604051908101604052809291908181526020018280546116339061906d565b80156116805780601f1061165557610100808354040283529160200191611680565b820191906000526020600020905b81548152906001019060200180831161166357829003601f168201915b5050509190925250505090525081526008820154602082015260098201546001600160401b0381166040830152600160401b900460e01b6001600160e01b0319166060820152600a820180546080909201916116db9061906d565b80601f01602080910402602001604051908101604052809291908181526020018280546117079061906d565b80156117545780601f1061172957610100808354040283529160200191611754565b820191906000526020600020905b81548152906001019060200180831161173757829003601f168201915b505050919092525050508152600b919091015460ff161515602090910152615e5d565b1561179557604051632449894160e01b815260040160405180910390fd5b8260005b818110156118665760008686838181106117b5576117b56190a1565b90506020020160208101906117ca91906190b7565b6001600160a01b03161461185e5760008686838181106117ec576117ec6190a1565b905060200201602081019061180191906190b7565b60008981526009602090815260408083206001600160a01b038516845290915290205490915060ff1661185c5760008881526009602090815260408083206001600160a01b03851684529091529020805460ff191660011790555b505b600101611799565b50505050505050565b60008060008061187e856130b4565b6040516339aa47fb60e01b81529193509150829073__$1cd67d4dc9e627f0bec7928aa480e7d951$__906339aa47fb906118bc9085906004016191bc565b602060405180830381865af41580156118d9573d6000803e3d6000fd5b505050506040513d601f19601f820116820180604052508101906118fd9190619258565b935093505050915091565b606060008061191e61191986619271565b615cdc565b9150915081611962576040805160008082526020820190925290611958565b611945618212565b81526020019060019003908161193d5790505b50925050506113d2565b600e8101546001600160401b0385168181106119b55760408051600080825260208201909252906119a9565b611996618212565b81526020019060019003908161198e5790505b509450505050506113d2565b60006119c18284619293565b90506000816001600160401b038111156119dd576119dd6189ce565b604051908082528060200260200182016040528015611a1657816020015b611a03618212565b8152602001906001900390816119fb5790505b50905060005b82811015611dfc57600e8601611a3285836192a6565b81548110611a4257611a426190a1565b60009182526020918290206040805161018081018252600c90930290910180546001600160401b031661014084019081526001820180548451818802810188018652818152959693958795860194879486946101008901948794869486936101608d01939091830182828015611ae157602002820191906000526020600020905b81546001600160a01b03168152600190910190602001808311611ac3575b5050509190925250505081526040805180820190915260028301805460ff16825260038401805460209485019484019190611b1b9061906d565b80601f0160208091040260200160405190810160405280929190818152602001828054611b479061906d565b8015611b945780601f10611b6957610100808354040283529160200191611b94565b820191906000526020600020905b815481529060010190602001808311611b7757829003601f168201915b505050919092525050509052508152604080516080810182526004840180546001600160401b0316828401908152600586018054855160208281028201810190975281815296860196949593948694869360608701939091830182828015611c2557602002820191906000526020600020905b81546001600160a01b03168152600190910190602001808311611c07575b5050509190925250505081526040805180820190915260028301805460ff16825260038401805460209485019484019190611c5f9061906d565b80601f0160208091040260200160405190810160405280929190818152602001828054611c8b9061906d565b8015611cd85780601f10611cad57610100808354040283529160200191611cd8565b820191906000526020600020905b815481529060010190602001808311611cbb57829003601f168201915b5050509190925250505090525081526008820154602082015260098201546001600160401b0381166040830152600160401b900460e01b6001600160e01b0319166060820152600a82018054608090920191611d339061906d565b80601f0160208091040260200160405190810160405280929190818152602001828054611d5f9061906d565b8015611dac5780601f10611d8157610100808354040283529160200191611dac565b820191906000526020600020905b815481529060010190602001808311611d8f57829003601f168201915b505050919092525050508152600b919091015460ff1615156020909101528251839083908110611dde57611dde6190a1565b60200260200101819052508080611df4906192b9565b915050611a1c565b5098975050505050505050565b611e11615ea3565b60115460ff1615611e345760405162dc149f60e41b815260040160405180910390fd5b600180546001600160401b03909216600160401b02600160401b600160801b03199092169190911781556011805460ff19169091179055565b611e75615f3a565b611e7d615fcf565b600073__$33b79814e84bf6cf5e47244090b19ce5f8$__6399aa0eb4843385611ec67f000000000000000000000000000000000000000000000000000000000000000034619293565b6040518563ffffffff1660e01b8152600401611ee5949392919061944a565b600060405180830381865af4158015611f02573d6000803e3d6000fd5b505050506040513d6000823e601f3d908101601f19168201604052611f2a91908101906196ab565b9050611f3581616010565b611fde611f4184619271565b604051632cff562160e11b815273__$a0fe38a9a81205afccc10810b09a4d3f45$__916359feac4291611f779190600401618e63565b602060405180830381865af4158015611f94573d6000803e3d6000fd5b505050506040513d601f19601f82011682018060405250810190611fb891906197c8565b7f00000000000000000000000000000000000000000000000000000000000000006162dd565b505050565b7f000000000000000000000000000000000000000000000000000000000000000034101561202457604051631036b5ad60e31b815260040160405180910390fd5b604080518082018252600480546001600160401b031682526005805484516020828102820181019096528181526000958086019391929083018282801561209457602002820191906000526020600020905b81546001600160a01b03168152600190910190602001808311612076575b50505091909252505060405163aa5106cb60e01b815273__$a0fe38a9a81205afccc10810b09a4d3f45$__9263aa5106cb92506120d59133906004016197e5565b600060405180830381865af41580156120f2573d6000803e3d6000fd5b505050506040513d6000823e601f3d908101601f1916820160405261211a919081019061980f565b905060008061212883615cdc565b91509150811561214b57604051631b538cdf60e11b815260040160405180910390fd5b82516004820180546001600160401b0319166001600160401b03909216919091178155602080850151805186939261218a926005870192910190618232565b505034600183810191909155825460ff191660029081178455439084015560068054919250906000906121c79084906001600160401b0316619843565b92506101000a8154816001600160401b0302191690836001600160401b03160217905550505050565b6121f8615fcf565b8061220281615e23565b600082815260086020908152604080832081516101808101835281546001600160401b0316610140820190815260018301805485518188028101880187528181529497968796612596968a958795928601948794869461010089019487948694909386936101608d01939290918301828280156122a857602002820191906000526020600020905b81546001600160a01b0316815260019091019060200180831161228a575b5050509190925250505081526040805180820190915260028301805460ff168252600384018054602094850194840191906122e29061906d565b80601f016020809104026020016040519081016040528092919081815260200182805461230e9061906d565b801561235b5780601f106123305761010080835404028352916020019161235b565b820191906000526020600020905b81548152906001019060200180831161233e57829003601f168201915b505050919092525050509052508152604080516080810182526004840180546001600160401b03168284019081526005860180548551602082810282018101909752818152968601969495939486948693606087019390918301828280156123ec57602002820191906000526020600020905b81546001600160a01b031681526001909101906020018083116123ce575b5050509190925250505081526040805180820190915260028301805460ff168252600384018054602094850194840191906124269061906d565b80601f01602080910402602001604051908101604052809291908181526020018280546124529061906d565b801561249f5780601f106124745761010080835404028352916020019161249f565b820191906000526020600020905b81548152906001019060200180831161248257829003601f168201915b5050509190925250505090525081526008820154602082015260098201546001600160401b0381166040830152600160401b900460e01b6001600160e01b0319166060820152600a820180546080909201916124fa9061906d565b80601f01602080910402602001604051908101604052809291908181526020018280546125269061906d565b80156125735780601f1061254857610100808354040283529160200191612573565b820191906000526020600020905b81548152906001019060200180831161255657829003601f168201915b505050919092525050508152600b919091015460ff16151560209091015261633b565b60088501546040805180820182526004880180546001600160401b031682526005890180548451602082810282018101909652818152979950959750939560009592949193808601939192919083018282801561261c57602002820191906000526020600020905b81546001600160a01b031681526001909101906020018083116125fe575b50505091909252505060405163089032d560e01b815273__$a0fe38a9a81205afccc10810b09a4d3f45$__9263089032d5925061265d9160049081016198e0565b600060405180830381865af415801561267a573d6000803e3d6000fd5b505050506040513d6000823e601f3d908101601f191682016040526126a2919081019061980f565b600088815260086020526040812080546001600160401b03191681559192508181818181816126d46001830182618297565b505060028201805460ff1916815560006126f160038501826182b5565b505050506004820180546001600160401b0319168155600081816127186005870182618297565b505060028201805460ff19168155600061273560038501826182b5565b50506000600885018190556009850180546001600160601b03191690556127629250600a850191506182b5565b505050600b01805460ff1916905561277c828286866166ab565b60006127a87f000000000000000000000000000000000000000000000000000000000000000034619293565b905080156127ba576127ba3382616703565b5050505050505050565b600a602090815260009182526040918290208251808401845281546001600160401b0316815260018201805485518186028101860190965280865292949193859385820193929183018282801561284457602002820191906000526020600020905b81546001600160a01b03168152600190910190602001808311612826575b5050509190925250505060028201546003830154600684015460078501805494956001600160401b03909416949293919261287e9061906d565b80601f01602080910402602001604051908101604052809291908181526020018280546128aa9061906d565b80156128f75780601f106128cc576101008083540402835291602001916128f7565b820191906000526020600020905b8154815290600101906020018083116128da57829003601f168201915b5050505050905085565b612909615f3a565b612911615fcf565b3461291c8280619905565b604001351461293e57604051631036b5ad60e31b815260040160405180910390fd5b6129488180619905565b6129529080619925565b61295c9080619925565b61296590619271565b60405163c836244d60e01b815273__$a0fe38a9a81205afccc10810b09a4d3f45$__9163c836244d9161299d919060049081016198e0565b602060405180830381865af41580156129ba573d6000803e3d6000fd5b505050506040513d601f19601f820116820180604052508101906129de919061993b565b6129fb57604051638481de4960e01b815260040160405180910390fd5b600080612a0f612a0a84619b58565b61633b565b9092509050611fde612a218480619905565b60400135612a2f8580619905565b612a3d906020810190619925565b612a479080619925565b612a5090619271565b60405163089032d560e01b815273__$a0fe38a9a81205afccc10810b09a4d3f45$__9163089032d591612a88919060049081016198e0565b600060405180830381865af4158015612aa5573d6000803e3d6000fd5b505050506040513d6000823e601f3d908101601f19168201604052612acd919081019061980f565b84846166ab565b600080612ae033616798565b9150915081612b0257604051630e991abd60e41b815260040160405180910390fd5b600381015415612b2557604051637c67c70160e11b815260040160405180910390fd5b60018082015460068054919291600090612b499084906001600160401b0316619b64565b82546101009290920a6001600160401b038181021990931691831602179091556040805180820182526004860180549093168152600586018054835160208083028201810190955281815260079650600095939480860193919290830182828015612bdd57602002820191906000526020600020905b81546001600160a01b03168152600190910190602001808311612bbf575b5050509190925250506040516390ba52cf60e01b815273__$a0fe38a9a81205afccc10810b09a4d3f45$__926390ba52cf9250612c1c91600401618e63565b602060405180830381865af4158015612c39573d6000803e3d6000fd5b505050506040513d601f19601f82011682018060405250810190612c5d9190619258565b81526020810191909152604001600090812080546001600160881b03191681556001810182905560028101829055600381018290556004810180546001600160401b031916815590919081612cb56005850182618297565b50506006820180546001600160401b031916815560008181612cda6007870182618297565b50506002820180546001600160401b0319169055600060038301819055612d059060048401906182ef565b612d13600583016000618310565b6006820160009055600782016000612d2b91906182b5565b50612d3c9050600e830160006182ef565b50611fde90503382616703565b612d516168cd565b80600003612d725760405163c79cad7b60e01b815260040160405180910390fd5b600080612d7e33616798565b9150915081612da057604051630e991abd60e41b815260040160405180910390fd5b8281600101541015612dc5576040516379b33e7960e01b815260040160405180910390fd5b82816001016000828254612dd99190619293565b909155505060018101547f00000000000000000000000000000000000000000000000000000000000000001115612e1657805460ff191660031781555b6040805180820182526004830180546001600160401b031682526005840180548451602082810282018101909652818152612f1d9589959493818601939091830182828015612e8e57602002820191906000526020600020905b81546001600160a01b03168152600190910190602001808311612e70575b505050919092525050604051632cff562160e11b815273__$a0fe38a9a81205afccc10810b09a4d3f45$__926359feac429250612ecd91600401618e63565b602060405180830381865af4158015612eea573d6000803e3d6000fd5b505050506040513d601f19601f82011682018060405250810190612f0e91906197c8565b6001600160a01b031690616703565b5050612f296001600055565b50565b60003411612f4d57604051631036b5ad60e31b815260040160405180910390fd5b600080612f5933616798565b9150915081612f7b57604051630e991abd60e41b815260040160405180910390fd5b34816001016000828254612f8f91906192a6565b9091555060039050815460ff166005811115612fad57612fad618614565b03612fe9577f0000000000000000000000000000000000000000000000000000000000000000816001015410612fe957805460ff191660021781555b5050565b612ff5615f3a565b612ffd615fcf565b600073__$33b79814e84bf6cf5e47244090b19ce5f8$__63840efda26004846130467f000000000000000000000000000000000000000000000000000000000000000034619293565b6040518463ffffffff1660e01b815260040161306493929190619b84565b600060405180830381865af4158015613081573d6000803e3d6000fd5b505050506040513d6000823e601f3d908101601f191682016040526130a991908101906196ab565b9050612fe981616926565b60006130be618331565b6001600160401b038084166000908152600a6020908152604091829020825161012081018452815490941660e085019081526001820180548551818602810186019096528086529294869492938693610100870193919083018282801561314e57602002820191906000526020600020905b81546001600160a01b03168152600190910190602001808311613130575b50505050508152505081526020016002820160009054906101000a90046001600160401b03166001600160401b03166001600160401b031681526020016003820154815260200160048201805480602002602001604051908101604052809291908181526020016000905b828210156135585760008481526020908190206040805161018081018252600c860290920180546001600160401b031661014084019081526001820180548451818802810188018652818152959693958795860194879486946101008901948794869486936101608d0193909183018282801561325f57602002820191906000526020600020905b81546001600160a01b03168152600190910190602001808311613241575b5050509190925250505081526040805180820190915260028301805460ff168252600384018054602094850194840191906132999061906d565b80601f01602080910402602001604051908101604052809291908181526020018280546132c59061906d565b80156133125780601f106132e757610100808354040283529160200191613312565b820191906000526020600020905b8154815290600101906020018083116132f557829003601f168201915b505050919092525050509052508152604080516080810182526004840180546001600160401b03168284019081526005860180548551602082810282018101909752818152968601969495939486948693606087019390918301828280156133a357602002820191906000526020600020905b81546001600160a01b03168152600190910190602001808311613385575b5050509190925250505081526040805180820190915260028301805460ff168252600384018054602094850194840191906133dd9061906d565b80601f01602080910402602001604051908101604052809291908181526020018280546134099061906d565b80156134565780601f1061342b57610100808354040283529160200191613456565b820191906000526020600020905b81548152906001019060200180831161343957829003601f168201915b5050509190925250505090525081526008820154602082015260098201546001600160401b0381166040830152600160401b900460e01b6001600160e01b0319166060820152600a820180546080909201916134b19061906d565b80601f01602080910402602001604051908101604052809291908181526020018280546134dd9061906d565b801561352a5780601f106134ff5761010080835404028352916020019161352a565b820191906000526020600020905b81548152906001019060200180831161350d57829003601f168201915b505050919092525050508152600b919091015460ff16151560209182015290825260019290920191016131b9565b50505050815260200160058201805480602002602001604051908101604052809291908181526020016000905b8282101561368f576000848152602090819020604080516080810182526003860290920180546001600160401b03168383019081526001820180548451818802810188019095528085529495929486949293869360608701939092909183018282801561361b57602002820191906000526020600020905b81546001600160a01b031681526001909101906020018083116135fd575b50505050508152505081526020016002820180548060200260200160405190810160405280929190818152602001828054801561367757602002820191906000526020600020905b815481526020019060010190808311613663575b50505050508152505081526020019060010190613585565b505050508152602001600682015481526020016007820180546136b19061906d565b80601f01602080910402602001604051908101604052809291908181526020018280546136dd9061906d565b801561372a5780601f106136ff5761010080835404028352916020019161372a565b820191906000526020600020905b81548152906001019060200180831161370d57829003601f168201915b5050509190925250508151604051630c133d1360e31b815292935073__$a0fe38a9a81205afccc10810b09a4d3f45$__92636099e898925061376f9190600401618e63565b602060405180830381865af415801561378c573d6000803e3d6000fd5b505050506040513d601f19601f820116820180604052508101906137b0919061993b565b159150915091565b60086020908152600091825260409182902082516101408101845281546001600160401b03166101008201908152600183018054865181870281018701909752808752939592948694869460c086019487948694919386936101208a01939092919083018282801561385357602002820191906000526020600020905b81546001600160a01b03168152600190910190602001808311613835575b5050509190925250505081526040805180820190915260028301805460ff1682526003840180546020948501948401919061388d9061906d565b80601f01602080910402602001604051908101604052809291908181526020018280546138b99061906d565b80156139065780601f106138db57610100808354040283529160200191613906565b820191906000526020600020905b8154815290600101906020018083116138e957829003601f168201915b505050919092525050509052508152604080516080810182526004840180546001600160401b031682840190815260058601805485516020828102820181019097528181529686019694959394869486936060870193909183018282801561399757602002820191906000526020600020905b81546001600160a01b03168152600190910190602001808311613979575b5050509190925250505081526040805180820190915260028301805460ff168252600384018054602094850194840191906139d19061906d565b80601f01602080910402602001604051908101604052809291908181526020018280546139fd9061906d565b8015613a4a5780601f10613a1f57610100808354040283529160200191613a4a565b820191906000526020600020905b815481529060010190602001808311613a2d57829003601f168201915b5050509190925250505090525081526008820154602082015260098201546001600160401b0381166040830152600160401b900460e01b6001600160e01b0319166060820152600a82018054608090920191613aa59061906d565b80601f0160208091040260200160405190810160405280929190818152602001828054613ad19061906d565b8015613b1e5780601f10613af357610100808354040283529160200191613b1e565b820191906000526020600020905b815481529060010190602001808311613b0157829003601f168201915b50505091909252505050600b9091015460ff1682565b613b3c618380565b604080518082018252600480546001600160401b03168252600580548451602082810282018101909652818152939492938386019390929190830182828015613bae57602002820191906000526020600020905b81546001600160a01b03168152600190910190602001808311613b90575b505050505081525050905090565b613bc4615f3a565b613bd16020820182618c53565b613bda81616b6b565b600e546000908152600d6020908152604080832033845290915290205460115460ff16613c365760405162461bcd60e51b815260206004820152600560248201526424a821969960d91b60448201526064015b60405180910390fd5b60008111613c6e5760405162461bcd60e51b81526020600482015260056024820152644950432d3360d81b6044820152606401613c2d565b73__$33b79814e84bf6cf5e47244090b19ce5f8$__6389841475613c956020860186619bba565b6040518363ffffffff1660e01b8152600401613cb2929190619d8e565b602060405180830381865af4158015613ccf573d6000803e3d6000fd5b505050506040513d601f19601f82011682018060405250810190613cf3919061993b565b613d275760405162461bcd60e51b8152602060048201526005602482015264125410cb4d60da1b6044820152606401613c2d565b6000601281613d396020870187618c53565b6001600160401b03166001600160401b0316815260200190815260200160002090506000613d6982863386616c28565b90506060811561414257613d7c83617160565b805480602002602001604051908101604052809291908181526020016000905b8282101561413b5760008481526020908190206040805161018081018252600c860290920180546001600160401b031661014084019081526001820180548451818802810188018652818152959693958795860194879486946101008901948794869486936101608d01939091830182828015613e4257602002820191906000526020600020905b81546001600160a01b03168152600190910190602001808311613e24575b5050509190925250505081526040805180820190915260028301805460ff16825260038401805460209485019484019190613e7c9061906d565b80601f0160208091040260200160405190810160405280929190818152602001828054613ea89061906d565b8015613ef55780601f10613eca57610100808354040283529160200191613ef5565b820191906000526020600020905b815481529060010190602001808311613ed857829003601f168201915b505050919092525050509052508152604080516080810182526004840180546001600160401b0316828401908152600586018054855160208281028201810190975281815296860196949593948694869360608701939091830182828015613f8657602002820191906000526020600020905b81546001600160a01b03168152600190910190602001808311613f68575b5050509190925250505081526040805180820190915260028301805460ff16825260038401805460209485019484019190613fc09061906d565b80601f0160208091040260200160405190810160405280929190818152602001828054613fec9061906d565b80156140395780601f1061400e57610100808354040283529160200191614039565b820191906000526020600020905b81548152906001019060200180831161401c57829003601f168201915b5050509190925250505090525081526008820154602082015260098201546001600160401b0381166040830152600160401b900460e01b6001600160e01b0319166060820152600a820180546080909201916140949061906d565b80601f01602080910402602001604051908101604052809291908181526020018280546140c09061906d565b801561410d5780601f106140e25761010080835404028352916020019161410d565b820191906000526020600020905b8154815290600101906020018083116140f057829003601f168201915b505050919092525050508152600b919091015460ff1615156020918201529082526001929092019101613d9c565b5050505090505b805160000361454b57600080614156617192565b915091508015614548576001600160401b038216600090815260126020526040902061418181617160565b805480602002602001604051908101604052809291908181526020016000905b828210156145405760008481526020908190206040805161018081018252600c860290920180546001600160401b031661014084019081526001820180548451818802810188018652818152959693958795860194879486946101008901948794869486936101608d0193909183018282801561424757602002820191906000526020600020905b81546001600160a01b03168152600190910190602001808311614229575b5050509190925250505081526040805180820190915260028301805460ff168252600384018054602094850194840191906142819061906d565b80601f01602080910402602001604051908101604052809291908181526020018280546142ad9061906d565b80156142fa5780601f106142cf576101008083540402835291602001916142fa565b820191906000526020600020905b8154815290600101906020018083116142dd57829003601f168201915b505050919092525050509052508152604080516080810182526004840180546001600160401b031682840190815260058601805485516020828102820181019097528181529686019694959394869486936060870193909183018282801561438b57602002820191906000526020600020905b81546001600160a01b0316815260019091019060200180831161436d575b5050509190925250505081526040805180820190915260028301805460ff168252600384018054602094850194840191906143c59061906d565b80601f01602080910402602001604051908101604052809291908181526020018280546143f19061906d565b801561443e5780601f106144135761010080835404028352916020019161443e565b820191906000526020600020905b81548152906001019060200180831161442157829003601f168201915b5050509190925250505090525081526008820154602082015260098201546001600160401b0381166040830152600160401b900460e01b6001600160e01b0319166060820152600a820180546080909201916144999061906d565b80601f01602080910402602001604051908101604052809291908181526020018280546144c59061906d565b80156145125780601f106144e757610100808354040283529160200191614512565b820191906000526020600020905b8154815290600101906020018083116144f557829003601f168201915b505050919092525050508152600b919091015460ff16151560209182015290825260019290920191016141a1565b505050509350505b50505b60408051808201825260008082528251818152602081810190945261457693830191509052826171b6565b505050505050565b60008061458a83615cdc565b600e0154949350505050565b60006145a0618398565b6145ac61191984619271565b60408051610120810190915281548290829060ff1660058111156145d2576145d2618614565b60058111156145e3576145e3618614565b815281546001600160401b0361010082048116602080850191909152600160481b90920481166040808501919091526001850154606085015260028501546080850152600385015460a085015280518082018252600486018054909316815260058601805483518187028101870190945280845260c090960195919485810193929083018282801561469e57602002820191906000526020600020905b81546001600160a01b03168152600190910190602001808311614680575b50505091909252505050815260408051610120810182526006840180546001600160401b031660e083019081526007860180548551602082810282018101909752818152968601969495939486948693610100870193909183018282801561472f57602002820191906000526020600020905b81546001600160a01b03168152600190910190602001808311614711575b50505050508152505081526020016002820160009054906101000a90046001600160401b03166001600160401b03166001600160401b031681526020016003820154815260200160048201805480602002602001604051908101604052809291908181526020016000905b82821015614b395760008481526020908190206040805161018081018252600c860290920180546001600160401b031661014084019081526001820180548451818802810188018652818152959693958795860194879486946101008901948794869486936101608d0193909183018282801561484057602002820191906000526020600020905b81546001600160a01b03168152600190910190602001808311614822575b5050509190925250505081526040805180820190915260028301805460ff1682526003840180546020948501948401919061487a9061906d565b80601f01602080910402602001604051908101604052809291908181526020018280546148a69061906d565b80156148f35780601f106148c8576101008083540402835291602001916148f3565b820191906000526020600020905b8154815290600101906020018083116148d657829003601f168201915b505050919092525050509052508152604080516080810182526004840180546001600160401b031682840190815260058601805485516020828102820181019097528181529686019694959394869486936060870193909183018282801561498457602002820191906000526020600020905b81546001600160a01b03168152600190910190602001808311614966575b5050509190925250505081526040805180820190915260028301805460ff168252600384018054602094850194840191906149be9061906d565b80601f01602080910402602001604051908101604052809291908181526020018280546149ea9061906d565b8015614a375780601f10614a0c57610100808354040283529160200191614a37565b820191906000526020600020905b815481529060010190602001808311614a1a57829003601f168201915b5050509190925250505090525081526008820154602082015260098201546001600160401b0381166040830152600160401b900460e01b6001600160e01b0319166060820152600a82018054608090920191614a929061906d565b80601f0160208091040260200160405190810160405280929190818152602001828054614abe9061906d565b8015614b0b5780601f10614ae057610100808354040283529160200191614b0b565b820191906000526020600020905b815481529060010190602001808311614aee57829003601f168201915b505050919092525050508152600b919091015460ff161515602091820152908252600192909201910161479a565b50505050815260200160058201805480602002602001604051908101604052809291908181526020016000905b82821015614c70576000848152602090819020604080516080810182526003860290920180546001600160401b031683830190815260018201805484518188028101880190955280855294959294869492938693606087019390929091830182828015614bfc57602002820191906000526020600020905b81546001600160a01b03168152600190910190602001808311614bde575b505050505081525050815260200160028201805480602002602001604051908101604052809291908181526020018280548015614c5857602002820191906000526020600020905b815481526020019060010190808311614c44575b50505050508152505081526020019060010190614b66565b50505050815260200160068201548152602001600782018054614c929061906d565b80601f0160208091040260200160405190810160405280929190818152602001828054614cbe9061906d565b8015614d0b5780601f10614ce057610100808354040283529160200191614d0b565b820191906000526020600020905b815481529060010190602001808311614cee57829003601f168201915b5050505050815250508152602001600e8201805480602002602001604051908101604052809291908181526020016000905b828210156150dc5760008481526020908190206040805161018081018252600c860290920180546001600160401b031661014084019081526001820180548451818802810188018652818152959693958795860194879486946101008901948794869486936101608d01939091830182828015614de357602002820191906000526020600020905b81546001600160a01b03168152600190910190602001808311614dc5575b5050509190925250505081526040805180820190915260028301805460ff16825260038401805460209485019484019190614e1d9061906d565b80601f0160208091040260200160405190810160405280929190818152602001828054614e499061906d565b8015614e965780601f10614e6b57610100808354040283529160200191614e96565b820191906000526020600020905b815481529060010190602001808311614e7957829003601f168201915b505050919092525050509052508152604080516080810182526004840180546001600160401b0316828401908152600586018054855160208281028201810190975281815296860196949593948694869360608701939091830182828015614f2757602002820191906000526020600020905b81546001600160a01b03168152600190910190602001808311614f09575b5050509190925250505081526040805180820190915260028301805460ff16825260038401805460209485019484019190614f619061906d565b80601f0160208091040260200160405190810160405280929190818152602001828054614f8d9061906d565b8015614fda5780601f10614faf57610100808354040283529160200191614fda565b820191906000526020600020905b815481529060010190602001808311614fbd57829003601f168201915b5050509190925250505090525081526008820154602082015260098201546001600160401b0381166040830152600160401b900460e01b6001600160e01b0319166060820152600a820180546080909201916150359061906d565b80601f01602080910402602001604051908101604052809291908181526020018280546150619061906d565b80156150ae5780601f10615083576101008083540402835291602001916150ae565b820191906000526020600020905b81548152906001019060200180831161509157829003601f168201915b505050919092525050508152600b919091015460ff1615156020918201529082526001929092019101614d3d565b50505091525092969095509350505050565b60115460ff16615111576040516321c4e35760e21b815260040160405180910390fd5b336151ad61511f8380619925565b61512890619271565b604051632cff562160e11b815273__$a0fe38a9a81205afccc10810b09a4d3f45$__916359feac429161515e9190600401618e63565b602060405180830381865af415801561517b573d6000803e3d6000fd5b505050506040513d601f19601f8201168201806040525081019061519f91906197c8565b6001600160a01b03166171ee565b6001600160a01b0316146151d457604051637f39132760e11b815260040160405180910390fd5b60006151df33616798565b915060029050815460ff1660058111156151fb576151fb618614565b146152195760405163c18316bf60e01b815260040160405180910390fd5b6152296040830160208401618c53565b60088201546001600160401b039182169116106152595760405163fae4eadb60e01b815260040160405180910390fd5b60a0820135156159635760408051610120810182526006830180546001600160401b031660e083019081526007850180548551602082810282018101909752818152949593948694869361010087019390918301828280156152e457602002820191906000526020600020905b81546001600160a01b031681526001909101906020018083116152c6575b50505050508152505081526020016002820160009054906101000a90046001600160401b03166001600160401b03166001600160401b031681526020016003820154815260200160048201805480602002602001604051908101604052809291908181526020016000905b828210156156ee5760008481526020908190206040805161018081018252600c860290920180546001600160401b031661014084019081526001820180548451818802810188018652818152959693958795860194879486946101008901948794869486936101608d019390918301828280156153f557602002820191906000526020600020905b81546001600160a01b031681526001909101906020018083116153d7575b5050509190925250505081526040805180820190915260028301805460ff1682526003840180546020948501948401919061542f9061906d565b80601f016020809104026020016040519081016040528092919081815260200182805461545b9061906d565b80156154a85780601f1061547d576101008083540402835291602001916154a8565b820191906000526020600020905b81548152906001019060200180831161548b57829003601f168201915b505050919092525050509052508152604080516080810182526004840180546001600160401b031682840190815260058601805485516020828102820181019097528181529686019694959394869486936060870193909183018282801561553957602002820191906000526020600020905b81546001600160a01b0316815260019091019060200180831161551b575b5050509190925250505081526040805180820190915260028301805460ff168252600384018054602094850194840191906155739061906d565b80601f016020809104026020016040519081016040528092919081815260200182805461559f9061906d565b80156155ec5780601f106155c1576101008083540402835291602001916155ec565b820191906000526020600020905b8154815290600101906020018083116155cf57829003601f168201915b5050509190925250505090525081526008820154602082015260098201546001600160401b0381166040830152600160401b900460e01b6001600160e01b0319166060820152600a820180546080909201916156479061906d565b80601f01602080910402602001604051908101604052809291908181526020018280546156739061906d565b80156156c05780601f10615695576101008083540402835291602001916156c0565b820191906000526020600020905b8154815290600101906020018083116156a357829003601f168201915b505050919092525050508152600b919091015460ff161515602091820152908252600192909201910161534f565b50505050815260200160058201805480602002602001604051908101604052809291908181526020016000905b82821015615825576000848152602090819020604080516080810182526003860290920180546001600160401b0316838301908152600182018054845181880281018801909552808552949592948694929386936060870193909290918301828280156157b157602002820191906000526020600020905b81546001600160a01b03168152600190910190602001808311615793575b50505050508152505081526020016002820180548060200260200160405190810160405280929190818152602001828054801561580d57602002820191906000526020600020905b8154815260200190600101908083116157f9575b5050505050815250508152602001906001019061571b565b505050508152602001600682015481526020016007820180546158479061906d565b80601f01602080910402602001604051908101604052809291908181526020018280546158739061906d565b80156158c05780601f10615895576101008083540402835291602001916158c0565b820191906000526020600020905b8154815290600101906020018083116158a357829003601f168201915b5050509190925250506040516339aa47fb60e01b815273__$1cd67d4dc9e627f0bec7928aa480e7d951$__926339aa47fb92506158ff916004016191bc565b602060405180830381865af415801561591c573d6000803e3d6000fd5b505050506040513d601f19601f820116820180604052508101906159409190619258565b8260a0013514615963576040516312232e5d60e11b815260040160405180910390fd5b6000806000615970617235565b925092509250826159cf576004805482546001600160401b0319166001600160401b039091161782556005805483916159ae91600184019190618403565b5050506002810180546001600160401b0319166001600160401b0384161790555b60405163445cc97560e01b815273__$1cd67d4dc9e627f0bec7928aa480e7d951$__9063445cc97590615a109084908990600f906010908990600401619e4d565b60006040518083038186803b158015615a2857600080fd5b505af4158015615a3c573d6000803e3d6000fd5b50505050600080868060600190615a539190619bba565b9050905060005b81811015615ab357615a6f6060890189619bba565b82818110615a7f57615a7f6190a1565b9050602002810190615a919190619925565b615a9b9080619905565b615aa99060400135846192a6565b9250600101615a5a565b506003830154615ac79060408901356192a6565b615ad190836192a6565b91508186600301541015615b0f5760405162461bcd60e51b815260206004820152600560248201526424a821969b60d91b6044820152606401613c2d565b81866003016000828254615b239190619293565b9091555087905060068701615b38828261a89f565b50615b6c9050615b488880619925565b615b5190619271565b615b5e60608a018a619bba565b615b679161aa1a565b6171b6565b6118663388604001356162dd565b615b82615ea3565b8051825114615ba45760405163465f0a7d60e01b815260040160405180910390fd5b600e60008154615bb3906192b9565b909155508151600090815b81811015615c7c576000858281518110615bda57615bda6190a1565b6020026020010151905060006001600160a01b0316816001600160a01b031614615c73576000858381518110615c1257615c126190a1565b6020026020010151905080600003615c3d5760405163389b457d60e01b815260040160405180910390fd5b600e546000908152600d602090815260408083206001600160a01b03861684529091529020819055615c6f81866192a6565b9450505b50600101615bbe565b5050600c555050565b615c8d6168cd565b80600003615cae5760405163c79cad7b60e01b815260040160405180910390fd5b600080615cba33616798565b9150915081612e1657604051630e991abd60e41b815260040160405180910390fd5b600080600760008473__$a0fe38a9a81205afccc10810b09a4d3f45$__6390ba52cf90916040518263ffffffff1660e01b8152600401615d1c9190618e63565b602060405180830381865af4158015615d39573d6000803e3d6000fd5b505050506040513d601f19601f82011682018060405250810190615d5d9190619258565b81526020808201929092526040908101600020815180830183526004820180546001600160401b031682526005830180548551818802810188019096528086529396509194909385820193909291830182828015615de457602002820191906000526020600020905b81546001600160a01b03168152600190910190602001808311615dc6575b505050919092525050604051630c133d1360e31b815273__$a0fe38a9a81205afccc10810b09a4d3f45$__92636099e898925061376f91600401618e63565b600081815260096020908152604080832033845290915290205460ff16612f29576040516377f0d98160e11b815260040160405180910390fd5b8051606001516000906001600160401b0316158015615e8a575081516020015151516001600160401b0316155b80156113d2575050515151516001600160401b03161590565b604051635d3f8a6960e01b815273__$e800e3908cdbb6b1b5bd452383a17b18f7$__90635d3f8a6990615eda90339060040161aa27565b602060405180830381865af4158015615ef7573d6000803e3d6000fd5b505050506040513d601f19601f82011682018060405250810190615f1b919061993b565b615f385760405163f0d97f3b60e01b815260040160405180910390fd5b565b604051630972932760e21b815273__$e800e3908cdbb6b1b5bd452383a17b18f7$__906325ca4c9c90615f7190339060040161aa27565b602060405180830381865af4158015615f8e573d6000803e3d6000fd5b505050506040513d601f19601f82011682018060405250810190615fb2919061993b565b615f3857604051630a23da2b60e31b815260040160405180910390fd5b7f0000000000000000000000000000000000000000000000000000000000000000341015615f38576040516334472ad760e11b815260040160405180910390fd5b8051602001515160405163089032d560e01b815260009173__$a0fe38a9a81205afccc10810b09a4d3f45$__9163089032d5916160519160049081016198e0565b600060405180830381865af415801561606e573d6000803e3d6000fd5b505050506040513d6000823e601f3d908101601f19168201604052616096919081019061980f565b90506000806160a483615cdc565b91509150816160c657604051630e991abd60e41b815260040160405180910390fd5b805484516101009091046001600160401b03166060909101819052600190829082906160f3908290619843565b92506101000a8154816001600160401b0302191690836001600160401b0316021790555083600001516040015181600301600082825461613391906192a6565b9091555050600e810180546001808201835560009283526020928390208751805180518051600c90960290930180546001600160401b0319166001600160401b039096169590951785558286015180518b9793958795939486949385936161a1938501929190910190618232565b505050602082810151805160028401805460ff191660ff9092169190911781559181015190919060038401906161d7908261aa3b565b50505050602083810151805180516004860180546001600160401b0319166001600160401b03909216919091178155818401518051939550909391928492616226926005890192910190618232565b505050602082810151805160028401805460ff191660ff90921691909117815591810151909190600384019061625c908261aa3b565b5050505060408301516008830155506060820151600982018054608085015160e01c600160401b026001600160601b03199091166001600160401b039093169290921791909117905560a0820151600a8201906162b9908261aa3b565b50505060209190910151600b909101805460ff191691151591909117905550505050565b806000036162e9575050565b611fde6162fe836001600160a01b03166171ee565b6040805160248082018690528251808303909101815260449091019091526020810180516001600160e01b0316632a7edd8f60e21b179052617377565b80516020015151604051630c133d1360e31b8152600091829173__$a0fe38a9a81205afccc10810b09a4d3f45$__90636099e8989061637e908490600401618e63565b602060405180830381865af415801561639b573d6000803e3d6000fd5b505050506040513d601f19601f820116820180604052508101906163bf919061993b565b156163dd5760405163461e815d60e01b815260040160405180910390fd5b60405163c836244d60e01b815273__$a0fe38a9a81205afccc10810b09a4d3f45$__9063c836244d9061641690849060049081016198e0565b602060405180830381865af4158015616433573d6000803e3d6000fd5b505050506040513d601f19601f82011682018060405250810190616457919061993b565b1561647557604051632f3335ff60e21b815260040160405180910390fd5b835180515160405163f47ad7eb60e01b8152909160009173__$386b5c41ce93e8b832daf8008b3d30ae09$__9163f47ad7eb916164b79190600490810161aaf5565b602060405180830381865af41580156164d4573d6000803e3d6000fd5b505050506040513d601f19601f820116820180604052508101906164f8919061ab08565b90506000600182600181111561651057616510618614565b0361661057604051631ccc893360e11b815273__$a0fe38a9a81205afccc10810b09a4d3f45$__9063399912669061654e908790879060040161ab29565b600060405180830381865af415801561656b573d6000803e3d6000fd5b505050506040513d6000823e601f3d908101601f19168201604052616593919081019061980f565b60405163c836244d60e01b815273__$a0fe38a9a81205afccc10810b09a4d3f45$__9163c836244d916165cb919060049081016198e0565b602060405180830381865af41580156165e8573d6000803e3d6000fd5b505050506040513d601f19601f8201168201806040525081019061660c919061993b565b1590505b80156166345761661f87616926565b50509351604001511515946000945092505050565b600082600181111561664857616648618614565b0361669257600b805460089061666d90600160401b90046001600160401b031661ab4e565b91906101000a8154816001600160401b0302191690836001600160401b031602179055505b61669b87616010565b5060009660019650945050505050565b81156166bc576166bc606385616703565b80156166fd57604051632cff562160e11b81526166fd9073__$a0fe38a9a81205afccc10810b09a4d3f45$__906359feac4290611f77908790600401618e63565b50505050565b804710156167245760405163356680b760e01b815260040160405180910390fd5b6000826001600160a01b03168260405160006040518083038185875af1925050503d8060008114616771576040519150601f19603f3d011682016040523d82523d6000602084013e616776565b606091505b5050905080611fde57604051633204506f60e01b815260040160405180910390fd5b6000806001600160a01b0383166167c2576040516370e4510960e01b815260040160405180910390fd5b604080518082018252600480546001600160401b031682526005805484516020828102820181019096528181526000958086019391929083018282801561683257602002820191906000526020600020905b81546001600160a01b03168152600190910190602001808311616814575b50505091909252505060405163aa5106cb60e01b815273__$a0fe38a9a81205afccc10810b09a4d3f45$__9263aa5106cb92506168739188906004016197e5565b600060405180830381865af4158015616890573d6000803e3d6000fd5b505050506040513d6000823e601f3d908101601f191682016040526168b8919081019061980f565b90506168c381615cdc565b9250925050915091565b60026000540361691f5760405162461bcd60e51b815260206004820152601f60248201527f5265656e7472616e637947756172643a207265656e7472616e742063616c6c006044820152606401613c2d565b6002600055565b6000616930617235565b600b5485516001600160401b039091166060909101526003810180549194507f0000000000000000000000000000000000000000000000000000000000000000935091506000906169829084906192a6565b90915550506004810180546001808201835560009283526020928390208551805180518051600c90960290930180546001600160401b0319166001600160401b03909616959095178555828601518051899793958795939486949385936169f0938501929190910190618232565b505050602082810151805160028401805460ff191660ff909216919091178155918101519091906003840190616a26908261aa3b565b50505050602083810151805180516004860180546001600160401b0319166001600160401b03909216919091178155818401518051939550909391928492616a75926005890192910190618232565b505050602082810151805160028401805460ff191660ff909216919091178155918101519091906003840190616aab908261aa3b565b5050505060408301516008830155506060820151600982018054608085015160e01c600160401b026001600160601b03199091166001600160401b039093169290921791909117905560a0820151600a820190616b08908261aa3b565b50505060209190910151600b918201805460ff1916911515919091179055805460019190600090616b439084906001600160401b0316619843565b92506101000a8154816001600160401b0302191690836001600160401b031602179055505050565b6001546001600160401b0390811690821611616b9a57604051631f30cc6360e21b815260040160405180910390fd5b6001546001600160401b03600160401b90910481169082161115612f29576001547f000000000000000000000000000000000000000000000000000000000000000090616bf790600160401b90046001600160401b031683619b64565b616c01919061ab92565b6001600160401b031615612f295760405163b4f68f9760e01b815260040160405180910390fd5b600080616c348561abb8565b604051630edf122560e41b815273__$1cd67d4dc9e627f0bec7928aa480e7d951$__9163edf1225091616c6a919060040161ac18565b602060405180830381865af4158015616c87573d6000803e3d6000fd5b505050506040513d601f19601f82011682018060405250810190616cab9190619258565b9050616cc986828686616cc160208b018b618c53565b600c546173c2565b600082815260058801602090815260408083208151808301835281546001600160401b03168152600182018054845181870281018701909552808552969850909591948685019491929184015b828210156170b55760008481526020908190206040805161018081018252600c860290920180546001600160401b031661014084019081526001820180548451818802810188018652818152959693958795860194879486946101008901948794869486936101608d01939091830182828015616dbc57602002820191906000526020600020905b81546001600160a01b03168152600190910190602001808311616d9e575b5050509190925250505081526040805180820190915260028301805460ff16825260038401805460209485019484019190616df69061906d565b80601f0160208091040260200160405190810160405280929190818152602001828054616e229061906d565b8015616e6f5780601f10616e4457610100808354040283529160200191616e6f565b820191906000526020600020905b815481529060010190602001808311616e5257829003601f168201915b505050919092525050509052508152604080516080810182526004840180546001600160401b0316828401908152600586018054855160208281028201810190975281815296860196949593948694869360608701939091830182828015616f0057602002820191906000526020600020905b81546001600160a01b03168152600190910190602001808311616ee2575b5050509190925250505081526040805180820190915260028301805460ff16825260038401805460209485019484019190616f3a9061906d565b80601f0160208091040260200160405190810160405280929190818152602001828054616f669061906d565b8015616fb35780601f10616f8857610100808354040283529160200191616fb3565b820191906000526020600020905b815481529060010190602001808311616f9657829003601f168201915b5050509190925250505090525081526008820154602082015260098201546001600160401b0381166040830152600160401b900460e01b6001600160e01b0319166060820152600a8201805460809092019161700e9061906d565b80601f016020809104026020016040519081016040528092919081815260200182805461703a9061906d565b80156170875780601f1061705c57610100808354040283529160200191617087565b820191906000526020600020905b81548152906001019060200180831161706a57829003601f168201915b505050919092525050508152600b919091015460ff1615156020918201529082526001929092019101616d16565b50505091525050604051632d34315760e01b815273__$1cd67d4dc9e627f0bec7928aa480e7d951$__91632d343157916170f2919060040161ac18565b602060405180830381865af415801561710f573d6000803e3d6000fd5b505050506040513d601f19601f82011682018060405250810190617133919061993b565b1561715757600081815260058701602052604090208590617154828261ac45565b50505b50949350505050565b6002810154600090815260058201602052604081208054617189906001600160401b031661760c565b60010192915050565b600254600160401b90046001600160401b031660006171b082617748565b90509091565b805160005b818110156166fd576171e6848483815181106171d9576171d96190a1565b602002602001015161779d565b6001016171bb565b60008060006171fc84617dc6565b915091508161720d57509192915050565b60008061721983617df8565b915091508161722c575093949350505050565b95945050505050565b6000806000617264437f0000000000000000000000000000000000000000000000000000000000000000617e62565b6001600160401b038082166000908152600a602090815260409182902082518084018452815490941684526001810180548451818502810185019095528085529597509095509293859385830193929091908301828280156172ef57602002820191906000526020600020905b81546001600160a01b031681526001909101906020018083116172d1575b505050919092525050604051630c133d1360e31b815273__$a0fe38a9a81205afccc10810b09a4d3f45$__92636099e898925061732e91600401618e63565b602060405180830381865af415801561734b573d6000803e3d6000fd5b505050506040513d601f19601f8201168201806040525081019061736f919061993b565b159250909192565b60606173bb838360006040518060400160405280601e81526020017f416464726573733a206c6f772d6c6576656c2063616c6c206661696c65640000815250617e84565b9392505050565b8554600081815260038801602090815260408083206001600160a01b038916845290915281205490919060ff16156174245760405162461bcd60e51b81526020600482015260056024820152644950432d3560d81b6044820152606401613c2d565b600081815260038901602090815260408083206001600160a01b038a1684529091528120805460ff19166001908117909155890180548792906174689084906192a6565b9091555050600081815260048901602090815260408083208a8452909152812080548792906174989084906192a6565b90915550506000818152600489016020908152604080832060028c0154845290915280822054898352912054808210156174d45760028a018990555b60006174e08b87617f61565b905060038160038111156174f6576174f6618614565b036175815761750487617748565b1561751257600194506175fe565b60405163199b9ca560e01b815273__$b7b8687e33476c74e3b4e0a64c4768a343$__9063199b9ca59061754c906002908b9060040161ad5d565b60006040518083038186803b15801561756457600080fd5b505af4158015617578573d6000803e3d6000fd5b505050506175fe565b600281600381111561759557617595618614565b036175fe57604051635a27a53960e11b8152600481018c905273__$e0f829f5071d7e628aa77eca0c12e35bc2$__9063b44f4a729060240160006040518083038186803b1580156175e557600080fd5b505af41580156175f9573d6000803e3d6000fd5b505050505b505050509695505050505050565b61761581617748565b61761c5750565b604051634953836d60e11b815273__$b7b8687e33476c74e3b4e0a64c4768a343$__906392a706da9061765690600290859060040161ad5d565b602060405180830381865af4158015617673573d6000803e3d6000fd5b505050506040513d601f19601f82011682018060405250810190617697919061993b565b156176bb576002546001600160401b03828116600160401b90920416146176bb5750565b6040516394ecccfd60e01b815273__$b7b8687e33476c74e3b4e0a64c4768a343$__906394ecccfd906176f590600290859060040161ad5d565b60006040518083038186803b15801561770d57600080fd5b505af4158015617721573d6000803e3d6000fd5b5050600180546001600160401b0319166001600160401b0394909416939093179092555050565b600154600090617782907f0000000000000000000000000000000000000000000000000000000000000000906001600160401b0316619843565b6001600160401b0316826001600160401b0316149050919050565b80516020015151604051630c133d1360e31b815273__$a0fe38a9a81205afccc10810b09a4d3f45$__91636099e898916177da9190600401618e63565b602060405180830381865af41580156177f7573d6000803e3d6000fd5b505050506040513d601f19601f8201168201806040525081019061781b919061993b565b156178395760405163461e815d60e01b815260040160405180910390fd5b8051608001516001600160e01b031916617873578051604001514710156178735760405163569d45cf60e11b815260040160405180910390fd5b805160405163f47ad7eb60e01b815260009173__$386b5c41ce93e8b832daf8008b3d30ae09$__9163f47ad7eb916178af91600490810161aaf5565b602060405180830381865af41580156178cc573d6000803e3d6000fd5b505050506040513d601f19601f820116820180604052508101906178f0919061ab08565b8251602001515160405163c836244d60e01b815291925073__$a0fe38a9a81205afccc10810b09a4d3f45$__9163c836244d916179319160049081016198e0565b602060405180830381865af415801561794e573d6000803e3d6000fd5b505050506040513d601f19601f82011682018060405250810190617972919061993b565b15617bda57600181600181111561798b5761798b618614565b03617ac057604051630c133d1360e31b815273__$a0fe38a9a81205afccc10810b09a4d3f45$__90636099e898906179c7908690600401618e63565b602060405180830381865af41580156179e4573d6000803e3d6000fd5b505050506040513d601f19601f82011682018060405250810190617a08919061993b565b617ac057600080617a1885615cdc565b9150915081617a3a57604051630e991abd60e41b815260040160405180910390fd5b8351606001518154600160481b90046001600160401b03908116911614617a745760405163a57cadff60e01b815260040160405180910390fd5b80546001908290600990617a99908490600160481b90046001600160401b0316619843565b92506101000a8154816001600160401b0302191690836001600160401b0316021790555050505b6000816001811115617ad457617ad4618614565b03617b5e57815160600151600b54600160401b90046001600160401b03908116911614617b145760405163a57cadff60e01b815260040160405180910390fd5b6001600b60088282829054906101000a90046001600160401b0316617b399190619843565b92506101000a8154816001600160401b0302191690836001600160401b031602179055505b604051635c46fefb60e11b815273__$33b79814e84bf6cf5e47244090b19ce5f8$__9063b88dfdf690617b95908590600401618bc2565b600060405180830381865af4158015617bb2573d6000803e3d6000fd5b505050506040513d6000823e601f3d908101601f191682016040526166fd919081019061ad74565b6000617be583618076565b6000818152600860209081526040909120855180518051805184546001600160401b0319166001600160401b0390911617845580850151805196975089969495939486948593928492617c3e9260018501920190618232565b505050602082810151805160028401805460ff191660ff909216919091178155918101519091906003840190617c74908261aa3b565b50505050602083810151805180516004860180546001600160401b0319166001600160401b03909216919091178155818401518051939550909391928492617cc3926005890192910190618232565b505050602082810151805160028401805460ff191660ff909216919091178155918101519091906003840190617cf9908261aa3b565b5050505060408301516008830155506060820151600982018054608085015160e01c600160401b026001600160601b03199091166001600160401b039093169290921791909117905560a0820151600a820190617d56908261aa3b565b505050602091820151600b91909101805460ff19169115159190911790558351518101516000838152600990925260408220909160019190617d97846180a6565b6001600160a01b031681526020810191909152604001600020805460ff19169115159190911790555050505050565b600080600160401b600160a01b03831660ff60981b8103617df257600192506001600160401b03841691505b50915091565b600080826000526016600a602060006002607f60991b015afa9150600051806001600160a01b031691508060a01c61ffff16905061040a8114617e3e5760009250600091505b50811580617e4d57503d601614155b15617e5d57506000928392509050565b915091565b600081617e6f818561ada8565b617e7a906001619843565b6173bb919061adce565b606082471015617ee55760405162461bcd60e51b815260206004820152602660248201527f416464726573733a20696e73756666696369656e742062616c616e636520666f6044820152651c8818d85b1b60d21b6064820152608401613c2d565b600080866001600160a01b03168587604051617f01919061adf9565b60006040518083038185875af1925050503d8060008114617f3e576040519150601f19603f3d011682016040523d82523d6000602084013e617f43565b606091505b5091509150617f5487838387618174565b925050505b949350505050565b6000806064617f9360ff7f00000000000000000000000000000000000000000000000000000000000000001685619f77565b617f9d919061ae0b565b604051637d2ef4e560e11b81526004810186905290915060009073__$e0f829f5071d7e628aa77eca0c12e35bc2$__9063fa5de9ca90602401602060405180830381865af4158015617ff3573d6000803e3d6000fd5b505050506040513d601f19601f820116820180604052508101906180179190619258565b90508185600101541161802f576000925050506113d2565b81811115618042576003925050506113d2565b60018501546180519085619293565b61805b8284619293565b1061806b576002925050506113d2565b506001949350505050565b6000816040516020016180899190618bc2565b604051602081830303815290604052805190602001209050919050565b805160009060ff166004146180cd5760405162461bcd60e51b8152600401613c2d9061ae1f565b600082602001518060200190518101906180e7919061ae3e565b80519091506001600160401b0316600a146181145760405162461bcd60e51b8152600401613c2d9061ae1f565b80602001516001600160801b03166014146181415760405162461bcd60e51b8152600401613c2d9061ae1f565b8060400151516014146181665760405162461bcd60e51b8152600401613c2d9061ae1f565b604001516014015192915050565b606083156181e35782516000036181dc576001600160a01b0385163b6181dc5760405162461bcd60e51b815260206004820152601d60248201527f416464726573733a2063616c6c20746f206e6f6e2d636f6e74726163740000006044820152606401613c2d565b5081617f59565b617f5983838151156181f85781518083602001fd5b8060405162461bcd60e51b8152600401613c2d919061aef2565b6040518060400160405280618225618443565b8152600060209091015290565b828054828255906000526020600020908101928215618287579160200282015b8281111561828757825182546001600160a01b0319166001600160a01b03909116178255602090920191600190910190618252565b50618293929150618498565b5090565b5080546000825590600052602060002090810190612f299190618498565b5080546182c19061906d565b6000825580601f106182d1575050565b601f016020900490600052602060002090810190612f299190618498565b50805460008255600c0290600052602060002090810190612f2991906184ad565b5080546000825560030290600052602060002090810190612f29919061857d565b6040518060e00160405280618344618380565b815260200160006001600160401b0316815260200160008152602001606081526020016060815260200160008019168152602001606081525090565b60408051808201909152600081526060602082015290565b604080516101208101909152806000815260200160006001600160401b0316815260200160006001600160401b031681526020016000815260200160008152602001600081526020016183e9618380565b81526020016183f6618331565b8152602001606081525090565b8280548282559060005260206000209081019282156182875760005260206000209182015b82811115618287578254825591600101919060010190618428565b6040518060c001604052806184566185be565b81526020016184636185be565b81526020016000815260200160006001600160401b0316815260200160006001600160e01b0319168152602001606081525090565b5b808211156182935760008155600101618499565b808211156182935780546001600160401b031916815560008181818181816184d86001830182618297565b505060028201805460ff1916815560006184f560038501826182b5565b505050506004820180546001600160401b03191681556000818161851c6005870182618297565b505060028201805460ff19168155600061853960038501826182b5565b50506000600885018190556009850180546001600160601b03191690556185669250600a850191506182b5565b505050600b8101805460ff19169055600c016184ad565b808211156182935780546001600160401b0319168155600081816185a46001830182618297565b506185b59050600283016000618297565b5060030161857d565b60405180604001604052806185d1618380565b81526020016185f66040518060400160405280600060ff168152602001606081525090565b905290565b60006020828403121561860d57600080fd5b5035919050565b634e487b7160e01b600052602160045260246000fd5b6006811061864857634e487b7160e01b600052602160045260246000fd5b9052565b80516001600160401b03168252602080820151604082850181905281519085018190526000929182019190839060608701905b808310156186a85784516001600160a01b0316825293830193600192909201919083019061867f565b509695505050505050565b60005b838110156186ce5781810151838201526020016186b6565b50506000910152565b600081518084526186ef8160208601602086016186b3565b601f01601f19169290920160200192915050565b6000815160408452618718604085018261864c565b90506020830151848203602086015260ff8151168252602081015190506040602083015261722c60408301826186d7565b6000815160c0845261875e60c0850182618703565b9050602083015184820360208601526187778282618703565b9150506040830151604085015260018060401b03606084015116606085015263ffffffff60e01b608084015116608085015260a083015184820360a086015261722c82826186d7565b60008151604084526187d56040850182618749565b6020938401511515949093019390935250919050565b600081518084526020808501808196508360051b8101915082860160005b858110156188335782840389526188218483516187c0565b98850198935090840190600101618809565b5091979650505050505050565b6000815160e0845261885560e085018261864c565b9050602060018060401b03818501511681860152604080850151818701526060850151868403606088015261888a84826187eb565b935050608085015186840360808801528381518086528486019150848160051b87010185840193506000805b8381101561892a57888303601f19018552855180518885526188da8986018261864c565b918a0151858303868c01528051808452908b01928592508b01905b808310156189155783518252928b019260019290920191908b01906188f5565b50978a0197968a0196945050506001016188b6565b505060a089015160a08b015260c0890151965089810360c08b015261894f81886186d7565b9a9950505050505050505050565b600061010061896c838c61862a565b6001600160401b038a8116602085015289166040840152606083018890526080830187905260a0830186905260c083018190526189ab8184018661864c565b905082810360e08401526189bf8185618840565b9b9a5050505050505050505050565b634e487b7160e01b600052604160045260246000fd5b604080519081016001600160401b0381118282101715618a0657618a066189ce565b60405290565b60405160c081016001600160401b0381118282101715618a0657618a066189ce565b604051601f8201601f191681016001600160401b0381118282101715618a5657618a566189ce565b604052919050565b6001600160401b0381168114612f2957600080fd5b8035618a7e81618a5e565b919050565b60006001600160401b03821115618a9c57618a9c6189ce565b5060051b60200190565b6001600160a01b0381168114612f2957600080fd5b600082601f830112618acc57600080fd5b81356020618ae1618adc83618a83565b618a2e565b82815260059290921b84018101918181019086841115618b0057600080fd5b8286015b848110156186a8578035618b1781618aa6565b8352918301918301618b04565b600060408284031215618b3657600080fd5b618b3e6189e4565b90508135618b4b81618a5e565b815260208201356001600160401b03811115618b6657600080fd5b618b7284828501618abb565b60208301525092915050565b60008060408385031215618b9157600080fd5b82356001600160401b03811115618ba757600080fd5b618bb385828601618b24565b95602094909401359450505050565b6020815260006173bb60208301846187c0565b600080600060408486031215618bea57600080fd5b8335925060208401356001600160401b0380821115618c0857600080fd5b818601915086601f830112618c1c57600080fd5b813581811115618c2b57600080fd5b8760208260051b8501011115618c4057600080fd5b6020830194508093505050509250925092565b600060208284031215618c6557600080fd5b81356173bb81618a5e565b600060408284031215618c8257600080fd5b50919050565b60008060408385031215618c9b57600080fd5b82356001600160401b03811115618cb157600080fd5b618cbd85828601618c70565b9250506020830135618cce81618a5e565b809150509250929050565b6020815260006173bb60208301846187eb565b60008060408385031215618cff57600080fd5b82356001600160401b0380821115618d1657600080fd5b618d2286838701618c70565b93506020850135915080821115618d3857600080fd5b50618d4585828601618c70565b9150509250929050565b60008060408385031215618d6257600080fd5b823591506020830135618cce81618aa6565b60a081526000618d8760a083018861864c565b6001600160401b038716602084015260408301869052606083018590528281036080840152618db681856186d7565b98975050505050505050565b600060208284031215618dd457600080fd5b81356001600160401b03811115618dea57600080fd5b617f5984828501618c70565b60008060408385031215618e0957600080fd5b8235618e1481618a5e565b91506020830135618cce81618aa6565b8215158152604060208201526000617f596040830184618840565b604081526000618e526040830185618749565b905082151560208301529392505050565b6020815260006173bb602083018461864c565b600060208284031215618e8857600080fd5b81356001600160401b03811115618e9e57600080fd5b617f5984828501618b24565b821515815260406020820152618ec460408201835161862a565b60006020830151618ee060608401826001600160401b03169052565b5060408301516001600160401b038116608084015250606083015160a0830152608083015160c083015260a083015160e083015260c08301516101206101008181860152618f3261016086018461864c565b925060e0860151603f19808786030184880152618f4f8583618840565b94508288015193508087860301610140880152505050618f6f82826187eb565b9695505050505050565b600060208284031215618f8b57600080fd5b81356001600160401b03811115618fa157600080fd5b820160e081850312156173bb57600080fd5b60008060408385031215618fc657600080fd5b82356001600160401b0380821115618fdd57600080fd5b618fe986838701618abb565b935060209150818501358181111561900057600080fd5b85019050601f8101861361901357600080fd5b8035619021618adc82618a83565b81815260059190911b8201830190838101908883111561904057600080fd5b928401925b8284101561905e57833582529284019290840190619045565b80955050505050509250929050565b600181811c9082168061908157607f821691505b602082108103618c8257634e487b7160e01b600052602260045260246000fd5b634e487b7160e01b600052603260045260246000fd5b6000602082840312156190c957600080fd5b81356173bb81618aa6565b600081518084526020808501808196508360051b8101915082860160005b8581101561883357828403895261910a8483516187c0565b988501989350908401906001016190f2565b600081518084526020808501808196508360051b810191508286016000805b868110156191ae578385038a5282516040815181885261915d8289018261864c565b92890151888403898b01528051808552908a01938693508a0191505b808310156191995783518252928901926001929092019190890190619179565b509b88019b965050509185019160010161913b565b509298975050505050505050565b602081526000825160e060208401526191d961010084018261864c565b905060018060401b036020850151166040840152604084015160608401526060840151601f198085840301608086015261921383836190d4565b925060808601519150808584030160a0860152619230838361911c565b925060a086015160c086015260c08601519150808584030160e08601525061722c82826186d7565b60006020828403121561926a57600080fd5b5051919050565b60006113d23683618b24565b634e487b7160e01b600052601160045260246000fd5b818103818111156113d2576113d261927d565b808201808211156113d2576113d261927d565b6000600182016192cb576192cb61927d565b5060010190565b6000808335601e198436030181126192e957600080fd5b83016020810192503590506001600160401b0381111561930857600080fd5b8060051b360382131561931a57600080fd5b9250929050565b600060408301823561933281618a5e565b6001600160401b03168452602061934b848201856192d2565b6040878401529283905291600090606087015b8183101561938e57843561937181618aa6565b6001600160a01b031681529383019360019290920191830161935e565b979650505050505050565b60ff81168114612f2957600080fd5b6000808335601e198436030181126193bf57600080fd5b83016020810192503590506001600160401b038111156193de57600080fd5b80360382131561931a57600080fd5b81835281816020850137506000828201602090810191909152601f909101601f19169091010190565b6000813561942381619399565b60ff16835261943560208301836193a8565b6040602086015261722c6040860182846193ed565b60808152600061945d6080830187619321565b6001600160a01b0386166020840152828103604084015261947e8186619416565b91505082606083015295945050505050565b8051618a7e81618a5e565b6000604082840312156194ad57600080fd5b6194b56189e4565b905081516194c281618a5e565b81526020828101516001600160401b038111156194de57600080fd5b8301601f810185136194ef57600080fd5b80516194fd618adc82618a83565b81815260059190911b8201830190838101908783111561951c57600080fd5b928401925b8284101561954357835161953481618aa6565b82529284019290840190619521565b8085870152505050505092915050565b60006001600160401b0382111561956c5761956c6189ce565b50601f01601f191660200190565b600082601f83011261958b57600080fd5b8151619599618adc82619553565b8181528460208386010111156195ae57600080fd5b617f598260208301602087016186b3565b6000604082840312156195d157600080fd5b6195d96189e4565b82519091506001600160401b03808211156195f357600080fd5b6195ff8583860161949b565b8352602084015191508082111561961557600080fd5b908301906040828603121561962957600080fd5b6196316189e4565b825161963c81619399565b815260208301518281111561965057600080fd5b61965c8782860161957a565b60208301525080602085015250505092915050565b6001600160e01b031981168114612f2957600080fd5b8051618a7e81619671565b8015158114612f2957600080fd5b8051618a7e81619692565b6000602082840312156196bd57600080fd5b81516001600160401b03808211156196d457600080fd5b90830190604082860312156196e857600080fd5b6196f06189e4565b8251828111156196ff57600080fd5b830160c0818803121561971157600080fd5b619719618a0c565b81518481111561972857600080fd5b619734898285016195bf565b82525060208201518481111561974957600080fd5b619755898285016195bf565b6020830152506040820151604082015261977160608301619490565b606082015261978260808301619687565b608082015260a08201518481111561979957600080fd5b6197a58982850161957a565b60a0830152508252506197ba602084016196a0565b602082015295945050505050565b6000602082840312156197da57600080fd5b81516173bb81618aa6565b6040815260006197f8604083018561864c565b905060018060a01b03831660208301529392505050565b60006020828403121561982157600080fd5b81516001600160401b0381111561983757600080fd5b617f598482850161949b565b6001600160401b038181168382160190808211156198635761986361927d565b5092915050565b60009081526020902090565b80546001600160401b031682526040602080840182905260018381018054938601849052600090815282812090939092849160608801905b808410156198d45785546001600160a01b031682529484019492840192908201906198ae565b50979650505050505050565b6040815260006198f3604083018561864c565b828103602084015261722c8185619876565b6000823560be1983360301811261991b57600080fd5b9190910192915050565b60008235603e1983360301811261991b57600080fd5b60006020828403121561994d57600080fd5b81516173bb81619692565b600082601f83011261996957600080fd5b8135619977618adc82619553565b81815284602083860101111561998c57600080fd5b816020850160208301376000918101602001919091529392505050565b6000604082840312156199bb57600080fd5b6199c36189e4565b905081356001600160401b03808211156199dc57600080fd5b6199e885838601618b24565b835260208401359150808211156199fe57600080fd5b9083019060408286031215619a1257600080fd5b619a1a6189e4565b8235619a2581619399565b8152602083013582811115619a3957600080fd5b61965c87828601619958565b8035618a7e81619671565b8035618a7e81619692565b600060408284031215619a6d57600080fd5b619a756189e4565b905081356001600160401b0380821115619a8e57600080fd5b9083019060c08286031215619aa257600080fd5b619aaa618a0c565b823582811115619ab957600080fd5b619ac5878286016199a9565b825250602083013582811115619ada57600080fd5b619ae6878286016199a9565b60208301525060408301356040820152619b0260608401618a73565b6060820152619b1360808401619a45565b608082015260a083013582811115619b2a57600080fd5b619b3687828601619958565b60a083015250835250619b4d905060208301619a50565b602082015292915050565b60006113d23683619a5b565b6001600160401b038281168282160390808211156198635761986361927d565b606081526000619b976060830186619876565b8281036020840152619ba98186619416565b915050826040830152949350505050565b6000808335601e19843603018112619bd157600080fd5b8301803591506001600160401b03821115619beb57600080fd5b6020019150600581901b360382131561931a57600080fd5b60008235603e19833603018112619c1957600080fd5b90910192915050565b6000619c2e8283619c03565b60408452619c3f6040850182619321565b9050619c4e6020840184619c03565b848203602086015261722c8282619416565b81835260006020808501808196508560051b81019150846000805b888110156191ae578385038a52619c928389619c03565b6040813560be19833603018112619ca7578485fd5b8188528201619cb68180619c03565b60c080848b0152619ccb6101008b0183619c22565b9150619cd98b840184619c03565b603f196060818d860301818e0152619cf18584619c22565b94506080925086860135838e015280860135965050619d0f86618a5e565b60a060018060401b038716818e0152828601359650619d2d87619671565b6001600160e01b031987168d850152619d48868201876193a8565b9750955050808c85030160e08d0152505050619d658184846193ed565b92505050619d74888301619a50565b151596880196909652509885019891850191600101619c7b565b602081526000617f59602083018486619c60565b81835260006020808501808196506005915085821b8101856000805b89811015619e3e578484038b52619dd5838a619c03565b6040619de18283619c03565b818752619df082880182619321565b915050619dff898301836192d2565b8783038b89015280835292506001600160fb1b03831115619e1e578485fd5b91881b918281838c0137509b88019b018701935091860191600101619dbe565b50919998505050505050505050565b85815260a060208201526000619e638687619c03565b60e060a0840152619e78610180840182619321565b90506020870135619e8881618a5e565b6001600160401b031660c0840152604087013560e0840152619ead60608801886192d2565b609f198086850301610100870152619ec6848385619c60565b9350619ed560808b018b6192d2565b935091508086850301610120870152619eef848484619da2565b935060a08a0135610140870152619f0960c08b018b6193a8565b93509150808685030161016087015250619f248383836193ed565b9350505050846040830152836060830152618f6f60808301846001600160401b03169052565b600081356113d281618a5e565b80546001600160401b0319166001600160401b0392909216919091179055565b80820281158282048414176113d2576113d261927d565b5b81811015612fe95760008155600101619f8f565b8054600082558015612fe957816000526020600020611fde82820182619f8e565b600160401b821115619fd857619fd86189ce565b805482825580831015611fde578160005260206000206166fd828201858301619f8e565b60008155612f2960018201619fa3565b600019600383901b1c191660019190911b1790565b61a02b815461906d565b8015612fe957601f81116001811461a04557505060009055565b82600052602060002061a063601f840160051c820160018301619f8e565b60008085559055505050565b6000815561a07f60018201619fa3565b60006002820155612f296003820161a021565b6000808335601e1984360301811261a0a957600080fd5b8301803591506001600160401b0382111561a0c357600080fd5b60200191503681900382131561931a57600080fd5b601f821115611fde57806000526020600020601f840160051c8101602085101561a0ff5750805b61a111601f850160051c830182619f8e565b5050505050565b6001600160401b0383111561a12f5761a12f6189ce565b61a1438361a13d835461906d565b8361a0d8565b6000601f84116001811461a171576000851561a15f5750838201355b61a169868261a00c565b84555061a111565b601f19851661a17f8461986a565b835b8281101561a1a1578685013582556020948501946001909201910161a181565b508682101561a1be5760001960f88860031b161c19848701351681555b505060018560011b0183555050505050565b61a1da8283619925565b803561a1e581618a5e565b61a1ef8184619f57565b506001808301602061a20381850185619bba565b94506001600160401b038086111561a21d5761a21d6189ce565b61a2278685619fc4565b600093845282842093805b8781101561a25457833561a24581618aa6565b8682015592840192860161a232565b5060028801965061a267848a018a619925565b94508435925061a27683619399565b865460ff191660ff841617909655600387019561a2958585018661a092565b955092508185111561a2a95761a2a96189ce565b61a2bd8561a2b7895461906d565b8961a0d8565b809150601f85116001811461a2eb5781861561a2d95750838301355b61a2e3878261a00c565b89555061a33f565b601f19861661a2f98961986a565b835b8281101561a318578686013582559487019490890190870161a2fb565b508782101561a3355760001960f88960031b161c19858701351681555b50508686881b0188555b50505050505050505050565b600081356113d281619671565b600081356113d281619692565b813560be1983360301811261a37957600080fd5b820161a3858180619925565b61a38f8182619925565b803561a39a81618a5e565b61a3a48186619f57565b506001808501602061a3b881850185619bba565b94506001600160401b038086111561a3d25761a3d26189ce565b61a3dc8685619fc4565b600093845282842093805b8781101561a40957833561a3fa81618aa6565b8682015592840192860161a3e7565b5060028a01965061a41c84890189619925565b97508735945061a42b85619399565b865460ff191660ff861617909655600389019561a44a8885018961a092565b985094508188111561a45e5761a45e6189ce565b61a46c8861a2b7895461906d565b809250601f88116001811461a49c57819250881561a48b578386013592505b61a495898461a00c565b885561a4f1565b601f198916925061a4ac8861986a565b825b8481101561a4cb578786013582559486019490880190860161a4ae565b508984101561a4e85760001960f88b60031b161c19858801351681555b508689881b0188555b5050505061a50d61a50482880188619925565b6004890161a1d0565b6040860135600888015560098701945061a53261a52c60608801619f4a565b86619f57565b61a56561a5416080880161a34b565b86805463ffffffff60401b191660a09290921c63ffffffff60401b16919091179055565b61a57260a087018761a092565b9650945061a5848686600a8a0161a118565b6127ba61a592828a0161a358565b600b890160ff1981541660ff8315151681178255505050565b600160401b83111561a5bf5761a5bf6189ce565b80548382558084101561a65357600c818102818104831461a5e25761a5e261927d565b858202828104871461a5f65761a5f661927d565b6000858152602081209283019291909101905b8282101561a64e5761a61a8261a06f565b61a6266004830161a06f565b80600883015580600983015561a63e600a830161a021565b80600b830155838201915061a609565b505050505b508161a65e8261986a565b60005b858110156145765761a67c61a6768487619925565b8361a365565b60209290920191600c919091019060010161a661565b805460008083558115611fde57828152602081208281015b8082101561a1115782825560018201915061a6aa565b600160401b82111561a6d45761a6d46189ce565b805482825580831015611fde576000828152602081208481019083015b808210156145765782825560018201915061a6f1565b61a7118283619925565b803561a71c81618a5e565b61a7268184619f57565b506001808301602061a73a81850185619bba565b94506001600160401b038086111561a7545761a7546189ce565b61a75e8685619fc4565b600093845282842093805b8781101561a78b57833561a77c81618aa6565b8682015592840192860161a769565b5060028801965061a79e848a018a619bba565b955092508185111561a7b25761a7b26189ce565b61a7bc858861a6c0565b95865250818520945b838110156127ba5781358682015590820190840161a7c5565b600160401b83111561a7f25761a7f26189ce565b80548382558084101561a860576003818102818104831461a8155761a81561927d565b858202828104871461a8295761a82961927d565b60008581526020902091820191015b8181101561a85c5761a84981619ffc565b61a8556002820161a692565b820161a838565b5050505b508161a86b8261986a565b60005b858110156145765761a88961a8838487619925565b8361a707565b602092909201916003919091019060010161a86e565b61a8a98283619925565b803561a8b481618a5e565b61a8be8184619f57565b506001808301602061a8d281850185619bba565b94506001600160401b0385111561a8eb5761a8eb6189ce565b61a8f58584619fc4565b6000928352818320925b8581101561a92157813561a91281618aa6565b8482015590820190840161a8ff565b505061a93a61a931828801619f4a565b60028701619f57565b505050506040820135600382015561a9556060830183619bba565b61a96381836004860161a5ab565b505061a9726080830183619bba565b61a98081836005860161a7de565b505060a0820135600682015561a99960c083018361a092565b6166fd81836007860161a118565b600061a9b5618adc84618a83565b8381529050602080820190600585901b84018681111561a9d457600080fd5b845b8181101561aa0f5780356001600160401b0381111561a9f55760008081fd5b61aa0189828901619a5b565b85525092820192820161a9d6565b505050509392505050565b60006173bb36848461a9a7565b6001600160a01b0391909116815260200190565b81516001600160401b0381111561aa545761aa546189ce565b61aa688161aa62845461906d565b8461a0d8565b602080601f83116001811461aa97576000841561aa855750858301515b61aa8f858261a00c565b865550614576565b601f19841661aaa58661986a565b60005b8281101561aac75788860151825594840194600190910190840161aaa8565b508582101561aae55787850151600019600388901b60f8161c191681555b5050505050600190811b01905550565b6040815260006198f36040830185618749565b60006020828403121561ab1a57600080fd5b8151600281106173bb57600080fd5b60408152600061ab3c604083018561864c565b828103602084015261722c818561864c565b60006001600160401b038281166002600160401b0319810161ab725761ab7261927d565b6001019392505050565b634e487b7160e01b600052601260045260246000fd5b60006001600160401b038381168061abac5761abac61ab7c565b92169190910692915050565b60006040823603121561abca57600080fd5b61abd26189e4565b823561abdd81618a5e565b815260208301356001600160401b0381111561abf857600080fd5b830136601f82011261ac0957600080fd5b618b723682356020840161a9a7565b602080825282516001600160401b031682820152820151604080830152600090617f5960608401826190d4565b813561ac5081618a5e565b61ac5a8183619f57565b506001808201602061ac6e81860186619bba565b600160401b81111561ac825761ac826189ce565b83548185558082101561ad1557600c818102818104831461aca55761aca561927d565b838202828104851461acb95761acb961927d565b60008881528781209283019291909101905b8282101561ad105761acdc8261a06f565b61ace86004830161a06f565b80600883015580600983015561ad00600a830161a021565b80600b830155838201915061accb565b505050505b508161ad208561986a565b945060005b8281101561ad525761ad4061ad3a8386619925565b8761a365565b600c959095019490840190860161ad25565b505050505050505050565b9182526001600160401b0316602082015260400190565b60006020828403121561ad8657600080fd5b81516001600160401b0381111561ad9c57600080fd5b617f598482850161957a565b60006001600160401b038381168061adc25761adc261ab7c565b92169190910492915050565b6001600160401b0381811683821602808216919082811461adf15761adf161927d565b505092915050565b6000825161991b8184602087016186b3565b60008261ae1a5761ae1a61ab7c565b500490565b6020808252600590820152644950432d3160d81b604082015260600190565b60006020828403121561ae5057600080fd5b81516001600160401b038082111561ae6757600080fd5b908301906060828603121561ae7b57600080fd5b60405160608101818110838211171561ae965761ae966189ce565b604052825161aea481618a5e565b815260208301516001600160801b038116811461aec057600080fd5b602082015260408301518281111561aed757600080fd5b61aee38782860161957a565b60408301525095945050505050565b6020815260006173bb60208301846186d756fea2646970667358221220cc2defecbc026c636b4f3fbd19be5c3cd41c10263959320bd712a8fedb8be4c764736f6c63430008130033",
    "linkReferences": {
      "src/lib/AccountHelper.sol": {
        "AccountHelper": [
          {
            "start": 25892,
            "length": 20
          },
          {
            "start": 26043,
            "length": 20
          }
        ]
      },
      "src/lib/CheckpointHelper.sol": {
        "CheckpointHelper": [
          {
            "start": 7942,
            "length": 20
          },
          {
            "start": 24394,
            "length": 20
          },
          {
            "start": 24656,
            "length": 20
          },
          {
            "start": 29365,
            "length": 20
          },
          {
            "start": 30525,
            "length": 20
          }
        ]
      },
      "src/lib/CrossMsgHelper.sol": {
        "CrossMsgHelper": [
          {
            "start": 9459,
            "length": 20
          },
          {
            "start": 13939,
            "length": 20
          },
          {
            "start": 17122,
            "length": 20
          },
          {
            "start": 33247,
            "length": 20
          }
        ]
      },
      "src/lib/EpochVoteSubmissionHelper.sol": {
        "EpochVoteSubmissionHelper": [
          {
            "start": 31778,
            "length": 20
          },
          {
            "start": 34347,
            "length": 20
          }
        ]
      },
      "src/lib/ExecutableQueueHelper.sol": {
        "ExecutableQueueHelper": [
          {
            "start": 31635,
            "length": 20
          },
          {
            "start": 31901,
            "length": 20
          },
          {
            "start": 32060,
            "length": 20
          }
        ]
      },
      "src/lib/StorableMsgHelper.sol": {
        "StorableMsgHelper": [
          {
            "start": 27392,
            "length": 20
          },
          {
            "start": 32505,
            "length": 20
          }
        ]
      },
      "src/lib/SubnetIDHelper.sol": {
        "SubnetIDHelper": [
          {
            "start": 481,
            "length": 20
          },
          {
            "start": 9666,
            "length": 20
          },
          {
            "start": 10014,
            "length": 20
          },
          {
            "start": 11430,
            "length": 20
          },
          {
            "start": 12262,
            "length": 20
          },
          {
            "start": 12497,
            "length": 20
          },
          {
            "start": 12903,
            "length": 20
          },
          {
            "start": 13592,
            "length": 20
          },
          {
            "start": 15801,
            "length": 20
          },
          {
            "start": 22441,
            "length": 20
          },
          {
            "start": 25432,
            "length": 20
          },
          {
            "start": 25710,
            "length": 20
          },
          {
            "start": 26267,
            "length": 20
          },
          {
            "start": 27080,
            "length": 20
          },
          {
            "start": 27230,
            "length": 20
          },
          {
            "start": 27542,
            "length": 20
          },
          {
            "start": 27668,
            "length": 20
          },
          {
            "start": 27975,
            "length": 20
          },
          {
            "start": 28348,
            "length": 20
          },
          {
            "start": 31097,
            "length": 20
          },
          {
            "start": 32293,
            "length": 20
          },
          {
            "start": 32635,
            "length": 20
          },
          {
            "start": 32785,
            "length": 20
          }
        ]
      }
    }
  },
  "methodIdentifiers": {
    "MIN_CHECKPOINT_PERIOD()": "a1ada303",
    "MIN_COLLATERAL_AMOUNT()": "91be4d41",
    "addStake()": "5a627dbc",
    "appliedTopDownNonce()": "8789f83b",
    "bottomUpCheckPeriod()": "06c46853",
    "bottomUpCheckpointAtEpoch(uint64)": "6cb2ecee",
    "bottomUpCheckpointHashAtEpoch(uint64)": "133f74ea",
    "bottomUpCheckpoints(uint64)": "2cc14ea2",
    "bottomUpNonce()": "41b6a2e8",
    "commitChildCheck(((uint64,address[]),uint64,uint256,((((uint64,address[]),(uint8,bytes)),((uint64,address[]),(uint8,bytes)),uint256,uint64,bytes4,bytes),bool)[],((uint64,address[]),bytes32[])[],bytes32,bytes))": "d4e149a8",
    "crossMsgFee()": "24729425",
    "executableQueue()": "10d500e1",
    "fund((uint64,address[]),(uint8,bytes))": "18f44b70",
    "getGenesisEpoch()": "51392fc0",
    "getNetworkName()": "94074b03",
    "getSubnet((uint64,address[]))": "c66c66a1",
    "getSubnetTopDownMsg((uint64,address[]),uint256)": "0ea746f2",
    "getSubnetTopDownMsgsLength((uint64,address[]))": "9d3070b5",
    "getTopDownMsgs((uint64,address[]),uint64)": "13549315",
    "hasValidatorVotedForSubmission(uint64,address)": "66d7bbbc",
    "initGenesisEpoch(uint64)": "13f35388",
    "initialized()": "158ef93e",
    "kill()": "41c0e1b5",
    "lastVotingExecutedEpoch()": "ad81e244",
    "majorityPercentage()": "599c7bd1",
    "minStake()": "375b3c0a",
    "postbox(bytes32)": "8cfd78e7",
    "postboxHasOwner(bytes32,address)": "3c8fe6bf",
    "propagate(bytes32)": "25bf0db6",
    "register()": "1aa3a008",
    "release((uint8,bytes))": "6b2c1eef",
    "releaseRewards(uint256)": "f8703bb8",
    "releaseStake(uint256)": "45f54485",
    "sendCrossMessage(((((uint64,address[]),(uint8,bytes)),((uint64,address[]),(uint8,bytes)),uint256,uint64,bytes4,bytes),bool))": "2f757dd1",
    "setMembership(address[],uint256[])": "f75bc557",
    "submissionPeriod()": "185fde7e",
    "submitTopDownCheckpoint((uint64,((((uint64,address[]),(uint8,bytes)),((uint64,address[]),(uint8,bytes)),uint256,uint64,bytes4,bytes),bool)[]))": "986acf38",
    "subnets(bytes32)": "02e30f9a",
    "topDownCheckPeriod()": "7d9740f4",
    "totalSubnets()": "a2b67158",
    "totalWeight()": "96c82e57",
    "validatorNonce()": "e17a684f",
    "validatorSet(uint256,address)": "223d9056",
    "whitelistPropagator(bytes32,address[])": "11c5080e"
  },
  "id": 25
}