{
  "abi": [
    {
      "inputs": [
        {
          "components": [
            {
              "components": [
                {
                  "internalType": "uint64",
                  "name": "root",
                  "type": "uint64"
                },
                {
                  "internalType": "address[]",
                  "name": "route",
                  "type": "address[]"
                }
              ],
              "internalType": "struct SubnetID",
              "name": "networkName",
              "type": "tuple"
            },
            {
              "internalType": "uint64",
              "name": "bottomUpCheckPeriod",
              "type": "uint64"
            },
            {
              "internalType": "uint64",
              "name": "topDownCheckPeriod",
              "type": "uint64"
            },
            {
              "internalType": "uint256",
              "name": "msgFee",
              "type": "uint256"
            },
            {
              "internalType": "uint8",
              "name": "majorityPercentage",
              "type": "uint8"
            }
          ],
          "internalType": "struct Gateway.ConstructorParams",
          "name": "params",
          "type": "tuple"
        }
      ],
      "stateMutability": "nonpayable",
      "type": "constructor"
    },
    {
      "inputs": [],
      "name": "AlreadyInitialized",
      "type": "error"
    },
    {
      "inputs": [],
      "name": "AlreadyRegisteredSubnet",
      "type": "error"
    },
    {
      "inputs": [],
      "name": "CallFailed",
      "type": "error"
    },
    {
      "inputs": [],
      "name": "CannotReleaseZero",
      "type": "error"
    },
    {
      "inputs": [],
      "name": "CannotSendCrossMsgToItself",
      "type": "error"
    },
    {
      "inputs": [],
      "name": "EmptySubnet",
      "type": "error"
    },
    {
      "inputs": [],
      "name": "EpochAlreadyExecuted",
      "type": "error"
    },
    {
      "inputs": [],
      "name": "EpochNotVotable",
      "type": "error"
    },
    {
      "inputs": [],
      "name": "InconsistentPrevCheckpoint",
      "type": "error"
    },
    {
      "inputs": [],
      "name": "InsufficientFunds",
      "type": "error"
    },
    {
      "inputs": [],
      "name": "InvalidActorAddress",
      "type": "error"
    },
    {
      "inputs": [],
      "name": "InvalidCheckpointEpoch",
      "type": "error"
    },
    {
      "inputs": [],
      "name": "InvalidCheckpointSource",
      "type": "error"
    },
    {
      "inputs": [],
      "name": "InvalidCrossMsgDestinationAddress",
      "type": "error"
    },
    {
      "inputs": [],
      "name": "InvalidCrossMsgDestinationSubnet",
      "type": "error"
    },
    {
      "inputs": [],
      "name": "InvalidCrossMsgFromRawAddress",
      "type": "error"
    },
    {
      "inputs": [],
      "name": "InvalidCrossMsgFromSubnetId",
      "type": "error"
    },
    {
      "inputs": [],
      "name": "InvalidCrossMsgNonce",
      "type": "error"
    },
    {
      "inputs": [],
      "name": "InvalidCrossMsgsSortOrder",
      "type": "error"
    },
    {
      "inputs": [],
      "name": "InvalidMajorityPercentage",
      "type": "error"
    },
    {
      "inputs": [],
      "name": "InvalidPostboxOwner",
      "type": "error"
    },
    {
      "inputs": [],
      "name": "MessagesNotSorted",
      "type": "error"
    },
    {
      "inputs": [],
      "name": "NotEmptySubnetCircSupply",
      "type": "error"
    },
    {
      "inputs": [],
      "name": "NotEnoughBalance",
      "type": "error"
    },
    {
      "inputs": [],
      "name": "NotEnoughFee",
      "type": "error"
    },
    {
      "inputs": [],
      "name": "NotEnoughFunds",
      "type": "error"
    },
    {
      "inputs": [],
      "name": "NotEnoughFundsForMembership",
      "type": "error"
    },
    {
      "inputs": [],
      "name": "NotEnoughFundsToRelease",
      "type": "error"
    },
    {
      "inputs": [],
      "name": "NotEnoughSubnetCircSupply",
      "type": "error"
    },
    {
      "inputs": [],
      "name": "NotInitialized",
      "type": "error"
    },
    {
      "inputs": [],
      "name": "NotRegisteredSubnet",
      "type": "error"
    },
    {
      "inputs": [],
      "name": "NotSignableAccount",
      "type": "error"
    },
    {
      "inputs": [],
      "name": "NotSystemActor",
      "type": "error"
    },
    {
      "inputs": [],
      "name": "NotValidator",
      "type": "error"
    },
    {
      "inputs": [],
      "name": "PostboxNotExist",
      "type": "error"
    },
    {
      "inputs": [],
      "name": "SubnetNotActive",
      "type": "error"
    },
    {
      "inputs": [],
      "name": "ValidatorAlreadyVoted",
      "type": "error"
    },
    {
      "inputs": [],
      "name": "ValidatorWeightIsZero",
      "type": "error"
    },
    {
      "inputs": [],
      "name": "ValidatorsAndWeightsLengthMismatch",
      "type": "error"
    },
    {
      "inputs": [],
      "name": "MIN_CHECKPOINT_PERIOD",
      "outputs": [
        {
          "internalType": "uint8",
          "name": "",
          "type": "uint8"
        }
      ],
      "stateMutability": "view",
      "type": "function"
    },
    {
      "inputs": [],
      "name": "MIN_COLLATERAL_AMOUNT",
      "outputs": [
        {
          "internalType": "uint256",
          "name": "",
          "type": "uint256"
        }
      ],
      "stateMutability": "view",
      "type": "function"
    },
    {
      "inputs": [],
      "name": "addStake",
      "outputs": [],
      "stateMutability": "payable",
      "type": "function"
    },
    {
      "inputs": [],
      "name": "appliedTopDownNonce",
      "outputs": [
        {
          "internalType": "uint64",
          "name": "",
          "type": "uint64"
        }
      ],
      "stateMutability": "view",
      "type": "function"
    },
    {
      "inputs": [],
      "name": "bottomUpCheckPeriod",
      "outputs": [
        {
          "internalType": "uint64",
          "name": "",
          "type": "uint64"
        }
      ],
      "stateMutability": "view",
      "type": "function"
    },
    {
      "inputs": [
        {
          "internalType": "uint64",
          "name": "epoch",
          "type": "uint64"
        }
      ],
      "name": "bottomUpCheckpointAtEpoch",
      "outputs": [
        {
          "internalType": "bool",
          "name": "exists",
          "type": "bool"
        },
        {
          "components": [
            {
              "components": [
                {
                  "internalType": "uint64",
                  "name": "root",
                  "type": "uint64"
                },
                {
                  "internalType": "address[]",
                  "name": "route",
                  "type": "address[]"
                }
              ],
              "internalType": "struct SubnetID",
              "name": "source",
              "type": "tuple"
            },
            {
              "internalType": "uint64",
              "name": "epoch",
              "type": "uint64"
            },
            {
              "internalType": "uint256",
              "name": "fee",
              "type": "uint256"
            },
            {
              "components": [
                {
                  "components": [
                    {
                      "components": [
                        {
                          "components": [
                            {
                              "internalType": "uint64",
                              "name": "root",
                              "type": "uint64"
                            },
                            {
                              "internalType": "address[]",
                              "name": "route",
                              "type": "address[]"
                            }
                          ],
                          "internalType": "struct SubnetID",
                          "name": "subnetId",
                          "type": "tuple"
                        },
                        {
                          "internalType": "address",
                          "name": "rawAddress",
                          "type": "address"
                        }
                      ],
                      "internalType": "struct IPCAddress",
                      "name": "from",
                      "type": "tuple"
                    },
                    {
                      "components": [
                        {
                          "components": [
                            {
                              "internalType": "uint64",
                              "name": "root",
                              "type": "uint64"
                            },
                            {
                              "internalType": "address[]",
                              "name": "route",
                              "type": "address[]"
                            }
                          ],
                          "internalType": "struct SubnetID",
                          "name": "subnetId",
                          "type": "tuple"
                        },
                        {
                          "internalType": "address",
                          "name": "rawAddress",
                          "type": "address"
                        }
                      ],
                      "internalType": "struct IPCAddress",
                      "name": "to",
                      "type": "tuple"
                    },
                    {
                      "internalType": "uint256",
                      "name": "value",
                      "type": "uint256"
                    },
                    {
                      "internalType": "uint64",
                      "name": "nonce",
                      "type": "uint64"
                    },
                    {
                      "internalType": "bytes4",
                      "name": "method",
                      "type": "bytes4"
                    },
                    {
                      "internalType": "bytes",
                      "name": "params",
                      "type": "bytes"
                    }
                  ],
                  "internalType": "struct StorableMsg",
                  "name": "message",
                  "type": "tuple"
                },
                {
                  "internalType": "bool",
                  "name": "wrapped",
                  "type": "bool"
                }
              ],
              "internalType": "struct CrossMsg[]",
              "name": "crossMsgs",
              "type": "tuple[]"
            },
            {
              "components": [
                {
                  "components": [
                    {
                      "internalType": "uint64",
                      "name": "root",
                      "type": "uint64"
                    },
                    {
                      "internalType": "address[]",
                      "name": "route",
                      "type": "address[]"
                    }
                  ],
                  "internalType": "struct SubnetID",
                  "name": "source",
                  "type": "tuple"
                },
                {
                  "internalType": "bytes32[]",
                  "name": "checks",
                  "type": "bytes32[]"
                }
              ],
              "internalType": "struct ChildCheck[]",
              "name": "children",
              "type": "tuple[]"
            },
            {
              "internalType": "bytes32",
              "name": "prevHash",
              "type": "bytes32"
            },
            {
              "internalType": "bytes",
              "name": "proof",
              "type": "bytes"
            }
          ],
          "internalType": "struct BottomUpCheckpoint",
          "name": "checkpoint",
          "type": "tuple"
        }
      ],
      "stateMutability": "view",
      "type": "function"
    },
    {
      "inputs": [
        {
          "internalType": "uint64",
          "name": "epoch",
          "type": "uint64"
        }
      ],
      "name": "bottomUpCheckpointHashAtEpoch",
      "outputs": [
        {
          "internalType": "bool",
          "name": "",
          "type": "bool"
        },
        {
          "internalType": "bytes32",
          "name": "",
          "type": "bytes32"
        }
      ],
      "stateMutability": "view",
      "type": "function"
    },
    {
      "inputs": [
        {
          "internalType": "uint64",
          "name": "",
          "type": "uint64"
        }
      ],
      "name": "bottomUpCheckpoints",
      "outputs": [
        {
          "components": [
            {
              "internalType": "uint64",
              "name": "root",
              "type": "uint64"
            },
            {
              "internalType": "address[]",
              "name": "route",
              "type": "address[]"
            }
          ],
          "internalType": "struct SubnetID",
          "name": "source",
          "type": "tuple"
        },
        {
          "internalType": "uint64",
          "name": "epoch",
          "type": "uint64"
        },
        {
          "internalType": "uint256",
          "name": "fee",
          "type": "uint256"
        },
        {
          "internalType": "bytes32",
          "name": "prevHash",
          "type": "bytes32"
        },
        {
          "internalType": "bytes",
          "name": "proof",
          "type": "bytes"
        }
      ],
      "stateMutability": "view",
      "type": "function"
    },
    {
      "inputs": [],
      "name": "bottomUpNonce",
      "outputs": [
        {
          "internalType": "uint64",
          "name": "",
          "type": "uint64"
        }
      ],
      "stateMutability": "view",
      "type": "function"
    },
    {
      "inputs": [
        {
          "components": [
            {
              "components": [
                {
                  "internalType": "uint64",
                  "name": "root",
                  "type": "uint64"
                },
                {
                  "internalType": "address[]",
                  "name": "route",
                  "type": "address[]"
                }
              ],
              "internalType": "struct SubnetID",
              "name": "source",
              "type": "tuple"
            },
            {
              "internalType": "uint64",
              "name": "epoch",
              "type": "uint64"
            },
            {
              "internalType": "uint256",
              "name": "fee",
              "type": "uint256"
            },
            {
              "components": [
                {
                  "components": [
                    {
                      "components": [
                        {
                          "components": [
                            {
                              "internalType": "uint64",
                              "name": "root",
                              "type": "uint64"
                            },
                            {
                              "internalType": "address[]",
                              "name": "route",
                              "type": "address[]"
                            }
                          ],
                          "internalType": "struct SubnetID",
                          "name": "subnetId",
                          "type": "tuple"
                        },
                        {
                          "internalType": "address",
                          "name": "rawAddress",
                          "type": "address"
                        }
                      ],
                      "internalType": "struct IPCAddress",
                      "name": "from",
                      "type": "tuple"
                    },
                    {
                      "components": [
                        {
                          "components": [
                            {
                              "internalType": "uint64",
                              "name": "root",
                              "type": "uint64"
                            },
                            {
                              "internalType": "address[]",
                              "name": "route",
                              "type": "address[]"
                            }
                          ],
                          "internalType": "struct SubnetID",
                          "name": "subnetId",
                          "type": "tuple"
                        },
                        {
                          "internalType": "address",
                          "name": "rawAddress",
                          "type": "address"
                        }
                      ],
                      "internalType": "struct IPCAddress",
                      "name": "to",
                      "type": "tuple"
                    },
                    {
                      "internalType": "uint256",
                      "name": "value",
                      "type": "uint256"
                    },
                    {
                      "internalType": "uint64",
                      "name": "nonce",
                      "type": "uint64"
                    },
                    {
                      "internalType": "bytes4",
                      "name": "method",
                      "type": "bytes4"
                    },
                    {
                      "internalType": "bytes",
                      "name": "params",
                      "type": "bytes"
                    }
                  ],
                  "internalType": "struct StorableMsg",
                  "name": "message",
                  "type": "tuple"
                },
                {
                  "internalType": "bool",
                  "name": "wrapped",
                  "type": "bool"
                }
              ],
              "internalType": "struct CrossMsg[]",
              "name": "crossMsgs",
              "type": "tuple[]"
            },
            {
              "components": [
                {
                  "components": [
                    {
                      "internalType": "uint64",
                      "name": "root",
                      "type": "uint64"
                    },
                    {
                      "internalType": "address[]",
                      "name": "route",
                      "type": "address[]"
                    }
                  ],
                  "internalType": "struct SubnetID",
                  "name": "source",
                  "type": "tuple"
                },
                {
                  "internalType": "bytes32[]",
                  "name": "checks",
                  "type": "bytes32[]"
                }
              ],
              "internalType": "struct ChildCheck[]",
              "name": "children",
              "type": "tuple[]"
            },
            {
              "internalType": "bytes32",
              "name": "prevHash",
              "type": "bytes32"
            },
            {
              "internalType": "bytes",
              "name": "proof",
              "type": "bytes"
            }
          ],
          "internalType": "struct BottomUpCheckpoint",
          "name": "commit",
          "type": "tuple"
        }
      ],
      "name": "commitChildCheck",
      "outputs": [],
      "stateMutability": "nonpayable",
      "type": "function"
    },
    {
      "inputs": [],
      "name": "crossMsgFee",
      "outputs": [
        {
          "internalType": "uint256",
          "name": "",
          "type": "uint256"
        }
      ],
      "stateMutability": "view",
      "type": "function"
    },
    {
      "inputs": [],
      "name": "executableQueue",
      "outputs": [
        {
          "internalType": "uint64",
          "name": "period",
          "type": "uint64"
        },
        {
          "internalType": "uint64",
          "name": "first",
          "type": "uint64"
        },
        {
          "internalType": "uint64",
          "name": "last",
          "type": "uint64"
        }
      ],
      "stateMutability": "view",
      "type": "function"
    },
    {
      "inputs": [
        {
          "components": [
            {
              "internalType": "uint64",
              "name": "root",
              "type": "uint64"
            },
            {
              "internalType": "address[]",
              "name": "route",
              "type": "address[]"
            }
          ],
          "internalType": "struct SubnetID",
          "name": "subnetId",
          "type": "tuple"
        }
      ],
      "name": "fund",
      "outputs": [],
      "stateMutability": "payable",
      "type": "function"
    },
    {
      "inputs": [],
      "name": "getGenesisEpoch",
      "outputs": [
        {
          "internalType": "uint64",
          "name": "",
          "type": "uint64"
        }
      ],
      "stateMutability": "view",
      "type": "function"
    },
    {
      "inputs": [],
      "name": "getNetworkName",
      "outputs": [
        {
          "components": [
            {
              "internalType": "uint64",
              "name": "root",
              "type": "uint64"
            },
            {
              "internalType": "address[]",
              "name": "route",
              "type": "address[]"
            }
          ],
          "internalType": "struct SubnetID",
          "name": "",
          "type": "tuple"
        }
      ],
      "stateMutability": "view",
      "type": "function"
    },
    {
      "inputs": [
        {
          "components": [
            {
              "internalType": "uint64",
              "name": "root",
              "type": "uint64"
            },
            {
              "internalType": "address[]",
              "name": "route",
              "type": "address[]"
            }
          ],
          "internalType": "struct SubnetID",
          "name": "subnetId",
          "type": "tuple"
        }
      ],
      "name": "getSubnet",
      "outputs": [
        {
          "internalType": "bool",
          "name": "",
          "type": "bool"
        },
        {
          "components": [
            {
              "internalType": "enum Status",
              "name": "status",
              "type": "uint8"
            },
            {
              "internalType": "uint64",
              "name": "topDownNonce",
              "type": "uint64"
            },
            {
              "internalType": "uint64",
              "name": "appliedBottomUpNonce",
              "type": "uint64"
            },
            {
              "internalType": "uint256",
              "name": "stake",
              "type": "uint256"
            },
            {
              "internalType": "uint256",
              "name": "genesisEpoch",
              "type": "uint256"
            },
            {
              "internalType": "uint256",
              "name": "circSupply",
              "type": "uint256"
            },
            {
              "components": [
                {
                  "internalType": "uint64",
                  "name": "root",
                  "type": "uint64"
                },
                {
                  "internalType": "address[]",
                  "name": "route",
                  "type": "address[]"
                }
              ],
              "internalType": "struct SubnetID",
              "name": "id",
              "type": "tuple"
            },
            {
              "components": [
                {
                  "components": [
                    {
                      "internalType": "uint64",
                      "name": "root",
                      "type": "uint64"
                    },
                    {
                      "internalType": "address[]",
                      "name": "route",
                      "type": "address[]"
                    }
                  ],
                  "internalType": "struct SubnetID",
                  "name": "source",
                  "type": "tuple"
                },
                {
                  "internalType": "uint64",
                  "name": "epoch",
                  "type": "uint64"
                },
                {
                  "internalType": "uint256",
                  "name": "fee",
                  "type": "uint256"
                },
                {
                  "components": [
                    {
                      "components": [
                        {
                          "components": [
                            {
                              "components": [
                                {
                                  "internalType": "uint64",
                                  "name": "root",
                                  "type": "uint64"
                                },
                                {
                                  "internalType": "address[]",
                                  "name": "route",
                                  "type": "address[]"
                                }
                              ],
                              "internalType": "struct SubnetID",
                              "name": "subnetId",
                              "type": "tuple"
                            },
                            {
                              "internalType": "address",
                              "name": "rawAddress",
                              "type": "address"
                            }
                          ],
                          "internalType": "struct IPCAddress",
                          "name": "from",
                          "type": "tuple"
                        },
                        {
                          "components": [
                            {
                              "components": [
                                {
                                  "internalType": "uint64",
                                  "name": "root",
                                  "type": "uint64"
                                },
                                {
                                  "internalType": "address[]",
                                  "name": "route",
                                  "type": "address[]"
                                }
                              ],
                              "internalType": "struct SubnetID",
                              "name": "subnetId",
                              "type": "tuple"
                            },
                            {
                              "internalType": "address",
                              "name": "rawAddress",
                              "type": "address"
                            }
                          ],
                          "internalType": "struct IPCAddress",
                          "name": "to",
                          "type": "tuple"
                        },
                        {
                          "internalType": "uint256",
                          "name": "value",
                          "type": "uint256"
                        },
                        {
                          "internalType": "uint64",
                          "name": "nonce",
                          "type": "uint64"
                        },
                        {
                          "internalType": "bytes4",
                          "name": "method",
                          "type": "bytes4"
                        },
                        {
                          "internalType": "bytes",
                          "name": "params",
                          "type": "bytes"
                        }
                      ],
                      "internalType": "struct StorableMsg",
                      "name": "message",
                      "type": "tuple"
                    },
                    {
                      "internalType": "bool",
                      "name": "wrapped",
                      "type": "bool"
                    }
                  ],
                  "internalType": "struct CrossMsg[]",
                  "name": "crossMsgs",
                  "type": "tuple[]"
                },
                {
                  "components": [
                    {
                      "components": [
                        {
                          "internalType": "uint64",
                          "name": "root",
                          "type": "uint64"
                        },
                        {
                          "internalType": "address[]",
                          "name": "route",
                          "type": "address[]"
                        }
                      ],
                      "internalType": "struct SubnetID",
                      "name": "source",
                      "type": "tuple"
                    },
                    {
                      "internalType": "bytes32[]",
                      "name": "checks",
                      "type": "bytes32[]"
                    }
                  ],
                  "internalType": "struct ChildCheck[]",
                  "name": "children",
                  "type": "tuple[]"
                },
                {
                  "internalType": "bytes32",
                  "name": "prevHash",
                  "type": "bytes32"
                },
                {
                  "internalType": "bytes",
                  "name": "proof",
                  "type": "bytes"
                }
              ],
              "internalType": "struct BottomUpCheckpoint",
              "name": "prevCheckpoint",
              "type": "tuple"
            },
            {
              "components": [
                {
                  "components": [
                    {
                      "components": [
                        {
                          "components": [
                            {
                              "internalType": "uint64",
                              "name": "root",
                              "type": "uint64"
                            },
                            {
                              "internalType": "address[]",
                              "name": "route",
                              "type": "address[]"
                            }
                          ],
                          "internalType": "struct SubnetID",
                          "name": "subnetId",
                          "type": "tuple"
                        },
                        {
                          "internalType": "address",
                          "name": "rawAddress",
                          "type": "address"
                        }
                      ],
                      "internalType": "struct IPCAddress",
                      "name": "from",
                      "type": "tuple"
                    },
                    {
                      "components": [
                        {
                          "components": [
                            {
                              "internalType": "uint64",
                              "name": "root",
                              "type": "uint64"
                            },
                            {
                              "internalType": "address[]",
                              "name": "route",
                              "type": "address[]"
                            }
                          ],
                          "internalType": "struct SubnetID",
                          "name": "subnetId",
                          "type": "tuple"
                        },
                        {
                          "internalType": "address",
                          "name": "rawAddress",
                          "type": "address"
                        }
                      ],
                      "internalType": "struct IPCAddress",
                      "name": "to",
                      "type": "tuple"
                    },
                    {
                      "internalType": "uint256",
                      "name": "value",
                      "type": "uint256"
                    },
                    {
                      "internalType": "uint64",
                      "name": "nonce",
                      "type": "uint64"
                    },
                    {
                      "internalType": "bytes4",
                      "name": "method",
                      "type": "bytes4"
                    },
                    {
                      "internalType": "bytes",
                      "name": "params",
                      "type": "bytes"
                    }
                  ],
                  "internalType": "struct StorableMsg",
                  "name": "message",
                  "type": "tuple"
                },
                {
                  "internalType": "bool",
                  "name": "wrapped",
                  "type": "bool"
                }
              ],
              "internalType": "struct CrossMsg[]",
              "name": "topDownMsgs",
              "type": "tuple[]"
            }
          ],
          "internalType": "struct Subnet",
          "name": "",
          "type": "tuple"
        }
      ],
      "stateMutability": "view",
      "type": "function"
    },
    {
      "inputs": [
        {
          "components": [
            {
              "internalType": "uint64",
              "name": "root",
              "type": "uint64"
            },
            {
              "internalType": "address[]",
              "name": "route",
              "type": "address[]"
            }
          ],
          "internalType": "struct SubnetID",
          "name": "subnetId",
          "type": "tuple"
        },
        {
          "internalType": "uint256",
          "name": "index",
          "type": "uint256"
        }
      ],
      "name": "getSubnetTopDownMsg",
      "outputs": [
        {
          "components": [
            {
              "components": [
                {
                  "components": [
                    {
                      "components": [
                        {
                          "internalType": "uint64",
                          "name": "root",
                          "type": "uint64"
                        },
                        {
                          "internalType": "address[]",
                          "name": "route",
                          "type": "address[]"
                        }
                      ],
                      "internalType": "struct SubnetID",
                      "name": "subnetId",
                      "type": "tuple"
                    },
                    {
                      "internalType": "address",
                      "name": "rawAddress",
                      "type": "address"
                    }
                  ],
                  "internalType": "struct IPCAddress",
                  "name": "from",
                  "type": "tuple"
                },
                {
                  "components": [
                    {
                      "components": [
                        {
                          "internalType": "uint64",
                          "name": "root",
                          "type": "uint64"
                        },
                        {
                          "internalType": "address[]",
                          "name": "route",
                          "type": "address[]"
                        }
                      ],
                      "internalType": "struct SubnetID",
                      "name": "subnetId",
                      "type": "tuple"
                    },
                    {
                      "internalType": "address",
                      "name": "rawAddress",
                      "type": "address"
                    }
                  ],
                  "internalType": "struct IPCAddress",
                  "name": "to",
                  "type": "tuple"
                },
                {
                  "internalType": "uint256",
                  "name": "value",
                  "type": "uint256"
                },
                {
                  "internalType": "uint64",
                  "name": "nonce",
                  "type": "uint64"
                },
                {
                  "internalType": "bytes4",
                  "name": "method",
                  "type": "bytes4"
                },
                {
                  "internalType": "bytes",
                  "name": "params",
                  "type": "bytes"
                }
              ],
              "internalType": "struct StorableMsg",
              "name": "message",
              "type": "tuple"
            },
            {
              "internalType": "bool",
              "name": "wrapped",
              "type": "bool"
            }
          ],
          "internalType": "struct CrossMsg",
          "name": "",
          "type": "tuple"
        }
      ],
      "stateMutability": "view",
      "type": "function"
    },
    {
      "inputs": [
        {
          "components": [
            {
              "internalType": "uint64",
              "name": "root",
              "type": "uint64"
            },
            {
              "internalType": "address[]",
              "name": "route",
              "type": "address[]"
            }
          ],
          "internalType": "struct SubnetID",
          "name": "subnetId",
          "type": "tuple"
        }
      ],
      "name": "getSubnetTopDownMsgsLength",
      "outputs": [
        {
          "internalType": "uint256",
          "name": "",
          "type": "uint256"
        }
      ],
      "stateMutability": "view",
      "type": "function"
    },
    {
      "inputs": [
        {
          "components": [
            {
              "internalType": "uint64",
              "name": "root",
              "type": "uint64"
            },
            {
              "internalType": "address[]",
              "name": "route",
              "type": "address[]"
            }
          ],
          "internalType": "struct SubnetID",
          "name": "subnetId",
          "type": "tuple"
        },
        {
          "internalType": "uint64",
          "name": "fromNonce",
          "type": "uint64"
        }
      ],
      "name": "getTopDownMsgs",
      "outputs": [
        {
          "components": [
            {
              "components": [
                {
                  "components": [
                    {
                      "components": [
                        {
                          "internalType": "uint64",
                          "name": "root",
                          "type": "uint64"
                        },
                        {
                          "internalType": "address[]",
                          "name": "route",
                          "type": "address[]"
                        }
                      ],
                      "internalType": "struct SubnetID",
                      "name": "subnetId",
                      "type": "tuple"
                    },
                    {
                      "internalType": "address",
                      "name": "rawAddress",
                      "type": "address"
                    }
                  ],
                  "internalType": "struct IPCAddress",
                  "name": "from",
                  "type": "tuple"
                },
                {
                  "components": [
                    {
                      "components": [
                        {
                          "internalType": "uint64",
                          "name": "root",
                          "type": "uint64"
                        },
                        {
                          "internalType": "address[]",
                          "name": "route",
                          "type": "address[]"
                        }
                      ],
                      "internalType": "struct SubnetID",
                      "name": "subnetId",
                      "type": "tuple"
                    },
                    {
                      "internalType": "address",
                      "name": "rawAddress",
                      "type": "address"
                    }
                  ],
                  "internalType": "struct IPCAddress",
                  "name": "to",
                  "type": "tuple"
                },
                {
                  "internalType": "uint256",
                  "name": "value",
                  "type": "uint256"
                },
                {
                  "internalType": "uint64",
                  "name": "nonce",
                  "type": "uint64"
                },
                {
                  "internalType": "bytes4",
                  "name": "method",
                  "type": "bytes4"
                },
                {
                  "internalType": "bytes",
                  "name": "params",
                  "type": "bytes"
                }
              ],
              "internalType": "struct StorableMsg",
              "name": "message",
              "type": "tuple"
            },
            {
              "internalType": "bool",
              "name": "wrapped",
              "type": "bool"
            }
          ],
          "internalType": "struct CrossMsg[]",
          "name": "",
          "type": "tuple[]"
        }
      ],
      "stateMutability": "view",
      "type": "function"
    },
    {
      "inputs": [
        {
          "internalType": "uint64",
          "name": "epoch",
          "type": "uint64"
        },
        {
          "internalType": "address",
          "name": "submitter",
          "type": "address"
        }
      ],
      "name": "hasValidatorVotedForSubmission",
      "outputs": [
        {
          "internalType": "bool",
          "name": "",
          "type": "bool"
        }
      ],
      "stateMutability": "view",
      "type": "function"
    },
    {
      "inputs": [
        {
          "internalType": "uint64",
          "name": "genesisEpoch",
          "type": "uint64"
        }
      ],
      "name": "initGenesisEpoch",
      "outputs": [],
      "stateMutability": "nonpayable",
      "type": "function"
    },
    {
      "inputs": [],
      "name": "initialized",
      "outputs": [
        {
          "internalType": "bool",
          "name": "",
          "type": "bool"
        }
      ],
      "stateMutability": "view",
      "type": "function"
    },
    {
      "inputs": [],
      "name": "kill",
      "outputs": [],
      "stateMutability": "nonpayable",
      "type": "function"
    },
    {
      "inputs": [],
      "name": "lastVotingExecutedEpoch",
      "outputs": [
        {
          "internalType": "uint64",
          "name": "",
          "type": "uint64"
        }
      ],
      "stateMutability": "view",
      "type": "function"
    },
    {
      "inputs": [],
      "name": "majorityPercentage",
      "outputs": [
        {
          "internalType": "uint8",
          "name": "",
          "type": "uint8"
        }
      ],
      "stateMutability": "view",
      "type": "function"
    },
    {
      "inputs": [],
      "name": "minStake",
      "outputs": [
        {
          "internalType": "uint256",
          "name": "",
          "type": "uint256"
        }
      ],
      "stateMutability": "view",
      "type": "function"
    },
    {
      "inputs": [
        {
          "internalType": "bytes32",
          "name": "",
          "type": "bytes32"
        }
      ],
      "name": "postbox",
      "outputs": [
        {
          "components": [
            {
              "components": [
                {
                  "components": [
                    {
                      "internalType": "uint64",
                      "name": "root",
                      "type": "uint64"
                    },
                    {
                      "internalType": "address[]",
                      "name": "route",
                      "type": "address[]"
                    }
                  ],
                  "internalType": "struct SubnetID",
                  "name": "subnetId",
                  "type": "tuple"
                },
                {
                  "internalType": "address",
                  "name": "rawAddress",
                  "type": "address"
                }
              ],
              "internalType": "struct IPCAddress",
              "name": "from",
              "type": "tuple"
            },
            {
              "components": [
                {
                  "components": [
                    {
                      "internalType": "uint64",
                      "name": "root",
                      "type": "uint64"
                    },
                    {
                      "internalType": "address[]",
                      "name": "route",
                      "type": "address[]"
                    }
                  ],
                  "internalType": "struct SubnetID",
                  "name": "subnetId",
                  "type": "tuple"
                },
                {
                  "internalType": "address",
                  "name": "rawAddress",
                  "type": "address"
                }
              ],
              "internalType": "struct IPCAddress",
              "name": "to",
              "type": "tuple"
            },
            {
              "internalType": "uint256",
              "name": "value",
              "type": "uint256"
            },
            {
              "internalType": "uint64",
              "name": "nonce",
              "type": "uint64"
            },
            {
              "internalType": "bytes4",
              "name": "method",
              "type": "bytes4"
            },
            {
              "internalType": "bytes",
              "name": "params",
              "type": "bytes"
            }
          ],
          "internalType": "struct StorableMsg",
          "name": "message",
          "type": "tuple"
        },
        {
          "internalType": "bool",
          "name": "wrapped",
          "type": "bool"
        }
      ],
      "stateMutability": "view",
      "type": "function"
    },
    {
      "inputs": [
        {
          "internalType": "bytes32",
          "name": "",
          "type": "bytes32"
        },
        {
          "internalType": "address",
          "name": "",
          "type": "address"
        }
      ],
      "name": "postboxHasOwner",
      "outputs": [
        {
          "internalType": "bool",
          "name": "",
          "type": "bool"
        }
      ],
      "stateMutability": "view",
      "type": "function"
    },
    {
      "inputs": [
        {
          "internalType": "bytes32",
          "name": "msgCid",
          "type": "bytes32"
        }
      ],
      "name": "propagate",
      "outputs": [],
      "stateMutability": "payable",
      "type": "function"
    },
    {
      "inputs": [],
      "name": "register",
      "outputs": [],
      "stateMutability": "payable",
      "type": "function"
    },
    {
      "inputs": [],
      "name": "release",
      "outputs": [],
      "stateMutability": "payable",
      "type": "function"
    },
    {
      "inputs": [
        {
          "internalType": "uint256",
          "name": "amount",
          "type": "uint256"
        }
      ],
      "name": "releaseRewards",
      "outputs": [],
      "stateMutability": "nonpayable",
      "type": "function"
    },
    {
      "inputs": [
        {
          "internalType": "uint256",
          "name": "amount",
          "type": "uint256"
        }
      ],
      "name": "releaseStake",
      "outputs": [],
      "stateMutability": "nonpayable",
      "type": "function"
    },
    {
      "inputs": [
        {
          "components": [
            {
              "components": [
                {
                  "components": [
                    {
                      "components": [
                        {
                          "internalType": "uint64",
                          "name": "root",
                          "type": "uint64"
                        },
                        {
                          "internalType": "address[]",
                          "name": "route",
                          "type": "address[]"
                        }
                      ],
                      "internalType": "struct SubnetID",
                      "name": "subnetId",
                      "type": "tuple"
                    },
                    {
                      "internalType": "address",
                      "name": "rawAddress",
                      "type": "address"
                    }
                  ],
                  "internalType": "struct IPCAddress",
                  "name": "from",
                  "type": "tuple"
                },
                {
                  "components": [
                    {
                      "components": [
                        {
                          "internalType": "uint64",
                          "name": "root",
                          "type": "uint64"
                        },
                        {
                          "internalType": "address[]",
                          "name": "route",
                          "type": "address[]"
                        }
                      ],
                      "internalType": "struct SubnetID",
                      "name": "subnetId",
                      "type": "tuple"
                    },
                    {
                      "internalType": "address",
                      "name": "rawAddress",
                      "type": "address"
                    }
                  ],
                  "internalType": "struct IPCAddress",
                  "name": "to",
                  "type": "tuple"
                },
                {
                  "internalType": "uint256",
                  "name": "value",
                  "type": "uint256"
                },
                {
                  "internalType": "uint64",
                  "name": "nonce",
                  "type": "uint64"
                },
                {
                  "internalType": "bytes4",
                  "name": "method",
                  "type": "bytes4"
                },
                {
                  "internalType": "bytes",
                  "name": "params",
                  "type": "bytes"
                }
              ],
              "internalType": "struct StorableMsg",
              "name": "message",
              "type": "tuple"
            },
            {
              "internalType": "bool",
              "name": "wrapped",
              "type": "bool"
            }
          ],
          "internalType": "struct CrossMsg",
          "name": "crossMsg",
          "type": "tuple"
        }
      ],
      "name": "sendCrossMessage",
      "outputs": [],
      "stateMutability": "payable",
      "type": "function"
    },
    {
      "inputs": [
        {
          "internalType": "address[]",
          "name": "validators",
          "type": "address[]"
        },
        {
          "internalType": "uint256[]",
          "name": "weights",
          "type": "uint256[]"
        }
      ],
      "name": "setMembership",
      "outputs": [],
      "stateMutability": "nonpayable",
      "type": "function"
    },
    {
      "inputs": [],
      "name": "submissionPeriod",
      "outputs": [
        {
          "internalType": "uint64",
          "name": "",
          "type": "uint64"
        }
      ],
      "stateMutability": "view",
      "type": "function"
    },
    {
      "inputs": [
        {
          "components": [
            {
              "internalType": "uint64",
              "name": "epoch",
              "type": "uint64"
            },
            {
              "components": [
                {
                  "components": [
                    {
                      "components": [
                        {
                          "components": [
                            {
                              "internalType": "uint64",
                              "name": "root",
                              "type": "uint64"
                            },
                            {
                              "internalType": "address[]",
                              "name": "route",
                              "type": "address[]"
                            }
                          ],
                          "internalType": "struct SubnetID",
                          "name": "subnetId",
                          "type": "tuple"
                        },
                        {
                          "internalType": "address",
                          "name": "rawAddress",
                          "type": "address"
                        }
                      ],
                      "internalType": "struct IPCAddress",
                      "name": "from",
                      "type": "tuple"
                    },
                    {
                      "components": [
                        {
                          "components": [
                            {
                              "internalType": "uint64",
                              "name": "root",
                              "type": "uint64"
                            },
                            {
                              "internalType": "address[]",
                              "name": "route",
                              "type": "address[]"
                            }
                          ],
                          "internalType": "struct SubnetID",
                          "name": "subnetId",
                          "type": "tuple"
                        },
                        {
                          "internalType": "address",
                          "name": "rawAddress",
                          "type": "address"
                        }
                      ],
                      "internalType": "struct IPCAddress",
                      "name": "to",
                      "type": "tuple"
                    },
                    {
                      "internalType": "uint256",
                      "name": "value",
                      "type": "uint256"
                    },
                    {
                      "internalType": "uint64",
                      "name": "nonce",
                      "type": "uint64"
                    },
                    {
                      "internalType": "bytes4",
                      "name": "method",
                      "type": "bytes4"
                    },
                    {
                      "internalType": "bytes",
                      "name": "params",
                      "type": "bytes"
                    }
                  ],
                  "internalType": "struct StorableMsg",
                  "name": "message",
                  "type": "tuple"
                },
                {
                  "internalType": "bool",
                  "name": "wrapped",
                  "type": "bool"
                }
              ],
              "internalType": "struct CrossMsg[]",
              "name": "topDownMsgs",
              "type": "tuple[]"
            }
          ],
          "internalType": "struct TopDownCheckpoint",
          "name": "checkpoint",
          "type": "tuple"
        }
      ],
      "name": "submitTopDownCheckpoint",
      "outputs": [],
      "stateMutability": "nonpayable",
      "type": "function"
    },
    {
      "inputs": [
        {
          "internalType": "bytes32",
          "name": "",
          "type": "bytes32"
        }
      ],
      "name": "subnets",
      "outputs": [
        {
          "internalType": "enum Status",
          "name": "status",
          "type": "uint8"
        },
        {
          "internalType": "uint64",
          "name": "topDownNonce",
          "type": "uint64"
        },
        {
          "internalType": "uint64",
          "name": "appliedBottomUpNonce",
          "type": "uint64"
        },
        {
          "internalType": "uint256",
          "name": "stake",
          "type": "uint256"
        },
        {
          "internalType": "uint256",
          "name": "genesisEpoch",
          "type": "uint256"
        },
        {
          "internalType": "uint256",
          "name": "circSupply",
          "type": "uint256"
        },
        {
          "components": [
            {
              "internalType": "uint64",
              "name": "root",
              "type": "uint64"
            },
            {
              "internalType": "address[]",
              "name": "route",
              "type": "address[]"
            }
          ],
          "internalType": "struct SubnetID",
          "name": "id",
          "type": "tuple"
        },
        {
          "components": [
            {
              "components": [
                {
                  "internalType": "uint64",
                  "name": "root",
                  "type": "uint64"
                },
                {
                  "internalType": "address[]",
                  "name": "route",
                  "type": "address[]"
                }
              ],
              "internalType": "struct SubnetID",
              "name": "source",
              "type": "tuple"
            },
            {
              "internalType": "uint64",
              "name": "epoch",
              "type": "uint64"
            },
            {
              "internalType": "uint256",
              "name": "fee",
              "type": "uint256"
            },
            {
              "components": [
                {
                  "components": [
                    {
                      "components": [
                        {
                          "components": [
                            {
                              "internalType": "uint64",
                              "name": "root",
                              "type": "uint64"
                            },
                            {
                              "internalType": "address[]",
                              "name": "route",
                              "type": "address[]"
                            }
                          ],
                          "internalType": "struct SubnetID",
                          "name": "subnetId",
                          "type": "tuple"
                        },
                        {
                          "internalType": "address",
                          "name": "rawAddress",
                          "type": "address"
                        }
                      ],
                      "internalType": "struct IPCAddress",
                      "name": "from",
                      "type": "tuple"
                    },
                    {
                      "components": [
                        {
                          "components": [
                            {
                              "internalType": "uint64",
                              "name": "root",
                              "type": "uint64"
                            },
                            {
                              "internalType": "address[]",
                              "name": "route",
                              "type": "address[]"
                            }
                          ],
                          "internalType": "struct SubnetID",
                          "name": "subnetId",
                          "type": "tuple"
                        },
                        {
                          "internalType": "address",
                          "name": "rawAddress",
                          "type": "address"
                        }
                      ],
                      "internalType": "struct IPCAddress",
                      "name": "to",
                      "type": "tuple"
                    },
                    {
                      "internalType": "uint256",
                      "name": "value",
                      "type": "uint256"
                    },
                    {
                      "internalType": "uint64",
                      "name": "nonce",
                      "type": "uint64"
                    },
                    {
                      "internalType": "bytes4",
                      "name": "method",
                      "type": "bytes4"
                    },
                    {
                      "internalType": "bytes",
                      "name": "params",
                      "type": "bytes"
                    }
                  ],
                  "internalType": "struct StorableMsg",
                  "name": "message",
                  "type": "tuple"
                },
                {
                  "internalType": "bool",
                  "name": "wrapped",
                  "type": "bool"
                }
              ],
              "internalType": "struct CrossMsg[]",
              "name": "crossMsgs",
              "type": "tuple[]"
            },
            {
              "components": [
                {
                  "components": [
                    {
                      "internalType": "uint64",
                      "name": "root",
                      "type": "uint64"
                    },
                    {
                      "internalType": "address[]",
                      "name": "route",
                      "type": "address[]"
                    }
                  ],
                  "internalType": "struct SubnetID",
                  "name": "source",
                  "type": "tuple"
                },
                {
                  "internalType": "bytes32[]",
                  "name": "checks",
                  "type": "bytes32[]"
                }
              ],
              "internalType": "struct ChildCheck[]",
              "name": "children",
              "type": "tuple[]"
            },
            {
              "internalType": "bytes32",
              "name": "prevHash",
              "type": "bytes32"
            },
            {
              "internalType": "bytes",
              "name": "proof",
              "type": "bytes"
            }
          ],
          "internalType": "struct BottomUpCheckpoint",
          "name": "prevCheckpoint",
          "type": "tuple"
        }
      ],
      "stateMutability": "view",
      "type": "function"
    },
    {
      "inputs": [],
      "name": "topDownCheckPeriod",
      "outputs": [
        {
          "internalType": "uint64",
          "name": "",
          "type": "uint64"
        }
      ],
      "stateMutability": "view",
      "type": "function"
    },
    {
      "inputs": [],
      "name": "totalSubnets",
      "outputs": [
        {
          "internalType": "uint64",
          "name": "",
          "type": "uint64"
        }
      ],
      "stateMutability": "view",
      "type": "function"
    },
    {
      "inputs": [],
      "name": "totalWeight",
      "outputs": [
        {
          "internalType": "uint256",
          "name": "",
          "type": "uint256"
        }
      ],
      "stateMutability": "view",
      "type": "function"
    },
    {
      "inputs": [],
      "name": "validatorNonce",
      "outputs": [
        {
          "internalType": "uint256",
          "name": "",
          "type": "uint256"
        }
      ],
      "stateMutability": "view",
      "type": "function"
    },
    {
      "inputs": [
        {
          "internalType": "uint256",
          "name": "",
          "type": "uint256"
        },
        {
          "internalType": "address",
          "name": "",
          "type": "address"
        }
      ],
      "name": "validatorSet",
      "outputs": [
        {
          "internalType": "uint256",
          "name": "",
          "type": "uint256"
        }
      ],
      "stateMutability": "view",
      "type": "function"
    },
    {
      "inputs": [
        {
          "internalType": "bytes32",
          "name": "msgCid",
          "type": "bytes32"
        },
        {
          "internalType": "address[]",
          "name": "owners",
          "type": "address[]"
        }
      ],
      "name": "whitelistPropagator",
      "outputs": [],
      "stateMutability": "nonpayable",
      "type": "function"
    }
  ],
  "bytecode": {
    "object": "0x6101406040523480156200001257600080fd5b506040516200a2183803806200a2188339810160408190526200003591620003b2565b608081015160408201516001600055606460ff831611156200006a576040516375c3b42760e01b815260040160405180910390fd5b60ff8216608052600a6001600160401b038216106200008a57806200008d565b600a5b6001600160401b0390811660a0819052600280546001600160401b0319908116909217905584518051600480549190941692169190911782556020808201518051929550929350620000e59260059291019062000269565b5050670de0b6b3a764000060c052506020810151600a6001600160401b0390911610620001175780602001516200011a565b600a5b6001600160401b0390811660e0526040820151600a9116106200014257806040015162000145565b600a5b6001600160401b039081166101005260608201516101205260408051808201825260048054909316815260058054835160208281028201810190955281815292949380860193929190830182828015620001c957602002820191906000526020600020905b81546001600160a01b03168152600190910190602001808311620001aa575b5050509190925250506040516310c5511f60e31b815273__$a0fe38a9a81205afccc10810b09a4d3f45$__9263862a88f892506200020a9160040162000530565b602060405180830381865af415801562000228573d6000803e3d6000fd5b505050506040513d601f19601f820116820180604052508101906200024e91906200059c565b1562000262576011805460ff191660011790555b50620005c7565b828054828255906000526020600020908101928215620002c1579160200282015b82811115620002c157825182546001600160a01b0319166001600160a01b039091161782556020909201916001909101906200028a565b50620002cf929150620002d3565b5090565b5b80821115620002cf5760008155600101620002d4565b634e487b7160e01b600052604160045260246000fd5b60405160a081016001600160401b0381118282101715620003255762000325620002ea565b60405290565b604080519081016001600160401b0381118282101715620003255762000325620002ea565b604051601f8201601f191681016001600160401b03811182821017156200037b576200037b620002ea565b604052919050565b80516001600160401b03811681146200039b57600080fd5b919050565b805160ff811681146200039b57600080fd5b60006020808385031215620003c657600080fd5b82516001600160401b0380821115620003de57600080fd5b9084019060a08287031215620003f357600080fd5b620003fd62000300565b8251828111156200040d57600080fd5b8301604081890312156200042057600080fd5b6200042a6200032b565b620004358262000383565b815285820151848111156200044957600080fd5b80830192505088601f8301126200045f57600080fd5b815184811115620004745762000474620002ea565b8060051b94506200048787860162000350565b818152948301870194878101908b871115620004a257600080fd5b938801935b86851015620004dc57845192506001600160a01b0383168314620004cb5760008081fd5b8282529388019390880190620004a7565b838901525050825250620004f283850162000383565b84820152620005046040840162000383565b6040820152606083015160608201526200052160808401620003a0565b60808201529695505050505050565b602080825282516001600160401b0316828201528281015160408084015280516060840181905260009291820190839060808601905b80831015620005915783516001600160a01b0316825292840192600192909201919084019062000566565b509695505050505050565b600060208284031215620005af57600080fd5b81518015158114620005c057600080fd5b9392505050565b60805160a05160c05160e0516101005161012051619ba6620006726000396000818161047601528181611f9a01528181613c6b015281816148f101528181614a09015281816150ec0152615f09015260006106f001526000818161024b015261576d0152600081816104ee015281816119520152818161242e0152612f360152600081816103f401528181615a210152616e7f0152600081816105f70152616fb10152619ba66000f3fe6080604052600436106101f75760003560e01c806302e30f9a146101fc57806306c46853146102395780630ea746f21461028557806310d500e1146102b257806311c5080e14610312578063133f74ea14610334578063135493151461036b57806313f3538814610398578063158ef93e146103b8578063185fde7e146103e25780631aa3a00814610416578063223d90561461041e578063247294251461046457806325bf0db6146104985780632cc14ea2146104ab578063375b3c0a146104dc5780633c8fe6bf1461051057806341b6a2e81461054b57806341c0e1b51461056b57806345f544851461058057806351392fc0146105a057806359265195146105c5578063599c7bd1146105e55780635a627dbc1461062b5780635dfb98921461063357806366d7bbbc146106535780636cb2ecee146106b05780637d9740f4146106de57806386d1a69f146107125780638789f83b1461071a5780638cfd78e71461074157806391be4d411461076f57806394074b031461078b57806396c82e57146107ad5780639d3070b5146107c3578063a1ada303146107e3578063a2b67158146107f8578063ad81e24414610818578063c66c66a114610838578063cfb3452f14610866578063e17a684f14610879578063f75bc5571461088f578063f8703bb8146108af578063f871fd22146108cf575b600080fd5b34801561020857600080fd5b5061021c6102173660046174fd565b6108e2565b60405161023098979695949392919061784b565b60405180910390f35b34801561024557600080fd5b5061026d7f000000000000000000000000000000000000000000000000000000000000000081565b6040516001600160401b039091168152602001610230565b34801561029157600080fd5b506102a56102a0366004617a6c565b610ed4565b6040516102309190617ab0565b3480156102be57600080fd5b506002546102e8906001600160401b0380821691600160401b8104821691600160801b9091041683565b604080516001600160401b0394851681529284166020840152921691810191909152606001610230565b34801561031e57600080fd5b5061033261032d366004617ac3565b611155565b005b34801561034057600080fd5b5061035461034f366004617b41565b6114b0565b604080519215158352602083019190915201610230565b34801561037757600080fd5b5061038b610386366004617b76565b611549565b6040516102309190617bc7565b3480156103a457600080fd5b506103326103b3366004617b41565b6118ec565b3480156103c457600080fd5b506011546103d29060ff1681565b6040519015158152602001610230565b3480156103ee57600080fd5b5061026d7f000000000000000000000000000000000000000000000000000000000000000081565b610332611950565b34801561042a57600080fd5b50610456610439366004617bda565b600d60209081526000928352604080842090915290825290205481565b604051908152602001610230565b34801561047057600080fd5b506104567f000000000000000000000000000000000000000000000000000000000000000081565b6103326104a63660046174fd565b611b5d565b3480156104b757600080fd5b506104cb6104c6366004617b41565b611fdb565b604051610230959493929190617bff565b3480156104e857600080fd5b506104567f000000000000000000000000000000000000000000000000000000000000000081565b34801561051c57600080fd5b506103d261052b366004617bda565b600960209081526000928352604080842090915290825290205460ff1681565b34801561055757600080fd5b50600b5461026d906001600160401b031681565b34801561057757600080fd5b50610332612118565b34801561058c57600080fd5b5061033261059b3660046174fd565b612392565b3480156105ac57600080fd5b50600154600160401b90046001600160401b031661026d565b3480156105d157600080fd5b506103326105e0366004617c4d565b612575565b3480156105f157600080fd5b506106197f000000000000000000000000000000000000000000000000000000000000000081565b60405160ff9091168152602001610230565b610332612eae565b34801561063f57600080fd5b5061033261064e366004617c87565b612f6f565b34801561065f57600080fd5b506103d261066e366004617cbb565b6001600160401b03821660009081526012602090815260408083208054845260030182528083206001600160a01b038516845290915290205460ff1692915050565b3480156106bc57600080fd5b506106d06106cb366004617b41565b61366f565b604051610230929190617ce9565b3480156106ea57600080fd5b5061026d7f000000000000000000000000000000000000000000000000000000000000000081565b610332613c37565b34801561072657600080fd5b50600b5461026d90600160401b90046001600160401b031681565b34801561074d57600080fd5b5061076161075c3660046174fd565b613cfe565b604051610230929190617d04565b34801561077b57600080fd5b50610456670de0b6b3a764000081565b34801561079757600080fd5b506107a0613f3e565b6040516102309190617d28565b3480156107b957600080fd5b50610456600c5481565b3480156107cf57600080fd5b506104566107de366004617d3b565b613fc6565b3480156107ef57600080fd5b50610619600a81565b34801561080457600080fd5b5060065461026d906001600160401b031681565b34801561082457600080fd5b5060015461026d906001600160401b031681565b34801561084457600080fd5b50610858610853366004617c87565b613fde565b604051610230929190617d6f565b610332610874366004617c87565b6148be565b34801561088557600080fd5b50610456600e5481565b34801561089b57600080fd5b506103326108aa366004617e3e565b614a2d565b3480156108bb57600080fd5b506103326108ca3660046174fd565b614b38565b6103326108dd366004617c87565b614b8f565b6007602090815260009182526040918290208054600182015460028301546003840154865180880188526004860180546001600160401b0390811683526005880180548b51818c0281018c01909c52808c5260ff89169b6101008a0484169b600160481b909a04909316999798969795968581019392919083018282801561099357602002820191906000526020600020905b81546001600160a01b03168152600190910190602001808311610975575b50505091909252505060408051610120810182526006850180546001600160401b031660e08301908152600787018054855160208281028201810190975281815297989794965092948694929386936101008701939092909190830182828015610a2657602002820191906000526020600020905b81546001600160a01b03168152600190910190602001808311610a08575b50505050508152505081526020016002820160009054906101000a90046001600160401b03166001600160401b03166001600160401b031681526020016003820154815260200160048201805480602002602001604051908101604052809291908181526020016000905b82821015610cf45760008481526020908190206040805161018081018252600a860290920180546001600160401b031661014084019081526001820180548451818802810188018652818152959693958795860194879486946101008901948794869486936101608d01939091830182828015610b3757602002820191906000526020600020905b81546001600160a01b03168152600190910190602001808311610b19575b505050919092525050508152600291909101546001600160a01b0316602091820152908252604080516080810182526003850180546001600160401b03168284019081526004870180548551818802810188019096528086529686019693959294869492938693606087019391830182828015610bdd57602002820191906000526020600020905b81546001600160a01b03168152600190910190602001808311610bbf575b505050919092525050508152600291909101546001600160a01b031660209182015290825260068301549082015260078201546001600160401b0381166040830152600160401b900460e01b6001600160e01b0319166060820152600882018054608090920191610c4d90617ef8565b80601f0160208091040260200160405190810160405280929190818152602001828054610c7990617ef8565b8015610cc65780601f10610c9b57610100808354040283529160200191610cc6565b820191906000526020600020905b815481529060010190602001808311610ca957829003601f168201915b5050509190925250505081526009919091015460ff1615156020918201529082526001929092019101610a91565b50505050815260200160058201805480602002602001604051908101604052809291908181526020016000905b82821015610e2b576000848152602090819020604080516080810182526003860290920180546001600160401b031683830190815260018201805484518188028101880190955280855294959294869492938693606087019390929091830182828015610db757602002820191906000526020600020905b81546001600160a01b03168152600190910190602001808311610d99575b505050505081525050815260200160028201805480602002602001604051908101604052809291908181526020018280548015610e1357602002820191906000526020600020905b815481526020019060010190808311610dff575b50505050508152505081526020019060010190610d21565b50505050815260200160068201548152602001600782018054610e4d90617ef8565b80601f0160208091040260200160405190810160405280929190818152602001828054610e7990617ef8565b8015610ec65780601f10610e9b57610100808354040283529160200191610ec6565b820191906000526020600020905b815481529060010190602001808311610ea957829003601f168201915b505050505081525050905088565b610edc617158565b6000610ee784614e01565b91505080600e018381548110610eff57610eff617f2c565b60009182526020918290206040805161018081018252600a90930290910180546001600160401b031661014084019081526001820180548451818802810188018652818152959693958795860194879486946101008901948794869486936101608d01939091830182828015610f9e57602002820191906000526020600020905b81546001600160a01b03168152600190910190602001808311610f80575b505050919092525050508152600291909101546001600160a01b0316602091820152908252604080516080810182526003850180546001600160401b0316828401908152600487018054855181880281018801909652808652968601969395929486949293869360608701939183018282801561104457602002820191906000526020600020905b81546001600160a01b03168152600190910190602001808311611026575b505050919092525050508152600291909101546001600160a01b031660209182015290825260068301549082015260078201546001600160401b0381166040830152600160401b900460e01b6001600160e01b03191660608201526008820180546080909201916110b490617ef8565b80601f01602080910402602001604051908101604052809291908181526020018280546110e090617ef8565b801561112d5780601f106111025761010080835404028352916020019161112d565b820191906000526020600020905b81548152906001019060200180831161111057829003601f168201915b5050509190925250505081526009919091015460ff1615156020909101529150505b92915050565b8261115f81614f48565b60008481526008602090815260409182902082516101808101845281546001600160401b03166101408201908152600183018054865181870281018701885281815294966113b896949588958795928601948794869461010089019487948694929386936101608d01939290919083018282801561120657602002820191906000526020600020905b81546001600160a01b031681526001909101906020018083116111e8575b505050919092525050508152600291909101546001600160a01b0316602091820152908252604080516080810182526003850180546001600160401b031682840190815260048701805485518188028101880190965280865296860196939592948694929386936060870193918301828280156112ac57602002820191906000526020600020905b81546001600160a01b0316815260019091019060200180831161128e575b505050919092525050508152600291909101546001600160a01b031660209182015290825260068301549082015260078201546001600160401b0381166040830152600160401b900460e01b6001600160e01b031916606082015260088201805460809092019161131c90617ef8565b80601f016020809104026020016040519081016040528092919081815260200182805461134890617ef8565b80156113955780601f1061136a57610100808354040283529160200191611395565b820191906000526020600020905b81548152906001019060200180831161137857829003601f168201915b5050509190925250505081526009919091015460ff161515602090910152614f82565b156113d657604051632449894160e01b815260040160405180910390fd5b8260005b818110156114a75760008686838181106113f6576113f6617f2c565b905060200201602081019061140b9190617f42565b6001600160a01b03161461149f57600086868381811061142d5761142d617f2c565b90506020020160208101906114429190617f42565b60008981526009602090815260408083206001600160a01b038516845290915290205490915060ff1661149d5760008881526009602090815260408083206001600160a01b03851684529091529020805460ff191660011790555b505b6001016113da565b50505050505050565b6000806000806114bf8561366f565b6040516339aa47fb60e01b81529193509150829073__$1cd67d4dc9e627f0bec7928aa480e7d951$__906339aa47fb906114fd908590600401618047565b602060405180830381865af415801561151a573d6000803e3d6000fd5b505050506040513d601f19601f8201168201806040525081019061153e91906180e3565b935093505050915091565b606060008061155f61155a866180fc565b614e01565b915091508161158157604051630e991abd60e41b815260040160405180910390fd5b600e8101546001600160401b0385168181106115d45760408051600080825260208201909252906115c8565b6115b5617158565b8152602001906001900390816115ad5790505b5094505050505061114f565b60006115e0828461811e565b90506000816001600160401b038111156115fc576115fc6178bc565b60405190808252806020026020018201604052801561163557816020015b611622617158565b81526020019060019003908161161a5790505b50905060005b828110156118df57600e86016116518583618131565b8154811061166157611661617f2c565b60009182526020918290206040805161018081018252600a90930290910180546001600160401b031661014084019081526001820180548451818802810188018652818152959693958795860194879486946101008901948794869486936101608d0193909183018282801561170057602002820191906000526020600020905b81546001600160a01b031681526001909101906020018083116116e2575b505050919092525050508152600291909101546001600160a01b0316602091820152908252604080516080810182526003850180546001600160401b031682840190815260048701805485518188028101880190965280865296860196939592948694929386936060870193918301828280156117a657602002820191906000526020600020905b81546001600160a01b03168152600190910190602001808311611788575b505050919092525050508152600291909101546001600160a01b031660209182015290825260068301549082015260078201546001600160401b0381166040830152600160401b900460e01b6001600160e01b031916606082015260088201805460809092019161181690617ef8565b80601f016020809104026020016040519081016040528092919081815260200182805461184290617ef8565b801561188f5780601f106118645761010080835404028352916020019161188f565b820191906000526020600020905b81548152906001019060200180831161187257829003601f168201915b5050509190925250505081526009919091015460ff16151560209091015282518390839081106118c1576118c1617f2c565b602002602001018190525080806118d790618144565b91505061163b565b5098975050505050505050565b6118f4615053565b60115460ff16156119175760405162dc149f60e41b815260040160405180910390fd5b600180546001600160401b03909216600160401b02600160401b600160801b03199092169190911781556011805460ff19169091179055565b7f000000000000000000000000000000000000000000000000000000000000000034101561199157604051631036b5ad60e31b815260040160405180910390fd5b604080518082018252600480546001600160401b0316825260058054845160208281028201810190965281815260009580860193919290830182828015611a0157602002820191906000526020600020905b81546001600160a01b031681526001909101906020018083116119e3575b50505091909252505060405163aa5106cb60e01b815273__$a0fe38a9a81205afccc10810b09a4d3f45$__9263aa5106cb9250611a4291339060040161815d565b600060405180830381865af4158015611a5f573d6000803e3d6000fd5b505050506040513d6000823e601f3d908101601f19168201604052611a87919081019061824a565b9050600080611a9583614e01565b915091508115611ab857604051631b538cdf60e11b815260040160405180910390fd5b82516004820180546001600160401b0319166001600160401b039092169190911781556020808501518051869392611af7926005870192910190617178565b505034600183810191909155825460ff19166002908117845543908401556006805491925090600090611b349084906001600160401b031661827e565b92506101000a8154816001600160401b0302191690836001600160401b03160217905550505050565b611b656150ea565b80611b6f81614f48565b600082815260086020908152604080832081516101808101835281546001600160401b0316610140820190815260018301805485518188028101880187528181529497968796611dc7968a958795928601948794869461010089019487948694909386936101608d0193929091830182828015611c1557602002820191906000526020600020905b81546001600160a01b03168152600190910190602001808311611bf7575b505050919092525050508152600291909101546001600160a01b0316602091820152908252604080516080810182526003850180546001600160401b03168284019081526004870180548551818802810188019096528086529686019693959294869492938693606087019391830182828015611cbb57602002820191906000526020600020905b81546001600160a01b03168152600190910190602001808311611c9d575b505050919092525050508152600291909101546001600160a01b031660209182015290825260068301549082015260078201546001600160401b0381166040830152600160401b900460e01b6001600160e01b0319166060820152600882018054608090920191611d2b90617ef8565b80601f0160208091040260200160405190810160405280929190818152602001828054611d5790617ef8565b8015611da45780601f10611d7957610100808354040283529160200191611da4565b820191906000526020600020905b815481529060010190602001808311611d8757829003601f168201915b5050509190925250505081526009919091015460ff16151560209091015261512b565b60068501546040805180820182526003880180546001600160401b0316825260048901805484516020828102820181019096528181529799509597509395600095929491938086019391929190830182828015611e4d57602002820191906000526020600020905b81546001600160a01b03168152600190910190602001808311611e2f575b50505091909252505060405163089032d560e01b815273__$a0fe38a9a81205afccc10810b09a4d3f45$__9263089032d59250611e8e91600490810161831b565b600060405180830381865af4158015611eab573d6000803e3d6000fd5b505050506040513d6000823e601f3d908101601f19168201604052611ed3919081019061824a565b600088815260086020526040812080546001600160401b0319168155919250818181818181611f0560018301826171dd565b50505060020180546001600160a01b03191690556003820180546001600160401b031916815560008181611f3c60048701826171dd565b50505060020180546001600160a01b03191690556000600683018190556007830180546001600160601b0319169055611f799060088401906171fb565b505050600901805460ff19169055611f938282868661549b565b6000611fbf7f00000000000000000000000000000000000000000000000000000000000000003461811e565b90508015611fd157611fd133826154f3565b5050505050505050565b600a602090815260009182526040918290208251808401845281546001600160401b0316815260018201805485518186028101860190965280865292949193859385820193929183018282801561205b57602002820191906000526020600020905b81546001600160a01b0316815260019091019060200180831161203d575b5050509190925250505060028201546003830154600684015460078501805494956001600160401b03909416949293919261209590617ef8565b80601f01602080910402602001604051908101604052809291908181526020018280546120c190617ef8565b801561210e5780601f106120e35761010080835404028352916020019161210e565b820191906000526020600020905b8154815290600101906020018083116120f157829003601f168201915b5050505050905085565b60008061212433615588565b915091508161214657604051630e991abd60e41b815260040160405180910390fd5b60038101541561216957604051637c67c70160e11b815260040160405180910390fd5b6001808201546006805491929160009061218d9084906001600160401b0316618340565b82546101009290920a6001600160401b03818102199093169183160217909155604080518082018252600486018054909316815260058601805483516020808302820181019095528181526007965060009593948086019391929083018282801561222157602002820191906000526020600020905b81546001600160a01b03168152600190910190602001808311612203575b5050509190925250506040516390ba52cf60e01b815273__$a0fe38a9a81205afccc10810b09a4d3f45$__926390ba52cf925061226091600401617d28565b602060405180830381865af415801561227d573d6000803e3d6000fd5b505050506040513d601f19601f820116820180604052508101906122a191906180e3565b81526020810191909152604001600090812080546001600160881b03191681556001810182905560028101829055600381018290556004810180546001600160401b0319168155909190816122f960058501826171dd565b50506006820180546001600160401b03191681556000818161231e60078701826171dd565b50506002820180546001600160401b0319169055600060038301819055612349906004840190617235565b612357600583016000617256565b600682016000905560078201600061236f91906171fb565b506123809050600e83016000617235565b5061238d905033826154f3565b505050565b61239a6156bd565b806000036123bb5760405163c79cad7b60e01b815260040160405180910390fd5b6000806123c733615588565b91509150816123e957604051630e991abd60e41b815260040160405180910390fd5b828160010154101561240e576040516379b33e7960e01b815260040160405180910390fd5b82816001016000828254612422919061811e565b909155505060018101547f0000000000000000000000000000000000000000000000000000000000000000111561245f57805460ff191660031781555b6040805180820182526004830180546001600160401b03168252600584018054845160208281028201810190965281815261256695899594938186019390918301828280156124d757602002820191906000526020600020905b81546001600160a01b031681526001909101906020018083116124b9575b505050919092525050604051632cff562160e11b815273__$a0fe38a9a81205afccc10810b09a4d3f45$__926359feac42925061251691600401617d28565b602060405180830381865af4158015612533573d6000803e3d6000fd5b505050506040513d601f19601f820116820180604052508101906125579190618360565b6001600160a01b0316906154f3565b50506125726001600055565b50565b60115460ff16612598576040516321c4e35760e21b815260040160405180910390fd5b336126346125a6838061837d565b6125af906180fc565b604051632cff562160e11b815273__$a0fe38a9a81205afccc10810b09a4d3f45$__916359feac42916125e59190600401617d28565b602060405180830381865af4158015612602573d6000803e3d6000fd5b505050506040513d601f19601f820116820180604052508101906126269190618360565b6001600160a01b031661571b565b6001600160a01b03161461265b57604051637f39132760e11b815260040160405180910390fd5b600061266633615588565b915060029050815460ff16600581111561268257612682617516565b146126a05760405163c18316bf60e01b815260040160405180910390fd5b6126b06040830160208401617b41565b60088201546001600160401b039182169116106126e05760405163fae4eadb60e01b815260040160405180910390fd5b60a082013515612cae5760408051610120810182526006830180546001600160401b031660e0830190815260078501805485516020828102820181019097528181529495939486948693610100870193909183018282801561276b57602002820191906000526020600020905b81546001600160a01b0316815260019091019060200180831161274d575b50505050508152505081526020016002820160009054906101000a90046001600160401b03166001600160401b03166001600160401b031681526020016003820154815260200160048201805480602002602001604051908101604052809291908181526020016000905b82821015612a395760008481526020908190206040805161018081018252600a860290920180546001600160401b031661014084019081526001820180548451818802810188018652818152959693958795860194879486946101008901948794869486936101608d0193909183018282801561287c57602002820191906000526020600020905b81546001600160a01b0316815260019091019060200180831161285e575b505050919092525050508152600291909101546001600160a01b0316602091820152908252604080516080810182526003850180546001600160401b0316828401908152600487018054855181880281018801909652808652968601969395929486949293869360608701939183018282801561292257602002820191906000526020600020905b81546001600160a01b03168152600190910190602001808311612904575b505050919092525050508152600291909101546001600160a01b031660209182015290825260068301549082015260078201546001600160401b0381166040830152600160401b900460e01b6001600160e01b031916606082015260088201805460809092019161299290617ef8565b80601f01602080910402602001604051908101604052809291908181526020018280546129be90617ef8565b8015612a0b5780601f106129e057610100808354040283529160200191612a0b565b820191906000526020600020905b8154815290600101906020018083116129ee57829003601f168201915b5050509190925250505081526009919091015460ff16151560209182015290825260019290920191016127d6565b50505050815260200160058201805480602002602001604051908101604052809291908181526020016000905b82821015612b70576000848152602090819020604080516080810182526003860290920180546001600160401b031683830190815260018201805484518188028101880190955280855294959294869492938693606087019390929091830182828015612afc57602002820191906000526020600020905b81546001600160a01b03168152600190910190602001808311612ade575b505050505081525050815260200160028201805480602002602001604051908101604052809291908181526020018280548015612b5857602002820191906000526020600020905b815481526020019060010190808311612b44575b50505050508152505081526020019060010190612a66565b50505050815260200160068201548152602001600782018054612b9290617ef8565b80601f0160208091040260200160405190810160405280929190818152602001828054612bbe90617ef8565b8015612c0b5780601f10612be057610100808354040283529160200191612c0b565b820191906000526020600020905b815481529060010190602001808311612bee57829003601f168201915b5050509190925250506040516339aa47fb60e01b815273__$1cd67d4dc9e627f0bec7928aa480e7d951$__926339aa47fb9250612c4a91600401618047565b602060405180830381865af4158015612c67573d6000803e3d6000fd5b505050506040513d601f19601f82011682018060405250810190612c8b91906180e3565b8260a0013514612cae576040516312232e5d60e11b815260040160405180910390fd5b6000806000612cbb615762565b92509250925082612d1a576004805482546001600160401b0319166001600160401b03909116178255600580548391612cf991600184019190617277565b5050506002810180546001600160401b0319166001600160401b0384161790555b60405163445cc97560e01b815273__$1cd67d4dc9e627f0bec7928aa480e7d951$__9063445cc97590612d5b9084908990600f90601090899060040161874b565b60006040518083038186803b158015612d7357600080fd5b505af4158015612d87573d6000803e3d6000fd5b50505050600080868060600190612d9e9190618848565b9050905060005b81811015612dfe57612dba6060890189618848565b82818110612dca57612dca617f2c565b9050602002810190612ddc919061837d565b612de69080618891565b612df4906040013584618131565b9250600101612da5565b506003830154612e12906040890135618131565b612e1c9083618131565b91508186600301541015612e4357604051631d36ca1560e21b815260040160405180910390fd5b81866003016000828254612e57919061811e565b9091555087905060068701612e6c828261905d565b50612ea09050612e7c888061837d565b612e85906180fc565b612e9260608a018a618848565b612e9b9161939c565b6158a4565b6114a73388604001356158dc565b60003411612ecf57604051631036b5ad60e31b815260040160405180910390fd5b600080612edb33615588565b9150915081612efd57604051630e991abd60e41b815260040160405180910390fd5b34816001016000828254612f119190618131565b9091555060039050815460ff166005811115612f2f57612f2f617516565b03612f6b577f0000000000000000000000000000000000000000000000000000000000000000816001015410612f6b57805460ff191660021781555b5050565b612f7761593a565b612f846020820182617b41565b612f8d816159cf565b600e546000908152600d6020908152604080832033845290915290205460115460ff16612fcd576040516321c4e35760e21b815260040160405180910390fd5b80600003612fee57604051632ec5b44960e01b815260040160405180910390fd5b73__$33b79814e84bf6cf5e47244090b19ce5f8$__63898414756130156020860186618848565b6040518363ffffffff1660e01b81526004016130329291906193a9565b602060405180830381865af415801561304f573d6000803e3d6000fd5b505050506040513d601f19601f8201168201806040525081019061307391906194ea565b61309057604051630bd9169f60e01b815260040160405180910390fd5b60006012816130a26020870187617b41565b6001600160401b03166001600160401b03168152602001908152602001600020905060006130d282863386615a8c565b90506060811561336f576130e583615e88565b805480602002602001604051908101604052809291908181526020016000905b828210156133685760008481526020908190206040805161018081018252600a860290920180546001600160401b031661014084019081526001820180548451818802810188018652818152959693958795860194879486946101008901948794869486936101608d019390918301828280156131ab57602002820191906000526020600020905b81546001600160a01b0316815260019091019060200180831161318d575b505050919092525050508152600291909101546001600160a01b0316602091820152908252604080516080810182526003850180546001600160401b0316828401908152600487018054855181880281018801909652808652968601969395929486949293869360608701939183018282801561325157602002820191906000526020600020905b81546001600160a01b03168152600190910190602001808311613233575b505050919092525050508152600291909101546001600160a01b031660209182015290825260068301549082015260078201546001600160401b0381166040830152600160401b900460e01b6001600160e01b03191660608201526008820180546080909201916132c190617ef8565b80601f01602080910402602001604051908101604052809291908181526020018280546132ed90617ef8565b801561333a5780601f1061330f5761010080835404028352916020019161333a565b820191906000526020600020905b81548152906001019060200180831161331d57829003601f168201915b5050509190925250505081526009919091015460ff1615156020918201529082526001929092019101613105565b5050505090505b805160000361363c57600080613383615eba565b915091508015613639576001600160401b03821660009081526012602052604090206133ae81615e88565b805480602002602001604051908101604052809291908181526020016000905b828210156136315760008481526020908190206040805161018081018252600a860290920180546001600160401b031661014084019081526001820180548451818802810188018652818152959693958795860194879486946101008901948794869486936101608d0193909183018282801561347457602002820191906000526020600020905b81546001600160a01b03168152600190910190602001808311613456575b505050919092525050508152600291909101546001600160a01b0316602091820152908252604080516080810182526003850180546001600160401b0316828401908152600487018054855181880281018801909652808652968601969395929486949293869360608701939183018282801561351a57602002820191906000526020600020905b81546001600160a01b031681526001909101906020018083116134fc575b505050919092525050508152600291909101546001600160a01b031660209182015290825260068301549082015260078201546001600160401b0381166040830152600160401b900460e01b6001600160e01b031916606082015260088201805460809092019161358a90617ef8565b80601f01602080910402602001604051908101604052809291908181526020018280546135b690617ef8565b80156136035780601f106135d857610100808354040283529160200191613603565b820191906000526020600020905b8154815290600101906020018083116135e657829003601f168201915b5050509190925250505081526009919091015460ff16151560209182015290825260019290920191016133ce565b505050509350505b50505b60408051808201825260008082528251818152602081810190945261366793830191509052826158a4565b505050505050565b60006136796172b7565b6001600160401b038084166000908152600a6020908152604091829020825161012081018452815490941660e085019081526001820180548551818602810186019096528086529294869492938693610100870193919083018282801561370957602002820191906000526020600020905b81546001600160a01b031681526001909101906020018083116136eb575b50505050508152505081526020016002820160009054906101000a90046001600160401b03166001600160401b03166001600160401b031681526020016003820154815260200160048201805480602002602001604051908101604052809291908181526020016000905b828210156139d75760008481526020908190206040805161018081018252600a860290920180546001600160401b031661014084019081526001820180548451818802810188018652818152959693958795860194879486946101008901948794869486936101608d0193909183018282801561381a57602002820191906000526020600020905b81546001600160a01b031681526001909101906020018083116137fc575b505050919092525050508152600291909101546001600160a01b0316602091820152908252604080516080810182526003850180546001600160401b031682840190815260048701805485518188028101880190965280865296860196939592948694929386936060870193918301828280156138c057602002820191906000526020600020905b81546001600160a01b031681526001909101906020018083116138a2575b505050919092525050508152600291909101546001600160a01b031660209182015290825260068301549082015260078201546001600160401b0381166040830152600160401b900460e01b6001600160e01b031916606082015260088201805460809092019161393090617ef8565b80601f016020809104026020016040519081016040528092919081815260200182805461395c90617ef8565b80156139a95780601f1061397e576101008083540402835291602001916139a9565b820191906000526020600020905b81548152906001019060200180831161398c57829003601f168201915b5050509190925250505081526009919091015460ff1615156020918201529082526001929092019101613774565b50505050815260200160058201805480602002602001604051908101604052809291908181526020016000905b82821015613b0e576000848152602090819020604080516080810182526003860290920180546001600160401b031683830190815260018201805484518188028101880190955280855294959294869492938693606087019390929091830182828015613a9a57602002820191906000526020600020905b81546001600160a01b03168152600190910190602001808311613a7c575b505050505081525050815260200160028201805480602002602001604051908101604052809291908181526020018280548015613af657602002820191906000526020600020905b815481526020019060010190808311613ae2575b50505050508152505081526020019060010190613a04565b50505050815260200160068201548152602001600782018054613b3090617ef8565b80601f0160208091040260200160405190810160405280929190818152602001828054613b5c90617ef8565b8015613ba95780601f10613b7e57610100808354040283529160200191613ba9565b820191906000526020600020905b815481529060010190602001808311613b8c57829003601f168201915b5050509190925250508151604051630c133d1360e31b815292935073__$a0fe38a9a81205afccc10810b09a4d3f45$__92636099e8989250613bee9190600401617d28565b602060405180830381865af4158015613c0b573d6000803e3d6000fd5b505050506040513d601f19601f82011682018060405250810190613c2f91906194ea565b159150915091565b613c3f61593a565b613c476150ea565b600073__$33b79814e84bf6cf5e47244090b19ce5f8$__632c9680ef600433613c907f00000000000000000000000000000000000000000000000000000000000000003461811e565b6040518463ffffffff1660e01b8152600401613cae93929190619507565b600060405180830381865af4158015613ccb573d6000803e3d6000fd5b505050506040513d6000823e601f3d908101601f19168201604052613cf391908101906195d5565b905061257281615ede565b60086020908152600091825260409182902082516101408101845281546001600160401b03166101008201908152600183018054865181870281018701909752808752939592948694869460c086019487948694919386936101208a019390929190830182828015613d9957602002820191906000526020600020905b81546001600160a01b03168152600190910190602001808311613d7b575b505050919092525050508152600291909101546001600160a01b0316602091820152908252604080516080810182526003850180546001600160401b03168284019081526004870180548551818802810188019096528086529686019693959294869492938693606087019391830182828015613e3f57602002820191906000526020600020905b81546001600160a01b03168152600190910190602001808311613e21575b505050919092525050508152600291909101546001600160a01b031660209182015290825260068301549082015260078201546001600160401b0381166040830152600160401b900460e01b6001600160e01b0319166060820152600882018054608090920191613eaf90617ef8565b80601f0160208091040260200160405190810160405280929190818152602001828054613edb90617ef8565b8015613f285780601f10613efd57610100808354040283529160200191613f28565b820191906000526020600020905b815481529060010190602001808311613f0b57829003601f168201915b5050509190925250505060099091015460ff1682565b613f46617306565b604080518082018252600480546001600160401b03168252600580548451602082810282018101909652818152939492938386019390929190830182828015613fb857602002820191906000526020600020905b81546001600160a01b03168152600190910190602001808311613f9a575b505050505081525050905090565b600080613fd283614e01565b600e0154949350505050565b6000613fe861731e565b613ff461155a846180fc565b60408051610120810190915281548290829060ff16600581111561401a5761401a617516565b600581111561402b5761402b617516565b815281546001600160401b0361010082048116602080850191909152600160481b90920481166040808501919091526001850154606085015260028501546080850152600385015460a085015280518082018252600486018054909316815260058601805483518187028101870190945280845260c09096019591948581019392908301828280156140e657602002820191906000526020600020905b81546001600160a01b031681526001909101906020018083116140c8575b50505091909252505050815260408051610120810182526006840180546001600160401b031660e083019081526007860180548551602082810282018101909752818152968601969495939486948693610100870193909183018282801561417757602002820191906000526020600020905b81546001600160a01b03168152600190910190602001808311614159575b50505050508152505081526020016002820160009054906101000a90046001600160401b03166001600160401b03166001600160401b031681526020016003820154815260200160048201805480602002602001604051908101604052809291908181526020016000905b828210156144455760008481526020908190206040805161018081018252600a860290920180546001600160401b031661014084019081526001820180548451818802810188018652818152959693958795860194879486946101008901948794869486936101608d0193909183018282801561428857602002820191906000526020600020905b81546001600160a01b0316815260019091019060200180831161426a575b505050919092525050508152600291909101546001600160a01b0316602091820152908252604080516080810182526003850180546001600160401b0316828401908152600487018054855181880281018801909652808652968601969395929486949293869360608701939183018282801561432e57602002820191906000526020600020905b81546001600160a01b03168152600190910190602001808311614310575b505050919092525050508152600291909101546001600160a01b031660209182015290825260068301549082015260078201546001600160401b0381166040830152600160401b900460e01b6001600160e01b031916606082015260088201805460809092019161439e90617ef8565b80601f01602080910402602001604051908101604052809291908181526020018280546143ca90617ef8565b80156144175780601f106143ec57610100808354040283529160200191614417565b820191906000526020600020905b8154815290600101906020018083116143fa57829003601f168201915b5050509190925250505081526009919091015460ff16151560209182015290825260019290920191016141e2565b50505050815260200160058201805480602002602001604051908101604052809291908181526020016000905b8282101561457c576000848152602090819020604080516080810182526003860290920180546001600160401b03168383019081526001820180548451818802810188019095528085529495929486949293869360608701939092909183018282801561450857602002820191906000526020600020905b81546001600160a01b031681526001909101906020018083116144ea575b50505050508152505081526020016002820180548060200260200160405190810160405280929190818152602001828054801561456457602002820191906000526020600020905b815481526020019060010190808311614550575b50505050508152505081526020019060010190614472565b5050505081526020016006820154815260200160078201805461459e90617ef8565b80601f01602080910402602001604051908101604052809291908181526020018280546145ca90617ef8565b80156146175780601f106145ec57610100808354040283529160200191614617565b820191906000526020600020905b8154815290600101906020018083116145fa57829003601f168201915b5050505050815250508152602001600e8201805480602002602001604051908101604052809291908181526020016000905b828210156148ac5760008481526020908190206040805161018081018252600a860290920180546001600160401b031661014084019081526001820180548451818802810188018652818152959693958795860194879486946101008901948794869486936101608d019390918301828280156146ef57602002820191906000526020600020905b81546001600160a01b031681526001909101906020018083116146d1575b505050919092525050508152600291909101546001600160a01b0316602091820152908252604080516080810182526003850180546001600160401b0316828401908152600487018054855181880281018801909652808652968601969395929486949293869360608701939183018282801561479557602002820191906000526020600020905b81546001600160a01b03168152600190910190602001808311614777575b505050919092525050508152600291909101546001600160a01b031660209182015290825260068301549082015260078201546001600160401b0381166040830152600160401b900460e01b6001600160e01b031916606082015260088201805460809092019161480590617ef8565b80601f016020809104026020016040519081016040528092919081815260200182805461483190617ef8565b801561487e5780601f106148535761010080835404028352916020019161487e565b820191906000526020600020905b81548152906001019060200180831161486157829003601f168201915b5050509190925250505081526009919091015460ff1615156020918201529082526001929092019101614649565b50505091525092969095509350505050565b6148c661593a565b6148ce6150ea565b600073__$33b79814e84bf6cf5e47244090b19ce5f8$__634669af2083336149167f00000000000000000000000000000000000000000000000000000000000000003461811e565b6040518463ffffffff1660e01b8152600401614934939291906196f2565b600060405180830381865af4158015614951573d6000803e3d6000fd5b505050506040513d6000823e601f3d908101601f1916820160405261497991908101906195d5565b905061498481616105565b612f6b614990836180fc565b604051632cff562160e11b815273__$a0fe38a9a81205afccc10810b09a4d3f45$__916359feac42916149c69190600401617d28565b602060405180830381865af41580156149e3573d6000803e3d6000fd5b505050506040513d601f19601f82011682018060405250810190614a079190618360565b7f00000000000000000000000000000000000000000000000000000000000000006158dc565b614a35615053565b8051825114614a575760405163465f0a7d60e01b815260040160405180910390fd5b600e60008154614a6690618144565b909155508151600090815b81811015614b2f576000858281518110614a8d57614a8d617f2c565b6020026020010151905060006001600160a01b0316816001600160a01b031614614b26576000858381518110614ac557614ac5617f2c565b6020026020010151905080600003614af05760405163389b457d60e01b815260040160405180910390fd5b600e546000908152600d602090815260408083206001600160a01b03861684529091529020819055614b228186618131565b9450505b50600101614a71565b5050600c555050565b614b406156bd565b80600003614b615760405163c79cad7b60e01b815260040160405180910390fd5b600080614b6d33615588565b915091508161245f57604051630e991abd60e41b815260040160405180910390fd5b614b9761593a565b614b9f6150ea565b34614baa8280618891565b6040013514614bcc57604051631036b5ad60e31b815260040160405180910390fd5b6000614bd88280618891565b614be690602081019061837d565b614bf7906040810190602001617f42565b6001600160a01b031603614c1e57604051637c5d310960e11b815260040160405180910390fd5b614c288180618891565b614c32908061837d565b614c3c908061837d565b614c45906180fc565b60405163c836244d60e01b815273__$a0fe38a9a81205afccc10810b09a4d3f45$__9163c836244d91614c7d9190600490810161831b565b602060405180830381865af4158015614c9a573d6000803e3d6000fd5b505050506040513d601f19601f82011682018060405250810190614cbe91906194ea565b614cdb57604051638481de4960e01b815260040160405180910390fd5b33614ce68280618891565b614cf0908061837d565b614d01906040810190602001617f42565b6001600160a01b031614614d285760405163f2ae70cb60e01b815260040160405180910390fd5b600080614d3c614d3784619705565b61512b565b909250905061238d614d4e8480618891565b60400135614d5c8580618891565b614d6a90602081019061837d565b614d74908061837d565b614d7d906180fc565b60405163089032d560e01b815273__$a0fe38a9a81205afccc10810b09a4d3f45$__9163089032d591614db59190600490810161831b565b600060405180830381865af4158015614dd2573d6000803e3d6000fd5b505050506040513d6000823e601f3d908101601f19168201604052614dfa919081019061824a565b848461549b565b600080600760008473__$a0fe38a9a81205afccc10810b09a4d3f45$__6390ba52cf90916040518263ffffffff1660e01b8152600401614e419190617d28565b602060405180830381865af4158015614e5e573d6000803e3d6000fd5b505050506040513d601f19601f82011682018060405250810190614e8291906180e3565b81526020808201929092526040908101600020815180830183526004820180546001600160401b031682526005830180548551818802810188019096528086529396509194909385820193909291830182828015614f0957602002820191906000526020600020905b81546001600160a01b03168152600190910190602001808311614eeb575b505050919092525050604051630c133d1360e31b815273__$a0fe38a9a81205afccc10810b09a4d3f45$__92636099e8989250613bee91600401617d28565b600081815260096020908152604080832033845290915290205460ff16612572576040516377f0d98160e11b815260040160405180910390fd5b6040805161018081018252600061014082018181528351828152602080820186526101608501919091526101008401918252610120840183905283850191825284516080808201875281870185815287518681528085018952606084810191909152908352828401869052860191909152840183905260a0840183905260c084018390528451808201865283815260e08501529083528083018290529251909261502d929101617ab0565b6040516020818303038152906040528051906020012061504c836163b2565b1492915050565b604051635d3f8a6960e01b815273__$e800e3908cdbb6b1b5bd452383a17b18f7$__90635d3f8a699061508a903390600401619711565b602060405180830381865af41580156150a7573d6000803e3d6000fd5b505050506040513d601f19601f820116820180604052508101906150cb91906194ea565b6150e85760405163f0d97f3b60e01b815260040160405180910390fd5b565b7f00000000000000000000000000000000000000000000000000000000000000003410156150e8576040516334472ad760e11b815260040160405180910390fd5b80516020015151604051630c133d1360e31b8152600091829173__$a0fe38a9a81205afccc10810b09a4d3f45$__90636099e8989061516e908490600401617d28565b602060405180830381865af415801561518b573d6000803e3d6000fd5b505050506040513d601f19601f820116820180604052508101906151af91906194ea565b156151cd5760405163461e815d60e01b815260040160405180910390fd5b60405163c836244d60e01b815273__$a0fe38a9a81205afccc10810b09a4d3f45$__9063c836244d90615206908490600490810161831b565b602060405180830381865af4158015615223573d6000803e3d6000fd5b505050506040513d601f19601f8201168201806040525081019061524791906194ea565b1561526557604051632f3335ff60e21b815260040160405180910390fd5b835180515160405163f47ad7eb60e01b8152909160009173__$386b5c41ce93e8b832daf8008b3d30ae09$__9163f47ad7eb916152a791906004908101619725565b602060405180830381865af41580156152c4573d6000803e3d6000fd5b505050506040513d601f19601f820116820180604052508101906152e89190619738565b90506000600182600181111561530057615300617516565b0361540057604051631ccc893360e11b815273__$a0fe38a9a81205afccc10810b09a4d3f45$__9063399912669061533e9087908790600401619759565b600060405180830381865af415801561535b573d6000803e3d6000fd5b505050506040513d6000823e601f3d908101601f19168201604052615383919081019061824a565b60405163c836244d60e01b815273__$a0fe38a9a81205afccc10810b09a4d3f45$__9163c836244d916153bb9190600490810161831b565b602060405180830381865af41580156153d8573d6000803e3d6000fd5b505050506040513d601f19601f820116820180604052508101906153fc91906194ea565b1590505b80156154245761540f87615ede565b50509351604001511515946000945092505050565b600082600181111561543857615438617516565b0361548257600b805460089061545d90600160401b90046001600160401b031661977e565b91906101000a8154816001600160401b0302191690836001600160401b031602179055505b61548b87616105565b5060009660019650945050505050565b81156154ac576154ac6063856154f3565b80156154ed57604051632cff562160e11b81526154ed9073__$a0fe38a9a81205afccc10810b09a4d3f45$__906359feac42906149c6908790600401617d28565b50505050565b804710156155145760405163356680b760e01b815260040160405180910390fd5b6000826001600160a01b03168260405160006040518083038185875af1925050503d8060008114615561576040519150601f19603f3d011682016040523d82523d6000602084013e615566565b606091505b505090508061238d57604051633204506f60e01b815260040160405180910390fd5b6000806001600160a01b0383166155b2576040516370e4510960e01b815260040160405180910390fd5b604080518082018252600480546001600160401b031682526005805484516020828102820181019096528181526000958086019391929083018282801561562257602002820191906000526020600020905b81546001600160a01b03168152600190910190602001808311615604575b50505091909252505060405163aa5106cb60e01b815273__$a0fe38a9a81205afccc10810b09a4d3f45$__9263aa5106cb925061566391889060040161815d565b600060405180830381865af4158015615680573d6000803e3d6000fd5b505050506040513d6000823e601f3d908101601f191682016040526156a8919081019061824a565b90506156b381614e01565b9250925050915091565b6002600054036157145760405162461bcd60e51b815260206004820152601f60248201527f5265656e7472616e637947756172643a207265656e7472616e742063616c6c0060448201526064015b60405180910390fd5b6002600055565b6000806000615729846163e2565b915091508161573a57509192915050565b60008061574683616414565b9150915081615759575093949350505050565b95945050505050565b6000806000615791437f000000000000000000000000000000000000000000000000000000000000000061647e565b6001600160401b038082166000908152600a6020908152604091829020825180840184528154909416845260018101805484518185028101850190955280855295975090955092938593858301939290919083018282801561581c57602002820191906000526020600020905b81546001600160a01b031681526001909101906020018083116157fe575b505050919092525050604051630c133d1360e31b815273__$a0fe38a9a81205afccc10810b09a4d3f45$__92636099e898925061585b91600401617d28565b602060405180830381865af4158015615878573d6000803e3d6000fd5b505050506040513d601f19601f8201168201806040525081019061589c91906194ea565b159250909192565b805160005b818110156154ed576158d4848483815181106158c7576158c7617f2c565b60200260200101516164a7565b6001016158a9565b806000036158e8575050565b61238d6158fd836001600160a01b031661571b565b6040805160248082018690528251808303909101815260449091019091526020810180516001600160e01b0316632a7edd8f60e21b179052616ac0565b604051630972932760e21b815273__$e800e3908cdbb6b1b5bd452383a17b18f7$__906325ca4c9c90615971903390600401619711565b602060405180830381865af415801561598e573d6000803e3d6000fd5b505050506040513d601f19601f820116820180604052508101906159b291906194ea565b6150e857604051630a23da2b60e31b815260040160405180910390fd5b6001546001600160401b03908116908216116159fe57604051631f30cc6360e21b815260040160405180910390fd5b6001546001600160401b03600160401b90910481169082161115612572576001547f000000000000000000000000000000000000000000000000000000000000000090615a5b90600160401b90046001600160401b031683618340565b615a6591906197c2565b6001600160401b0316156125725760405163b4f68f9760e01b815260040160405180910390fd5b600080615a98856197e8565b604051630edf122560e41b815273__$1cd67d4dc9e627f0bec7928aa480e7d951$__9163edf1225091615ace9190600401619848565b602060405180830381865af4158015615aeb573d6000803e3d6000fd5b505050506040513d601f19601f82011682018060405250810190615b0f91906180e3565b9050615b2d86828686615b2560208b018b617b41565b600c54616b04565b600082815260058801602090815260408083208151808301835281546001600160401b03168152600182018054845181870281018701909552808552969850909591948685019491929184015b82821015615ddd5760008481526020908190206040805161018081018252600a860290920180546001600160401b031661014084019081526001820180548451818802810188018652818152959693958795860194879486946101008901948794869486936101608d01939091830182828015615c2057602002820191906000526020600020905b81546001600160a01b03168152600190910190602001808311615c02575b505050919092525050508152600291909101546001600160a01b0316602091820152908252604080516080810182526003850180546001600160401b03168284019081526004870180548551818802810188019096528086529686019693959294869492938693606087019391830182828015615cc657602002820191906000526020600020905b81546001600160a01b03168152600190910190602001808311615ca8575b505050919092525050508152600291909101546001600160a01b031660209182015290825260068301549082015260078201546001600160401b0381166040830152600160401b900460e01b6001600160e01b0319166060820152600882018054608090920191615d3690617ef8565b80601f0160208091040260200160405190810160405280929190818152602001828054615d6290617ef8565b8015615daf5780601f10615d8457610100808354040283529160200191615daf565b820191906000526020600020905b815481529060010190602001808311615d9257829003601f168201915b5050509190925250505081526009919091015460ff1615156020918201529082526001929092019101615b7a565b50505091525050604051632d34315760e01b815273__$1cd67d4dc9e627f0bec7928aa480e7d951$__91632d34315791615e1a9190600401619848565b602060405180830381865af4158015615e37573d6000803e3d6000fd5b505050506040513d601f19601f82011682018060405250810190615e5b91906194ea565b15615e7f57600081815260058701602052604090208590615e7c8282619875565b50505b50949350505050565b6002810154600090815260058201602052604081208054615eb1906001600160401b0316616d37565b60010192915050565b600254600160401b90046001600160401b03166000615ed882616e73565b90509091565b6000615ee8615762565b600b5485516001600160401b039091166060909101526003810180549194507f000000000000000000000000000000000000000000000000000000000000000093509150600090615f3a908490618131565b90915550506004810180546001808201835560009283526020928390208551805180518051600a90960290930180546001600160401b0319166001600160401b0390961695909517855582860151805189979395879593948694938593615fa8938501929190910190617178565b50505060209182015160029190910180546001600160a01b0319166001600160a01b0390921691909117905582810151805180516003850180546001600160401b0319166001600160401b0390921691909117815581840151805193949193849261601a926004890192910190617178565b50505060209190910151600290910180546001600160a01b039092166001600160a01b0319909216919091179055604082015160068201556060820151600782018054608085015160e01c600160401b026001600160601b03199091166001600160401b039093169290921791909117905560a082015160088201906160a090826199e1565b505050602091909101516009909101805460ff1916911515919091179055600b8054600191906000906160dd9084906001600160401b031661827e565b92506101000a8154816001600160401b0302191690836001600160401b031602179055505050565b8051602001515160405163089032d560e01b815260009173__$a0fe38a9a81205afccc10810b09a4d3f45$__9163089032d59161614691600490810161831b565b600060405180830381865af4158015616163573d6000803e3d6000fd5b505050506040513d6000823e601f3d908101601f1916820160405261618b919081019061824a565b905060008061619983614e01565b91509150816161bb57604051630e991abd60e41b815260040160405180910390fd5b805484516101009091046001600160401b03166060909101819052600190829082906161e890829061827e565b92506101000a8154816001600160401b0302191690836001600160401b031602179055508360000151604001518160030160008282546162289190618131565b9091555050600e810180546001808201835560009283526020928390208751805180518051600a90960290930180546001600160401b0319166001600160401b039096169590951785558286015180518b979395879593948694938593616296938501929190910190617178565b50505060209182015160029190910180546001600160a01b0319166001600160a01b0390921691909117905582810151805180516003850180546001600160401b0319166001600160401b03909216919091178155818401518051939491938492616308926004890192910190617178565b50505060209190910151600290910180546001600160a01b039092166001600160a01b0319909216919091179055604082015160068201556060820151600782018054608085015160e01c600160401b026001600160601b03199091166001600160401b039093169290921791909117905560a0820151600882019061638e90826199e1565b505050602091909101516009909101805460ff191691151591909117905550505050565b6000816040516020016163c59190617ab0565b604051602081830303815290604052805190602001209050919050565b600080600160401b600160a01b03831660ff60981b810361640e57600192506001600160401b03841691505b50915091565b600080826000526016600a602060006002607f60991b015afa9150600051806001600160a01b031691508060a01c61ffff16905061040a811461645a5760009250600091505b5081158061646957503d601614155b1561647957506000928392509050565b915091565b60008161648b8185619a9b565b61649690600161827e565b6164a09190619ac1565b9392505050565b805160209081015101516001600160a01b03166164d757604051637c5d310960e11b815260040160405180910390fd5b80516020015151604051630c133d1360e31b815273__$a0fe38a9a81205afccc10810b09a4d3f45$__91636099e898916165149190600401617d28565b602060405180830381865af4158015616531573d6000803e3d6000fd5b505050506040513d601f19601f8201168201806040525081019061655591906194ea565b156165735760405163461e815d60e01b815260040160405180910390fd5b8051608001516001600160e01b0319166165ad578051604001514710156165ad5760405163569d45cf60e11b815260040160405180910390fd5b805160405163f47ad7eb60e01b815260009173__$386b5c41ce93e8b832daf8008b3d30ae09$__9163f47ad7eb916165e9916004908101619725565b602060405180830381865af4158015616606573d6000803e3d6000fd5b505050506040513d601f19601f8201168201806040525081019061662a9190619738565b8251602001515160405163c836244d60e01b815291925073__$a0fe38a9a81205afccc10810b09a4d3f45$__9163c836244d9161666b91600490810161831b565b602060405180830381865af4158015616688573d6000803e3d6000fd5b505050506040513d601f19601f820116820180604052508101906166ac91906194ea565b156169145760018160018111156166c5576166c5617516565b036167fa57604051630c133d1360e31b815273__$a0fe38a9a81205afccc10810b09a4d3f45$__90636099e89890616701908690600401617d28565b602060405180830381865af415801561671e573d6000803e3d6000fd5b505050506040513d601f19601f8201168201806040525081019061674291906194ea565b6167fa5760008061675285614e01565b915091508161677457604051630e991abd60e41b815260040160405180910390fd5b8351606001518154600160481b90046001600160401b039081169116146167ae5760405163a57cadff60e01b815260040160405180910390fd5b805460019082906009906167d3908490600160481b90046001600160401b031661827e565b92506101000a8154816001600160401b0302191690836001600160401b0316021790555050505b600081600181111561680e5761680e617516565b0361689857815160600151600b54600160401b90046001600160401b0390811691161461684e5760405163a57cadff60e01b815260040160405180910390fd5b6001600b60088282829054906101000a90046001600160401b0316616873919061827e565b92506101000a8154816001600160401b0302191690836001600160401b031602179055505b604051635c46fefb60e11b815273__$33b79814e84bf6cf5e47244090b19ce5f8$__9063b88dfdf6906168cf908590600401617ab0565b600060405180830381865af41580156168ec573d6000803e3d6000fd5b505050506040513d6000823e601f3d908101601f191682016040526154ed9190810190619aec565b600061691f836163b2565b6000818152600860209081526040909120855180518051805184546001600160401b0319166001600160401b03909116178455808501518051969750899694959394869485939284926169789260018501920190617178565b50505060209182015160029190910180546001600160a01b0319166001600160a01b0390921691909117905582810151805180516003850180546001600160401b0319166001600160401b039092169190911781558184015180519394919384926169ea926004890192910190617178565b50505060209190910151600290910180546001600160a01b039092166001600160a01b0319909216919091179055604082015160068201556060820151600782018054608085015160e01c600160401b026001600160601b03199091166001600160401b039093169290921791909117905560a08201516008820190616a7090826199e1565b5050506020918201516009918201805491151560ff19928316179055600093845290825260408084209551518301516001600160a01b031684529490915292902080549092166001179091555050565b60606164a0838360006040518060400160405280601e81526020017f416464726573733a206c6f772d6c6576656c2063616c6c206661696c65640000815250616ec8565b8554600081815260038801602090815260408083206001600160a01b038916845290915281205490919060ff1615616b4f576040516337138f5f60e11b815260040160405180910390fd5b600081815260038901602090815260408083206001600160a01b038a1684529091528120805460ff1916600190811790915589018054879290616b93908490618131565b9091555050600081815260048901602090815260408083208a845290915281208054879290616bc3908490618131565b90915550506000818152600489016020908152604080832060028c015484529091528082205489835291205480821015616bff5760028a018990555b6000616c0b8b87616fa5565b90506003816003811115616c2157616c21617516565b03616cac57616c2f87616e73565b15616c3d5760019450616d29565b60405163199b9ca560e01b815273__$b7b8687e33476c74e3b4e0a64c4768a343$__9063199b9ca590616c77906002908b90600401619b20565b60006040518083038186803b158015616c8f57600080fd5b505af4158015616ca3573d6000803e3d6000fd5b50505050616d29565b6002816003811115616cc057616cc0617516565b03616d2957604051635a27a53960e11b8152600481018c905273__$e0f829f5071d7e628aa77eca0c12e35bc2$__9063b44f4a729060240160006040518083038186803b158015616d1057600080fd5b505af4158015616d24573d6000803e3d6000fd5b505050505b505050509695505050505050565b616d4081616e73565b616d475750565b604051634953836d60e11b815273__$b7b8687e33476c74e3b4e0a64c4768a343$__906392a706da90616d81906002908590600401619b20565b602060405180830381865af4158015616d9e573d6000803e3d6000fd5b505050506040513d601f19601f82011682018060405250810190616dc291906194ea565b15616de6576002546001600160401b03828116600160401b9092041614616de65750565b6040516394ecccfd60e01b815273__$b7b8687e33476c74e3b4e0a64c4768a343$__906394ecccfd90616e20906002908590600401619b20565b60006040518083038186803b158015616e3857600080fd5b505af4158015616e4c573d6000803e3d6000fd5b5050600180546001600160401b0319166001600160401b0394909416939093179092555050565b600154600090616ead907f0000000000000000000000000000000000000000000000000000000000000000906001600160401b031661827e565b6001600160401b0316826001600160401b0316149050919050565b606082471015616f295760405162461bcd60e51b815260206004820152602660248201527f416464726573733a20696e73756666696369656e742062616c616e636520666f6044820152651c8818d85b1b60d21b606482015260840161570b565b600080866001600160a01b03168587604051616f459190619b37565b60006040518083038185875af1925050503d8060008114616f82576040519150601f19603f3d011682016040523d82523d6000602084013e616f87565b606091505b5091509150616f98878383876170ba565b925050505b949350505050565b6000806064616fd760ff7f000000000000000000000000000000000000000000000000000000000000000016856188d4565b616fe19190619b49565b604051637d2ef4e560e11b81526004810186905290915060009073__$e0f829f5071d7e628aa77eca0c12e35bc2$__9063fa5de9ca90602401602060405180830381865af4158015617037573d6000803e3d6000fd5b505050506040513d601f19601f8201168201806040525081019061705b91906180e3565b9050818560010154116170735760009250505061114f565b818111156170865760039250505061114f565b6001850154617095908561811e565b61709f828461811e565b106170af5760029250505061114f565b506001949350505050565b60608315617129578251600003617122576001600160a01b0385163b6171225760405162461bcd60e51b815260206004820152601d60248201527f416464726573733a2063616c6c20746f206e6f6e2d636f6e7472616374000000604482015260640161570b565b5081616f9d565b616f9d838381511561713e5781518083602001fd5b8060405162461bcd60e51b815260040161570b9190619b5d565b604051806040016040528061716b617389565b8152600060209091015290565b8280548282559060005260206000209081019282156171cd579160200282015b828111156171cd57825182546001600160a01b0319166001600160a01b03909116178255602090920191600190910190617198565b506171d99291506173de565b5090565b508054600082559060005260206000209081019061257291906173de565b50805461720790617ef8565b6000825580601f10617217575050565b601f01602090049060005260206000209081019061257291906173de565b50805460008255600a029060005260206000209081019061257291906173f3565b508054600082556003029060005260206000209081019061257291906174a9565b8280548282559060005260206000209081019282156171cd5760005260206000209182015b828111156171cd57825482559160010191906001019061729c565b6040518060e001604052806172ca617306565b815260200160006001600160401b0316815260200160008152602001606081526020016060815260200160008019168152602001606081525090565b60408051808201909152600081526060602082015290565b604080516101208101909152806000815260200160006001600160401b0316815260200160006001600160401b0316815260200160008152602001600081526020016000815260200161736f617306565b815260200161737c6172b7565b8152602001606081525090565b6040518060c0016040528061739c6174ea565b81526020016173a96174ea565b81526020016000815260200160006001600160401b0316815260200160006001600160e01b0319168152602001606081525090565b5b808211156171d957600081556001016173df565b808211156171d95780546001600160401b0319168155600081818181818161741e60018301826171dd565b50505060020180546001600160a01b03191690556003820180546001600160401b03191681556000818161745560048701826171dd565b50505060020180546001600160a01b03191690556000600683018190556007830180546001600160601b03191690556174929060088401906171fb565b50505060098101805460ff19169055600a016173f3565b808211156171d95780546001600160401b0319168155600081816174d060018301826171dd565b506174e190506002830160006171dd565b506003016174a9565b604051806040016040528061716b617306565b60006020828403121561750f57600080fd5b5035919050565b634e487b7160e01b600052602160045260246000fd5b6006811061754a57634e487b7160e01b600052602160045260246000fd5b9052565b80516001600160401b03168252602080820151604082850181905281519085018190526000929182019190839060608701905b808310156175aa5784516001600160a01b03168252938301936001929092019190830190617581565b509695505050505050565b60008151604084526175ca604085018261754e565b6020938401516001600160a01b0316949093019390935250919050565b60005b838110156176025781810151838201526020016175ea565b50506000910152565b600081518084526176238160208601602086016175e7565b601f01601f19169290920160200192915050565b6000815160c0845261764c60c08501826175b5565b90506020830151848203602086015261766582826175b5565b9150506040830151604085015260018060401b03606084015116606085015263ffffffff60e01b608084015116608085015260a083015184820360a0860152615759828261760b565b60008151604084526176c36040850182617637565b6020938401511515949093019390935250919050565b600081518084526020808501808196508360051b8101915082860160005b8581101561772157828403895261770f8483516176ae565b988501989350908401906001016176f7565b5091979650505050505050565b6000815160e0845261774360e085018261754e565b9050602060018060401b03818501511681860152604080850151818701526060850151868403606088015261777884826176d9565b935050608085015186840360808801528381518086528486019150848160051b87010185840193506000805b8381101561781857888303601f19018552855180518885526177c88986018261754e565b918a0151858303868c01528051808452908b01928592508b01905b808310156178035783518252928b019260019290920191908b01906177e3565b50978a0197968a0196945050506001016177a4565b505060a089015160a08b015260c0890151965089810360c08b015261783d818861760b565b9a9950505050505050505050565b600061010061785a838c61752c565b6001600160401b038a8116602085015289166040840152606083018890526080830187905260a0830186905260c083018190526178998184018661754e565b905082810360e08401526178ad818561772e565b9b9a5050505050505050505050565b634e487b7160e01b600052604160045260246000fd5b604080519081016001600160401b03811182821017156178f4576178f46178bc565b60405290565b60405160c081016001600160401b03811182821017156178f4576178f46178bc565b604051601f8201601f191681016001600160401b0381118282101715617944576179446178bc565b604052919050565b6001600160401b038116811461257257600080fd5b803561796c8161794c565b919050565b60006001600160401b0382111561798a5761798a6178bc565b5060051b60200190565b6001600160a01b038116811461257257600080fd5b600082601f8301126179ba57600080fd5b813560206179cf6179ca83617971565b61791c565b82815260059290921b840181019181810190868411156179ee57600080fd5b8286015b848110156175aa578035617a0581617994565b83529183019183016179f2565b600060408284031215617a2457600080fd5b617a2c6178d2565b90508135617a398161794c565b815260208201356001600160401b03811115617a5457600080fd5b617a60848285016179a9565b60208301525092915050565b60008060408385031215617a7f57600080fd5b82356001600160401b03811115617a9557600080fd5b617aa185828601617a12565b95602094909401359450505050565b6020815260006164a060208301846176ae565b600080600060408486031215617ad857600080fd5b8335925060208401356001600160401b0380821115617af657600080fd5b818601915086601f830112617b0a57600080fd5b813581811115617b1957600080fd5b8760208260051b8501011115617b2e57600080fd5b6020830194508093505050509250925092565b600060208284031215617b5357600080fd5b81356164a08161794c565b600060408284031215617b7057600080fd5b50919050565b60008060408385031215617b8957600080fd5b82356001600160401b03811115617b9f57600080fd5b617bab85828601617b5e565b9250506020830135617bbc8161794c565b809150509250929050565b6020815260006164a060208301846176d9565b60008060408385031215617bed57600080fd5b823591506020830135617bbc81617994565b60a081526000617c1260a083018861754e565b6001600160401b038716602084015260408301869052606083018590528281036080840152617c41818561760b565b98975050505050505050565b600060208284031215617c5f57600080fd5b81356001600160401b03811115617c7557600080fd5b820160e081850312156164a057600080fd5b600060208284031215617c9957600080fd5b81356001600160401b03811115617caf57600080fd5b616f9d84828501617b5e565b60008060408385031215617cce57600080fd5b8235617cd98161794c565b91506020830135617bbc81617994565b8215158152604060208201526000616f9d604083018461772e565b604081526000617d176040830185617637565b905082151560208301529392505050565b6020815260006164a0602083018461754e565b600060208284031215617d4d57600080fd5b81356001600160401b03811115617d6357600080fd5b616f9d84828501617a12565b821515815260406020820152617d8960408201835161752c565b60006020830151617da560608401826001600160401b03169052565b5060408301516001600160401b038116608084015250606083015160a0830152608083015160c083015260a083015160e083015260c08301516101206101008181860152617df761016086018461754e565b925060e0860151603f19808786030184880152617e14858361772e565b94508288015193508087860301610140880152505050617e3482826176d9565b9695505050505050565b60008060408385031215617e5157600080fd5b82356001600160401b0380821115617e6857600080fd5b617e74868387016179a9565b9350602091508185013581811115617e8b57600080fd5b85019050601f81018613617e9e57600080fd5b8035617eac6179ca82617971565b81815260059190911b82018301908381019088831115617ecb57600080fd5b928401925b82841015617ee957833582529284019290840190617ed0565b80955050505050509250929050565b600181811c90821680617f0c57607f821691505b602082108103617b7057634e487b7160e01b600052602260045260246000fd5b634e487b7160e01b600052603260045260246000fd5b600060208284031215617f5457600080fd5b81356164a081617994565b600081518084526020808501808196508360051b8101915082860160005b85811015617721578284038952617f958483516176ae565b98850198935090840190600101617f7d565b600081518084526020808501808196508360051b810191508286016000805b86811015618039578385038a52825160408151818852617fe88289018261754e565b92890151888403898b01528051808552908a01938693508a0191505b808310156180245783518252928901926001929092019190890190618004565b509b88019b9650505091850191600101617fc6565b509298975050505050505050565b602081526000825160e0602084015261806461010084018261754e565b905060018060401b036020850151166040840152604084015160608401526060840151601f198085840301608086015261809e8383617f5f565b925060808601519150808584030160a08601526180bb8383617fa7565b925060a086015160c086015260c08601519150808584030160e086015250615759828261760b565b6000602082840312156180f557600080fd5b5051919050565b600061114f3683617a12565b634e487b7160e01b600052601160045260246000fd5b8181038181111561114f5761114f618108565b8082018082111561114f5761114f618108565b60006001820161815657618156618108565b5060010190565b604081526000618170604083018561754e565b905060018060a01b03831660208301529392505050565b805161796c8161794c565b6000604082840312156181a457600080fd5b6181ac6178d2565b905081516181b98161794c565b81526020828101516001600160401b038111156181d557600080fd5b8301601f810185136181e657600080fd5b80516181f46179ca82617971565b81815260059190911b8201830190838101908783111561821357600080fd5b928401925b8284101561823a57835161822b81617994565b82529284019290840190618218565b8085870152505050505092915050565b60006020828403121561825c57600080fd5b81516001600160401b0381111561827257600080fd5b616f9d84828501618192565b6001600160401b0381811683821601908082111561829e5761829e618108565b5092915050565b60009081526020902090565b80546001600160401b031682526040602080840182905260018381018054938601849052600090815282812090939092849160608801905b8084101561830f5785546001600160a01b031682529484019492840192908201906182e9565b50979650505050505050565b60408152600061832e604083018561754e565b828103602084015261575981856182b1565b6001600160401b0382811682821603908082111561829e5761829e618108565b60006020828403121561837257600080fd5b81516164a081617994565b60008235603e1983360301811261839357600080fd5b9190910192915050565b60008235603e198336030181126183b357600080fd5b90910192915050565b6000808335601e198436030181126183d357600080fd5b83016020810192503590506001600160401b038111156183f257600080fd5b8060051b360382131561840457600080fd5b9250929050565b600060408301823561841c8161794c565b6001600160401b031684526020618435848201856183bc565b6040878401529283905291600090606087015b8183101561847857843561845b81617994565b6001600160a01b0316815293830193600192909201918301618448565b979650505050505050565b600061848f828361839d565b604084526184a0604085018261840b565b905060208301356184b081617994565b6001600160a01b0316602094909401939093525090919050565b6001600160e01b03198116811461257257600080fd5b803561796c816184ca565b6000808335601e1984360301811261850257600080fd5b83016020810192503590506001600160401b0381111561852157600080fd5b80360382131561840457600080fd5b81835281816020850137506000828201602090810191909152601f909101601f19169091010190565b801515811461257257600080fd5b803561796c81618559565b81835260006020808501808196508560051b81019150846000805b88811015618039578385038a526185a4838961839d565b6040813560be198336030181126185b9578485fd5b81885282016185c8818061839d565b60c080848b01526185dd6101008b0183618483565b91506185eb8b84018461839d565b603f196060818d860301818e01526186038584618483565b94506080925086860135838e0152808601359650506186218661794c565b60a060018060401b038716818e015282860135965061863f876184ca565b6001600160e01b031987168d85015261865a868201876184eb565b9750955050808c85030160e08d0152505050618677818484618530565b92505050618686888301618567565b15159688019690965250988501989185019160010161858d565b81835260006020808501808196506005915085821b8101856000805b8981101561873c578484038b526186d3838a61839d565b60406186df828361839d565b8187526186ee8288018261840b565b9150506186fd898301836183bc565b8783038b89015280835292506001600160fb1b0383111561871c578485fd5b91881b918281838c0137509b88019b0187019350918601916001016186bc565b50919998505050505050505050565b85815260a060208201526000618761868761839d565b60e060a084015261877661018084018261840b565b905060208701356187868161794c565b6001600160401b031660c0840152604087013560e08401526187ab60608801886183bc565b609f1980868503016101008701526187c4848385618572565b93506187d360808b018b6183bc565b9350915080868503016101208701526187ed8484846186a0565b935060a08a013561014087015261880760c08b018b6184eb565b93509150808685030161016087015250618822838383618530565b9350505050846040830152836060830152617e3460808301846001600160401b03169052565b6000808335601e1984360301811261885f57600080fd5b8301803591506001600160401b0382111561887957600080fd5b6020019150600581901b360382131561840457600080fd5b6000823560be1983360301811261839357600080fd5b6000813561114f8161794c565b80546001600160401b0319166001600160401b0392909216919091179055565b808202811582820484141761114f5761114f618108565b5b81811015612f6b57600081556001016188ec565b600160401b821115618914576189146178bc565b80548282558083101561238d578160005260206000206154ed8282018583016188eb565b6000815560018101805460008255801561238d578160005260206000206154ed828201826188eb565b600019600383901b1c191660019190911b1790565b618980828361837d565b803561898b8161794c565b61899581846188b4565b50600180830160206189a981850185618848565b94506001600160401b038511156189c2576189c26178bc565b6189cc8584618900565b6000928352818320925b858110156189f85781356189e981617994565b848201559082019084016189d6565b50506002850193508501359150618a10905081617994565b81546001600160a01b0319166001600160a01b03919091161790555050565b6000813561114f816184ca565b6000808335601e19843603018112618a5357600080fd5b8301803591506001600160401b03821115618a6d57600080fd5b60200191503681900382131561840457600080fd5b601f82111561238d57806000526020600020601f840160051c81016020851015618aa95750805b618abb601f850160051c8301826188eb565b5050505050565b6001600160401b03831115618ad957618ad96178bc565b618aed83618ae78354617ef8565b83618a82565b6000601f841160018114618b1b5760008515618b095750838201355b618b138682618961565b845550618abb565b601f198516618b29846182a5565b835b82811015618b4b5786850135825560209485019460019092019101618b2b565b5086821015618b685760001960f88860031b161c19848701351681555b505060018560011b0183555050505050565b6000813561114f81618559565b813560be19833603018112618b9b57600080fd5b8201618ba7818061837d565b618bb1818261837d565b8035618bbc8161794c565b618bc681866188b4565b5060018085016020618bda81850185618848565b94506001600160401b03851115618bf357618bf36178bc565b618bfd8584618900565b6000928352818320925b85811015618c29578135618c1a81617994565b84820155908201908401618c07565b50509384013593600287019350618c3f85617994565b83546001600160a01b0319166001600160a01b038616178455618c70618c678783018861837d565b60038901618976565b60408601356006880155600787019450618c95618c8f606088016188a7565b866188b4565b618cc8618ca460808801618a2f565b86805463ffffffff60401b191660a09290921c63ffffffff60401b16919091179055565b618cd560a0870187618a3c565b96509450618ce7868660088a01618ac2565b611fd1618cf5828a01618b7a565b6009890160ff1981541660ff8315151681178255505050565b600160401b831115618d2257618d226178bc565b805483825580841015618e1157600a8181028181048314618d4557618d45618108565b8582028281048714618d5957618d59618108565b6000858152602081209283019291909101905b82821015618e0c57618d7d82618938565b806002830155618d8f60038301618938565b6005818184015581600684015581600784015560088301618db08154617ef8565b8015618df957601f80821160018114618dcb57858455618df6565b618dd4846182a5565b618de7838501871c8201600183016188eb565b50600084815260208120818655555b50505b5050508060098301558382019150618d6c565b505050505b5081618e1c826182a5565b60005b8581101561366757618e3a618e34848761837d565b83618b87565b60209290920191600a9190910190600101618e1f565b80546000808355811561238d57828152602081208281015b80821015618abb57828255600182019150618e68565b600160401b821115618e9257618e926178bc565b80548282558083101561238d576000828152602081208481019083015b8082101561366757828255600182019150618eaf565b618ecf828361837d565b8035618eda8161794c565b618ee481846188b4565b5060018083016020618ef881850185618848565b94506001600160401b0380861115618f1257618f126178bc565b618f1c8685618900565b600093845282842093805b87811015618f49578335618f3a81617994565b86820155928401928601618f27565b50600288019650618f5c848a018a618848565b9550925081851115618f7057618f706178bc565b618f7a8588618e7e565b95865250818520945b83811015611fd157813586820155908201908401618f83565b600160401b831115618fb057618fb06178bc565b80548382558084101561901e5760038181028181048314618fd357618fd3618108565b8582028281048714618fe757618fe7618108565b60008581526020902091820191015b8181101561901a5761900781618938565b61901360028201618e50565b8201618ff6565b5050505b5081619029826182a5565b60005b8581101561366757619047619041848761837d565b83618ec5565b602092909201916003919091019060010161902c565b619067828361837d565b80356190728161794c565b61907c81846188b4565b506001808301602061909081850185618848565b94506001600160401b038511156190a9576190a96178bc565b6190b38584618900565b6000928352818320925b858110156190df5781356190d081617994565b848201559082019084016190bd565b50506190f86190ef8288016188a7565b600287016188b4565b50505050604082013560038201556191136060830183618848565b619121818360048601618d0e565b50506191306080830183618848565b61913e818360058601618f9c565b505060a0820135600682015561915760c0830183618a3c565b6154ed818360078601618ac2565b60006040828403121561917757600080fd5b61917f6178d2565b905081356001600160401b0381111561919757600080fd5b6191a384828501617a12565b82525060208201356191b481617994565b602082015292915050565b60006001600160401b038211156191d8576191d86178bc565b50601f01601f191660200190565b600082601f8301126191f757600080fd5b81356192056179ca826191bf565b81815284602083860101111561921a57600080fd5b816020850160208301376000918101602001919091529392505050565b60006040828403121561924957600080fd5b6192516178d2565b905081356001600160401b038082111561926a57600080fd5b9083019060c0828603121561927e57600080fd5b6192866178fa565b82358281111561929557600080fd5b6192a187828601619165565b8252506020830135828111156192b657600080fd5b6192c287828601619165565b602083015250604083013560408201526192de60608401617961565b60608201526192ef608084016184e0565b608082015260a08301358281111561930657600080fd5b619312878286016191e6565b60a0830152508352506191b4905060208301618567565b60006193376179ca84617971565b8381529050602080820190600585901b84018681111561935657600080fd5b845b818110156193915780356001600160401b038111156193775760008081fd5b61938389828901619237565b855250928201928201619358565b505050509392505050565b60006164a0368484619329565b60208082528181018390526000906040808401600586901b850182018785805b8981101561873c57603f19808a86030186526193e5848d61839d565b803560be198236030181126193f8578485fd5b8887528101619407818061839d565b60c0808b8a015261941c6101008a0183618483565b915061942a8c84018461839d565b6060868b850301818c015261943f8483618483565b9350608091508c850135828c015280850135905061945c8161794c565b6001600160401b03811660a08c810191909152918501359161947d836184ca565b6001600160e01b031983168c850152619498868201876184eb565b96509350505050848983030160e08a01526194b4828483618530565b94505050506194c4898201618567565b151595890195909552948701949350918601916001016193c9565b805161796c81618559565b6000602082840312156194fc57600080fd5b81516164a081618559565b60608152600061951a60608301866182b1565b6001600160a01b039490941660208301525060400152919050565b60006040828403121561954757600080fd5b61954f6178d2565b82519091506001600160401b0381111561956857600080fd5b61957484828501618192565b82525060208201516191b481617994565b805161796c816184ca565b600082601f8301126195a157600080fd5b81516195af6179ca826191bf565b8181528460208386010111156195c457600080fd5b616f9d8260208301602087016175e7565b6000602082840312156195e757600080fd5b81516001600160401b03808211156195fe57600080fd5b908301906040828603121561961257600080fd5b61961a6178d2565b82518281111561962957600080fd5b830160c0818803121561963b57600080fd5b6196436178fa565b81518481111561965257600080fd5b61965e89828501619535565b82525060208201518481111561967357600080fd5b61967f89828501619535565b6020830152506040820151604082015261969b60608301618187565b60608201526196ac60808301619585565b608082015260a0820151848111156196c357600080fd5b6196cf89828501619590565b60a0830152508252506196e4602084016194df565b602082015295945050505050565b60608152600061951a606083018661840b565b600061114f3683619237565b6001600160a01b0391909116815260200190565b60408152600061832e6040830185617637565b60006020828403121561974a57600080fd5b8151600281106164a057600080fd5b60408152600061976c604083018561754e565b8281036020840152615759818561754e565b60006001600160401b038281166002600160401b031981016197a2576197a2618108565b6001019392505050565b634e487b7160e01b600052601260045260246000fd5b60006001600160401b03838116806197dc576197dc6197ac565b92169190910692915050565b6000604082360312156197fa57600080fd5b6198026178d2565b823561980d8161794c565b815260208301356001600160401b0381111561982857600080fd5b830136601f82011261983957600080fd5b617a6036823560208401619329565b602080825282516001600160401b031682820152820151604080830152600090616f9d6060840182617f5f565b81356198808161794c565b61988a81836188b4565b50600180820161989d6020850185618848565b600160401b8111156198b1576198b16178bc565b8254818455808210156199a15780600a02600a810482146198d4576198d4618108565b82600a02600a810484146198ea576198ea618108565b6000868152602081209283019291909101905b8282101561999d5761990e82618938565b80600283015561992060038301618938565b60058181840155816006840155816007840155600883016199418154617ef8565b801561998957601f8082116001811461995c57858455619986565b619965846182a5565b619977838501871c82018f83016188eb565b50600084815260208120818655555b50505b505050806009830155600a820191506198fd565b5050505b50816199ac846182a5565b935060005b82811015611fd1576199cc6199c6838661837d565b86618b87565b600a94909401936020919091019085016199b1565b81516001600160401b038111156199fa576199fa6178bc565b619a0e81619a088454617ef8565b84618a82565b602080601f831160018114619a3d5760008415619a2b5750858301515b619a358582618961565b865550613667565b601f198416619a4b866182a5565b60005b82811015619a6d57888601518255948401946001909101908401619a4e565b5085821015619a8b5787850151600019600388901b60f8161c191681555b5050505050600190811b01905550565b60006001600160401b0383811680619ab557619ab56197ac565b92169190910492915050565b6001600160401b03818116838216028082169190828114619ae457619ae4618108565b505092915050565b600060208284031215619afe57600080fd5b81516001600160401b03811115619b1457600080fd5b616f9d84828501619590565b9182526001600160401b0316602082015260400190565b600082516183938184602087016175e7565b600082619b5857619b586197ac565b500490565b6020815260006164a0602083018461760b56fea2646970667358221220347c06ba31a81305f90b64cc61af5103daec57f93d965730554da1d209d91dfc64736f6c63430008130033",
    "linkReferences": {
      "src/lib/AccountHelper.sol": {
        "AccountHelper": [
          {
            "start": 22228,
            "length": 20
          },
          {
            "start": 24507,
            "length": 20
          }
        ]
      },
      "src/lib/CheckpointHelper.sol": {
        "CheckpointHelper": [
          {
            "start": 6983,
            "length": 20
          },
          {
            "start": 12949,
            "length": 20
          },
          {
            "start": 13211,
            "length": 20
          },
          {
            "start": 24857,
            "length": 20
          },
          {
            "start": 25701,
            "length": 20
          }
        ]
      },
      "src/lib/CrossMsgHelper.sol": {
        "CrossMsgHelper": [
          {
            "start": 13922,
            "length": 20
          },
          {
            "start": 17085,
            "length": 20
          },
          {
            "start": 20292,
            "length": 20
          },
          {
            "start": 28441,
            "length": 20
          }
        ]
      },
      "src/lib/EpochVoteSubmissionHelper.sol": {
        "EpochVoteSubmissionHelper": [
          {
            "start": 29517,
            "length": 20
          },
          {
            "start": 30319,
            "length": 20
          }
        ]
      },
      "src/lib/ExecutableQueueHelper.sol": {
        "ExecutableQueueHelper": [
          {
            "start": 29374,
            "length": 20
          },
          {
            "start": 29640,
            "length": 20
          },
          {
            "start": 29799,
            "length": 20
          }
        ]
      },
      "src/lib/StorableMsgHelper.sol": {
        "StorableMsgHelper": [
          {
            "start": 22768,
            "length": 20
          },
          {
            "start": 27699,
            "length": 20
          }
        ]
      },
      "src/lib/SubnetIDHelper.sol": {
        "SubnetIDHelper": [
          {
            "start": 481,
            "length": 20
          },
          {
            "start": 8331,
            "length": 20
          },
          {
            "start": 9431,
            "length": 20
          },
          {
            "start": 10411,
            "length": 20
          },
          {
            "start": 11105,
            "length": 20
          },
          {
            "start": 11312,
            "length": 20
          },
          {
            "start": 16952,
            "length": 20
          },
          {
            "start": 20497,
            "length": 20
          },
          {
            "start": 21190,
            "length": 20
          },
          {
            "start": 21502,
            "length": 20
          },
          {
            "start": 21629,
            "length": 20
          },
          {
            "start": 21907,
            "length": 20
          },
          {
            "start": 22456,
            "length": 20
          },
          {
            "start": 22606,
            "length": 20
          },
          {
            "start": 22918,
            "length": 20
          },
          {
            "start": 23044,
            "length": 20
          },
          {
            "start": 23351,
            "length": 20
          },
          {
            "start": 23724,
            "length": 20
          },
          {
            "start": 24230,
            "length": 20
          },
          {
            "start": 26512,
            "length": 20
          },
          {
            "start": 27487,
            "length": 20
          },
          {
            "start": 27829,
            "length": 20
          },
          {
            "start": 27979,
            "length": 20
          }
        ]
      }
    }
  },
  "methodIdentifiers": {
    "MIN_CHECKPOINT_PERIOD()": "a1ada303",
    "MIN_COLLATERAL_AMOUNT()": "91be4d41",
    "addStake()": "5a627dbc",
    "appliedTopDownNonce()": "8789f83b",
    "bottomUpCheckPeriod()": "06c46853",
    "bottomUpCheckpointAtEpoch(uint64)": "6cb2ecee",
    "bottomUpCheckpointHashAtEpoch(uint64)": "133f74ea",
    "bottomUpCheckpoints(uint64)": "2cc14ea2",
    "bottomUpNonce()": "41b6a2e8",
    "commitChildCheck(((uint64,address[]),uint64,uint256,((((uint64,address[]),address),((uint64,address[]),address),uint256,uint64,bytes4,bytes),bool)[],((uint64,address[]),bytes32[])[],bytes32,bytes))": "59265195",
    "crossMsgFee()": "24729425",
    "executableQueue()": "10d500e1",
    "fund((uint64,address[]))": "cfb3452f",
    "getGenesisEpoch()": "51392fc0",
    "getNetworkName()": "94074b03",
    "getSubnet((uint64,address[]))": "c66c66a1",
    "getSubnetTopDownMsg((uint64,address[]),uint256)": "0ea746f2",
    "getSubnetTopDownMsgsLength((uint64,address[]))": "9d3070b5",
    "getTopDownMsgs((uint64,address[]),uint64)": "13549315",
    "hasValidatorVotedForSubmission(uint64,address)": "66d7bbbc",
    "initGenesisEpoch(uint64)": "13f35388",
    "initialized()": "158ef93e",
    "kill()": "41c0e1b5",
    "lastVotingExecutedEpoch()": "ad81e244",
    "majorityPercentage()": "599c7bd1",
    "minStake()": "375b3c0a",
    "postbox(bytes32)": "8cfd78e7",
    "postboxHasOwner(bytes32,address)": "3c8fe6bf",
    "propagate(bytes32)": "25bf0db6",
    "register()": "1aa3a008",
    "release()": "86d1a69f",
    "releaseRewards(uint256)": "f8703bb8",
    "releaseStake(uint256)": "45f54485",
    "sendCrossMessage(((((uint64,address[]),address),((uint64,address[]),address),uint256,uint64,bytes4,bytes),bool))": "f871fd22",
    "setMembership(address[],uint256[])": "f75bc557",
    "submissionPeriod()": "185fde7e",
    "submitTopDownCheckpoint((uint64,((((uint64,address[]),address),((uint64,address[]),address),uint256,uint64,bytes4,bytes),bool)[]))": "5dfb9892",
    "subnets(bytes32)": "02e30f9a",
    "topDownCheckPeriod()": "7d9740f4",
    "totalSubnets()": "a2b67158",
    "totalWeight()": "96c82e57",
    "validatorNonce()": "e17a684f",
    "validatorSet(uint256,address)": "223d9056",
    "whitelistPropagator(bytes32,address[])": "11c5080e"
  },
  "id": 25
}