{
  "_format": "hh-sol-artifact-1",
  "contractName": "Gateway",
  "sourceName": "contracts/Gateway.sol",
  "abi": [
    {
      "inputs": [
        {
          "components": [
            {
              "components": [
                {
                  "internalType": "address[]",
                  "name": "route",
                  "type": "address[]"
                }
              ],
              "internalType": "struct SubnetID",
              "name": "networkName",
              "type": "tuple"
            },
            {
              "internalType": "uint64",
              "name": "bottomUpCheckPeriod",
              "type": "uint64"
            },
            {
              "internalType": "uint64",
              "name": "topDownCheckPeriod",
              "type": "uint64"
            },
            {
              "internalType": "uint256",
              "name": "msgFee",
              "type": "uint256"
            },
            {
              "internalType": "uint8",
              "name": "majorityPercentage",
              "type": "uint8"
            }
          ],
          "internalType": "struct IGateway.ConstructorParams",
          "name": "params",
          "type": "tuple"
        }
      ],
      "stateMutability": "nonpayable",
      "type": "constructor"
    },
    {
      "inputs": [],
      "name": "AlreadyCommitedCheckpoint",
      "type": "error"
    },
    {
      "inputs": [],
      "name": "AlreadyInitialized",
      "type": "error"
    },
    {
      "inputs": [],
      "name": "AlreadyRegisteredSubnet",
      "type": "error"
    },
    {
      "inputs": [],
      "name": "CallFailed",
      "type": "error"
    },
    {
      "inputs": [],
      "name": "CannnotReleaseZero",
      "type": "error"
    },
    {
      "inputs": [],
      "name": "CannotSendCrossMsgToItself",
      "type": "error"
    },
    {
      "inputs": [],
      "name": "EpochAlreadyExecuted",
      "type": "error"
    },
    {
      "inputs": [],
      "name": "EpochNotVotable",
      "type": "error"
    },
    {
      "inputs": [],
      "name": "InconsistentPrevCheckpoint",
      "type": "error"
    },
    {
      "inputs": [],
      "name": "InsufficientFunds",
      "type": "error"
    },
    {
      "inputs": [],
      "name": "InvalidCheckpointEpoch",
      "type": "error"
    },
    {
      "inputs": [],
      "name": "InvalidCheckpointSource",
      "type": "error"
    },
    {
      "inputs": [],
      "name": "InvalidCrossMsgDestinationAddress",
      "type": "error"
    },
    {
      "inputs": [],
      "name": "InvalidCrossMsgDestinationSubnet",
      "type": "error"
    },
    {
      "inputs": [],
      "name": "InvalidCrossMsgNonce",
      "type": "error"
    },
    {
      "inputs": [],
      "name": "InvalidCrossMsgsSortOrder",
      "type": "error"
    },
    {
      "inputs": [],
      "name": "InvalidMajorityPercentage",
      "type": "error"
    },
    {
      "inputs": [],
      "name": "InvalidPostboxOwner",
      "type": "error"
    },
    {
      "inputs": [],
      "name": "MessagesNotSorted",
      "type": "error"
    },
    {
      "inputs": [],
      "name": "NotEmptySubnetCircSupply",
      "type": "error"
    },
    {
      "inputs": [],
      "name": "NotEnoughBalance",
      "type": "error"
    },
    {
      "inputs": [],
      "name": "NotEnoughFee",
      "type": "error"
    },
    {
      "inputs": [],
      "name": "NotEnoughFunds",
      "type": "error"
    },
    {
      "inputs": [],
      "name": "NotEnoughFundsForMembership",
      "type": "error"
    },
    {
      "inputs": [],
      "name": "NotEnoughFundsToRelease",
      "type": "error"
    },
    {
      "inputs": [],
      "name": "NotEnoughSubnetCircSupply",
      "type": "error"
    },
    {
      "inputs": [],
      "name": "NotInitialized",
      "type": "error"
    },
    {
      "inputs": [],
      "name": "NotRegisteredSubnet",
      "type": "error"
    },
    {
      "inputs": [],
      "name": "NotSignableAccount",
      "type": "error"
    },
    {
      "inputs": [],
      "name": "NotSystemActor",
      "type": "error"
    },
    {
      "inputs": [],
      "name": "NotValidator",
      "type": "error"
    },
    {
      "inputs": [],
      "name": "PostboxNotExist",
      "type": "error"
    },
    {
      "inputs": [],
      "name": "SubnetNotActive",
      "type": "error"
    },
    {
      "inputs": [],
      "name": "ValidatorAlreadyVoted",
      "type": "error"
    },
    {
      "inputs": [],
      "name": "ValidatorWeightIsZero",
      "type": "error"
    },
    {
      "inputs": [],
      "name": "ValidatorsAndWeightsLengthMismatch",
      "type": "error"
    },
    {
      "inputs": [],
      "name": "addStake",
      "outputs": [],
      "stateMutability": "payable",
      "type": "function"
    },
    {
      "inputs": [],
      "name": "appliedTopDownNonce",
      "outputs": [
        {
          "internalType": "uint64",
          "name": "",
          "type": "uint64"
        }
      ],
      "stateMutability": "view",
      "type": "function"
    },
    {
      "inputs": [],
      "name": "bottomUpCheckPeriod",
      "outputs": [
        {
          "internalType": "uint64",
          "name": "",
          "type": "uint64"
        }
      ],
      "stateMutability": "view",
      "type": "function"
    },
    {
      "inputs": [
        {
          "internalType": "uint64",
          "name": "",
          "type": "uint64"
        }
      ],
      "name": "bottomUpCheckpoints",
      "outputs": [
        {
          "components": [
            {
              "internalType": "address[]",
              "name": "route",
              "type": "address[]"
            }
          ],
          "internalType": "struct SubnetID",
          "name": "source",
          "type": "tuple"
        },
        {
          "internalType": "uint64",
          "name": "epoch",
          "type": "uint64"
        },
        {
          "internalType": "uint256",
          "name": "fee",
          "type": "uint256"
        },
        {
          "internalType": "bytes32",
          "name": "prevHash",
          "type": "bytes32"
        }
      ],
      "stateMutability": "view",
      "type": "function"
    },
    {
      "inputs": [],
      "name": "bottomUpNonce",
      "outputs": [
        {
          "internalType": "uint64",
          "name": "",
          "type": "uint64"
        }
      ],
      "stateMutability": "view",
      "type": "function"
    },
    {
      "inputs": [
        {
          "components": [
            {
              "components": [
                {
                  "internalType": "address[]",
                  "name": "route",
                  "type": "address[]"
                }
              ],
              "internalType": "struct SubnetID",
              "name": "source",
              "type": "tuple"
            },
            {
              "internalType": "uint64",
              "name": "epoch",
              "type": "uint64"
            },
            {
              "internalType": "uint256",
              "name": "fee",
              "type": "uint256"
            },
            {
              "components": [
                {
                  "components": [
                    {
                      "components": [
                        {
                          "components": [
                            {
                              "internalType": "address[]",
                              "name": "route",
                              "type": "address[]"
                            }
                          ],
                          "internalType": "struct SubnetID",
                          "name": "subnetId",
                          "type": "tuple"
                        },
                        {
                          "internalType": "address",
                          "name": "rawAddress",
                          "type": "address"
                        }
                      ],
                      "internalType": "struct IPCAddress",
                      "name": "from",
                      "type": "tuple"
                    },
                    {
                      "components": [
                        {
                          "components": [
                            {
                              "internalType": "address[]",
                              "name": "route",
                              "type": "address[]"
                            }
                          ],
                          "internalType": "struct SubnetID",
                          "name": "subnetId",
                          "type": "tuple"
                        },
                        {
                          "internalType": "address",
                          "name": "rawAddress",
                          "type": "address"
                        }
                      ],
                      "internalType": "struct IPCAddress",
                      "name": "to",
                      "type": "tuple"
                    },
                    {
                      "internalType": "uint256",
                      "name": "value",
                      "type": "uint256"
                    },
                    {
                      "internalType": "uint64",
                      "name": "nonce",
                      "type": "uint64"
                    },
                    {
                      "internalType": "bytes4",
                      "name": "method",
                      "type": "bytes4"
                    },
                    {
                      "internalType": "bytes",
                      "name": "params",
                      "type": "bytes"
                    }
                  ],
                  "internalType": "struct StorableMsg",
                  "name": "message",
                  "type": "tuple"
                },
                {
                  "internalType": "bool",
                  "name": "wrapped",
                  "type": "bool"
                }
              ],
              "internalType": "struct CrossMsg[]",
              "name": "crossMsgs",
              "type": "tuple[]"
            },
            {
              "components": [
                {
                  "components": [
                    {
                      "internalType": "address[]",
                      "name": "route",
                      "type": "address[]"
                    }
                  ],
                  "internalType": "struct SubnetID",
                  "name": "source",
                  "type": "tuple"
                },
                {
                  "internalType": "bytes32[]",
                  "name": "checks",
                  "type": "bytes32[]"
                }
              ],
              "internalType": "struct ChildCheck[]",
              "name": "children",
              "type": "tuple[]"
            },
            {
              "internalType": "bytes32",
              "name": "prevHash",
              "type": "bytes32"
            }
          ],
          "internalType": "struct BottomUpCheckpoint",
          "name": "commit",
          "type": "tuple"
        }
      ],
      "name": "commitChildCheck",
      "outputs": [],
      "stateMutability": "nonpayable",
      "type": "function"
    },
    {
      "inputs": [],
      "name": "crossMsgFee",
      "outputs": [
        {
          "internalType": "uint256",
          "name": "",
          "type": "uint256"
        }
      ],
      "stateMutability": "view",
      "type": "function"
    },
    {
      "inputs": [],
      "name": "executableQueue",
      "outputs": [
        {
          "internalType": "uint64",
          "name": "period",
          "type": "uint64"
        },
        {
          "internalType": "uint64",
          "name": "first",
          "type": "uint64"
        },
        {
          "internalType": "uint64",
          "name": "last",
          "type": "uint64"
        }
      ],
      "stateMutability": "view",
      "type": "function"
    },
    {
      "inputs": [
        {
          "components": [
            {
              "internalType": "address[]",
              "name": "route",
              "type": "address[]"
            }
          ],
          "internalType": "struct SubnetID",
          "name": "subnetId",
          "type": "tuple"
        }
      ],
      "name": "fund",
      "outputs": [],
      "stateMutability": "payable",
      "type": "function"
    },
    {
      "inputs": [],
      "name": "genesisEpoch",
      "outputs": [
        {
          "internalType": "uint64",
          "name": "",
          "type": "uint64"
        }
      ],
      "stateMutability": "view",
      "type": "function"
    },
    {
      "inputs": [],
      "name": "getNetworkName",
      "outputs": [
        {
          "components": [
            {
              "internalType": "address[]",
              "name": "route",
              "type": "address[]"
            }
          ],
          "internalType": "struct SubnetID",
          "name": "",
          "type": "tuple"
        }
      ],
      "stateMutability": "view",
      "type": "function"
    },
    {
      "inputs": [
        {
          "components": [
            {
              "internalType": "address[]",
              "name": "route",
              "type": "address[]"
            }
          ],
          "internalType": "struct SubnetID",
          "name": "subnetId",
          "type": "tuple"
        },
        {
          "internalType": "uint256",
          "name": "index",
          "type": "uint256"
        }
      ],
      "name": "getSubnetTopDownMsg",
      "outputs": [
        {
          "components": [
            {
              "components": [
                {
                  "components": [
                    {
                      "components": [
                        {
                          "internalType": "address[]",
                          "name": "route",
                          "type": "address[]"
                        }
                      ],
                      "internalType": "struct SubnetID",
                      "name": "subnetId",
                      "type": "tuple"
                    },
                    {
                      "internalType": "address",
                      "name": "rawAddress",
                      "type": "address"
                    }
                  ],
                  "internalType": "struct IPCAddress",
                  "name": "from",
                  "type": "tuple"
                },
                {
                  "components": [
                    {
                      "components": [
                        {
                          "internalType": "address[]",
                          "name": "route",
                          "type": "address[]"
                        }
                      ],
                      "internalType": "struct SubnetID",
                      "name": "subnetId",
                      "type": "tuple"
                    },
                    {
                      "internalType": "address",
                      "name": "rawAddress",
                      "type": "address"
                    }
                  ],
                  "internalType": "struct IPCAddress",
                  "name": "to",
                  "type": "tuple"
                },
                {
                  "internalType": "uint256",
                  "name": "value",
                  "type": "uint256"
                },
                {
                  "internalType": "uint64",
                  "name": "nonce",
                  "type": "uint64"
                },
                {
                  "internalType": "bytes4",
                  "name": "method",
                  "type": "bytes4"
                },
                {
                  "internalType": "bytes",
                  "name": "params",
                  "type": "bytes"
                }
              ],
              "internalType": "struct StorableMsg",
              "name": "message",
              "type": "tuple"
            },
            {
              "internalType": "bool",
              "name": "wrapped",
              "type": "bool"
            }
          ],
          "internalType": "struct CrossMsg",
          "name": "",
          "type": "tuple"
        }
      ],
      "stateMutability": "view",
      "type": "function"
    },
    {
      "inputs": [
        {
          "components": [
            {
              "internalType": "address[]",
              "name": "route",
              "type": "address[]"
            }
          ],
          "internalType": "struct SubnetID",
          "name": "subnetId",
          "type": "tuple"
        }
      ],
      "name": "getSubnetTopDownMsgsLength",
      "outputs": [
        {
          "internalType": "uint256",
          "name": "",
          "type": "uint256"
        }
      ],
      "stateMutability": "view",
      "type": "function"
    },
    {
      "inputs": [
        {
          "internalType": "uint64",
          "name": "_genesisEpoch",
          "type": "uint64"
        }
      ],
      "name": "initGenesisEpoch",
      "outputs": [],
      "stateMutability": "nonpayable",
      "type": "function"
    },
    {
      "inputs": [],
      "name": "initialized",
      "outputs": [
        {
          "internalType": "bool",
          "name": "",
          "type": "bool"
        }
      ],
      "stateMutability": "view",
      "type": "function"
    },
    {
      "inputs": [],
      "name": "kill",
      "outputs": [],
      "stateMutability": "nonpayable",
      "type": "function"
    },
    {
      "inputs": [],
      "name": "lastVotingExecutedEpoch",
      "outputs": [
        {
          "internalType": "uint64",
          "name": "",
          "type": "uint64"
        }
      ],
      "stateMutability": "view",
      "type": "function"
    },
    {
      "inputs": [],
      "name": "majorityPercentage",
      "outputs": [
        {
          "internalType": "uint8",
          "name": "",
          "type": "uint8"
        }
      ],
      "stateMutability": "view",
      "type": "function"
    },
    {
      "inputs": [],
      "name": "minStake",
      "outputs": [
        {
          "internalType": "uint256",
          "name": "",
          "type": "uint256"
        }
      ],
      "stateMutability": "view",
      "type": "function"
    },
    {
      "inputs": [
        {
          "internalType": "bytes32",
          "name": "",
          "type": "bytes32"
        }
      ],
      "name": "postbox",
      "outputs": [
        {
          "components": [
            {
              "components": [
                {
                  "components": [
                    {
                      "internalType": "address[]",
                      "name": "route",
                      "type": "address[]"
                    }
                  ],
                  "internalType": "struct SubnetID",
                  "name": "subnetId",
                  "type": "tuple"
                },
                {
                  "internalType": "address",
                  "name": "rawAddress",
                  "type": "address"
                }
              ],
              "internalType": "struct IPCAddress",
              "name": "from",
              "type": "tuple"
            },
            {
              "components": [
                {
                  "components": [
                    {
                      "internalType": "address[]",
                      "name": "route",
                      "type": "address[]"
                    }
                  ],
                  "internalType": "struct SubnetID",
                  "name": "subnetId",
                  "type": "tuple"
                },
                {
                  "internalType": "address",
                  "name": "rawAddress",
                  "type": "address"
                }
              ],
              "internalType": "struct IPCAddress",
              "name": "to",
              "type": "tuple"
            },
            {
              "internalType": "uint256",
              "name": "value",
              "type": "uint256"
            },
            {
              "internalType": "uint64",
              "name": "nonce",
              "type": "uint64"
            },
            {
              "internalType": "bytes4",
              "name": "method",
              "type": "bytes4"
            },
            {
              "internalType": "bytes",
              "name": "params",
              "type": "bytes"
            }
          ],
          "internalType": "struct StorableMsg",
          "name": "message",
          "type": "tuple"
        },
        {
          "internalType": "bool",
          "name": "wrapped",
          "type": "bool"
        }
      ],
      "stateMutability": "view",
      "type": "function"
    },
    {
      "inputs": [
        {
          "internalType": "bytes32",
          "name": "",
          "type": "bytes32"
        },
        {
          "internalType": "address",
          "name": "",
          "type": "address"
        }
      ],
      "name": "postboxHasOwner",
      "outputs": [
        {
          "internalType": "bool",
          "name": "",
          "type": "bool"
        }
      ],
      "stateMutability": "view",
      "type": "function"
    },
    {
      "inputs": [
        {
          "internalType": "bytes32",
          "name": "msgCid",
          "type": "bytes32"
        }
      ],
      "name": "propagate",
      "outputs": [],
      "stateMutability": "payable",
      "type": "function"
    },
    {
      "inputs": [],
      "name": "register",
      "outputs": [],
      "stateMutability": "payable",
      "type": "function"
    },
    {
      "inputs": [],
      "name": "release",
      "outputs": [],
      "stateMutability": "payable",
      "type": "function"
    },
    {
      "inputs": [
        {
          "internalType": "uint256",
          "name": "amount",
          "type": "uint256"
        }
      ],
      "name": "releaseStake",
      "outputs": [],
      "stateMutability": "nonpayable",
      "type": "function"
    },
    {
      "inputs": [
        {
          "components": [
            {
              "internalType": "address[]",
              "name": "route",
              "type": "address[]"
            }
          ],
          "internalType": "struct SubnetID",
          "name": "destination",
          "type": "tuple"
        },
        {
          "components": [
            {
              "components": [
                {
                  "components": [
                    {
                      "components": [
                        {
                          "internalType": "address[]",
                          "name": "route",
                          "type": "address[]"
                        }
                      ],
                      "internalType": "struct SubnetID",
                      "name": "subnetId",
                      "type": "tuple"
                    },
                    {
                      "internalType": "address",
                      "name": "rawAddress",
                      "type": "address"
                    }
                  ],
                  "internalType": "struct IPCAddress",
                  "name": "from",
                  "type": "tuple"
                },
                {
                  "components": [
                    {
                      "components": [
                        {
                          "internalType": "address[]",
                          "name": "route",
                          "type": "address[]"
                        }
                      ],
                      "internalType": "struct SubnetID",
                      "name": "subnetId",
                      "type": "tuple"
                    },
                    {
                      "internalType": "address",
                      "name": "rawAddress",
                      "type": "address"
                    }
                  ],
                  "internalType": "struct IPCAddress",
                  "name": "to",
                  "type": "tuple"
                },
                {
                  "internalType": "uint256",
                  "name": "value",
                  "type": "uint256"
                },
                {
                  "internalType": "uint64",
                  "name": "nonce",
                  "type": "uint64"
                },
                {
                  "internalType": "bytes4",
                  "name": "method",
                  "type": "bytes4"
                },
                {
                  "internalType": "bytes",
                  "name": "params",
                  "type": "bytes"
                }
              ],
              "internalType": "struct StorableMsg",
              "name": "message",
              "type": "tuple"
            },
            {
              "internalType": "bool",
              "name": "wrapped",
              "type": "bool"
            }
          ],
          "internalType": "struct CrossMsg",
          "name": "crossMsg",
          "type": "tuple"
        }
      ],
      "name": "sendCross",
      "outputs": [],
      "stateMutability": "payable",
      "type": "function"
    },
    {
      "inputs": [
        {
          "internalType": "address[]",
          "name": "validators",
          "type": "address[]"
        },
        {
          "internalType": "uint256[]",
          "name": "weights",
          "type": "uint256[]"
        }
      ],
      "name": "setMembership",
      "outputs": [],
      "stateMutability": "nonpayable",
      "type": "function"
    },
    {
      "inputs": [],
      "name": "submissionPeriod",
      "outputs": [
        {
          "internalType": "uint64",
          "name": "",
          "type": "uint64"
        }
      ],
      "stateMutability": "view",
      "type": "function"
    },
    {
      "inputs": [
        {
          "components": [
            {
              "internalType": "uint64",
              "name": "epoch",
              "type": "uint64"
            },
            {
              "components": [
                {
                  "components": [
                    {
                      "components": [
                        {
                          "components": [
                            {
                              "internalType": "address[]",
                              "name": "route",
                              "type": "address[]"
                            }
                          ],
                          "internalType": "struct SubnetID",
                          "name": "subnetId",
                          "type": "tuple"
                        },
                        {
                          "internalType": "address",
                          "name": "rawAddress",
                          "type": "address"
                        }
                      ],
                      "internalType": "struct IPCAddress",
                      "name": "from",
                      "type": "tuple"
                    },
                    {
                      "components": [
                        {
                          "components": [
                            {
                              "internalType": "address[]",
                              "name": "route",
                              "type": "address[]"
                            }
                          ],
                          "internalType": "struct SubnetID",
                          "name": "subnetId",
                          "type": "tuple"
                        },
                        {
                          "internalType": "address",
                          "name": "rawAddress",
                          "type": "address"
                        }
                      ],
                      "internalType": "struct IPCAddress",
                      "name": "to",
                      "type": "tuple"
                    },
                    {
                      "internalType": "uint256",
                      "name": "value",
                      "type": "uint256"
                    },
                    {
                      "internalType": "uint64",
                      "name": "nonce",
                      "type": "uint64"
                    },
                    {
                      "internalType": "bytes4",
                      "name": "method",
                      "type": "bytes4"
                    },
                    {
                      "internalType": "bytes",
                      "name": "params",
                      "type": "bytes"
                    }
                  ],
                  "internalType": "struct StorableMsg",
                  "name": "message",
                  "type": "tuple"
                },
                {
                  "internalType": "bool",
                  "name": "wrapped",
                  "type": "bool"
                }
              ],
              "internalType": "struct CrossMsg[]",
              "name": "topDownMsgs",
              "type": "tuple[]"
            }
          ],
          "internalType": "struct TopDownCheckpoint",
          "name": "checkpoint",
          "type": "tuple"
        }
      ],
      "name": "submitTopDownCheckpoint",
      "outputs": [],
      "stateMutability": "nonpayable",
      "type": "function"
    },
    {
      "inputs": [
        {
          "internalType": "bytes32",
          "name": "",
          "type": "bytes32"
        }
      ],
      "name": "subnets",
      "outputs": [
        {
          "internalType": "enum Status",
          "name": "status",
          "type": "uint8"
        },
        {
          "internalType": "uint64",
          "name": "topDownNonce",
          "type": "uint64"
        },
        {
          "internalType": "uint64",
          "name": "appliedBottomUpNonce",
          "type": "uint64"
        },
        {
          "internalType": "uint256",
          "name": "stake",
          "type": "uint256"
        },
        {
          "internalType": "uint256",
          "name": "genesisEpoch",
          "type": "uint256"
        },
        {
          "internalType": "uint256",
          "name": "circSupply",
          "type": "uint256"
        },
        {
          "components": [
            {
              "internalType": "address[]",
              "name": "route",
              "type": "address[]"
            }
          ],
          "internalType": "struct SubnetID",
          "name": "id",
          "type": "tuple"
        },
        {
          "components": [
            {
              "components": [
                {
                  "internalType": "address[]",
                  "name": "route",
                  "type": "address[]"
                }
              ],
              "internalType": "struct SubnetID",
              "name": "source",
              "type": "tuple"
            },
            {
              "internalType": "uint64",
              "name": "epoch",
              "type": "uint64"
            },
            {
              "internalType": "uint256",
              "name": "fee",
              "type": "uint256"
            },
            {
              "components": [
                {
                  "components": [
                    {
                      "components": [
                        {
                          "components": [
                            {
                              "internalType": "address[]",
                              "name": "route",
                              "type": "address[]"
                            }
                          ],
                          "internalType": "struct SubnetID",
                          "name": "subnetId",
                          "type": "tuple"
                        },
                        {
                          "internalType": "address",
                          "name": "rawAddress",
                          "type": "address"
                        }
                      ],
                      "internalType": "struct IPCAddress",
                      "name": "from",
                      "type": "tuple"
                    },
                    {
                      "components": [
                        {
                          "components": [
                            {
                              "internalType": "address[]",
                              "name": "route",
                              "type": "address[]"
                            }
                          ],
                          "internalType": "struct SubnetID",
                          "name": "subnetId",
                          "type": "tuple"
                        },
                        {
                          "internalType": "address",
                          "name": "rawAddress",
                          "type": "address"
                        }
                      ],
                      "internalType": "struct IPCAddress",
                      "name": "to",
                      "type": "tuple"
                    },
                    {
                      "internalType": "uint256",
                      "name": "value",
                      "type": "uint256"
                    },
                    {
                      "internalType": "uint64",
                      "name": "nonce",
                      "type": "uint64"
                    },
                    {
                      "internalType": "bytes4",
                      "name": "method",
                      "type": "bytes4"
                    },
                    {
                      "internalType": "bytes",
                      "name": "params",
                      "type": "bytes"
                    }
                  ],
                  "internalType": "struct StorableMsg",
                  "name": "message",
                  "type": "tuple"
                },
                {
                  "internalType": "bool",
                  "name": "wrapped",
                  "type": "bool"
                }
              ],
              "internalType": "struct CrossMsg[]",
              "name": "crossMsgs",
              "type": "tuple[]"
            },
            {
              "components": [
                {
                  "components": [
                    {
                      "internalType": "address[]",
                      "name": "route",
                      "type": "address[]"
                    }
                  ],
                  "internalType": "struct SubnetID",
                  "name": "source",
                  "type": "tuple"
                },
                {
                  "internalType": "bytes32[]",
                  "name": "checks",
                  "type": "bytes32[]"
                }
              ],
              "internalType": "struct ChildCheck[]",
              "name": "children",
              "type": "tuple[]"
            },
            {
              "internalType": "bytes32",
              "name": "prevHash",
              "type": "bytes32"
            }
          ],
          "internalType": "struct BottomUpCheckpoint",
          "name": "prevCheckpoint",
          "type": "tuple"
        }
      ],
      "stateMutability": "view",
      "type": "function"
    },
    {
      "inputs": [],
      "name": "topDownCheckPeriod",
      "outputs": [
        {
          "internalType": "uint64",
          "name": "",
          "type": "uint64"
        }
      ],
      "stateMutability": "view",
      "type": "function"
    },
    {
      "inputs": [],
      "name": "totalSubnets",
      "outputs": [
        {
          "internalType": "uint64",
          "name": "",
          "type": "uint64"
        }
      ],
      "stateMutability": "view",
      "type": "function"
    },
    {
      "inputs": [],
      "name": "totalWeight",
      "outputs": [
        {
          "internalType": "uint256",
          "name": "",
          "type": "uint256"
        }
      ],
      "stateMutability": "view",
      "type": "function"
    },
    {
      "inputs": [],
      "name": "validatorNonce",
      "outputs": [
        {
          "internalType": "uint256",
          "name": "",
          "type": "uint256"
        }
      ],
      "stateMutability": "view",
      "type": "function"
    },
    {
      "inputs": [
        {
          "internalType": "uint256",
          "name": "",
          "type": "uint256"
        },
        {
          "internalType": "address",
          "name": "",
          "type": "address"
        }
      ],
      "name": "validatorSet",
      "outputs": [
        {
          "internalType": "uint256",
          "name": "",
          "type": "uint256"
        }
      ],
      "stateMutability": "view",
      "type": "function"
    },
    {
      "inputs": [
        {
          "internalType": "bytes32",
          "name": "msgCid",
          "type": "bytes32"
        },
        {
          "internalType": "address[]",
          "name": "owners",
          "type": "address[]"
        }
      ],
      "name": "whitelistPropagator",
      "outputs": [],
      "stateMutability": "nonpayable",
      "type": "function"
    }
  ],
  "bytecode": "0x610140604090808252346200047d57620063f28038038091620000238285620004d5565b833981019160209182818503126200047d5780516001600160401b03918282116200047d57019360a0858203126200047d5782519060a082019082821084831117620004a35781855286518481116200047d57870186818303126200047d576200008d83620004b9565b8051908582116200047d57019080601f830112156200047d57815191858311620004a3578260051b90875193620000c78a840186620004d5565b845288808501928201019283116200047d578801905b828210620004825750505081528152620000f9848601620004f9565b938082019485526200010d848701620004f9565b84830193818552608060608901519860608601998a52015160ff8116928382036200047d57829160808701521690600195600093878555606481116200046c5760805281600a93848110600014620004665750835b8060a0521660018060401b0319600254161760025560ff199586601054166010555151988951838111620004525768010000000000000000811162000452578660049b8c838154915580841062000425575b509085939291018c88528888208b895b84811062000406575050505050670de0b6b3a764000060c0525116838110600014620004005750825b60e052511681811015620003f75750965b6101009788525195610120968752828651916200021b83620004b9565b87518154808252828652838620848301959291875b8b828210620003d857505050506200024c8185960382620004d5565b815288519384926310c5511f60e31b84528301526044820190519083602484015281518091528360648401920190865b8a828210620003b757505050508190038173__$3fbe32418a9ca7804328967972fb037388$__5af4928315620003ad57829362000364575b50505062000354575b50505190615ee392836200050f843960805183818161172b0152615c93015260a0518381816110b8015281816120ad0152615c63015260c0518381816119b901528181611d420152611f32015260e05183818161340401526156c50152518261145c01525181818161133f0152818161153e015281816117e101528181611dee01528181611ebd01528181614db401526152c00152f35b60105416176010553880620002bd565b9080929350813d8311620003a5575b6200037f8183620004d5565b81010312620003a157519081151582036200039e5750388080620002b4565b80fd5b5080fd5b503d62000373565b86513d84823e3d90fd5b83516001600160a01b0316855289968896509485019490930192016200027c565b83546001600160a01b0316895296909701968996928301920162000230565b905096620001fe565b620001ed565b83516001600160a01b031683820155889650928b01928d9101620001c4565b8d89528b84848b2092830192015b82811062000443575050620001b4565b8a81558b94508d910162000433565b634e487b7160e01b86526041600452602486fd5b62000162565b88516375c3b42760e01b8152600490fd5b600080fd5b81516001600160a01b03811681036200047d578152908801908801620000dd565b634e487b7160e01b600052604160045260246000fd5b602081019081106001600160401b03821117620004a357604052565b601f909101601f19168101906001600160401b03821190821017620004a357604052565b51906001600160401b03821682036200047d5756fe6080604052600436101561001257600080fd5b6000803560e01c806302e30f9a1461342857806306c46853146133e45780630eb4e56d1461240957806310d500e1146123cb57806311c5080e146121da57806313f35388146120f4578063158ef93e146120d1578063185fde7e1461208d5780631aa3a00814611f24578063223d905614611ee05780632472942514611ea557806325bf0db614611ddc5780632cc14ea214611d65578063375b3c0a14611d2a5780633c8fe6bf14611ce157806341b6a2e814611cba57806341c0e1b514611ad657806345f54485146119575780634935bc9b1461174f578063599c7bd1146117115780635a627dbc146116b9578063689e5cbd146114c95780637438c268146114805780637d9740f41461143c57806386d1a69f146112ed5780638789f83b146112c35780638cfd78e71461126f57806394074b031461123057806396c82e5714611212578063a2b67158146111eb578063ad81e244146111c4578063b70e6be61461119a578063e17a684f1461117c578063f05a1be014610481578063f75bc5571461026b5763fb59fa61146101a957600080fd5b34610268576040366003190112610268576004356001600160401b03811161026457610246610239610260936101e661024c943690600401613cdd565b9060206040516101f581613667565b60405161020181613636565b610209613ea8565b8152610213613ea8565b83820152836040820152836060820152836080820152606060a082015281520152615a8b565b6024359150600b01613ed0565b50613937565b604051918291602083526020830190613bfc565b0390f35b5080fd5b80fd5b5034610268576040366003190112610268576001600160401b0360043581811161047d5761029d903690600401613c77565b9060243590811161047d573660238201121561047d578060040135906102c2826137ab565b906102d060405192836136b0565b82825260209260248484019160051b83010191368311610479576024859101915b8383106104695750505050604051635d3f8a6960e01b8152336004820152828160248173__$32813765d87f0bbc231ef494a6a627f37b$__5af490811561045e578591610425575b501561041357825181510361040157600d80549160001983146103ed57600193848094018355869587955b610371575b8787600b5580f35b8096949596518710156103e5576001600160a01b0361039088836148ac565b51169461039d88856148ac565b519586156103d357879687926103cb9288548d52600c875260408d20906000528652816040600020556140bb565b970195610364565b60405163389b457d60e01b8152600490fd5b849650610369565b634e487b7160e01b86526011600452602486fd5b60405163465f0a7d60e01b8152600490fd5b60405163f0d97f3b60e01b8152600490fd5b90508281813d8311610457575b61043c81836136b0565b810103126104535761044d90613f02565b38610339565b8480fd5b503d610432565b6040513d87823e3d90fd5b82358152918101918591016102f1565b8680fd5b8280fd5b503461026857600319602036820112610264576001600160401b0360043511610264576040906004353603011261026857604051630972932760e21b815233600482015260208160248173__$32813765d87f0bbc231ef494a6a627f37b$__5af4908115610d9a578291611142575b5015611130576105046004356004016142a3565b6001600160401b036001549116906001600160401b03811682111561111e5760401c6001600160401b0316808211918261109d575b505061108b57600d548152600c60205260408120338252602052604081205460ff60105416156110795780156110675761057d602460043501600435600401614542565b604051918291638984147560e01b835280602484016020600486015252604483019060448160051b85010192809288915b838310610ee657898988602081808b038173__$c0560e63386df2470ca6214f90e7038fc9$__5af4908115610edb578391610ea1575b5015610e8f576001600160401b036106006004356004016142a3565b1682526011602052604082206040519161061983613667565b610627600435600401613c39565b8352602460043501356001600160401b0381116104535761067393610655602092600436918135010161450b565b8282015260405180958192630edf122560e41b835260048301614944565b038173__$0a9cb18d668a182017fbed71517bdc4411$__5af4928315610e84578493610e50575b506106a96004356004016142a3565b600b54918592845491828852600386016020526040882033895260205260ff604089205416610e3e57828791610778948a526003880160205260408a20338b5260205260408a20600160ff198254161790556001880161070a8282546140bb565b9055818a526004880160205260408a20838b5260205261072f60408b209182546140bb565b9055808952600487016020526040892090600288019182548b5260205260408a2054908a526004880160205260408a20838b5260205260408a205411610e36575b505084615c8f565b6004811015610e225785919060038103610da5575061079681615c50565b15610d13575050506001915b808452600582016020526107f86020604086206107da6001604051926107c784613667565b6001600160401b03815416845201613961565b8282015260405180938192632d34315760e01b835260048301614944565b038173__$0a9cb18d668a182017fbed71517bdc4411$__5af490811561045e578591610cd9575b50610955575b506060916108f4575b50805115610861575b61085e9060405161084781613682565b8381526040519061085782613682565b8152615307565b80f35b6001600160401b0360025460401c169061087a82615c50565b610886575b9050610837565b508152601160205261089a60408220614917565b80546108a5816137ab565b916108b360405193846136b0565b81835283526020808420849184015b8383106108d6575050505061085e9061087f565b600860206001926108e685613937565b8152019201920191906108c2565b6108fe9150614917565b8054610909816137ab565b9161091760405193846136b0565b81835283526020808420849184015b83831061093757505050508261082e565b6008602060019261094785613937565b815201920192019190610926565b8352600581016020526001604084206001600160401b0361097a6004356004016142a3565b166001600160401b03198254161781550161099f602460043501600435600401614542565b906109aa82846141af565b918552602085208592805b8385106109c55750505050610825565b6109cf8183614577565b906109da828061458c565b6109e48180614577565b6109f76109f1828061428e565b80614542565b906001600160401b038211610caa57610a10828961403e565b878d5260208d208d5b838110610cbe5750505060018701916001600160a01b039150610a3e906020016145a1565b82546001600160a01b0319169116179055610a5c6020820182614577565b610a696109f1828061428e565b906001600160401b038211610caa576002880190610a87838361403e565b908d5260208d208d5b838110610c8f5750505060038701916001600160a01b039150610ab5906020016145a1565b82546001600160a01b031916911617905560408101356004860155600585016001600160401b03610ae8606084016142a3565b825467ffffffffffffffff1916911617815560808201356001600160e01b031981168103610c8b57815463ffffffff60401b191660a09190911c63ffffffff60401b1617905560a081013590601e1981360301821215610c87576001600160401b038282013511610c875781810135360360208383010113610c8757610b8182820135610b7860068901546137f0565b600689016145b5565b8a90601f8382013511600114610c09578b9183820135610bf9575b508281013560011b9260001991013560031b1c19161760068501555b60208201358015159003610bf5576020600891610be9826001950135600788019060ff801983541691151516179055565b019301940193916109b5565b8880fd5b838201016020013591508c610b9c565b600687018c5260208c208c93925b82840135601f19168510610c6b576001945082840135601f19811610610c49575b50500135811b016006850155610bb8565b602060001960f88686013560031b161c19918585010101351690558c80610c38565b6020838501820181013583559485019460019092019101610c17565b8a80fd5b8b80fd5b6001906020610c9d856145a1565b9401938184015501610a90565b634e487b7160e01b8d52604160045260248dfd5b6001906020610ccc856145a1565b9401938184015501610a19565b90506020813d602011610d0b575b81610cf4602093836136b0565b8101031261045357610d0590613f02565b8561081f565b3d9150610ce7565b93919373__$88f0b3a7bab8ecb2fea9a8f5f75de2c742$__3b15610264576001600160401b036040519163199b9ca560e01b835260026004840152166024820152818160448173__$88f0b3a7bab8ecb2fea9a8f5f75de2c742$__5af48015610d9a57610d82575b50506107a2565b610d8b9061369d565b610d96578385610d7b565b8380fd5b6040513d84823e3d90fd5b905060029150939193036107a25773__$d26482cb557e208ab49c238f67c0ea9bf4$__3b15610d9657604051635a27a53960e11b815260048101839052848160248173__$d26482cb557e208ab49c238f67c0ea9bf4$__5af4801561045e57610e0f575b506107a2565b610e1b9094919461369d565b9284610e09565b634e487b7160e01b86526021600452602486fd5b558588610770565b6040516337138f5f60e11b8152600490fd5b9092506020813d602011610e7c575b81610e6c602093836136b0565b81010312610d965751918461069a565b3d9150610e5f565b6040513d86823e3d90fd5b604051630bd9169f60e01b8152600490fd5b90506020813d602011610ed3575b81610ebc602093836136b0565b8101031261047d57610ecd90613f02565b836105e4565b3d9150610eaf565b6040513d85823e3d90fd5b91939550919360431987820301835288610f0087846148c0565b60be1981360301813512156102645760408352610f2081358201806148c0565b92610f3860c0948560408401526101008301906148d4565b93610f61610f4d8435850160208101906148c0565b95606096603f1985830301888601526148d4565b906001600160401b03610f866080976040878035010135898701528680350101613c39565b169560a09687850152610fa563ffffffff60e01b918680350101613d65565b16908301528235830136819003601e1901908601351215610d96576001600160401b038335840186810135013511610d965782358301858101350180353603602090910113610d9657818103603f190160e08301528235830180860135018035808352600196602096879687969294601f9491939291908801878901378235830185810135013586018701528561103d838201613d95565b151591015281199281803501918035010135013501160101970193019301909286959492936105ae565b604051632ec5b44960e01b8152600490fd5b6040516321c4e35760e21b8152600490fd5b60405163b4f68f9760e01b8152600490fd5b0390506001600160401b03811161110a576001600160401b037f0000000000000000000000000000000000000000000000000000000000000000169081156110f657906001600160401b03809216061615153880610539565b634e487b7160e01b83526012600452602483fd5b634e487b7160e01b82526011600452602482fd5b604051631f30cc6360e21b8152600490fd5b604051630a23da2b60e31b8152600490fd5b90506020813d602011611174575b8161115d602093836136b0565b810103126102645761116e90613f02565b386104f0565b3d9150611150565b50346102685780600319360112610268576020600d54604051908152f35b503461026857806003193601126102685760206001600160401b0360015460401c16604051908152f35b503461026857806003193601126102685760206001600160401b0360015416604051908152f35b503461026857806003193601126102685760206001600160401b0360055416604051908152f35b50346102685780600319360112610268576020600b54604051908152f35b5034610268578060031936011261026857606060405161124f81613682565b5261026061125b6136d1565b604051918291602083526020830190613ad3565b50346102685760203660031901126102685760406112b791600435815260076020522060ff600761129f8361382a565b92015416604051928392604084526040840190613b8a565b90151560208301520390f35b503461026857806003193601126102685760206001600160401b03600a5460401c16604051908152f35b508060031936011261026857604051630972932760e21b815233600482015260208160248173__$32813765d87f0bbc231ef494a6a627f37b$__5af4908115610d9a578291611403575b5015611130577f00000000000000000000000000000000000000000000000000000000000000008034106113f15761136f90346140c8565b81604051808093632c9680ef60e01b825260606004830152611393606483016147f8565b903360248401526044830152038173__$c0560e63386df2470ca6214f90e7038fc9$__5af48015610d9a5761085e9183916113cf575b50615292565b6113eb91503d8085833e6113e381836136b0565b810190614685565b386113c9565b6040516334472ad760e11b8152600490fd5b90506020813d8211611434575b8161141d602093836136b0565b810103126102645761142e90613f02565b38611337565b3d9150611410565b503461026857806003193601126102685760206040516001600160401b037f0000000000000000000000000000000000000000000000000000000000000000168152f35b503461026857602036600319011261026857600435906001600160401b038211610268576020600b6114bd6114b83660048701613cdd565b615a8b565b90500154604051908152f35b506003196020368201811361047d57600435916001600160401b038311610d9657819083600401933603011261047d57604051630972932760e21b8152336004820152818160248173__$32813765d87f0bbc231ef494a6a627f37b$__5af4908115610e84578491611684575b5015611130577f0000000000000000000000000000000000000000000000000000000000000000908134106113f15761156f82346140c8565b846040518080936302334d7960e51b825260606004830152611594606483018961477b565b903360248401526044830152038173__$c0560e63386df2470ca6214f90e7038fc9$__5af4801561045e57611601946115d96115e0928594899161166a575b50615193565b3690613cdd565b60405180958192632cff562160e11b83528460048401526024830190613ad3565b038173__$3fbe32418a9ca7804328967972fb037388$__5af4908115610e84578491611633575b5061085e92506157ce565b905082813d8311611663575b61164981836136b0565b8101031261047d5761165d61085e92613f0f565b38611628565b503d61163f565b61167e91503d808b833e6113e381836136b0565b386115d3565b90508181813d83116116b2575b61169b81836136b0565b81010312610d96576116ac90613f02565b38611536565b503d611691565b50806003193601126102685734156116ff576116d4336159a1565b90156116ed576001016116e83482546140bb565b905580f35b604051630e991abd60e41b8152600490fd5b604051631036b5ad60e31b8152600490fd5b5034610268578060031936011261026857602060405160ff7f0000000000000000000000000000000000000000000000000000000000000000168152f35b50600319604036820112610264576001600160401b0390600435828111610d965761177e903690600401613cdd565b91602435908111610d9657611797903690600401613da2565b604051630972932760e21b81523360048201529091602091828160248173__$32813765d87f0bbc231ef494a6a627f37b$__5af490811561194c578691611913575b5015611130577f000000000000000000000000000000000000000000000000000000000000000034106113f1578161183f916040518093819263c836244d60e01b835260406004840152611830604484018a613ad3565b908382030160248401526147f8565b038173__$3fbe32418a9ca7804328967972fb037388$__5af490811561045e5785916118de575b506118cc5734604083510151036116ff5781518101518101516001600160a01b0316156118ba5761085e928183510151528151516118a26136d1565b9052339082515101526118b481614986565b91614ce3565b604051637c5d310960e11b8152600490fd5b604051632f3335ff60e21b8152600490fd5b90508181813d831161190c575b6118f581836136b0565b810103126104535761190690613f02565b38611866565b503d6118eb565b90508281813d8311611945575b61192a81836136b0565b810103126119415761193b90613f02565b386117d9565b8580fd5b503d611920565b6040513d88823e3d90fd5b503461026857602080600319360112610264576004356002835414611a9157600283558015611a7f57611989336159a1565b9290156116ed576001830192835493838510611a6d57600483926115e0926119b4876119e4996140c8565b8091557f000000000000000000000000000000000000000000000000000000000000000011611a5d575b01613746565b038173__$3fbe32418a9ca7804328967972fb037388$__5af4908115610e84578491611a26575b50611a1f92506001600160a01b0316615e62565b6001815580f35b905082813d8311611a56575b611a3c81836136b0565b8101031261047d57611a50611a1f92613f0f565b38611a0b565b503d611a32565b805460ff191660031781556119de565b6040516379b33e7960e01b8152600490fd5b604051631209aa7360e31b8152600490fd5b60405162461bcd60e51b815260048101839052601f60248201527f5265656e7472616e637947756172643a207265656e7472616e742063616c6c006044820152606490fd5b5034610268578060031936011261026857611af0336159a1565b90156116ed576003810154611ca857600180820154916005546001600160401b0360001981831601818111611c945767ffffffffffffffff19909216911617600555611b689190611b4390600401613746565b604051906390ba52cf60e01b8252818060209586938460048401526024830190613ad3565b038173__$3fbe32418a9ca7804328967972fb037388$__5af490811561045e578591611c67575b50845260068252604084209184835584828401556002918583850155856003850155611bbd60048501614018565b611bc960058501614018565b856006850155856007850155611be160088501614162565b600984019182549287815583611c0f575b8761085e88611c09600b8a85600a82015501614162565b33615e62565b6001600160ff1b0384168403611c53578752862091811b8201915b828110611c375780611bf2565b80611c428592614018565b611c4d838201614216565b01611c2a565b634e487b7160e01b88526011600452602488fd5b90508281813d8311611c8d575b611c7e81836136b0565b81010312610453575138611b8f565b503d611c74565b634e487b7160e01b87526011600452602487fd5b604051637c67c70160e11b8152600490fd5b503461026857806003193601126102685760206001600160401b03600a5416604051908152f35b50346102685760403660031901126102685760ff6040602092611d02613c4d565b6004358252600885528282206001600160a01b03909116825284522054604051911615158152f35b503461026857806003193601126102685760206040517f00000000000000000000000000000000000000000000000000000000000000008152f35b503461026857602036600319011261026857611dc89060406001600160401b039182611d8f613c1e565b168152600960205220611da181613746565b91600182015416906005600282015491015490604051948594608086526080860190613ad3565b926020850152604084015260608301520390f35b506020366003190112610268576004357f00000000000000000000000000000000000000000000000000000000000000008034106113f15781835260086020526040832033845260205260ff60408420541615611e935781611e809284526007602052611e67611e6260408620611e5a611e5582613937565b614986565b929091613937565b614ce3565b83526007602052611e7a604084206140d5565b346140c8565b80611e89575080f35b61085e9033615e62565b6040516377f0d98160e11b8152600490fd5b503461026857806003193601126102685760206040517f00000000000000000000000000000000000000000000000000000000000000008152f35b5034610268576040366003190112610268576040602091611eff613c4d565b6004358252600c84528282206001600160a01b03909116825283522054604051908152f35b5080600319360112610268577f000000000000000000000000000000000000000000000000000000000000000034106116ff57611f7f81611f636136d1565b6040518093819263aa5106cb60e01b8352339060048401613fd9565b038173__$3fbe32418a9ca7804328967972fb037388$__5af4908115610d9a57829161206b575b50611fb081615a8b565b9061205957600481019151918251906001600160401b039384831161204557611fd9838361403e565b602080910191865280862090865b84811061202a57878787346001820155600260ff1982541617815560024391015560055490612017818316614072565b16906001600160401b0319161760055580f35b83516001600160a01b03168382015592810192600101611fe7565b634e487b7160e01b86526041600452602486fd5b604051631b538cdf60e11b8152600490fd5b61208791503d8084833e61207f81836136b0565b810190613fb4565b38611fa6565b503461026857806003193601126102685760206040516001600160401b037f0000000000000000000000000000000000000000000000000000000000000000168152f35b5034610268578060031936011261026857602060ff601054166040519015158152f35b50346102685760203660031901126102685761210e613c1e565b604051635d3f8a6960e01b815233600482015260208160248173__$32813765d87f0bbc231ef494a6a627f37b$__5af4908115610edb5783916121a1575b50156104135760105460ff81166121905760019167ffffffffffffffff60401b83549160401b169067ffffffffffffffff60401b191617825560ff19161760105580f35b60405162dc149f60e41b8152600490fd5b90506020813d82116121d2575b816121bb602093836136b0565b8101031261047d576121cc90613f02565b3861214c565b3d91506121ae565b5034610268576040366003190112610268576001600160401b0360043560248035838111610453573660238201121561045357806004013593841161045357600591368186851b840101116119415783865260089060209282845260408820338952845260ff948560408a20541615611e93578689526007855261226861226360408b20613937565b615d85565b60405161227481613682565b8a81526040519061228482613682565b81526040519061229382613667565b81528a878201526040516122a681613682565b8b8152604051906122b682613682565b8152604051906122c582613667565b81528b88820152604051906122d982613682565b8c8252604051926122e984613636565b8352888301528b60408301528b60608301528b608083015260a08201526040519061231382613667565b81528a87820152604051612343816123358a8201948b86526040830190613bfc565b03601f1981018352826136b0565b519020146123b957885b888110612358578980f35b8061236a85600193851b8601016145a1565b898c5286885260408c2090838060a01b031690818d5288528860408d20541615612396575b500161234d565b898c5286885260408c20908c52875260408b208260ff198254161790553861238f565b604051632449894160e01b8152600490fd5b50346102685780600319360112610268576060600254604051906001600160401b03908181168352818160401c16602084015260801c166040820152f35b503461026857600319602036820112610264576001600160401b03600435116102645760c090600435360301126102685760ff60105416156110795761248260206124613661245c60048035018061428e565b613cdd565b60405180938192632cff562160e11b83528460048401526024830190613ad3565b038173__$3fbe32418a9ca7804328967972fb037388$__5af48015610d9a5782906133a9575b6124b29150615da8565b336001600160a01b0390911603613397576124cc336159a1565b91905060ff825416600681101561338357600203613371576001600160401b036006830154166001600160401b036125086024600435016142a3565b161061335f5760a460043501351515806132cb575b6132b95761256a9061252d6156ba565b93911561327f575b60206125493661245c60048035018061428e565b604051809481926390ba52cf60e01b83528460048401526024830190613ad3565b038173__$3fbe32418a9ca7804328967972fb037388$__5af4918215610edb57839261324b575b5060405161259e81613636565b6001600160401b036004356004013511610d96576125c53660048035808201350101613cdd565b81526125d5602460043501613c39565b602082015260043560448101356040830152606401356001600160401b0381116104535761260a90600436918135010161450b565b6060820152608460043501356001600160401b03811161045357366023826004350101121561045357600481813501013590612645826137ab565b9161265360405193846136b0565b808352602083013660248360051b8560043501010111612e29576024836004350101905b60248360051b85600435010101821061311d57505050508160209160806126c2969594015260a4600435013560a0820152604051809581926339aa47fb60e01b835260048301614313565b038173__$0a9cb18d668a182017fbed71517bdc4411$__5af4928315610e845784936130e9575b506001600160401b0381168452600e6020526040842082855260205260408420604051908186905b600282106130d35750505061272581613667565b600160208251920151146001600160401b0383168652600f602052604086208487526020526040862085875260205260ff6040872054166130c15715612f7b575b6127738160048801614526565b50600181015490600160401b821015612f675760018201806001830155821015612f53576001600160401b03939291600187920188526020882001558282168652600e6020526040862084875260205260408620558181168552600e60205260408520838652602052600180604087200155168352600f602052604083209083526020526040822090825260205260408120600160ff19825416179055809281935b612829606460043501600435600401614542565b905085101561289257612846606460043501600435600401614542565b86101561287e57600191604061286e612868612876948a60051b810190614577565b8061458c565b0135906140bb565b940193612815565b634e487b7160e01b84526032600452602484fd5b6128b0906128aa6002860154604460043501356140bb565b906140bb565b6128c4606460043501600435600401614542565b159050612f4d5760015b6001600160401b036128e860ff600a5493168284166140a0565b16906001600160401b03191617600a55600382015490808210612f3b5761290e916140c8565b60038201556129246109f160048035018061428e565b906001600160401b038211612bd1576005830190612942838361403e565b90845260208420845b838110612f205785856001600160401b0361296a6024600435016142a3565b166001600160401b03196006830154161760068201556044600435013560078201556129a0606460043501600435600401614542565b6129ad81600885016141af565b600883018452602084208492805b838510612be55786866129d8608460043501600435600401614542565b90600160401b8211612bd1576009830154826009850155808310612b62575b50600983018452602084208491805b848410612a74578686600a60a46004350135910155612a64612a56612a5e612a3860043560040160043560040161428e565b612a4c606460043501600435600401614542565b9390913690613cdd565b92369161449c565b90615307565b61085e60446004350135336157ce565b612a7e8183614577565b612a8b6109f1828061428e565b906001600160401b038211612b4e57612aa4828761403e565b858a5260208a208a5b838110612b335750505050806020612ac6920190614542565b906001600160401b038211612b1f576001850190612ae4838361424b565b90895260208920895b838110612b0b57505050506002602060019201930193019291612a06565b600190602084359401938184015501612aed565b634e487b7160e01b89526041600452602489fd5b6001906020612b41856145a1565b9401938184015501612aad565b634e487b7160e01b8a52604160045260248afd5b6001600160ff1b0381811682036103ed5783168303612bbd57600984018552602085208360011b81015b8260011b82018110612b9f5750506129f7565b80612bab600292614018565b612bb760018201614216565b01612b8c565b634e487b7160e01b85526011600452602485fd5b634e487b7160e01b84526041600452602484fd5b612bef8183614577565b90612bfa828061458c565b612c048180614577565b612c116109f1828061428e565b906001600160401b038211612ef157612c2a828961403e565b878c5260208c208c5b838110612f055750505060018701916001600160a01b039150612c58906020016145a1565b82546001600160a01b0319169116179055612c766020820182614577565b612c836109f1828061428e565b906001600160401b038211612ef1576002880190612ca1838361403e565b908c5260208c208c5b838110612ed65750505060038701916001600160a01b039150612ccf906020016145a1565b82546001600160a01b031916911617905560408101356004860155600585016001600160401b03612d02606084016142a3565b825467ffffffffffffffff1916911617815560808201356001600160e01b031981168103610c8757815463ffffffff60401b191660a09190911c63ffffffff60401b16179055601e198136030160a08201351215610bf5576001600160401b0360a082013582013511610bf55760a0810135810180353603602090910113610bf557612da560a0820135820135612d9c60068801546137f0565b600688016145b5565b88601f60a083013583013511600114612e4157899060a0830135830135612e2d575b5060a082013582013560011b916000199060a0810135013560031b1c19161760068501555b60208201358015159003612e29576020600891612e1d826001950135600788019060ff801983541691151516179055565b019301940193916129bb565b8780fd5b6020915060a083013583010101358a612dc7565b90600686018a5260208a208a925b60a0830135830135601f19168410612eb6576001935060a0830135830135601f19811610612e8e575b505060a08101350135811b016006850155612dec565b60a0830135830190810160200135600019913560031b60f8169190911c191690558a80612e78565b602060a08401358401820181013583559384019360019092019101612e4f565b6001906020612ee4856145a1565b9401938184015501612caa565b634e487b7160e01b8c52604160045260248cfd5b6001906020612f13856145a1565b9401938184015501612c33565b6001906020612f2e856145a1565b940193818401550161294b565b604051631d36ca1560e21b8152600490fd5b826128ce565b634e487b7160e01b87526032600452602487fd5b634e487b7160e01b87526041600452602487fd5b50612f8a60048035018061428e565b604051612f9681613682565b858152612fa9604051926115d984613667565b825260208201526004860154600160401b81101561204557806001612fd79201600489015560048801614526565b9190916130ad578051518051906001600160401b03821161309957602090612fff838661403e565b0183885260208820885b83811061307c5750505050602001518051916001600160401b038311612f67576001602091019161303a848461424b565b0190865260208620865b8381106130685750505050600485015480600019810111612bbd5760001901612766565b600190602084519401938184015501613044565b82516001600160a01b031681830155602090920191600101613009565b634e487b7160e01b88526041600452602488fd5b634e487b7160e01b86526004869052602486fd5b60405163020ac14960e01b8152600490fd5b6001602081928554815201930191019091612711565b9092506020813d602011613115575b81613105602093836136b0565b81010312610d96575191386126e9565b3d91506130f8565b81356001600160401b0381116132475760406004358601820136036023190112613247576040519061314e82613667565b6001600160401b03602482886004350101013511610c875761317e36602460043589018401818101350101613cdd565b82526044818760043501010135906001600160401b038211610c8b5736604383838a600435010101011215610c8b5760248282896004350101010135906131c4826137ab565b926131d260405194856136b0565b82845260208401913660448b84848860051b9260043501010101011161324357604482828c60043501010101925b60448b84848860051b92600435010101010184106132335750505050602080840192909252509082529182019101612677565b8335815260209384019301613200565b8e80fd5b8980fd5b9091506020813d602011613277575b81613267602093836136b0565b8101031261047d57519038612591565b3d915061325a565b600484036132ab575b60018401805467ffffffffffffffff19166001600160401b038316179055612535565b6132b48461442b565b613288565b6040516312232e5d60e11b8152600490fd5b506132f760206132dd600585016139b7565b604051809381926339aa47fb60e01b835260048301614313565b038173__$0a9cb18d668a182017fbed71517bdc4411$__5af4908115610d9a57829161332d575b5060a46004350135141561251d565b90506020813d602011613357575b81613348602093836136b0565b8101031261026457513861331e565b3d915061333b565b60405163fae4eadb60e01b8152600490fd5b60405163c18316bf60e01b8152600490fd5b634e487b7160e01b82526021600452602482fd5b604051637f39132760e11b8152600490fd5b506020813d6020116133dc575b816133c3602093836136b0565b81010312610264576133d76124b291613f0f565b6124a8565b3d91506133b6565b503461026857806003193601126102685760206040516001600160401b037f0000000000000000000000000000000000000000000000000000000000000000168152f35b50346102685760208060031936011261026457600435825260068152604082209182549160ff8316926001908186015495600281015460038201549061347c600561347560048601613746565b94016139b7565b9860405198600681101561362257906134d6949392918a9997969899526001600160401b038881809a60081c168b8d015260481c1660408b015260608a0152608089015260a08801526101008060c0890152870190613ad3565b9285840360e08701526134f2875160c0865260c0860190613ad3565b9085880151168585015260408701516040850152606087015190848103606086015281518082528682019187808360051b83010194019286915b8383106135f1575050505050608087015194848203608086015285519182815281810182808560051b84010198019580925b8584106135755760a0808d0151908a01528a8a038bf35b9091929394959698601f1982820301845287868b51928161359f8551604084526040840190613ad3565b940151908281860391015281808251958681520191019386905b8082106135d8575050819293509b01940194019296959493919061355e565b9280919492865181520194019201928a929389926135b9565b9091929395898061360f839a9c98601f198682030187528a51613bfc565b979b99980195949190910192019061352c565b634e487b7160e01b89526021600452602489fd5b60c081019081106001600160401b0382111761365157604052565b634e487b7160e01b600052604160045260246000fd5b604081019081106001600160401b0382111761365157604052565b602081019081106001600160401b0382111761365157604052565b6001600160401b03811161365157604052565b90601f801991011681019081106001600160401b0382111761365157604052565b604051906136de82613682565b816040519081826004548083526020809301906004600052600080516020615e8e833981519152936000905b82821061372357505050613720925003836136b0565b52565b85546001600160a01b03168452600195860195889550938101939091019061370a565b906040519161375483613682565b82604051808381945480845260208094019160005283600020936000905b82821061378857505050613720925003836136b0565b85546001600160a01b031684526001958601958895509381019390910190613772565b6001600160401b0381116136515760051b60200190565b906040516137cf81613667565b602081936137dc81613746565b8352600101546001600160a01b0316910152565b90600182811c92168015613820575b602083101461380a57565b634e487b7160e01b600052602260045260246000fd5b91607f16916137ff565b906040519161383883613636565b82613842826137c2565b81526006613852600284016137c2565b92602093848401526004810154604084015260058101546001600160401b038116606085015263ffffffff60e01b9060a01b166080840152019160405192839160009180546138a0816137f0565b8086529160019180831690811561391657506001146138d1575b5050505060a092916138cd9103846136b0565b0152565b60009081528381209695945091905b8183106138fe575093945091925090820101816138cd60a0386138ba565b865488840185015295860195879450918301916138e0565b60ff191685880152505050151560051b8301019050816138cd60a0386138ba565b9060405161394481613667565b602060ff600783956139558161382a565b85520154161515910152565b90815461396d816137ab565b9261397b60405194856136b0565b818452600090815260208082208186015b84841061399a575050505050565b6008836001926139a985613937565b81520192019301929061398c565b906040918251906139c782613636565b81936139d282613746565b835260016001600160401b0381840154166020908186015260028085015484870152613a0060038601613961565b60608701526004850193845492613a16846137ab565b95613a23835197886136b0565b84875260009081528181209092838389015b878610613a575750505050505050505060a09160059160808501520154910152565b86858a928551613a6681613667565b613a6f88613746565b8152865188860180548083529088528488208583019189905b808210613ab05750505081613a9e9103826136b0565b83820152815201940195019492613a35565b9396909497508892829699925481520194019201928c95928f97948c9693613a88565b60209081604081850192519482815285518094520193019160005b828110613afc575050505090565b83516001600160a01b031685529381019392810192600101613aee565b906020613b2f8351604084526040840190613ad3565b928101516001600160a01b031691015290565b60005b838110613b555750506000910152565b8181015183820152602001613b45565b90602091613b7e81518092818552858086019101613b42565b601f01601f1916010190565b613bf99160a0613bb8613ba6845160c0855260c0850190613b19565b60208501518482036020860152613b19565b92604081015160408401526001600160401b03606082015116606084015263ffffffff60e01b608082015116608084015201519060a0818403910152613b65565b90565b90602080613c138451604085526040850190613b8a565b930151151591015290565b600435906001600160401b0382168203613c3457565b600080fd5b35906001600160401b0382168203613c3457565b602435906001600160a01b0382168203613c3457565b35906001600160a01b0382168203613c3457565b81601f82011215613c3457803591613c8e836137ab565b92613c9c60405194856136b0565b808452602092838086019260051b820101928311613c34578301905b828210613cc6575050505090565b838091613cd284613c63565b815201910190613cb8565b919091602081840312613c345760405190613cf782613682565b819381356001600160401b038111613c3457613d139201613c77565b9052565b919091604081840312613c345760405190613d3182613667565b81938135906001600160401b038211613c345782613d5860209492613d6094869401613cdd565b855201613c63565b910152565b35906001600160e01b031982168203613c3457565b6001600160401b03811161365157601f01601f191660200190565b35908115158203613c3457565b91906040928381830312613c3457835191613dbc83613667565b82948235926001600160401b0393848111613c345781019360c085850312613c3457825190613dea82613636565b8535818111613c345785613dff918801613d17565b825260209586810135828111613c345786613e1b918301613d17565b878401528481013585840152613e3360608201613c39565b6060840152613e4460808201613d65565b608084015260a0810135918211613c3457019284601f85011215613c3457833594613e7a613e7187613d7a565b925192836136b0565b858252868686010111613c345760008686613d609782809801838601378301015260a0820152855201613d95565b60405190613eb582613667565b6000602083604051613ec681613682565b6060815281520152565b8054821015613eec5760005260206000209060031b0190600090565b634e487b7160e01b600052603260045260246000fd5b51908115158203613c3457565b51906001600160a01b0382168203613c3457565b919060208084830312613c345760405190613f3d82613682565b81948051906001600160401b038211613c3457019280601f85011215613c34578351613f68816137ab565b94613f7660405196876136b0565b818652838087019260051b820101928311613c34578301905b828210613f9d575050505052565b838091613fa984613f0f565b815201910190613f8f565b90602082820312613c345781516001600160401b038111613c3457613bf99201613f23565b90613ff1602091949394604084526040840190613ad3565b6001600160a01b03909416910152565b81811061400c575050565b60008155600101614001565b80546000825580614027575050565b61403c91600052602060002090810190614001565b565b90600160401b81116136515781549080835581811061405c57505050565b61403c9260005260206000209182019101614001565b9060016001600160401b038093160191821161408a57565b634e487b7160e01b600052601160045260246000fd5b9190916001600160401b038080941691160191821161408a57565b9190820180921161408a57565b9190820391821161408a57565b6140de81614018565b60076000918260018201556140f560028201614018565b826003820155826004820155826005820155826006820161411681546137f0565b80614123575b5050500155565b601f81116001146141395750555b82388061411c565b8183526020832061415591601f0160051c810190600101614001565b8160208120915555614131565b8054906000815581614172575050565b6001600160fd1b038216820361408a5760005260206000209060031b8101905b81811061419d575050565b806141a96008926140d5565b01614192565b600160401b8211613651578054908281558183106141cc57505050565b6001600160fd1b03828116830361408a578316830361408a5760005260206000209060031b81019160031b015b818110614204575050565b806142106008926140d5565b016141f9565b8054906000908181558261422957505050565b815260208120918201915b82811061424057505050565b818155600101614234565b600160401b82116136515780549180825582811061426857505050565b60009182526020822092830192015b82811061428357505050565b818155600101614277565b903590601e1981360301821215613c34570190565b356001600160401b0381168103613c345790565b908082519081815260208091019281808460051b8301019501936000915b8483106142e55750505050505090565b9091929394958480614303600193601f198682030187528a51613bfc565b98019301930191949392906142d5565b60209182825261432e815160c08585015260e0840190613ad3565b6001600160401b03848301511660409081850152808301516060850152614367606084015192601f1993848783030160808801526142b7565b94608084015195838682030160a08701528651928382528282019083808660051b85010199019560009081945b8786106143b15750505050505050505060a060c091015191015290565b9091929394958b8383839a9b9e030187528c51826143d6825189855289850190613ad3565b910151918381830391015282808351928381520192019086905b8082106144125750505090806001929d01960196019497969593929190614394565b919380600192948651815201940192018a9392916143f0565b6004811461449957600454906001600160401b0382116136515761444f828261403e565b600090815260208120600080516020615e8e83398151915280545b848410614478575050505050565b600191820180546001600160a01b039092168486015593909101929061446a565b50565b929190926144a9846137ab565b916144b760405193846136b0565b829480845260208094019060051b830192828411613c345780915b8483106144e157505050505050565b82356001600160401b038111613c345786916145008684938601613da2565b8152019201916144d2565b9080601f83011215613c3457816020613bf99335910161449c565b8054821015613eec5760005260206000209060011b0190600090565b903590601e1981360301821215613c3457018035906001600160401b038211613c3457602001918160051b36038313613c3457565b903590603e1981360301821215613c34570190565b90359060be1981360301821215613c34570190565b356001600160a01b0381168103613c345790565b9190601f81116145c457505050565b61403c926000526020600020906020601f840160051c830193106145f0575b601f0160051c0190614001565b90915081906145e3565b919091604081840312613c34576040519061461482613667565b81938151906001600160401b038211613c34578261463b60209492613d6094869401613f23565b855201613f0f565b81601f82011215613c3457805161465981613d7a565b9261466760405194856136b0565b81845260208284010111613c3457613bf99160208085019101613b42565b90602082820312613c345781516001600160401b0392838211613c34570191604083830312613c3457604051926146bb84613667565b8051828111613c3457810160c081850312613c3457604051906146dd82613636565b8051848111613c3457856146f29183016145fa565b82526020810151848111613c34578561470c9183016145fa565b60208301526040810151604083015260608101518481168103613c3457606083015260808101516001600160e01b031981168103613c3457608083015260a0810151938411613c3457614773946020946147669201614643565b60a0820152845201613f02565b602082015290565b6020808301918035601e1982360301811215613c345701918183359301936001600160401b038411613c34578360051b36038513613c34578281529083905260400192919060005b8281106147d1575050505090565b909192938280600192838060a01b036147e989613c63565b168152019501939291016147c3565b602060408183019282815260045480945201916004600052600080516020615e8e833981519152916000905b828210614832575050505090565b83546001600160a01b031685529384019360019384019390910190614824565b602060408183019282815260045480945201916004600052600080516020615e8e833981519152916000905b82821061488c575050505090565b83546001600160a01b03168552938401936001938401939091019061487e565b8051821015613eec5760209160051b010190565b9035603e1982360301811215613c34570190565b908135601e1983360301811215613c34576148fb602091604084528460408501910161477b565b926001600160a01b0390614910908301613c63565b1691015290565b600590600281015460005201602052600160406000206149406001600160401b03825416615b22565b0190565b60606020613bf9938184526001600160401b038151168285015201519160408082015201906142b7565b90816020910312613c3457516002811015613c345790565b9060208083510151519283515115614cd15773__$3fbe32418a9ca7804328967972fb037388$__9360409283519563c836244d60e01b80885260049086828a01526149d460448a0186613ad3565b988481806149ee6003199d8e838203016024840152614852565b0381875af4908115614cc657600091614c91575b50614c825790614a3a94939291865199848b51519b8a614a4981519a8b93849363f47ad7eb60e01b8552898501526044840190613b8a565b85838203016024840152614852565b038173__$60eca978da484e6b61d9aaf41f10089759$__5af4968715614c7757600097614c48575b506000956002881015614c3557899a9b6001899a9b9914614b1d575b505050505050509050614b0857614aed9290600090614af5575067ffffffffffffffff60401b6001915b614ad260ff600a5494166001600160401b0385841c166140a0565b901b169067ffffffffffffffff60401b191617600a55615193565b600090600190565b67ffffffffffffffff60401b9091614ab7565b50614b1281615292565b510151151590600090565b9088614b5989989a93614b499a94519a8b948594631ccc893360e11b86528a8601526044850190613ad3565b9086848303016024850152613ad3565b0381875af4958615614c2b57918a93918895938798614c0b575b50614ba290614b938651998a978896879687528601526044850190613ad3565b90838203016024840152614852565b03915af4928315614bff578193614bc6575b50505015839038808080808080614a8d565b9091809350813d8311614bf8575b614bde81836136b0565b810103126102685750614bf090613f02565b388080614bb4565b503d614bd4565b508551903d90823e3d90fd5b614ba2919850614c24903d808a833e61207f81836136b0565b9790614b73565b8a513d87823e3d90fd5b634e487b7160e01b875260218452602487fd5b614c69919750853d8711614c70575b614c6181836136b0565b81019061496e565b9538614a71565b503d614c57565b89513d6000823e3d90fd5b50855163461e815d60e01b8152fd5b908582813d8311614cbf575b614ca781836136b0565b810103126102685750614cb990613f02565b38614a02565b503d614c9d565b88513d6000823e3d90fd5b60405163461e815d60e01b8152600490fd5b9190614ed1575b614cf15750565b602080915101515190614d4e73__$3fbe32418a9ca7804328967972fb037388$__91604092614d3684519563089032d560e01b87528560048801526044870190613ad3565b60031986820301602487015285806000958693614852565b0381845af4948515614ec7578395614eab575b50845151158015614e25575b614e1e57614d9894829185518080988194632cff562160e11b83528660048401526024830190613ad3565b03915af4928315614e1357508192614dd9575b505061403c91507f0000000000000000000000000000000000000000000000000000000000000000906157ce565b90915082813d8311614e0c575b614df081836136b0565b810103126102685750614e0561403c91613f0f565b3880614dab565b503d614de6565b51913d9150823e3d90fd5b5050505050565b508351632cff562160e11b815260048101839052828180614e49602482018a613ad3565b0381855af4908115614ea1578491614e6c575b506001600160a01b031615614d6d565b90508281813d8311614e9a575b614e8381836136b0565b81010312610d9657614e9490613f0f565b38614e5c565b503d614e79565b85513d86823e3d90fd5b614ec09195503d8085833e61207f81836136b0565b9338614d61565b84513d85823e3d90fd5b604082510151804710614f085760008080809360635af1614ef06158d4565b50614cea575b604051633204506f60e01b8152600490fd5b60405163356680b760e01b8152600490fd5b90805190815191825151928351906001600160401b039182811161365157614f42818861403e565b602080960190600091888352878320835b838110615135575050505090850151600187810180546001600160a01b03199081166001600160a01b039485161790915585880151805151805193959491939060028c0190888311612f67578b90614fab848461403e565b019086528a862087875b8481106151215750505050508860038b0193015116908254161790556040840151600488015561502560058801846060870151166001600160401b031982541617815563ffffffff60e01b60808701511663ffffffff60401b82549160a01c169063ffffffff60401b1916179055565b60a060068801940151805193841161510d5761504b8461504587546137f0565b876145b5565b8691601f85116001146150a2579361403c98979593819382936007999794615097575b50501b916000199060031b1c19161790555b0151151591019060ff801983541691151516179055565b01519250388061506e565b9190601f949394198416868452888420935b8181106150f85750916007979593918561403c9b9a989694106150df575b505050811b019055615080565b015160001960f88460031b161c191690553880806150d2565b828401518555938601939289019289016150b4565b634e487b7160e01b82526041600452602482fd5b8d8685511694019381840155018890614fb5565b82516001600160a01b03168282015591890191600101614f53565b8054600160401b8110156136515761516d91600182018155613ed0565b91909161517d5761403c91614f1a565b634e487b7160e01b600052600060045260246000fd5b6151d660006151c560208451015151604051938492839263089032d560e01b8452604060048501526044840190613ad3565b828103600319016024840152614852565b038173__$3fbe32418a9ca7804328967972fb037388$__5af48015615286576152079160009161526d575b50615a8b565b9190156116ed57600b8261403c935468ffffffffffffffff0061523c6001600160401b038360081c1680606088510152614072565b60081b169068ffffffffffffffff001916178155604083510151615265600383019182546140bb565b905501615150565b615280913d8091833e61207f81836136b0565b38615201565b6040513d6000823e3d90fd5b6152e661529d6156ba565b9391505060036001600160401b039384600a5416606084510152600281016152657f000000000000000000000000000000000000000000000000000000000000000082546140bb565b600a54906152f5818316614072565b16906001600160401b03191617600a55565b919060005b8151811015615332578061532c615325600193856148ac565b5186615338565b0161530c565b50509050565b81516020908101518101519192916001600160a01b03908116156118ba57818351015151515115614cd157825160808101516001600160e01b0319161590816156ac575b5061569a57825160409485519063f47ad7eb60e01b82526153a860049388858501526044840190613b8a565b8583806153c16003199485838203016024840152614852565b038173__$60eca978da484e6b61d9aaf41f10089759$__5af4928315614cc657908691600094615675575b50875182015151895163c836244d60e01b81528681018b905292918391829161541d91614b93906044850190613ad3565b038173__$3fbe32418a9ca7804328967972fb037388$__5af4908115614cc657600091615640575b506154915750505061545683615d85565b806000526007835261546b8486600020614f1a565b60005260088252818460002093515101511660005252600020600160ff19825416179055565b9091925060028296949596101561562b57908491600182146155a7575b5015615541575b6000916154d984519687938493635c46fefb60e11b85528401526024830190613bfc565b038173__$c0560e63386df2470ca6214f90e7038fc9$__5af49081156155375750615502575050565b3d806000843e61551281846136b0565b82019082820312613c345781516001600160401b038111613c34576144999201614643565b513d6000823e3d90fd5b50600a546001600160401b038082851c16906060875101511681036155975791849167ffffffffffffffff60401b61557a600095614072565b861b169067ffffffffffffffff60401b191617600a5591506154b5565b835163a57cadff60e01b81528390fd5b6155b2919250615a8b565b901561561b5780546001600160401b03808260481c169060608951015116810361560b579067ffffffffffffffff60481b6155ef88959493614072565b60481b169067ffffffffffffffff60481b1916179055386154ae565b855163a57cadff60e01b81528590fd5b8351630e991abd60e41b81528390fd5b602183634e487b7160e01b6000525260246000fd5b908682813d831161566e575b61565681836136b0565b81010312610268575061566890613f02565b38615445565b503d61564c565b8291945061569290614b93933d8411614c7057614c6181836136b0565b9390916153ec565b60405163569d45cf60e11b8152600490fd5b60409150015147103861537c565b6001600160401b03807f00000000000000000000000000000000000000000000000000000000000000001680156157b857816156f98282431604614072565b160290811690810361408a5780600090815260206009815261574460408320928261572385613746565b60405180948192630c133d1360e31b83528460048401526024830190613ad3565b038173__$3fbe32418a9ca7804328967972fb037388$__5af49283156157ab578193615772575b5050501592565b9091809350813d83116157a4575b61578a81836136b0565b81010312610268575061579c90613f02565b38808061576b565b503d615780565b50604051903d90823e3d90fd5b634e487b7160e01b600052601260045260246000fd5b81156158d0576157dd90615da8565b604051906020820163228cb73360e01b81526004835260408301926001600160401b03818510818611176136515760a082019081118582101761365157604052602984527f416464726573733a206c6f772d6c6576656c2063616c6c20776974682076616c6060820152681d594819985a5b195960ba1b608082015284471061587c576144999460009283925191855af16158766158d4565b91615904565b60405162461bcd60e51b815260206004820152602660248201527f416464726573733a20696e73756666696369656e742062616c616e636520666f6044820152651c8818d85b1b60d21b6064820152608490fd5b5050565b3d156158ff573d906158e582613d7a565b916158f360405193846136b0565b82523d6000602084013e565b606090565b919290156159665750815115615918575090565b3b156159215790565b60405162461bcd60e51b815260206004820152601d60248201527f416464726573733a2063616c6c20746f206e6f6e2d636f6e74726163740000006044820152606490fd5b8251909150156159795750805190602001fd5b60405162461bcd60e51b81526020600482015290819061599d906024830190613b65565b0390fd5b90604051916159af83613682565b60405192839160045491828652602080960193600096879460048652600080516020615e8e8339815191529186905b828210615a6757505050506159f881615a159603826136b0565b815260405163aa5106cb60e01b8152938492839260048401613fd9565b038173__$3fbe32418a9ca7804328967972fb037388$__5af4908115610edb5783615a48939492615a4c575b5050615a8b565b9091565b615a6092503d8091833e61207f81836136b0565b3880615a41565b83546001600160a01b03168952978801978a975060019384019391909101906159de565b90615ab4604051926390ba52cf60e01b8452838060209384938460048401526024830190613ad3565b038173__$3fbe32418a9ca7804328967972fb037388$__5af492831561528657600093615af4575b50600691926000525260406000206004810154151591565b8181813d8311615b1b575b615b0981836136b0565b81010312610d96575192506006615adc565b503d615aff565b615b2b81615c50565b156144995773__$88f0b3a7bab8ecb2fea9a8f5f75de2c742$__6040805192634953836d60e11b8452600260048501526001600160401b0380911693846024820152602081604481875af4908115615c4557600091615c0c575b5080615bfc575b615bf657823b15613c345760006044938351948580926394ecccfd60e01b8252600260048301528860248301525af48015615beb57615bdc575b5050506001600160401b03196001541617600155565b82116136515752388080615bc6565b82513d6000823e3d90fd5b50505050565b508381600254841c161415615b8c565b906020823d8211615c3d575b81615c25602093836136b0565b810103126102685750615c3790613f02565b38615b85565b3d9150615c18565b83513d6000823e3d90fd5b6001600160401b0380615c8881600154167f0000000000000000000000000000000000000000000000000000000000000000906140a0565b1691161490565b60ff7f00000000000000000000000000000000000000000000000000000000000000001680830290838204148315171561408a576064900460405191637d2ef4e560e11b835280600484015260208360248173__$d26482cb557e208ab49c238f67c0ea9bf4$__5af492831561528657600093615d51575b50600101549080821115615d4857808311615d3f57615d2f92615d29916140c8565b926140c8565b1115615d3a57600190565b600290565b50505050600390565b50505050600090565b90926020823d8211615d7d575b81615d6b602093836136b0565b81010312610268575051916001615d07565b3d9150615d5e565b604051615da2816123356020820194602086526040830190613bfc565b51902090565b60008073ffffffffffffffffffffffff0000000000000000831660ff60981b14615ded575b15615de957615ddb90615e00565b90615de4575090565b905090565b5090565b50506001600160401b0381166001615dcd565b60009081526016600a6020836002607f60991b015afa9181519161040a8360018060a01b03169360a01c61ffff1603615e56575b83158015615e4b575b615e445750565b9250829150565b5060163d1415615e3d565b60009350915081615e34565b814710614f08576000918291829182916001600160a01b03165af1615e856158d4565b5015614ef65756fe8a35acfbc15ff81a39ae7d344fd709f28e8600b4aa8c65c6b64bfe7fe36bd19ba2646970667358221220dd4d35a0422bf9fdc7983d50be06d52b33fa6cc09b9b7a168f0bae605733fa6d64736f6c63430008110033",
  "linkReferences": {
    "contracts/lib/AccountHelper.sol": {
      "AccountHelper": [
        {
          "length": 20,
          "start": 2085
        },
        {
          "length": 20,
          "start": 2524
        },
        {
          "length": 20,
          "start": 6179
        },
        {
          "length": 20,
          "start": 6690
        },
        {
          "length": 20,
          "start": 7365
        },
        {
          "length": 20,
          "start": 9784
        }
      ]
    },
    "contracts/lib/CheckpointHelper.sol": {
      "CheckpointHelper": [
        {
          "length": 20,
          "start": 2950
        },
        {
          "length": 20,
          "start": 3339
        },
        {
          "length": 20,
          "start": 11221
        },
        {
          "length": 20,
          "start": 14346
        }
      ]
    },
    "contracts/lib/CrossMsgHelper.sol": {
      "CrossMsgHelper": [
        {
          "length": 20,
          "start": 2768
        },
        {
          "length": 20,
          "start": 6322
        },
        {
          "length": 20,
          "start": 6835
        },
        {
          "length": 20,
          "start": 23020
        }
      ]
    },
    "contracts/lib/EpochVoteSubmissionHelper.sol": {
      "EpochVoteSubmissionHelper": [
        {
          "length": 20,
          "start": 4804
        },
        {
          "length": 20,
          "start": 4856
        },
        {
          "length": 20,
          "start": 25074
        }
      ]
    },
    "contracts/lib/ExecutableQueueHelper.sol": {
      "ExecutableQueueHelper": [
        {
          "length": 20,
          "start": 4647
        },
        {
          "length": 20,
          "start": 4714
        },
        {
          "length": 20,
          "start": 24641
        }
      ]
    },
    "contracts/lib/StorableMsgHelper.sol": {
      "StorableMsgHelper": [
        {
          "length": 20,
          "start": 20316
        },
        {
          "length": 20,
          "start": 22740
        }
      ]
    },
    "contracts/lib/SubnetIDHelper.sol": {
      "SubnetIDHelper": [
        {
          "length": 20,
          "start": 655
        },
        {
          "length": 20,
          "start": 6932
        },
        {
          "length": 20,
          "start": 7506
        },
        {
          "length": 20,
          "start": 7927
        },
        {
          "length": 20,
          "start": 8315
        },
        {
          "length": 20,
          "start": 9362
        },
        {
          "length": 20,
          "start": 10645
        },
        {
          "length": 20,
          "start": 10877
        },
        {
          "length": 20,
          "start": 20137
        },
        {
          "length": 20,
          "start": 21006
        },
        {
          "length": 20,
          "start": 22249
        },
        {
          "length": 20,
          "start": 22832
        },
        {
          "length": 20,
          "start": 23639
        },
        {
          "length": 20,
          "start": 24360
        },
        {
          "length": 20,
          "start": 24519
        }
      ]
    }
  },
  "deployedLinkReferences": {
    "contracts/lib/AccountHelper.sol": {
      "AccountHelper": [
        {
          "length": 20,
          "start": 790
        },
        {
          "length": 20,
          "start": 1229
        },
        {
          "length": 20,
          "start": 4884
        },
        {
          "length": 20,
          "start": 5395
        },
        {
          "length": 20,
          "start": 6070
        },
        {
          "length": 20,
          "start": 8489
        }
      ]
    },
    "contracts/lib/CheckpointHelper.sol": {
      "CheckpointHelper": [
        {
          "length": 20,
          "start": 1655
        },
        {
          "length": 20,
          "start": 2044
        },
        {
          "length": 20,
          "start": 9926
        },
        {
          "length": 20,
          "start": 13051
        }
      ]
    },
    "contracts/lib/CrossMsgHelper.sol": {
      "CrossMsgHelper": [
        {
          "length": 20,
          "start": 1473
        },
        {
          "length": 20,
          "start": 5027
        },
        {
          "length": 20,
          "start": 5540
        },
        {
          "length": 20,
          "start": 21725
        }
      ]
    },
    "contracts/lib/EpochVoteSubmissionHelper.sol": {
      "EpochVoteSubmissionHelper": [
        {
          "length": 20,
          "start": 3509
        },
        {
          "length": 20,
          "start": 3561
        },
        {
          "length": 20,
          "start": 23779
        }
      ]
    },
    "contracts/lib/ExecutableQueueHelper.sol": {
      "ExecutableQueueHelper": [
        {
          "length": 20,
          "start": 3352
        },
        {
          "length": 20,
          "start": 3419
        },
        {
          "length": 20,
          "start": 23346
        }
      ]
    },
    "contracts/lib/StorableMsgHelper.sol": {
      "StorableMsgHelper": [
        {
          "length": 20,
          "start": 19021
        },
        {
          "length": 20,
          "start": 21445
        }
      ]
    },
    "contracts/lib/SubnetIDHelper.sol": {
      "SubnetIDHelper": [
        {
          "length": 20,
          "start": 5637
        },
        {
          "length": 20,
          "start": 6211
        },
        {
          "length": 20,
          "start": 6632
        },
        {
          "length": 20,
          "start": 7020
        },
        {
          "length": 20,
          "start": 8067
        },
        {
          "length": 20,
          "start": 9350
        },
        {
          "length": 20,
          "start": 9582
        },
        {
          "length": 20,
          "start": 18842
        },
        {
          "length": 20,
          "start": 19711
        },
        {
          "length": 20,
          "start": 20954
        },
        {
          "length": 20,
          "start": 21537
        },
        {
          "length": 20,
          "start": 22344
        },
        {
          "length": 20,
          "start": 23065
        },
        {
          "length": 20,
          "start": 23224
        }
      ]
    }
  }
}