{
  "abi": [
    {
      "inputs": [
        {
          "components": [
            {
              "components": [
                {
                  "internalType": "uint64",
                  "name": "root",
                  "type": "uint64"
                },
                {
                  "internalType": "address[]",
                  "name": "route",
                  "type": "address[]"
                }
              ],
              "internalType": "struct SubnetID",
              "name": "networkName",
              "type": "tuple"
            },
            {
              "internalType": "uint64",
              "name": "bottomUpCheckPeriod",
              "type": "uint64"
            },
            {
              "internalType": "uint64",
              "name": "topDownCheckPeriod",
              "type": "uint64"
            },
            {
              "internalType": "uint256",
              "name": "msgFee",
              "type": "uint256"
            },
            {
              "internalType": "uint8",
              "name": "majorityPercentage",
              "type": "uint8"
            }
          ],
          "internalType": "struct Gateway.ConstructorParams",
          "name": "params",
          "type": "tuple"
        }
      ],
      "stateMutability": "nonpayable",
      "type": "constructor"
    },
    {
      "inputs": [
        {
          "internalType": "address",
          "name": "target",
          "type": "address"
        }
      ],
      "name": "AddressEmptyCode",
      "type": "error"
    },
    {
      "inputs": [
        {
          "internalType": "address",
          "name": "account",
          "type": "address"
        }
      ],
      "name": "AddressInsufficientBalance",
      "type": "error"
    },
    {
      "inputs": [],
      "name": "AlreadyInitialized",
      "type": "error"
    },
    {
      "inputs": [],
      "name": "AlreadyRegisteredSubnet",
      "type": "error"
    },
    {
      "inputs": [],
      "name": "CallFailed",
      "type": "error"
    },
    {
      "inputs": [],
      "name": "CannotReleaseZero",
      "type": "error"
    },
    {
      "inputs": [],
      "name": "CannotSendCrossMsgToItself",
      "type": "error"
    },
    {
      "inputs": [],
      "name": "EmptySubnet",
      "type": "error"
    },
    {
      "inputs": [],
      "name": "EpochAlreadyExecuted",
      "type": "error"
    },
    {
      "inputs": [],
      "name": "EpochNotVotable",
      "type": "error"
    },
    {
      "inputs": [],
      "name": "FailedInnerCall",
      "type": "error"
    },
    {
      "inputs": [],
      "name": "InconsistentPrevCheckpoint",
      "type": "error"
    },
    {
      "inputs": [],
      "name": "InsufficientFunds",
      "type": "error"
    },
    {
      "inputs": [],
      "name": "InvalidActorAddress",
      "type": "error"
    },
    {
      "inputs": [],
      "name": "InvalidCheckpointEpoch",
      "type": "error"
    },
    {
      "inputs": [],
      "name": "InvalidCheckpointSource",
      "type": "error"
    },
    {
      "inputs": [],
      "name": "InvalidCrossMsgDestinationAddress",
      "type": "error"
    },
    {
      "inputs": [],
      "name": "InvalidCrossMsgDestinationSubnet",
      "type": "error"
    },
    {
      "inputs": [],
      "name": "InvalidCrossMsgFromRawAddress",
      "type": "error"
    },
    {
      "inputs": [],
      "name": "InvalidCrossMsgFromSubnetId",
      "type": "error"
    },
    {
      "inputs": [],
      "name": "InvalidCrossMsgNonce",
      "type": "error"
    },
    {
      "inputs": [],
      "name": "InvalidCrossMsgsSortOrder",
      "type": "error"
    },
    {
      "inputs": [],
      "name": "InvalidMajorityPercentage",
      "type": "error"
    },
    {
      "inputs": [],
      "name": "InvalidPostboxOwner",
      "type": "error"
    },
    {
      "inputs": [],
      "name": "MessagesNotSorted",
      "type": "error"
    },
    {
      "inputs": [],
      "name": "NotEmptySubnetCircSupply",
      "type": "error"
    },
    {
      "inputs": [],
      "name": "NotEnoughBalance",
      "type": "error"
    },
    {
      "inputs": [],
      "name": "NotEnoughFee",
      "type": "error"
    },
    {
      "inputs": [],
      "name": "NotEnoughFunds",
      "type": "error"
    },
    {
      "inputs": [],
      "name": "NotEnoughFundsForMembership",
      "type": "error"
    },
    {
      "inputs": [],
      "name": "NotEnoughFundsToRelease",
      "type": "error"
    },
    {
      "inputs": [],
      "name": "NotEnoughSubnetCircSupply",
      "type": "error"
    },
    {
      "inputs": [],
      "name": "NotInitialized",
      "type": "error"
    },
    {
      "inputs": [],
      "name": "NotRegisteredSubnet",
      "type": "error"
    },
    {
      "inputs": [],
      "name": "NotSignableAccount",
      "type": "error"
    },
    {
      "inputs": [],
      "name": "NotSystemActor",
      "type": "error"
    },
    {
      "inputs": [],
      "name": "NotValidator",
      "type": "error"
    },
    {
      "inputs": [],
      "name": "PostboxNotExist",
      "type": "error"
    },
    {
      "inputs": [],
      "name": "ReentrancyGuardReentrantCall",
      "type": "error"
    },
    {
      "inputs": [],
      "name": "SubnetNotActive",
      "type": "error"
    },
    {
      "inputs": [],
      "name": "ValidatorAlreadyVoted",
      "type": "error"
    },
    {
      "inputs": [],
      "name": "ValidatorWeightIsZero",
      "type": "error"
    },
    {
      "inputs": [],
      "name": "ValidatorsAndWeightsLengthMismatch",
      "type": "error"
    },
    {
      "inputs": [],
      "name": "MIN_CHECKPOINT_PERIOD",
      "outputs": [
        {
          "internalType": "uint8",
          "name": "",
          "type": "uint8"
        }
      ],
      "stateMutability": "view",
      "type": "function"
    },
    {
      "inputs": [],
      "name": "MIN_COLLATERAL_AMOUNT",
      "outputs": [
        {
          "internalType": "uint256",
          "name": "",
          "type": "uint256"
        }
      ],
      "stateMutability": "view",
      "type": "function"
    },
    {
      "inputs": [],
      "name": "addStake",
      "outputs": [],
      "stateMutability": "payable",
      "type": "function"
    },
    {
      "inputs": [],
      "name": "appliedTopDownNonce",
      "outputs": [
        {
          "internalType": "uint64",
          "name": "",
          "type": "uint64"
        }
      ],
      "stateMutability": "view",
      "type": "function"
    },
    {
      "inputs": [],
      "name": "bottomUpCheckPeriod",
      "outputs": [
        {
          "internalType": "uint64",
          "name": "",
          "type": "uint64"
        }
      ],
      "stateMutability": "view",
      "type": "function"
    },
    {
      "inputs": [
        {
          "internalType": "uint64",
          "name": "epoch",
          "type": "uint64"
        }
      ],
      "name": "bottomUpCheckpointAtEpoch",
      "outputs": [
        {
          "internalType": "bool",
          "name": "exists",
          "type": "bool"
        },
        {
          "components": [
            {
              "components": [
                {
                  "internalType": "uint64",
                  "name": "root",
                  "type": "uint64"
                },
                {
                  "internalType": "address[]",
                  "name": "route",
                  "type": "address[]"
                }
              ],
              "internalType": "struct SubnetID",
              "name": "source",
              "type": "tuple"
            },
            {
              "internalType": "uint64",
              "name": "epoch",
              "type": "uint64"
            },
            {
              "internalType": "uint256",
              "name": "fee",
              "type": "uint256"
            },
            {
              "components": [
                {
                  "components": [
                    {
                      "components": [
                        {
                          "components": [
                            {
                              "internalType": "uint64",
                              "name": "root",
                              "type": "uint64"
                            },
                            {
                              "internalType": "address[]",
                              "name": "route",
                              "type": "address[]"
                            }
                          ],
                          "internalType": "struct SubnetID",
                          "name": "subnetId",
                          "type": "tuple"
                        },
                        {
                          "internalType": "address",
                          "name": "rawAddress",
                          "type": "address"
                        }
                      ],
                      "internalType": "struct IPCAddress",
                      "name": "from",
                      "type": "tuple"
                    },
                    {
                      "components": [
                        {
                          "components": [
                            {
                              "internalType": "uint64",
                              "name": "root",
                              "type": "uint64"
                            },
                            {
                              "internalType": "address[]",
                              "name": "route",
                              "type": "address[]"
                            }
                          ],
                          "internalType": "struct SubnetID",
                          "name": "subnetId",
                          "type": "tuple"
                        },
                        {
                          "internalType": "address",
                          "name": "rawAddress",
                          "type": "address"
                        }
                      ],
                      "internalType": "struct IPCAddress",
                      "name": "to",
                      "type": "tuple"
                    },
                    {
                      "internalType": "uint256",
                      "name": "value",
                      "type": "uint256"
                    },
                    {
                      "internalType": "uint64",
                      "name": "nonce",
                      "type": "uint64"
                    },
                    {
                      "internalType": "bytes4",
                      "name": "method",
                      "type": "bytes4"
                    },
                    {
                      "internalType": "bytes",
                      "name": "params",
                      "type": "bytes"
                    }
                  ],
                  "internalType": "struct StorableMsg",
                  "name": "message",
                  "type": "tuple"
                },
                {
                  "internalType": "bool",
                  "name": "wrapped",
                  "type": "bool"
                }
              ],
              "internalType": "struct CrossMsg[]",
              "name": "crossMsgs",
              "type": "tuple[]"
            },
            {
              "components": [
                {
                  "components": [
                    {
                      "internalType": "uint64",
                      "name": "root",
                      "type": "uint64"
                    },
                    {
                      "internalType": "address[]",
                      "name": "route",
                      "type": "address[]"
                    }
                  ],
                  "internalType": "struct SubnetID",
                  "name": "source",
                  "type": "tuple"
                },
                {
                  "internalType": "bytes32[]",
                  "name": "checks",
                  "type": "bytes32[]"
                }
              ],
              "internalType": "struct ChildCheck[]",
              "name": "children",
              "type": "tuple[]"
            },
            {
              "internalType": "bytes32",
              "name": "prevHash",
              "type": "bytes32"
            },
            {
              "internalType": "bytes",
              "name": "proof",
              "type": "bytes"
            }
          ],
          "internalType": "struct BottomUpCheckpoint",
          "name": "checkpoint",
          "type": "tuple"
        }
      ],
      "stateMutability": "view",
      "type": "function"
    },
    {
      "inputs": [
        {
          "internalType": "uint64",
          "name": "epoch",
          "type": "uint64"
        }
      ],
      "name": "bottomUpCheckpointHashAtEpoch",
      "outputs": [
        {
          "internalType": "bool",
          "name": "",
          "type": "bool"
        },
        {
          "internalType": "bytes32",
          "name": "",
          "type": "bytes32"
        }
      ],
      "stateMutability": "view",
      "type": "function"
    },
    {
      "inputs": [
        {
          "internalType": "uint64",
          "name": "",
          "type": "uint64"
        }
      ],
      "name": "bottomUpCheckpoints",
      "outputs": [
        {
          "components": [
            {
              "internalType": "uint64",
              "name": "root",
              "type": "uint64"
            },
            {
              "internalType": "address[]",
              "name": "route",
              "type": "address[]"
            }
          ],
          "internalType": "struct SubnetID",
          "name": "source",
          "type": "tuple"
        },
        {
          "internalType": "uint64",
          "name": "epoch",
          "type": "uint64"
        },
        {
          "internalType": "uint256",
          "name": "fee",
          "type": "uint256"
        },
        {
          "internalType": "bytes32",
          "name": "prevHash",
          "type": "bytes32"
        },
        {
          "internalType": "bytes",
          "name": "proof",
          "type": "bytes"
        }
      ],
      "stateMutability": "view",
      "type": "function"
    },
    {
      "inputs": [],
      "name": "bottomUpNonce",
      "outputs": [
        {
          "internalType": "uint64",
          "name": "",
          "type": "uint64"
        }
      ],
      "stateMutability": "view",
      "type": "function"
    },
    {
      "inputs": [
        {
          "components": [
            {
              "components": [
                {
                  "internalType": "uint64",
                  "name": "root",
                  "type": "uint64"
                },
                {
                  "internalType": "address[]",
                  "name": "route",
                  "type": "address[]"
                }
              ],
              "internalType": "struct SubnetID",
              "name": "source",
              "type": "tuple"
            },
            {
              "internalType": "uint64",
              "name": "epoch",
              "type": "uint64"
            },
            {
              "internalType": "uint256",
              "name": "fee",
              "type": "uint256"
            },
            {
              "components": [
                {
                  "components": [
                    {
                      "components": [
                        {
                          "components": [
                            {
                              "internalType": "uint64",
                              "name": "root",
                              "type": "uint64"
                            },
                            {
                              "internalType": "address[]",
                              "name": "route",
                              "type": "address[]"
                            }
                          ],
                          "internalType": "struct SubnetID",
                          "name": "subnetId",
                          "type": "tuple"
                        },
                        {
                          "internalType": "address",
                          "name": "rawAddress",
                          "type": "address"
                        }
                      ],
                      "internalType": "struct IPCAddress",
                      "name": "from",
                      "type": "tuple"
                    },
                    {
                      "components": [
                        {
                          "components": [
                            {
                              "internalType": "uint64",
                              "name": "root",
                              "type": "uint64"
                            },
                            {
                              "internalType": "address[]",
                              "name": "route",
                              "type": "address[]"
                            }
                          ],
                          "internalType": "struct SubnetID",
                          "name": "subnetId",
                          "type": "tuple"
                        },
                        {
                          "internalType": "address",
                          "name": "rawAddress",
                          "type": "address"
                        }
                      ],
                      "internalType": "struct IPCAddress",
                      "name": "to",
                      "type": "tuple"
                    },
                    {
                      "internalType": "uint256",
                      "name": "value",
                      "type": "uint256"
                    },
                    {
                      "internalType": "uint64",
                      "name": "nonce",
                      "type": "uint64"
                    },
                    {
                      "internalType": "bytes4",
                      "name": "method",
                      "type": "bytes4"
                    },
                    {
                      "internalType": "bytes",
                      "name": "params",
                      "type": "bytes"
                    }
                  ],
                  "internalType": "struct StorableMsg",
                  "name": "message",
                  "type": "tuple"
                },
                {
                  "internalType": "bool",
                  "name": "wrapped",
                  "type": "bool"
                }
              ],
              "internalType": "struct CrossMsg[]",
              "name": "crossMsgs",
              "type": "tuple[]"
            },
            {
              "components": [
                {
                  "components": [
                    {
                      "internalType": "uint64",
                      "name": "root",
                      "type": "uint64"
                    },
                    {
                      "internalType": "address[]",
                      "name": "route",
                      "type": "address[]"
                    }
                  ],
                  "internalType": "struct SubnetID",
                  "name": "source",
                  "type": "tuple"
                },
                {
                  "internalType": "bytes32[]",
                  "name": "checks",
                  "type": "bytes32[]"
                }
              ],
              "internalType": "struct ChildCheck[]",
              "name": "children",
              "type": "tuple[]"
            },
            {
              "internalType": "bytes32",
              "name": "prevHash",
              "type": "bytes32"
            },
            {
              "internalType": "bytes",
              "name": "proof",
              "type": "bytes"
            }
          ],
          "internalType": "struct BottomUpCheckpoint",
          "name": "commit",
          "type": "tuple"
        }
      ],
      "name": "commitChildCheck",
      "outputs": [],
      "stateMutability": "nonpayable",
      "type": "function"
    },
    {
      "inputs": [],
      "name": "crossMsgFee",
      "outputs": [
        {
          "internalType": "uint256",
          "name": "",
          "type": "uint256"
        }
      ],
      "stateMutability": "view",
      "type": "function"
    },
    {
      "inputs": [],
      "name": "executableQueue",
      "outputs": [
        {
          "internalType": "uint64",
          "name": "period",
          "type": "uint64"
        },
        {
          "internalType": "uint64",
          "name": "first",
          "type": "uint64"
        },
        {
          "internalType": "uint64",
          "name": "last",
          "type": "uint64"
        }
      ],
      "stateMutability": "view",
      "type": "function"
    },
    {
      "inputs": [
        {
          "components": [
            {
              "internalType": "uint64",
              "name": "root",
              "type": "uint64"
            },
            {
              "internalType": "address[]",
              "name": "route",
              "type": "address[]"
            }
          ],
          "internalType": "struct SubnetID",
          "name": "subnetId",
          "type": "tuple"
        }
      ],
      "name": "fund",
      "outputs": [],
      "stateMutability": "payable",
      "type": "function"
    },
    {
      "inputs": [],
      "name": "getGenesisEpoch",
      "outputs": [
        {
          "internalType": "uint64",
          "name": "",
          "type": "uint64"
        }
      ],
      "stateMutability": "view",
      "type": "function"
    },
    {
      "inputs": [],
      "name": "getNetworkName",
      "outputs": [
        {
          "components": [
            {
              "internalType": "uint64",
              "name": "root",
              "type": "uint64"
            },
            {
              "internalType": "address[]",
              "name": "route",
              "type": "address[]"
            }
          ],
          "internalType": "struct SubnetID",
          "name": "",
          "type": "tuple"
        }
      ],
      "stateMutability": "view",
      "type": "function"
    },
    {
      "inputs": [
        {
          "components": [
            {
              "internalType": "uint64",
              "name": "root",
              "type": "uint64"
            },
            {
              "internalType": "address[]",
              "name": "route",
              "type": "address[]"
            }
          ],
          "internalType": "struct SubnetID",
          "name": "subnetId",
          "type": "tuple"
        }
      ],
      "name": "getSubnet",
      "outputs": [
        {
          "internalType": "bool",
          "name": "",
          "type": "bool"
        },
        {
          "components": [
            {
              "internalType": "enum Status",
              "name": "status",
              "type": "uint8"
            },
            {
              "internalType": "uint64",
              "name": "topDownNonce",
              "type": "uint64"
            },
            {
              "internalType": "uint64",
              "name": "appliedBottomUpNonce",
              "type": "uint64"
            },
            {
              "internalType": "uint256",
              "name": "stake",
              "type": "uint256"
            },
            {
              "internalType": "uint256",
              "name": "genesisEpoch",
              "type": "uint256"
            },
            {
              "internalType": "uint256",
              "name": "circSupply",
              "type": "uint256"
            },
            {
              "components": [
                {
                  "internalType": "uint64",
                  "name": "root",
                  "type": "uint64"
                },
                {
                  "internalType": "address[]",
                  "name": "route",
                  "type": "address[]"
                }
              ],
              "internalType": "struct SubnetID",
              "name": "id",
              "type": "tuple"
            },
            {
              "components": [
                {
                  "components": [
                    {
                      "internalType": "uint64",
                      "name": "root",
                      "type": "uint64"
                    },
                    {
                      "internalType": "address[]",
                      "name": "route",
                      "type": "address[]"
                    }
                  ],
                  "internalType": "struct SubnetID",
                  "name": "source",
                  "type": "tuple"
                },
                {
                  "internalType": "uint64",
                  "name": "epoch",
                  "type": "uint64"
                },
                {
                  "internalType": "uint256",
                  "name": "fee",
                  "type": "uint256"
                },
                {
                  "components": [
                    {
                      "components": [
                        {
                          "components": [
                            {
                              "components": [
                                {
                                  "internalType": "uint64",
                                  "name": "root",
                                  "type": "uint64"
                                },
                                {
                                  "internalType": "address[]",
                                  "name": "route",
                                  "type": "address[]"
                                }
                              ],
                              "internalType": "struct SubnetID",
                              "name": "subnetId",
                              "type": "tuple"
                            },
                            {
                              "internalType": "address",
                              "name": "rawAddress",
                              "type": "address"
                            }
                          ],
                          "internalType": "struct IPCAddress",
                          "name": "from",
                          "type": "tuple"
                        },
                        {
                          "components": [
                            {
                              "components": [
                                {
                                  "internalType": "uint64",
                                  "name": "root",
                                  "type": "uint64"
                                },
                                {
                                  "internalType": "address[]",
                                  "name": "route",
                                  "type": "address[]"
                                }
                              ],
                              "internalType": "struct SubnetID",
                              "name": "subnetId",
                              "type": "tuple"
                            },
                            {
                              "internalType": "address",
                              "name": "rawAddress",
                              "type": "address"
                            }
                          ],
                          "internalType": "struct IPCAddress",
                          "name": "to",
                          "type": "tuple"
                        },
                        {
                          "internalType": "uint256",
                          "name": "value",
                          "type": "uint256"
                        },
                        {
                          "internalType": "uint64",
                          "name": "nonce",
                          "type": "uint64"
                        },
                        {
                          "internalType": "bytes4",
                          "name": "method",
                          "type": "bytes4"
                        },
                        {
                          "internalType": "bytes",
                          "name": "params",
                          "type": "bytes"
                        }
                      ],
                      "internalType": "struct StorableMsg",
                      "name": "message",
                      "type": "tuple"
                    },
                    {
                      "internalType": "bool",
                      "name": "wrapped",
                      "type": "bool"
                    }
                  ],
                  "internalType": "struct CrossMsg[]",
                  "name": "crossMsgs",
                  "type": "tuple[]"
                },
                {
                  "components": [
                    {
                      "components": [
                        {
                          "internalType": "uint64",
                          "name": "root",
                          "type": "uint64"
                        },
                        {
                          "internalType": "address[]",
                          "name": "route",
                          "type": "address[]"
                        }
                      ],
                      "internalType": "struct SubnetID",
                      "name": "source",
                      "type": "tuple"
                    },
                    {
                      "internalType": "bytes32[]",
                      "name": "checks",
                      "type": "bytes32[]"
                    }
                  ],
                  "internalType": "struct ChildCheck[]",
                  "name": "children",
                  "type": "tuple[]"
                },
                {
                  "internalType": "bytes32",
                  "name": "prevHash",
                  "type": "bytes32"
                },
                {
                  "internalType": "bytes",
                  "name": "proof",
                  "type": "bytes"
                }
              ],
              "internalType": "struct BottomUpCheckpoint",
              "name": "prevCheckpoint",
              "type": "tuple"
            },
            {
              "components": [
                {
                  "components": [
                    {
                      "components": [
                        {
                          "components": [
                            {
                              "internalType": "uint64",
                              "name": "root",
                              "type": "uint64"
                            },
                            {
                              "internalType": "address[]",
                              "name": "route",
                              "type": "address[]"
                            }
                          ],
                          "internalType": "struct SubnetID",
                          "name": "subnetId",
                          "type": "tuple"
                        },
                        {
                          "internalType": "address",
                          "name": "rawAddress",
                          "type": "address"
                        }
                      ],
                      "internalType": "struct IPCAddress",
                      "name": "from",
                      "type": "tuple"
                    },
                    {
                      "components": [
                        {
                          "components": [
                            {
                              "internalType": "uint64",
                              "name": "root",
                              "type": "uint64"
                            },
                            {
                              "internalType": "address[]",
                              "name": "route",
                              "type": "address[]"
                            }
                          ],
                          "internalType": "struct SubnetID",
                          "name": "subnetId",
                          "type": "tuple"
                        },
                        {
                          "internalType": "address",
                          "name": "rawAddress",
                          "type": "address"
                        }
                      ],
                      "internalType": "struct IPCAddress",
                      "name": "to",
                      "type": "tuple"
                    },
                    {
                      "internalType": "uint256",
                      "name": "value",
                      "type": "uint256"
                    },
                    {
                      "internalType": "uint64",
                      "name": "nonce",
                      "type": "uint64"
                    },
                    {
                      "internalType": "bytes4",
                      "name": "method",
                      "type": "bytes4"
                    },
                    {
                      "internalType": "bytes",
                      "name": "params",
                      "type": "bytes"
                    }
                  ],
                  "internalType": "struct StorableMsg",
                  "name": "message",
                  "type": "tuple"
                },
                {
                  "internalType": "bool",
                  "name": "wrapped",
                  "type": "bool"
                }
              ],
              "internalType": "struct CrossMsg[]",
              "name": "topDownMsgs",
              "type": "tuple[]"
            }
          ],
          "internalType": "struct Subnet",
          "name": "",
          "type": "tuple"
        }
      ],
      "stateMutability": "view",
      "type": "function"
    },
    {
      "inputs": [
        {
          "components": [
            {
              "internalType": "uint64",
              "name": "root",
              "type": "uint64"
            },
            {
              "internalType": "address[]",
              "name": "route",
              "type": "address[]"
            }
          ],
          "internalType": "struct SubnetID",
          "name": "subnetId",
          "type": "tuple"
        },
        {
          "internalType": "uint256",
          "name": "index",
          "type": "uint256"
        }
      ],
      "name": "getSubnetTopDownMsg",
      "outputs": [
        {
          "components": [
            {
              "components": [
                {
                  "components": [
                    {
                      "components": [
                        {
                          "internalType": "uint64",
                          "name": "root",
                          "type": "uint64"
                        },
                        {
                          "internalType": "address[]",
                          "name": "route",
                          "type": "address[]"
                        }
                      ],
                      "internalType": "struct SubnetID",
                      "name": "subnetId",
                      "type": "tuple"
                    },
                    {
                      "internalType": "address",
                      "name": "rawAddress",
                      "type": "address"
                    }
                  ],
                  "internalType": "struct IPCAddress",
                  "name": "from",
                  "type": "tuple"
                },
                {
                  "components": [
                    {
                      "components": [
                        {
                          "internalType": "uint64",
                          "name": "root",
                          "type": "uint64"
                        },
                        {
                          "internalType": "address[]",
                          "name": "route",
                          "type": "address[]"
                        }
                      ],
                      "internalType": "struct SubnetID",
                      "name": "subnetId",
                      "type": "tuple"
                    },
                    {
                      "internalType": "address",
                      "name": "rawAddress",
                      "type": "address"
                    }
                  ],
                  "internalType": "struct IPCAddress",
                  "name": "to",
                  "type": "tuple"
                },
                {
                  "internalType": "uint256",
                  "name": "value",
                  "type": "uint256"
                },
                {
                  "internalType": "uint64",
                  "name": "nonce",
                  "type": "uint64"
                },
                {
                  "internalType": "bytes4",
                  "name": "method",
                  "type": "bytes4"
                },
                {
                  "internalType": "bytes",
                  "name": "params",
                  "type": "bytes"
                }
              ],
              "internalType": "struct StorableMsg",
              "name": "message",
              "type": "tuple"
            },
            {
              "internalType": "bool",
              "name": "wrapped",
              "type": "bool"
            }
          ],
          "internalType": "struct CrossMsg",
          "name": "",
          "type": "tuple"
        }
      ],
      "stateMutability": "view",
      "type": "function"
    },
    {
      "inputs": [
        {
          "components": [
            {
              "internalType": "uint64",
              "name": "root",
              "type": "uint64"
            },
            {
              "internalType": "address[]",
              "name": "route",
              "type": "address[]"
            }
          ],
          "internalType": "struct SubnetID",
          "name": "subnetId",
          "type": "tuple"
        }
      ],
      "name": "getSubnetTopDownMsgsLength",
      "outputs": [
        {
          "internalType": "uint256",
          "name": "",
          "type": "uint256"
        }
      ],
      "stateMutability": "view",
      "type": "function"
    },
    {
      "inputs": [
        {
          "components": [
            {
              "internalType": "uint64",
              "name": "root",
              "type": "uint64"
            },
            {
              "internalType": "address[]",
              "name": "route",
              "type": "address[]"
            }
          ],
          "internalType": "struct SubnetID",
          "name": "subnetId",
          "type": "tuple"
        }
      ],
      "name": "getTopDownMsgs",
      "outputs": [
        {
          "components": [
            {
              "components": [
                {
                  "components": [
                    {
                      "components": [
                        {
                          "internalType": "uint64",
                          "name": "root",
                          "type": "uint64"
                        },
                        {
                          "internalType": "address[]",
                          "name": "route",
                          "type": "address[]"
                        }
                      ],
                      "internalType": "struct SubnetID",
                      "name": "subnetId",
                      "type": "tuple"
                    },
                    {
                      "internalType": "address",
                      "name": "rawAddress",
                      "type": "address"
                    }
                  ],
                  "internalType": "struct IPCAddress",
                  "name": "from",
                  "type": "tuple"
                },
                {
                  "components": [
                    {
                      "components": [
                        {
                          "internalType": "uint64",
                          "name": "root",
                          "type": "uint64"
                        },
                        {
                          "internalType": "address[]",
                          "name": "route",
                          "type": "address[]"
                        }
                      ],
                      "internalType": "struct SubnetID",
                      "name": "subnetId",
                      "type": "tuple"
                    },
                    {
                      "internalType": "address",
                      "name": "rawAddress",
                      "type": "address"
                    }
                  ],
                  "internalType": "struct IPCAddress",
                  "name": "to",
                  "type": "tuple"
                },
                {
                  "internalType": "uint256",
                  "name": "value",
                  "type": "uint256"
                },
                {
                  "internalType": "uint64",
                  "name": "nonce",
                  "type": "uint64"
                },
                {
                  "internalType": "bytes4",
                  "name": "method",
                  "type": "bytes4"
                },
                {
                  "internalType": "bytes",
                  "name": "params",
                  "type": "bytes"
                }
              ],
              "internalType": "struct StorableMsg",
              "name": "message",
              "type": "tuple"
            },
            {
              "internalType": "bool",
              "name": "wrapped",
              "type": "bool"
            }
          ],
          "internalType": "struct CrossMsg[]",
          "name": "",
          "type": "tuple[]"
        }
      ],
      "stateMutability": "view",
      "type": "function"
    },
    {
      "inputs": [
        {
          "internalType": "uint64",
          "name": "epoch",
          "type": "uint64"
        },
        {
          "internalType": "address",
          "name": "submitter",
          "type": "address"
        }
      ],
      "name": "hasValidatorVotedForSubmission",
      "outputs": [
        {
          "internalType": "bool",
          "name": "",
          "type": "bool"
        }
      ],
      "stateMutability": "view",
      "type": "function"
    },
    {
      "inputs": [
        {
          "internalType": "uint64",
          "name": "genesisEpoch",
          "type": "uint64"
        }
      ],
      "name": "initGenesisEpoch",
      "outputs": [],
      "stateMutability": "nonpayable",
      "type": "function"
    },
    {
      "inputs": [],
      "name": "initialized",
      "outputs": [
        {
          "internalType": "bool",
          "name": "",
          "type": "bool"
        }
      ],
      "stateMutability": "view",
      "type": "function"
    },
    {
      "inputs": [],
      "name": "kill",
      "outputs": [],
      "stateMutability": "nonpayable",
      "type": "function"
    },
    {
      "inputs": [],
      "name": "lastVotingExecutedEpoch",
      "outputs": [
        {
          "internalType": "uint64",
          "name": "",
          "type": "uint64"
        }
      ],
      "stateMutability": "view",
      "type": "function"
    },
    {
      "inputs": [],
      "name": "majorityPercentage",
      "outputs": [
        {
          "internalType": "uint8",
          "name": "",
          "type": "uint8"
        }
      ],
      "stateMutability": "view",
      "type": "function"
    },
    {
      "inputs": [],
      "name": "minStake",
      "outputs": [
        {
          "internalType": "uint256",
          "name": "",
          "type": "uint256"
        }
      ],
      "stateMutability": "view",
      "type": "function"
    },
    {
      "inputs": [
        {
          "internalType": "bytes32",
          "name": "",
          "type": "bytes32"
        }
      ],
      "name": "postbox",
      "outputs": [
        {
          "components": [
            {
              "components": [
                {
                  "components": [
                    {
                      "internalType": "uint64",
                      "name": "root",
                      "type": "uint64"
                    },
                    {
                      "internalType": "address[]",
                      "name": "route",
                      "type": "address[]"
                    }
                  ],
                  "internalType": "struct SubnetID",
                  "name": "subnetId",
                  "type": "tuple"
                },
                {
                  "internalType": "address",
                  "name": "rawAddress",
                  "type": "address"
                }
              ],
              "internalType": "struct IPCAddress",
              "name": "from",
              "type": "tuple"
            },
            {
              "components": [
                {
                  "components": [
                    {
                      "internalType": "uint64",
                      "name": "root",
                      "type": "uint64"
                    },
                    {
                      "internalType": "address[]",
                      "name": "route",
                      "type": "address[]"
                    }
                  ],
                  "internalType": "struct SubnetID",
                  "name": "subnetId",
                  "type": "tuple"
                },
                {
                  "internalType": "address",
                  "name": "rawAddress",
                  "type": "address"
                }
              ],
              "internalType": "struct IPCAddress",
              "name": "to",
              "type": "tuple"
            },
            {
              "internalType": "uint256",
              "name": "value",
              "type": "uint256"
            },
            {
              "internalType": "uint64",
              "name": "nonce",
              "type": "uint64"
            },
            {
              "internalType": "bytes4",
              "name": "method",
              "type": "bytes4"
            },
            {
              "internalType": "bytes",
              "name": "params",
              "type": "bytes"
            }
          ],
          "internalType": "struct StorableMsg",
          "name": "message",
          "type": "tuple"
        },
        {
          "internalType": "bool",
          "name": "wrapped",
          "type": "bool"
        }
      ],
      "stateMutability": "view",
      "type": "function"
    },
    {
      "inputs": [
        {
          "internalType": "bytes32",
          "name": "",
          "type": "bytes32"
        },
        {
          "internalType": "address",
          "name": "",
          "type": "address"
        }
      ],
      "name": "postboxHasOwner",
      "outputs": [
        {
          "internalType": "bool",
          "name": "",
          "type": "bool"
        }
      ],
      "stateMutability": "view",
      "type": "function"
    },
    {
      "inputs": [
        {
          "internalType": "bytes32",
          "name": "msgCid",
          "type": "bytes32"
        }
      ],
      "name": "propagate",
      "outputs": [],
      "stateMutability": "payable",
      "type": "function"
    },
    {
      "inputs": [],
      "name": "register",
      "outputs": [],
      "stateMutability": "payable",
      "type": "function"
    },
    {
      "inputs": [],
      "name": "release",
      "outputs": [],
      "stateMutability": "payable",
      "type": "function"
    },
    {
      "inputs": [
        {
          "internalType": "uint256",
          "name": "amount",
          "type": "uint256"
        }
      ],
      "name": "releaseRewards",
      "outputs": [],
      "stateMutability": "nonpayable",
      "type": "function"
    },
    {
      "inputs": [
        {
          "internalType": "uint256",
          "name": "amount",
          "type": "uint256"
        }
      ],
      "name": "releaseStake",
      "outputs": [],
      "stateMutability": "nonpayable",
      "type": "function"
    },
    {
      "inputs": [
        {
          "components": [
            {
              "components": [
                {
                  "components": [
                    {
                      "components": [
                        {
                          "internalType": "uint64",
                          "name": "root",
                          "type": "uint64"
                        },
                        {
                          "internalType": "address[]",
                          "name": "route",
                          "type": "address[]"
                        }
                      ],
                      "internalType": "struct SubnetID",
                      "name": "subnetId",
                      "type": "tuple"
                    },
                    {
                      "internalType": "address",
                      "name": "rawAddress",
                      "type": "address"
                    }
                  ],
                  "internalType": "struct IPCAddress",
                  "name": "from",
                  "type": "tuple"
                },
                {
                  "components": [
                    {
                      "components": [
                        {
                          "internalType": "uint64",
                          "name": "root",
                          "type": "uint64"
                        },
                        {
                          "internalType": "address[]",
                          "name": "route",
                          "type": "address[]"
                        }
                      ],
                      "internalType": "struct SubnetID",
                      "name": "subnetId",
                      "type": "tuple"
                    },
                    {
                      "internalType": "address",
                      "name": "rawAddress",
                      "type": "address"
                    }
                  ],
                  "internalType": "struct IPCAddress",
                  "name": "to",
                  "type": "tuple"
                },
                {
                  "internalType": "uint256",
                  "name": "value",
                  "type": "uint256"
                },
                {
                  "internalType": "uint64",
                  "name": "nonce",
                  "type": "uint64"
                },
                {
                  "internalType": "bytes4",
                  "name": "method",
                  "type": "bytes4"
                },
                {
                  "internalType": "bytes",
                  "name": "params",
                  "type": "bytes"
                }
              ],
              "internalType": "struct StorableMsg",
              "name": "message",
              "type": "tuple"
            },
            {
              "internalType": "bool",
              "name": "wrapped",
              "type": "bool"
            }
          ],
          "internalType": "struct CrossMsg",
          "name": "crossMsg",
          "type": "tuple"
        }
      ],
      "name": "sendCrossMessage",
      "outputs": [],
      "stateMutability": "payable",
      "type": "function"
    },
    {
      "inputs": [
        {
          "internalType": "address[]",
          "name": "validators",
          "type": "address[]"
        },
        {
          "internalType": "uint256[]",
          "name": "weights",
          "type": "uint256[]"
        }
      ],
      "name": "setMembership",
      "outputs": [],
      "stateMutability": "nonpayable",
      "type": "function"
    },
    {
      "inputs": [],
      "name": "submissionPeriod",
      "outputs": [
        {
          "internalType": "uint64",
          "name": "",
          "type": "uint64"
        }
      ],
      "stateMutability": "view",
      "type": "function"
    },
    {
      "inputs": [
        {
          "components": [
            {
              "internalType": "uint64",
              "name": "epoch",
              "type": "uint64"
            },
            {
              "components": [
                {
                  "components": [
                    {
                      "components": [
                        {
                          "components": [
                            {
                              "internalType": "uint64",
                              "name": "root",
                              "type": "uint64"
                            },
                            {
                              "internalType": "address[]",
                              "name": "route",
                              "type": "address[]"
                            }
                          ],
                          "internalType": "struct SubnetID",
                          "name": "subnetId",
                          "type": "tuple"
                        },
                        {
                          "internalType": "address",
                          "name": "rawAddress",
                          "type": "address"
                        }
                      ],
                      "internalType": "struct IPCAddress",
                      "name": "from",
                      "type": "tuple"
                    },
                    {
                      "components": [
                        {
                          "components": [
                            {
                              "internalType": "uint64",
                              "name": "root",
                              "type": "uint64"
                            },
                            {
                              "internalType": "address[]",
                              "name": "route",
                              "type": "address[]"
                            }
                          ],
                          "internalType": "struct SubnetID",
                          "name": "subnetId",
                          "type": "tuple"
                        },
                        {
                          "internalType": "address",
                          "name": "rawAddress",
                          "type": "address"
                        }
                      ],
                      "internalType": "struct IPCAddress",
                      "name": "to",
                      "type": "tuple"
                    },
                    {
                      "internalType": "uint256",
                      "name": "value",
                      "type": "uint256"
                    },
                    {
                      "internalType": "uint64",
                      "name": "nonce",
                      "type": "uint64"
                    },
                    {
                      "internalType": "bytes4",
                      "name": "method",
                      "type": "bytes4"
                    },
                    {
                      "internalType": "bytes",
                      "name": "params",
                      "type": "bytes"
                    }
                  ],
                  "internalType": "struct StorableMsg",
                  "name": "message",
                  "type": "tuple"
                },
                {
                  "internalType": "bool",
                  "name": "wrapped",
                  "type": "bool"
                }
              ],
              "internalType": "struct CrossMsg[]",
              "name": "topDownMsgs",
              "type": "tuple[]"
            }
          ],
          "internalType": "struct TopDownCheckpoint",
          "name": "checkpoint",
          "type": "tuple"
        }
      ],
      "name": "submitTopDownCheckpoint",
      "outputs": [],
      "stateMutability": "nonpayable",
      "type": "function"
    },
    {
      "inputs": [
        {
          "internalType": "bytes32",
          "name": "",
          "type": "bytes32"
        }
      ],
      "name": "subnets",
      "outputs": [
        {
          "internalType": "enum Status",
          "name": "status",
          "type": "uint8"
        },
        {
          "internalType": "uint64",
          "name": "topDownNonce",
          "type": "uint64"
        },
        {
          "internalType": "uint64",
          "name": "appliedBottomUpNonce",
          "type": "uint64"
        },
        {
          "internalType": "uint256",
          "name": "stake",
          "type": "uint256"
        },
        {
          "internalType": "uint256",
          "name": "genesisEpoch",
          "type": "uint256"
        },
        {
          "internalType": "uint256",
          "name": "circSupply",
          "type": "uint256"
        },
        {
          "components": [
            {
              "internalType": "uint64",
              "name": "root",
              "type": "uint64"
            },
            {
              "internalType": "address[]",
              "name": "route",
              "type": "address[]"
            }
          ],
          "internalType": "struct SubnetID",
          "name": "id",
          "type": "tuple"
        },
        {
          "components": [
            {
              "components": [
                {
                  "internalType": "uint64",
                  "name": "root",
                  "type": "uint64"
                },
                {
                  "internalType": "address[]",
                  "name": "route",
                  "type": "address[]"
                }
              ],
              "internalType": "struct SubnetID",
              "name": "source",
              "type": "tuple"
            },
            {
              "internalType": "uint64",
              "name": "epoch",
              "type": "uint64"
            },
            {
              "internalType": "uint256",
              "name": "fee",
              "type": "uint256"
            },
            {
              "components": [
                {
                  "components": [
                    {
                      "components": [
                        {
                          "components": [
                            {
                              "internalType": "uint64",
                              "name": "root",
                              "type": "uint64"
                            },
                            {
                              "internalType": "address[]",
                              "name": "route",
                              "type": "address[]"
                            }
                          ],
                          "internalType": "struct SubnetID",
                          "name": "subnetId",
                          "type": "tuple"
                        },
                        {
                          "internalType": "address",
                          "name": "rawAddress",
                          "type": "address"
                        }
                      ],
                      "internalType": "struct IPCAddress",
                      "name": "from",
                      "type": "tuple"
                    },
                    {
                      "components": [
                        {
                          "components": [
                            {
                              "internalType": "uint64",
                              "name": "root",
                              "type": "uint64"
                            },
                            {
                              "internalType": "address[]",
                              "name": "route",
                              "type": "address[]"
                            }
                          ],
                          "internalType": "struct SubnetID",
                          "name": "subnetId",
                          "type": "tuple"
                        },
                        {
                          "internalType": "address",
                          "name": "rawAddress",
                          "type": "address"
                        }
                      ],
                      "internalType": "struct IPCAddress",
                      "name": "to",
                      "type": "tuple"
                    },
                    {
                      "internalType": "uint256",
                      "name": "value",
                      "type": "uint256"
                    },
                    {
                      "internalType": "uint64",
                      "name": "nonce",
                      "type": "uint64"
                    },
                    {
                      "internalType": "bytes4",
                      "name": "method",
                      "type": "bytes4"
                    },
                    {
                      "internalType": "bytes",
                      "name": "params",
                      "type": "bytes"
                    }
                  ],
                  "internalType": "struct StorableMsg",
                  "name": "message",
                  "type": "tuple"
                },
                {
                  "internalType": "bool",
                  "name": "wrapped",
                  "type": "bool"
                }
              ],
              "internalType": "struct CrossMsg[]",
              "name": "crossMsgs",
              "type": "tuple[]"
            },
            {
              "components": [
                {
                  "components": [
                    {
                      "internalType": "uint64",
                      "name": "root",
                      "type": "uint64"
                    },
                    {
                      "internalType": "address[]",
                      "name": "route",
                      "type": "address[]"
                    }
                  ],
                  "internalType": "struct SubnetID",
                  "name": "source",
                  "type": "tuple"
                },
                {
                  "internalType": "bytes32[]",
                  "name": "checks",
                  "type": "bytes32[]"
                }
              ],
              "internalType": "struct ChildCheck[]",
              "name": "children",
              "type": "tuple[]"
            },
            {
              "internalType": "bytes32",
              "name": "prevHash",
              "type": "bytes32"
            },
            {
              "internalType": "bytes",
              "name": "proof",
              "type": "bytes"
            }
          ],
          "internalType": "struct BottomUpCheckpoint",
          "name": "prevCheckpoint",
          "type": "tuple"
        }
      ],
      "stateMutability": "view",
      "type": "function"
    },
    {
      "inputs": [],
      "name": "topDownCheckPeriod",
      "outputs": [
        {
          "internalType": "uint64",
          "name": "",
          "type": "uint64"
        }
      ],
      "stateMutability": "view",
      "type": "function"
    },
    {
      "inputs": [],
      "name": "totalSubnets",
      "outputs": [
        {
          "internalType": "uint64",
          "name": "",
          "type": "uint64"
        }
      ],
      "stateMutability": "view",
      "type": "function"
    },
    {
      "inputs": [],
      "name": "totalWeight",
      "outputs": [
        {
          "internalType": "uint256",
          "name": "",
          "type": "uint256"
        }
      ],
      "stateMutability": "view",
      "type": "function"
    },
    {
      "inputs": [],
      "name": "validatorNonce",
      "outputs": [
        {
          "internalType": "uint256",
          "name": "",
          "type": "uint256"
        }
      ],
      "stateMutability": "view",
      "type": "function"
    },
    {
      "inputs": [
        {
          "internalType": "uint256",
          "name": "",
          "type": "uint256"
        },
        {
          "internalType": "address",
          "name": "",
          "type": "address"
        }
      ],
      "name": "validatorSet",
      "outputs": [
        {
          "internalType": "uint256",
          "name": "",
          "type": "uint256"
        }
      ],
      "stateMutability": "view",
      "type": "function"
    },
    {
      "inputs": [
        {
          "internalType": "bytes32",
          "name": "msgCid",
          "type": "bytes32"
        },
        {
          "internalType": "address[]",
          "name": "owners",
          "type": "address[]"
        }
      ],
      "name": "whitelistPropagator",
      "outputs": [],
      "stateMutability": "nonpayable",
      "type": "function"
    }
  ],
  "bytecode": {
    "object": "0x610140604081815234620004b85762006664803803809162000022828662000510565b84398201906020928381840312620004b85780516001600160401b0391828211620004b857019360a085850312620004b85782519160a0830183811082821117620004de578085528651828111620004b85787018581880312620004b8576200008b82620004f4565b620000968162000534565b82528381015190838211620004b857019580601f88011215620004b857865190838211620004de5760059782891b90885193620000d68884018662000510565b84528680850192820101928311620004b8578601905b828210620004bd5750505060c085015283526200010b82870162000534565b928281019384526200011f85880162000534565b91858201838152608060608a015199606085019a8b52015160ff811694858203620004b85783916080860152169060019660009588875560648111620004a75760805286600a93848110600014620004a0575083955b8660a0528560018060401b03199716876002541617600255518581511660049788541617875501518051908582116200048d576801000000000000000082116200048d5788908c838154915580841062000460575b50908694939291018c89528989208b8a5b848110620004415750505050508290670de0b6b3a764000060c05251168381106000146200043b5750825b60e0525116818110156200042d57509791849197925b610100998a5251976101209889528751906200023882620004f4565b80835416825288519081858754918281520196885285882090885b8b8282106200040e57505050506200026f828697038362000510565b84830191825289519586946310c5511f60e31b8652850152606484019251166024840152519088604484015281518091528360848401920190865b89828210620003ed57505050508190038173__$a0fe38a9a81205afccc10810b09a4d3f45$__5af4928315620003e35782936200039a575b50505062000388575b50519061611a92836200054a843960805183818161191c0152615faf015260a0518381816117d001528181612d130152615f7a015260c0518381816118b401528181612664015281816129390152612b90015260e0518381816131970152615afd01525182610d0501525181818161072b01528181610c4501528181612aaf01528181612b1b01528181614afa0152818161517f01526155b30152f35b60ff19601154161760115538620002eb565b9080929350813d8311620003db575b620003b5818362000510565b81010312620003d75751908115158203620003d45750388080620002e2565b80fd5b5080fd5b503d620003a9565b85513d84823e3d90fd5b83516001600160a01b031685528996889650948501949093019201620002aa565b83546001600160a01b03168a5298909701978a97928101920162000253565b90509791849197926200021c565b62000206565b83516001600160a01b031683820155899750928c01928d9101620001db565b8d8a528b84848c2092830192015b8281106200047e575050620001ca565b8b81558c94508d91016200046e565b634e487b7160e01b885260418752602488fd5b9562000175565b89516375c3b42760e01b8152600490fd5b600080fd5b81516001600160a01b0381168103620004b8578152908601908601620000ec565b634e487b7160e01b600052604160045260246000fd5b604081019081106001600160401b03821117620004de57604052565b601f909101601f19168101906001600160401b03821190821017620004de57604052565b51906001600160401b0382168203620004b85756fe6080604052600436101561001257600080fd5b6000803560e01c806302e30f9a146131c657806306c46853146131815780630ea746f2146130c957806310d500e11461308c57806311c5080e14612e81578063133f74ea14612dd757806313f3538814612d65578063158ef93e14612d42578063185fde7e14612cfd5780631aa3a00814612b82578063223d905614612b3e5780632472942514612b0357806325bf0db6146129ee5780632cc14ea21461295c578063375b3c0a146129215780633c8fe6bf146128d857806341b6a2e8146128af57806341c0e1b5146126b157806345f544851461260757806351392fc0146125dc5780635926519514611940578063599c7bd1146119025780635a627dbc146118645780635dfb989214610ddb57806366d7bbbc14610d755780636cb2ecee14610d345780637d9740f414610cef57806386d1a69f14610c245780638789f83b14610bf957806388f6aea514610bba5780638cfd78e714610b6657806391be4d4114610b4357806394074b0314610b0a57806396c82e5714610aec5780639d3070b514610aa8578063a1ada30314610a8c578063a2b6715814610a63578063ad81e24414610a3a578063c66c66a11461087e578063cfb3452f1461070f578063e17a684f146106f1578063f75bc5571461057b578063f8703bb8146104635763f871fd221461020157600080fd5b61020a36613b5a565b610212614a66565b61021a614af8565b604061022682806145b2565b01353403610451578061025961023f8261025f946145b2565b6001600160a01b03936020928592849190828101906140e1565b016145c7565b161561043f5761028b61027b61027584806145b2565b806140e1565b6102863691806140e1565b613b13565b9173__$a0fe38a9a81205afccc10810b09a4d3f45$__936102c46040519463c836244d60e01b8652604060048701526044860190613781565b938381806102de6003199889838203016024840152614b33565b0381895af49081156104345787916103fb575b50156103e9576103088361025961027585806145b2565b339116036103d7578461027b936103899561037a61035561033161032c36886146c1565b614d31565b98909761034c60406103438a806145b2565b013598806145b2565b908101906140e1565b6040519889948593849363089032d560e01b8552604060048601526044850190613781565b90838203016024840152614b33565b03915af49081156103cc576103a59486926103a8575b5061511a565b80f35b6103c59192503d8088833e6103bd8183613310565b810190613dbe565b903861039f565b6040513d87823e3d90fd5b60405163f2ae70cb60e01b8152600490fd5b604051638481de4960e01b8152600490fd5b90508381813d831161042d575b6104128183613310565b810103126104295761042390613c48565b386102f1565b8680fd5b503d610408565b6040513d89823e3d90fd5b604051637c5d310960e11b8152600490fd5b604051631036b5ad60e31b8152600490fd5b50346105785760208060031936011261057457600435610481613f46565b80156105625761049033615cc0565b92901561055057806104a760046104c895016133b3565b60405180958192632cff562160e11b83528460048401526024830190613781565b038173__$a0fe38a9a81205afccc10810b09a4d3f45$__5af490811561054557849161050a575b5061050392506001600160a01b0316613ef7565b6001815580f35b905082813d831161053e575b6105208183613310565b8101031261053a5761053461050392613d07565b386104ef565b8280fd5b503d610516565b6040513d86823e3d90fd5b604051630e991abd60e41b8152600490fd5b60405163c79cad7b60e01b8152600490fd5b5080fd5b80fd5b5034610578576040366003190112610578576001600160401b0360043581811161053a576105ad903690600401613aad565b9060243590811161053a573660238201121561053a578060040135916105d283613429565b916105e06040519384613310565b83835260209360248585019160051b83010191368311610429576024869101915b8383106106e15750505050610614613c55565b80518251036106cf57600e80549260001984146106bb57600180940182558594835193875b858110610648578888600c5580f35b6001600160a01b0361065a8284614ba0565b51168061066a575b508601610639565b61067782869a939a614ba0565b5180156106a95788926106a29288548d52600d875260408d2090600052865281604060002055613e92565b9790610662565b60405163389b457d60e01b8152600490fd5b634e487b7160e01b86526011600452602486fd5b60405163465f0a7d60e01b8152600490fd5b8235815291810191869101610601565b50346105785780600319360112610578576020600e54604051908152f35b5061071936613b5a565b610721614a66565b610729614af8565b7f00000000000000000000000000000000000000000000000000000000000000006107548134613e9f565b836040518080936302334d7960e51b8252606060048301526107796064830188614345565b903360248401526044830152038173__$33b79814e84bf6cf5e47244090b19ce5f8$__5af48015610545576107e7936107bf6107c692602094889161085c575b50615495565b3690613b13565b60405180948192632cff562160e11b83528460048401526024830190613781565b038173__$a0fe38a9a81205afccc10810b09a4d3f45$__5af48015610851578390610817575b6103a59250615bfa565b506020823d8211610849575b8161083060209383613310565b8101031261053a576108446103a592613d07565b61080d565b3d9150610823565b6040513d85823e3d90fd5b61087891503d808a833e6108708183613310565b810190614972565b386107b9565b50346105785761088d36613b5a565b906108f16108ec604051936108a1856132be565b8385528360208601528360408601528360608601528360808601528360a08601526108ca613b8b565b60c08601526108d7613ba5565b60e08601526060610100809601523690613b13565b615d3e565b92909160405193610901856132be565b80549160ff8316906006821015610a26575085526020850191600160401b60019003808260081c16845280604088019260481c1682526001830154606088019081526002840154906080890191825260038501549260a08a019384526004860161096a906133b3565b60c08b01908152948161097f6006890161363a565b9760e08d01988952600e01610993906135e4565b988a8d01998a526040519c8d9c15158d5260208d016040905260408d019051906109bc9161375e565b511660608b0152511660808901525160a08801525160c08701525160e086015251610120809486015261016085016109f391613781565b905190603f1993848683030190860152610a0c9161393c565b90519183820301610140840152610a22916138e0565b0390f35b634e487b7160e01b81526021600452602490fd5b50346105785780600319360112610578576001546040516001600160401b039091168152602090f35b50346105785780600319360112610578576006546040516001600160401b039091168152602090f35b50346105785780600319360112610578576020604051600a8152f35b503461057857602036600319011261057857600435906001600160401b038211610578576020600e610ae06108ec3660048701613b13565b90500154604051908152f35b50346105785780600319360112610578576020600c54604051908152f35b5034610578578060031936011261057857610b23613b8b565b50610a22610b2f613333565b604051918291602083526020830190613781565b50346105785780600319360112610578576020604051670de0b6b3a76400008152f35b5034610578576020366003190112610578576040610bae91600435815260086020522060ff6009610b968361354e565b9201541660405192839260408452604084019061384d565b90151560208301520390f35b503461057857610bd06108ec3661028636613b5a565b901561055057610be5600e610a2292016135e4565b6040519182916020835260208301906138e0565b5034610578578060031936011261057857600b546040805191901c6001600160401b03168152602090f35b508060031936011261057857610c38614a66565b610c40614af8565b610c6a7f000000000000000000000000000000000000000000000000000000000000000034613e9f565b81604051808093632c9680ef60e01b825260606004830152610c8e60648301614b33565b903360248401526044830152038173__$33b79814e84bf6cf5e47244090b19ce5f8$__5af48015610ce4576103a5918391610cca575b50615586565b610cde91503d8085833e6108708183613310565b38610cc4565b6040513d84823e3d90fd5b50346105785780600319360112610578576040517f00000000000000000000000000000000000000000000000000000000000000006001600160401b03168152602090f35b503461057857602036600319011261057857610d56610d51613a59565b614bfa565b90610a226040519283921515835260406020840152604083019061393c565b5034610578576040366003190112610578576040610d91613a59565b91610d9a613a83565b92600180841b03168152601260205260038282208054835201602052209060018060a01b0316600052602052602060ff604060002054166040519015158152f35b503461057857610dea36613b5a565b610df2614a66565b610dfb816140f6565b6001546001600160401b039182169181168211156118525760401c6001600160401b0316908181116117bf575b5050600e548252600d60205260408220336000526020526040600020549060ff60115416156117ad57811561179b57610e8b6020610e688184018461457d565b604051638984147560e01b81526004810184905293849283926024840191614456565b038173__$33b79814e84bf6cf5e47244090b19ce5f8$__5af4908115610545578491611761575b501561174f576001600160401b03610ec9826140f6565b1683526012602052604083209060408136031261174b5760405192610eed84613275565b610ef682613a6f565b845260208201356001600160401b0381116115ec57820136601f820112156115ec57610f4c94610f2e602092369084813591016147c6565b8282015260405180968192630edf122560e41b835260048301614ced565b038173__$1cd67d4dc9e627f0bec7928aa480e7d951$__5af49384156103cc578594611712575b50610f7d826140f6565b600c5491869285549182895260038701602052604089203360005260205260ff6040600020541661170057828891611050948b526003890160205260408b20336000526020526040600020600160ff1982541617905560018901610fe2828254613e92565b9055818b526004890160205260408b20838c5260205261100760408c20918254613e92565b9055808a526004880160205260408a2090600289019182548c5260205260408b2054908b526004890160205260408b20838c5260205260408b2054116116f8575b505085615fab565b60048110156116e4578691906003810361168b575061106e81615f6a565b15611603575050506001925b808552600583016020526110ce6020604087206110b060016040519261109f84613275565b818060401b038154168452016135e4565b8282015260405180938192632d34315760e01b835260048301614ced565b038173__$1cd67d4dc9e627f0bec7928aa480e7d951$__5af49081156115f85786916115ba575b5061122f575b50506060916111ce575b5080511561113b575b6103a59060405161111e816132f5565b8381526040519061112e82613275565b84825260208201526155fc565b60025460401c6001600160401b03169061115482615f6a565b611160575b905061110e565b508152601260205261117460408220614cc2565b805461117f81613429565b9161118d6040519384613310565b81835283526020808420849184015b8383106111b057505050506103a590611159565b600a60206001926111c0856135ba565b81520192019201919061119c565b6111d89150614cc2565b80546111e381613429565b916111f16040519384613310565b81835283526020808420849184015b838310611211575050505038611105565b600a6020600192611221856135ba565b815201920192019190611200565b8452600582016020526040842061126e906001906001600160401b03611254856140f6565b16828060401b03198254161781550191602081019061457d565b906112798284614048565b918552602085208592805b838510611293575050506110fb565b61129d81836140e1565b6112a781806145b2565b6112b181806140e1565b6112ea6112be82806140e1565b6001600160401b036112cf826140f6565b89546001600160401b0319169116178855602081019061457d565b906001600160401b03821161158b5760018801906113088383613e46565b908d5260208d208d5b83811061159f5750505060028701916001600160a01b039150611336906020016145c7565b82546001600160a01b03191691161790556003850161139361135b60208401846140e1565b9161136683806140e1565b906001600160401b03611378836140f6565b82546001600160401b0319169116179055602081019061457d565b906001600160401b03821161158b5760048801906113b18383613e46565b908d5260208d208d5b8381106115705750505060058701916001600160a01b0391506113df906020016145c7565b82546001600160a01b03191691161790556040810135600686015560078501906001600160401b03611413606083016140f6565b83546001600160401b03191691161782556080810135916001600160e01b03198316830361156c5761145292611448916145db565b60a08101906145fe565b906001600160401b0382116115585761147b82611472600889015461346e565b60088901614630565b8a90601f83116001146114e85760209392918c91836114dd575b50508160011b916000199060031b1c19161760088601555b01359081151582036114d9576020600a916114cd60019460098801613c37565b01930194019391611284565b8880fd5b013590503880611495565b600887018c5260208c20918c5b601f1985168110611540575091839160019360209695601f19811610611526575b505050811b0160088601556114ad565b0135600019600384901b60f8161c19169055388080611516565b909260206001819286860135815501940191016114f5565b634e487b7160e01b8b52604160045260248bfd5b8b80fd5b600190602061157e856145c7565b94019381840155016113ba565b634e487b7160e01b8d52604160045260248dfd5b60019060206115ad856145c7565b9401938184015501611311565b90506020813d6020116115f0575b816115d560209383613310565b810103126115ec576115e690613c48565b386110f5565b8580fd5b3d91506115c8565b6040513d88823e3d90fd5b94919473__$b7b8687e33476c74e3b4e0a64c4768a343$__3b156105745760405163199b9ca560e01b8152600260048201526001600160401b039091166024820152818160448173__$b7b8687e33476c74e3b4e0a64c4768a343$__5af48015610ce457611673575b505061107a565b61167c906132ab565b61168757843861166c565b8480fd5b9050600291509491940361107a578473__$e0f829f5071d7e628aa77eca0c12e35bc2$__803b15610574578160249160405192838092635a27a53960e11b82528960048301525af48015610ce45761167357505061107a565b634e487b7160e01b87526021600452602487fd5b558638611048565b6040516337138f5f60e11b8152600490fd5b9093506020813d602011611743575b8161172e60209383613310565b8101031261173e57519238610f73565b600080fd5b3d9150611721565b8380fd5b604051630bd9169f60e01b8152600490fd5b90506020813d602011611793575b8161177c60209383613310565b8101031261174b5761178d90613c48565b38610eb2565b3d915061176f565b604051632ec5b44960e01b8152600490fd5b6040516321c4e35760e21b8152600490fd5b036001600160401b03811161183c577f00000000000000000000000000000000000000000000000000000000000000006001600160401b03168015611828576001600160401b039182160616611816573880610e28565b60405163b4f68f9760e01b8152600490fd5b634e487b7160e01b84526012600452602484fd5b634e487b7160e01b600052601160045260246000fd5b604051631f30cc6360e21b8152600490fd5b50806003193601126105785734156104515761187f33615cc0565b90156105505760018101611894348254613e92565b80915581549060ff821660068110156118ee576003146118b2578380f35b7f000000000000000000000000000000000000000000000000000000000000000011156118de57808380f35b60ff191660021790553880808380f35b634e487b7160e01b85526021600452602485fd5b5034610578578060031936011261057857602060405160ff7f0000000000000000000000000000000000000000000000000000000000000000168152f35b503461057857600319602036820112610574576001600160401b03600435116105745760e090600435360301126105785760ff60115416156117ad576119b46020611993366102866004803501806140e1565b60405180938192632cff562160e11b83528460048401526024830190613781565b038173__$a0fe38a9a81205afccc10810b09a4d3f45$__5af48015610ce45782906125a1575b6119e49150614835565b336001600160a01b039091160361258f576119fe33615cc0565b905060ff815416600681101561257b576002036125695760088101546001600160401b0390811690611a346004356024016140f6565b1611156125575760a460043501356124b4575b611a4f615af3565b911561245a575b73__$1cd67d4dc9e627f0bec7928aa480e7d951$__3b1561174b5783604051809263445cc97560e01b825284600483015260a06024830152611b09611aba611aa86004356004016004356004016142fc565b60e060a4860152610184850190614345565b6001600160401b03611ad0600435602401613a6f565b1660c48501526044600435013560e4850152611af6606460043501600435600401614310565b85830360a3190161010487015290614456565b611b1d608460043501600435600401614310565b60a31985840301610124860152808352602083019060208160051b850101938388915b8383106123c85750505050505090611b87839260a46004350135610144850152611b7460c4600435016004356004016143f6565b85830360a3190161016487015290614428565b600f6044840152601060648401526001600160401b039091166084830152038173__$1cd67d4dc9e627f0bec7928aa480e7d951$__5af48015610545576123b5575b508290611be060646004350160043560040161457d565b8591505b80821061235357505090611c056003611c0b93015460446004350135613e92565b90613e92565b60038201549080821061234157611c2191613e9f565b6003820155611c66611c376004803501806140e1565b6001600160401b03611c48826140f6565b16600684019060018060401b0319825416179055602081019061457d565b906001600160401b03821161232d576007830190611c848383613e46565b90845260208420845b8381106123125785856001600160401b03611cac6004356024016140f6565b1660018060401b0319600883015416176008820155604460043501356009820155611ce160646004350160043560040161457d565b600a830191611cf08284614048565b918452602084208492805b838510612072578686611d1860846004350160043560040161457d565b9190600160401b8311611fb657600b82015483600b84015580841061200f575b50600b82018452602084208491805b858410611e9a5786600d8660a46004350135600c8201550190611d7460c4600435016004356004016145fe565b9092906001600160401b038111611e8657611d9981611d93845461346e565b84614630565b82601f8211600114611e2357839482939492611e18575b50508160011b916000199060031b1c19161790555b611e08611dfa611e02611ddc6004803501806140e1565b611df060646004350160043560040161457d565b9390913690613b13565b9236916147c6565b906155fc565b6103a56044600435013533615bfa565b013590508480611db0565b601f198216948385526020852091855b878110611e6e575083600195969710611e54575b505050811b019055611dc5565b0135600019600384901b60f8161c19169055848080611e47565b90926020600181928686013581550194019101611e33565b634e487b7160e01b83526041600452602483fd5b611ea481836140e1565b611edd611eb182806140e1565b6001600160401b03611ec2826140f6565b87546001600160401b0319169116178655602081019061457d565b906001600160401b038211611ffb576001860190611efb8383613e46565b908a5260208a208a5b838110611fe05750505050806020611f1d92019061457d565b906001600160401b038211611fcc57600160401b8211611fb6576002850154826002870155808310611f89575b5060028501895260208920895b838110611f7557505050506003602060019201930193019291611d47565b600190602084359401938184015501611f57565b600286016000526020600020908382015b8183018110611faa575050611f4a565b60008155600101611f9a565b634e487b7160e01b600052604160045260246000fd5b634e487b7160e01b89526041600452602489fd5b6001906020611fee856145c7565b9401938184015501611f04565b634e487b7160e01b8a52604160045260248afd5b600381810204810361183c57600384810204840361183c57600b830160005260206000208460030281015b826003028201811061204d575050611d38565b8060006003925561206060018201613e22565b61206c600282016140ac565b0161203a565b61207c81836140e1565b61208681806145b2565b61209081806140e1565b61209d6112be82806140e1565b906001600160401b0382116122e35760018801906120bb8383613e46565b908c5260208c208c5b8381106122f75750505060028701916001600160a01b0391506120e9906020016145c7565b82546001600160a01b03191691161790556003850161210e61135b60208401846140e1565b906001600160401b0382116122e357600488019061212c8383613e46565b908c5260208c208c5b8381106122c85750505060058701916001600160a01b03915061215a906020016145c7565b82546001600160a01b0319169116179055604081013560068601556001600160401b03612189606083016140f6565b600787018054919092166001600160401b0319909116178155608082013591906001600160e01b0319831683036122c4576121c792611448916145db565b906001600160401b038211611ffb576121e782611472600889015461346e565b8990601f83116001146122545760209392918b9183612249575b50508160011b916000199060031b1c19161760088601555b0135908115158203612245576020600a9161223960019460098801613c37565b01930194019391611cfb565b8780fd5b013590508b80612201565b600887018b5260208b20918b5b601f19851681106122ac575091839160019360209695601f19811610612292575b505050811b016008860155612219565b0135600019600384901b60f8161c191690558b8080612282565b90926020600181928686013581550194019101612261565b8a80fd5b60019060206122d6856145c7565b9401938184015501612135565b634e487b7160e01b8c52604160045260248cfd5b6001906020612305856145c7565b94019381840155016120c4565b6001906020612320856145c7565b9401938184015501611c8d565b634e487b7160e01b84526041600452602484fd5b604051631d36ca1560e21b8152600490fd5b909261236960646004350160043560040161457d565b8510156123a157600191604061239161238b612399948960051b8101906140e1565b806145b2565b013590613e92565b930190611be4565b634e487b7160e01b87526032600452602487fd5b6123c1909391936132ab565b9138611bc9565b92959194975092959750601f198282030186526123e587846142fc565b9061240f6124046123f684806142fc565b604084526040840190614345565b926020810190614310565b82840360209093019290925281835290916001600160fb1b0383116124565760208092819260019560051b80928483013701019801960193018b9795939289979592611b40565b8d80fd5b60048203612485575b6002820180546001600160401b0319166001600160401b038316179055611a56565b60045482546001600160401b0319166001600160401b03919091161782556124af6001830161428b565b612463565b6124df60206124c56006840161363a565b604051809381926339aa47fb60e01b83526004830161415f565b038173__$1cd67d4dc9e627f0bec7928aa480e7d951$__5af4908115610851578391612525575b5060043560a4013514611a47576040516312232e5d60e11b8152600490fd5b90506020813d60201161254f575b8161254060209383613310565b8101031261053a575138612506565b3d9150612533565b60405163fae4eadb60e01b8152600490fd5b60405163c18316bf60e01b8152600490fd5b634e487b7160e01b83526021600452602483fd5b604051637f39132760e11b8152600490fd5b506020813d6020116125d4575b816125bb60209383613310565b81010312610574576125cf6119e491613d07565b6119da565b3d91506125ae565b50346105785780600319360112610578576001546040805191901c6001600160401b03168152602090f35b50346105785760208060031936011261057457600435612625613f46565b80156105625761263433615cc0565b92901561055057600183019283549383851061269f57600483926104a79261265f876104c899613e9f565b8091557f00000000000000000000000000000000000000000000000000000000000000001161268f575b016133b3565b805460ff19166003178155612689565b6040516379b33e7960e01b8152600490fd5b50346105785780600319360112610578576126cb33615cc0565b90156105505760038082015461289d576001828101546006549093919291906001600160401b0380821660001901818111612889576001600160401b031990921691161760065561274790612722906004016133b3565b604051906390ba52cf60e01b8252818060209485938460048401526024830190613781565b038173__$a0fe38a9a81205afccc10810b09a4d3f45$__5af49081156115f857869161285c575b5085526007815260408520928584558581850155600290868286015586848601558660048601556127a160058601613e22565b8660068601556127b360078601613e22565b8660088601558660098601556127cb600a8601614000565b600b85019283549388815584612805575b886103a5896127ff600e8b85600c8201556127f9600d8201613f69565b01614000565b33613ef7565b84860294868604036128485788528720928301925b83811061282757806127dc565b8088869255612837838201613e22565b6128428482016140ac565b0161281a565b634e487b7160e01b89526011600452602489fd5b90508181813d8311612882575b6128738183613310565b810103126115ec57513861276e565b503d612869565b634e487b7160e01b88526011600452602488fd5b604051637c67c70160e11b8152600490fd5b5034610578578060031936011261057857600b546040516001600160401b039091168152602090f35b50346105785760403660031901126105785760ff60406020926128f9613a83565b6004358252600985528282206001600160a01b03909116825284522054604051911615158152f35b503461057857806003193601126105785760206040517f00000000000000000000000000000000000000000000000000000000000000008152f35b5034610578576020366003190112610578576129d1906001600160401b0390610a22906040908361298b613a59565b168152600a6020522061299d816133b3565b92600282015416906003810154906129bc6007600683015492016134a8565b9160405196879660a0885260a0880190613781565b936020870152604086015260608501528382036080850152613828565b5060031960203682011261057457600435612a07614af8565b612a1081614bc4565b808352600860205260408320612a2861032c826135ba565b9290918561037a612a406003600685015494016133b3565b612a66604051988993849363089032d560e01b8552604060048601526044850190613781565b038173__$a0fe38a9a81205afccc10810b09a4d3f45$__5af49182156115f857612aaa958793612ae7575b5086526008602052612aa560408720613fb2565b61511a565b612ad47f000000000000000000000000000000000000000000000000000000000000000034613e9f565b80612add575080f35b6103a59033613ef7565b612afc9193503d8089833e6103bd8183613310565b9138612a91565b503461057857806003193601126105785760206040517f00000000000000000000000000000000000000000000000000000000000000008152f35b5034610578576040366003190112610578576040602091612b5d613a83565b6004358252600d84528282206001600160a01b03909116825283522054604051908152f35b5080600319360112610578577f0000000000000000000000000000000000000000000000000000000000000000341061045157612bdd81612bc1613333565b6040518093819263aa5106cb60e01b8352339060048401613de3565b038173__$a0fe38a9a81205afccc10810b09a4d3f45$__5af4908115610ce4578291612ce3575b50612c0e81615d3e565b90612cd15781516004820180546001600160401b03199081166001600160401b039384161790915560209384015180519294919392916005840191868411612cbd578190612c5c8585613e46565b0191875280872090875b848110612ca2575050505050346001820155600260ff1982541617815560024391015560065491612c98818416613e7a565b1691161760065580f35b83516001600160a01b03168382015592810192600101612c66565b634e487b7160e01b88526041600452602488fd5b604051631b538cdf60e11b8152600490fd5b612cf791503d8084833e6103bd8183613310565b38612c04565b50346105785780600319360112610578576040517f00000000000000000000000000000000000000000000000000000000000000006001600160401b03168152602090f35b5034610578578060031936011261057857602060ff601154166040519015158152f35b503461057857602036600319011261057857612d7f613a59565b612d87613c55565b60115460ff8116612dc65760018054600160401b600160801b03191660409390931b600160401b600160801b031692909217825560ff19161760115580f35b60405162dc149f60e41b8152600490fd5b50346105785760208060031936011261057457612e1681612df9610d51613a59565b604094919451809481926339aa47fb60e01b83526004830161415f565b038173__$1cd67d4dc9e627f0bec7928aa480e7d951$__5af4918215610545578492612e4e575b506040809450519215158352820152f35b9080925081813d8311612e7a575b612e668183613310565b8101031261174b5760409350519038612e3d565b503d612e5c565b5034610578576040366003190112610578576001600160401b0360043560243582811161174b573660238201121561174b57806004013592831161174b576024810190602436918560051b01011161174b57612edc82614bc4565b818452602060088152612ef9612ef4604087206135ba565b6160a1565b604051612f05816132f5565b86815260405190612f1582613275565b8782528382015260405190612f2982613275565b81528683820152604051612f3c816132f5565b87815260405190612f4c82613275565b8882528482015260405190612f6082613275565b8152878482015260405190612f74826132f5565b88825260405192612f8484613290565b83528483015287604083015287606083015287608083015260a082015260405190612fae82613275565b81528683820152604051612fde81612fd08682019487865260408301906138be565b03601f198101835282613310565b5190201461307a57845b848110612ff3578580f35b6001906001600160a01b038061301261300d848a89614bb4565b6145c7565b1661301f575b5001612fe8565b61302d61300d838988614bb4565b9086895260099081865260408a20921691828a52855260ff60408a20541615613057575b50613018565b8689528452604088209088528352604087208260ff198254161790553880613051565b604051632449894160e01b8152600490fd5b503461057857806003193601126105785760606002546040519060018060401b03908181168352818160401c16602084015260801c166040820152f35b5034610578576040366003190112610578576004356001600160401b0381116105745761316761315a610a229361310761316d943690600401613b13565b90602060405161311681613275565b60405161312281613290565b61312a613be5565b8152613134613be5565b83820152836040820152836060820152836080820152606060a082015281520152615d3e565b6024359150600e01613c05565b506135ba565b6040519182916020835260208301906138be565b50346105785780600319360112610578576040517f00000000000000000000000000000000000000000000000000000000000000006001600160401b03168152602090f35b50346105785760203660031901126105785760409060043581526007602052208054610a2260018301549261326760028201549160038101546132176006613210600485016133b3565b930161363a565b93604051978761322b8a60ff819b1661375e565b60018060401b0390818160081c1660208b015260481c1660408901526060880152608087015260a08601526101008060c0870152850190613781565b9083820360e085015261393c565b604081019081106001600160401b03821117611fb657604052565b60c081019081106001600160401b03821117611fb657604052565b6001600160401b038111611fb657604052565b61012081019081106001600160401b03821117611fb657604052565b60e081019081106001600160401b03821117611fb657604052565b602081019081106001600160401b03821117611fb657604052565b601f909101601f19168101906001600160401b03821190821017611fb657604052565b6040519061334082613275565b6004546001600160401b0316825260405160058054808352600091825260209185916000805160206160c5833981519152918591858301915b868282106133945750505061339092500384613310565b0152565b85546001600160a01b0316845260019586019589955093019201613379565b906040516133c081613275565b809260018060401b03815416825260018091019160405191828481955492838652602080960191600052856000209060005b8786821061340a575050505061339092500384613310565b83546001600160a01b03168552899550909301929181019181016133f2565b6001600160401b038111611fb65760051b60200190565b9060405161344d81613275565b6020819361345a816133b3565b8352600201546001600160a01b0316910152565b90600182811c9216801561349e575b602083101461348857565b634e487b7160e01b600052602260045260246000fd5b91607f169161347d565b90604051918260008254926134bc8461346e565b90818452600194858116908160001461352b57506001146134e8575b50506134e692500383613310565b565b9093915060005260209081600020936000915b8183106135135750506134e6935082010138806134d8565b855488840185015294850194879450918301916134fb565b9150506134e694506020925060ff191682840152151560051b82010138806134d8565b9060405161355b81613290565b60a06135b56008839561356d81613440565b855261357b60038201613440565b60208601526006810154604086015260078101546001600160401b0381166060870152841b6001600160e01b0319166080860152016134a8565b910152565b906040516135c781613275565b602060ff600983956135d88161354e565b85520154161515910152565b9081546135f081613429565b926135fe6040519485613310565b818452600090815260208082208186015b84841061361d575050505050565b600a8360019261362c856135ba565b81520192019301929061360f565b9060409182519061364a826132da565b8193613655826133b3565b835260029060018060401b038284015416602090818601526003908185015483870152613684600486016135e4565b6060870152600585019081549361369a85613429565b956136a782519788613310565b85875260009384528284209184908489015b8887106136e757505050505050505050600760c0926135b5926080860152600681015460a0860152016134a8565b87868351926136f584613275565b6136fe886133b3565b84528688019385518084875491828152019689528489209089905b80821061374357505050613731816001970382613310565b838201528152019501960195936136b9565b8254895297909501968e96508c956001928301920190613719565b90600682101561376b5752565b634e487b7160e01b600052602160045260246000fd5b80516001600160401b03168252602090810151604082840181905281519084018190526060909301929082019160005b8281106137bf575050505090565b83516001600160a01b0316855293810193928101926001016137b1565b9060206137f28351604084526040840190613781565b928101516001600160a01b031691015290565b60005b8381106138185750506000910152565b8181015183820152602001613808565b9060209161384181518092818552858086019101613805565b601f01601f1916010190565b6138bb9160a061387b613869845160c0855260c08501906137dc565b602085015184820360208601526137dc565b926040810151604084015260018060401b03606082015116606084015263ffffffff60e01b608082015116608084015201519060a0818403910152613828565b90565b906020806138d5845160408552604085019061384d565b930151151591015290565b908082519081815260208091019281808460051b8301019501936000915b84831061390e5750505050505090565b909192939495848061392c600193601f198682030187528a516138be565b98019301930191949392906138fe565b919091613952815160e0855260e0850190613781565b9260209160018060401b038382015116838301526139866040958683015187850152606083015184820360608601526138e0565b9460808201519383870360808501528451908188528088019281808460051b8b0101970193600091825b8584106139e157505050505050506138bb9394508060a060c092015160a084015201519060c0818403910152613828565b9091929380959699601f198d82030185528a5182613a06825187855287850190613781565b910151918381830391015282808351928381520192019084905b808210613a405750505090806001929b01940194019295949391906139b0565b9193806001929486518152019401920188939291613a20565b600435906001600160401b038216820361173e57565b35906001600160401b038216820361173e57565b602435906001600160a01b038216820361173e57565b35906001600160a01b038216820361173e57565b81601f8201121561173e57803591613ac483613429565b92613ad26040519485613310565b808452602092838086019260051b82010192831161173e578301905b828210613afc575050505090565b838091613b0884613a99565b815201910190613aee565b919060408382031261173e5760405190613b2c82613275565b8193613b3781613a6f565b83526020810135916001600160401b03831161173e576020926135b59201613aad565b6003199060208183011261173e57600435916001600160401b03831161173e578260409203011261173e5760040190565b60405190613b9882613275565b6060602083600081520152565b60405190613bb2826132da565b606060c083613bbf613b8b565b815260006020820152600060408201528280820152826080820152600060a08201520152565b60405190613bf282613275565b6000602083613bff613b8b565b81520152565b8054821015613c2157600052600a602060002091020190600090565b634e487b7160e01b600052603260045260246000fd5b9060ff801983541691151516179055565b5190811515820361173e57565b604051635d3f8a6960e01b815233600482015260208160248173__$e800e3908cdbb6b1b5bd452383a17b18f7$__5af4908115613ce757600091613cae575b5015613c9c57565b60405163f0d97f3b60e01b8152600490fd5b906020823d8211613cdf575b81613cc760209383613310565b810103126105785750613cd990613c48565b38613c94565b3d9150613cba565b6040513d6000823e3d90fd5b51906001600160401b038216820361173e57565b51906001600160a01b038216820361173e57565b919060408382031261173e5760405192613d3484613275565b83613d3e82613cf3565b815260208281015190926001600160401b03821161173e57019280601f8501121561173e578351613d6e81613429565b94613d7c6040519687613310565b818652848087019260051b82010192831161173e5784809101915b838310613da657505050500152565b8190613db184613d07565b8152019101908490613d97565b9060208282031261173e5781516001600160401b03811161173e576138bb9201613d1b565b90613dfb602091949394604084526040840190613781565b6001600160a01b03909416910152565b818110613e16575050565b60008155600101613e0b565b80546000825580613e31575050565b6134e691600052602060002090810190613e0b565b90600160401b8111611fb657815490808355818110613e6457505050565b6134e69260005260206000209182019101613e0b565b6001600160401b039081166001019190821161183c57565b9190820180921161183c57565b9190820391821161183c57565b6001600160401b038111611fb657601f01601f191660200190565b3d15613ef2573d90613ed882613eac565b91613ee66040519384613310565b82523d6000602084013e565b606090565b814710613f34576000918291829182916001600160a01b03165af1613f1a613ec7565b5015613f2257565b604051633204506f60e01b8152600490fd5b60405163356680b760e01b8152600490fd5b600260005414613f57576002600055565b604051633ee5aeb560e01b8152600490fd5b613f73815461346e565b9081613f7d575050565b81601f60009311600114613f8f575055565b908083918252613fae601f60208420940160051c840160018501613e0b565b5555565b6009600091828155613fc660018201613e22565b826002820155826003820155613fde60048201613e22565b826005820155826006820155826007820155613ffc60088201613f69565b0155565b8054600082558061400f575050565b600a91818302918383040361183c576000526020600020908101905b81811061403757505050565b806140428492613fb2565b0161402b565b90600160401b8111611fb65781549080835581811061406657505050565b600a92828402928484040361183c57818402918483040361183c57600052602060002091820191015b81811061409b57505050565b806140a68492613fb2565b0161408f565b805490600090818155826140bf57505050565b815260208120918201915b8281106140d657505050565b8181556001016140ca565b903590603e198136030182121561173e570190565b356001600160401b038116810361173e5790565b90815180825260208092019182818360051b82019501936000915b8483106141355750505050505090565b909192939495848061414f83856001950387528a516138be565b9801930193019194939290614125565b91909160209081815261417e845160e084840152610100830190613781565b9060018060401b03838601511694604095868301528581015160608301526141b8606082015193601f19948585830301608086015261410a565b95608082015194848489030160a08501528551908189528089019281808460051b8c0101980193600091825b85841061421557505050505050506138bb94955060c08160a060e09301518285015201519282850301910152613828565b909192938a8a8e8398999d030185528b5182614238825187855287850190613781565b910151918381830391015282808351928381520192019084905b8082106142725750505090806001929c01940194019295949391906141e4565b9193806001929486518152019401920188939291614252565b600581146142f957600554906001600160401b038211611fb6576142af8282613e46565b6000908152602081206000805160206160c583398151915280545b8484106142d8575050505050565b600191820180546001600160a01b03909216848601559390910192906142ca565b50565b9035603e198236030181121561173e570190565b9035601e198236030181121561173e570160208101919035906001600160401b03821161173e578160051b3603831361173e57565b60408201916001600160401b0361435b83613a6f565b168152606061436f60209384810190614310565b839195604086839601525201929160005b82811061438e575050505090565b909192938280600192838060a01b036143a689613a99565b16815201950193929101614380565b9060206143c56123f684806142fc565b926001600160a01b03906143da908301613a99565b1691015290565b35906001600160e01b03198216820361173e57565b9035601e198236030181121561173e570160208101919035906001600160401b03821161173e57813603831361173e57565b908060209392818452848401376000828201840152601f01601f1916010190565b3590811515820361173e57565b909182815260208091019283918160051b8501948460009081925b85841061448357505050505050505090565b9091929394959697818103885261449a89846142fc565b90813560be19833603018112156115ec57828892836145688161456160019882970160408087526145526144ce83806142fc565b926144e560c09485858c01526101008b01906143b5565b926144f2878301836142fc565b9461450c603f19956060978d8989828503019101526143b5565b95608092840135838d01528f806145299160401b03918501613a6f565b169160a092838d015261454563ffffffff60e01b9185016143e1565b16908b01528101906143f6565b918884030160e0890152614428565b9401614449565b15159101529a01980196959401929190614471565b903590601e198136030182121561173e57018035906001600160401b03821161173e57602001918160051b3603831361173e57565b90359060be198136030182121561173e570190565b356001600160a01b038116810361173e5790565b805463ffffffff60401b191660a09290921c63ffffffff60401b16919091179055565b903590601e198136030182121561173e57018035906001600160401b03821161173e5760200191813603831361173e57565b9190601f811161463f57505050565b6134e6926000526020600020906020601f840160051c8301931061466b575b601f0160051c0190613e0b565b909150819061465e565b91909160408184031261173e576040519061468f82613275565b90928391908135906001600160401b03821161173e57826146b9602094926135b594869401613b13565b855201613a99565b9190604092838183031261173e578351916146db83613275565b829482359260018060401b039384811161173e5781019360c08585031261173e5782519061470882613290565b853581811161173e578561471d918801614675565b82526020958681013582811161173e5786614739918301614675565b87840152848101358584015261475160608201613a6f565b6060840152614762608082016143e1565b608084015260a081013591821161173e57019284601f8501121561173e5783359461479861478f87613eac565b92519283613310565b85825286868601011161173e57600086866135b59782809801838601378301015260a0820152855201614449565b929190926147d384613429565b916147e16040519384613310565b829480845260208094019060051b83019282841161173e5780915b84831061480b57505050505050565b82356001600160401b03811161173e57869161482a86849386016146c1565b8152019201916147fc565b600080600160401b600160a01b03831660ff60981b14614870575b1561486c5761485e90614883565b90614867575090565b905090565b5090565b50506001600160401b0381166001614850565b60009081526016600a6020836002607f60991b015afa9181519161040a8360018060a01b03169360a01c61ffff16036148d9575b831580156148ce575b6148c75750565b9250829150565b5060163d14156148c0565b600093509150816148b7565b91909160408184031261173e57604051906148ff82613275565b805191938492906001600160401b03821161173e5782614928602094926135b594869401613d1b565b855201613d07565b81601f8201121561173e57805161494681613eac565b926149546040519485613310565b8184526020828401011161173e576138bb9160208085019101613805565b9060208282031261173e5781516001600160401b039283821161173e57019160408383031261173e57604051926149a884613275565b805182811161173e57810160c08185031261173e57604051906149ca82613290565b805184811161173e57856149df9183016148e5565b8252602081015184811161173e57856149f99183016148e5565b602083015260408101516040830152614a1460608201613cf3565b606083015260808101516001600160e01b03198116810361173e57608083015260a081015193841161173e57614a5e94602094614a519201614930565b60a0820152845201613c48565b602082015290565b604051630972932760e21b815233600482015260208160248173__$e800e3908cdbb6b1b5bd452383a17b18f7$__5af4908115613ce757600091614abf575b5015614aad57565b604051630a23da2b60e31b8152600490fd5b906020823d8211614af0575b81614ad860209383613310565b810103126105785750614aea90613c48565b38614aa5565b3d9150614acb565b7f00000000000000000000000000000000000000000000000000000000000000003410614b2157565b6040516334472ad760e11b8152600490fd5b6004546001600160401b03168152604060208083018290526005805492840183905260009081526060909301926000805160206160c583398151915292915b828210614b80575050505090565b83546001600160a01b031685529384019360019384019390910190614b72565b8051821015613c215760209160051b010190565b9190811015613c215760051b0190565b600052600960205260406000203360005260205260ff6040600020541615614be857565b6040516377f0d98160e11b8152600490fd5b614c02613ba5565b506001600160401b03166000908152600a602090815260408220614c4e90614c299061363a565b9282845160405180948192630c133d1360e31b83528460048401526024830190613781565b038173__$a0fe38a9a81205afccc10810b09a4d3f45$__5af4928315614cb5578193614c7c575b5050501591565b9091809350813d8311614cae575b614c948183613310565b810103126105785750614ca690613c48565b388080614c75565b503d614c8a565b50604051903d90823e3d90fd5b60059060028101546000520160205260016040600020614ce9828060401b03825416615e50565b0190565b602080825282516001600160401b03168282015291909101516040808301526138bb916060019061410a565b9081602091031261173e5751600281101561173e5790565b906020918281510151519273__$a0fe38a9a81205afccc10810b09a4d3f45$__604091825195630c133d1360e31b87526004928284890152602497838180614d7b8c820187613781565b0381855af490811561510f576000916150da575b506150ca57845163c836244d60e01b8082528582018790528994939291848180614dd1614dbf6044830189613781565b6003199a8b8483030190840152614b33565b0381865af49081156150bf5760009161508a575b5061507a579089939291885195848989614e2c8a515199614e1d84519c8d95869563f47ad7eb60e01b8752860152604485019061384d565b90868483030190840152614b33565b038173__$386b5c41ce93e8b832daf8008b3d30ae09$__5af496871561506f57600097615040575b508b600096600289101561502e578a918a9160018b14614f14575b505050505050505050614efb5715614e97575b5050614e8f919250615495565b600090600190565b600b54916001600160401b0383821c811692908314614ee75750600160401b600160801b031990921660019190910190911b600160401b600160801b031617600b559091508190614e8f38614e82565b60118791634e487b7160e01b600052526000fd5b5050919250614f0981615586565b510151151590600090565b839291614f4f91614f408c9a9b9c96519b8c968796631ccc893360e11b88528701526044860190613781565b91878584030190850152613781565b0381865af49485156150245789928794928e8b938899615002575b5090614f9991614f8b87519a8b988997889788528701526044860190613781565b918483030190840152614b33565b03915af4928315614ff6578193614fbd575b50505015388080808088888d83614e6f565b9091809350813d8311614fef575b614fd58183613310565b810103126105785750614fe790613c48565b388080614fab565b503d614fcb565b508551903d90823e3d90fd5b614f999291995061501c903d808b833e6103bd8183613310565b989091614f6a565b89513d86823e3d90fd5b50634e487b7160e01b87526021895286fd5b615061919750853d8711615068575b6150598183613310565b810190614d19565b9538614e54565b503d61504f565b89513d6000823e3d90fd5b8651632f3335ff60e21b81528690fd5b908582813d83116150b8575b6150a08183613310565b8101031261057857506150b290613c48565b38614de5565b503d615096565b88513d6000823e3d90fd5b845163461e815d60e01b81528490fd5b908482813d8311615108575b6150f08183613310565b81010312610578575061510290613c48565b38614d8f565b503d6150e6565b86513d6000823e3d90fd5b9092916151de575b5061512a5750565b60206151519160405180938192632cff562160e11b83528460048401526024830190613781565b038173__$a0fe38a9a81205afccc10810b09a4d3f45$__5af48015613ce7576000906151a4575b6134e691507f000000000000000000000000000000000000000000000000000000000000000090615bfa565b6020823d82116151d6575b816151bc60209383613310565b8101031261057857506151d16134e691613d07565b615178565b3d91506151af565b804710613f345760008080809360635af16151f7613ec7565b5015613f225738615122565b815180518051805184546001600160401b03199081166001600160401b039283161786556020928301518051969793969395949293600193848a019392909190868211611fb65790898093926152598388613e46565b01600095865283862087875b848110615435575050505091015160028a0180546001600160a01b03199081166001600160a01b0393841617909155878a01518051805160038e0180548816918b169190911790558b0151805191945091929160048d0190898311612cbd578c906152d08484613e46565b019087528b8720888d89905b85821061542157935050505061533195949392915060058d019301511690825416179055604086015160068a01556007890190856060880151169082541617815563ffffffff60e01b608087015116906145db565b60a060088801940151805193841161540d5761535784615351875461346e565b87614630565b8691601f85116001146153a257936134e698979593819382936009999794615397575b50501b916000199060031b1c19161790555b015115159101613c37565b01519250388061537a565b9190601f949394198416868452888420935b8181106153f8575091600997959391856134e69b9a989694106153df575b505050811b01905561538c565b015160001960f88460031b161c191690553880806153d2565b828401518555938601939289019289016153b4565b634e487b7160e01b82526041600452602482fd5b86855116940193818401550189908e6152dc565b83516001600160a01b0316838201558d9690930192899101615265565b8054600160401b811015611fb65761546f91600182018155613c05565b91909161547f576134e691615203565b634e487b7160e01b600052600060045260246000fd5b6154d860006154c760208451015151604051938492839263089032d560e01b8452604060048501526044840190613781565b828103600319016024840152614b33565b038173__$a0fe38a9a81205afccc10810b09a4d3f45$__5af48015613ce7576155099160009161556d575b50615d3e565b91901561055057600e826134e6935460018060401b038160081c168060608651015261553d610100600160481b0391613e7a565b60081b1690610100600160481b03191617815560408351015161556560038301918254613e92565b905501615452565b615580913d8091833e6103bd8183613310565b38615503565b6155d9615591615af3565b93915050600460018060401b039384600b5416606084510152600381016155657f00000000000000000000000000000000000000000000000000000000000000008254613e92565b600b54906155e8818316613e7a565b6001600160401b0319909216911617600b55565b81519160005b83811061560f5750505050565b8061562661561f60019385614ba0565b518561562c565b01615602565b81516020908101518101519192916001600160a01b039081161561043f5781835101515173__$a0fe38a9a81205afccc10810b09a4d3f45$__94604095865191630c133d1360e31b9182845260049387858201528781806156926024998a830190613781565b0381855af4908115615ae857600091615ab3575b50615aa35788885163ffffffff60e01b60808201511615615a84575b50508751926156e68a519463f47ad7eb60e01b86528b87870152604486019061384d565b8885806156fe6003199485838203018c840152614b33565b038173__$386b5c41ce93e8b832daf8008b3d30ae09$__5af4948515615a4a57908b8b8b93600098615a55575b50906157698461575b95949351015151928251958694859463c836244d60e01b86528d8601526044850190613781565b90838203018c840152614b33565b0381865af4908115615a4a57600091615a15575b506157cc57505050505050615791836160a1565b80600052600883526157a68486600020615203565b60005260098252818460002093515101511660005252600020600160ff19825416179055565b90919293955060028499979895991015615a0157908392916001899695146158f6575b50505015615883575b9161581b60009385519788948594635c46fefb60e11b86528501528301906138be565b038173__$33b79814e84bf6cf5e47244090b19ce5f8$__5af49081156158795750615844575050565b3d806000843e6158548184613310565b8201908282031261173e5781516001600160401b03811161173e576142f99201614930565b513d6000823e3d90fd5b600b54815160600151919250906001600160401b0382861c8116911681036158e6576000938693909261581b92600160401b600160801b03906158c590613e7a565b600160401b600160801b031990921691881b1617600b559193506157f89050565b845163a57cadff60e01b81528490fd5b87959192939495519283918252828883015281806159168d820188613781565b03915af490811561510f579087949392916000916159c6575b501561593d575b80806157ef565b61594991929350615d3e565b90156159b65780548351606001516001600160401b03604883901c8116911681036159a657879493929190600160481b600160881b039061598990613e7a565b60481b16600160481b600160881b03199190911617905538615936565b865163a57cadff60e01b81528690fd5b8451630e991abd60e41b81528490fd5b9192939482813d83116159fa575b6159de8183613310565b810103126105785750906159f487949392613c48565b3861592f565b503d6159d4565b88602187634e487b7160e01b600052526000fd5b908982813d8311615a43575b615a2b8183613310565b810103126105785750615a3d90613c48565b3861577d565b503d615a21565b8b513d6000823e3d90fd5b84809493929950615a786157699261575b973d8411615068576150598183613310565b9992939450945061572b565b01514710615a935788386156c2565b885163569d45cf60e11b81528490fd5b885163461e815d60e01b81528490fd5b908882813d8311615ae1575b615ac98183613310565b810103126105785750615adb90613c48565b386156a6565b503d615abf565b8a513d6000823e3d90fd5b6001600160401b037f000000000000000000000000000000000000000000000000000000000000000081168015615be45781615b328282431604613e7a565b160290811690810361183c578060009081526020600a8152615b7d604083209282615b5c856133b3565b60405180948192630c133d1360e31b83528460048401526024830190613781565b038173__$a0fe38a9a81205afccc10810b09a4d3f45$__5af4928315614cb5578193615bab575b5050501592565b9091809350813d8311615bdd575b615bc38183613310565b810103126105785750615bd590613c48565b388080615ba4565b503d615bb9565b634e487b7160e01b600052601260045260246000fd5b8115615c5c57615c0990614835565b604051632a7edd8f60e21b60208201908152602480830194909452928152606081016001600160401b03811182821017611fb657604052516142f992600091829182855af1615c56613ec7565b91615c60565b5050565b9015615c9e57815115615c71575090565b803b15615c7c575090565b604051639996b31560e01b81526001600160a01b039091166004820152602490fd5b50805115615cae57805190602001fd5b604051630a12f52160e11b8152600490fd5b6001600160a01b03811615615d2c576000615cf891615cdd613333565b60405163aa5106cb60e01b8152938492839260048401613de3565b038173__$a0fe38a9a81205afccc10810b09a4d3f45$__5af48015613ce757615d289160009161556d5750615d3e565b9091565b6040516370e4510960e01b8152600490fd5b615d7c73__$a0fe38a9a81205afccc10810b09a4d3f45$__91604051906390ba52cf60e01b8252818060209485938460048401526024830190613781565b0381865af4908115613ce757600091615e21575b5090615dd3916000526007815280604060002093615db0600486016133b3565b906040518080968194630c133d1360e31b83528660048401526024830190613781565b03915af4908115613ce757600091615ded575b5090501591565b82813d8311615e1a575b615e018183613310565b810103126105785750615e1390613c48565b8038615de6565b503d615df7565b908282813d8311615e49575b615e378183613310565b81010312610578575051615dd3615d90565b503d615e2d565b615e5981615f6a565b156142f957604051634953836d60e11b8152600260048201526001600160401b03918216602482018190529173__$b7b8687e33476c74e3b4e0a64c4768a343$__9190602082604481865af48015613ce7578492600091615f2d575b50615f1a575b5050803b1561173e576000604491604051928380926394ecccfd60e01b8252600260048301528660248301525af48015613ce757615f0b575b50600180546001600160401b031916919091179055565b615f14906132ab565b38615ef4565b60025460401c1603615c5c578138615ebb565b9192506020823d8211615f62575b81615f4860209383613310565b81010312610578575090615f5c8492613c48565b38615eb5565b3d9150615f3b565b6001546001600160401b039081167f000000000000000000000000000000000000000000000000000000000000000082160181811161183c57811691161490565b60ff7f00000000000000000000000000000000000000000000000000000000000000001680830290838204148315171561183c576064900460405191637d2ef4e560e11b835280600484015260208360248173__$e0f829f5071d7e628aa77eca0c12e35bc2$__5af4928315613ce75760009361606d575b506001015490808211156160645780831161605b5761604b9261604591613e9f565b92613e9f565b111561605657600190565b600290565b50505050600390565b50505050600090565b90926020823d8211616099575b8161608760209383613310565b81010312610578575051916001616023565b3d915061607a565b6040516160be81612fd060208201946020865260408301906138be565b5190209056fe036b6384b5eca791c62761152d0c79bb0604c104a5fb6f4eb0703f3154bb3db0a26469706673582212200bff47b6838dd68a391cee7eb908131a920e8c2d4d7ced6ed57c85fe18649c8364736f6c63430008130033",
    "linkReferences": {
      "src/lib/AccountHelper.sol": {
        "AccountHelper": [
          {
            "start": 16826,
            "length": 20
          },
          {
            "start": 20427,
            "length": 20
          }
        ]
      },
      "src/lib/CheckpointHelper.sol": {
        "CheckpointHelper": [
          {
            "start": 5274,
            "length": 20
          },
          {
            "start": 5660,
            "length": 20
          },
          {
            "start": 8098,
            "length": 20
          },
          {
            "start": 8435,
            "length": 20
          },
          {
            "start": 10797,
            "length": 20
          },
          {
            "start": 13156,
            "length": 20
          }
        ]
      },
      "src/lib/CrossMsgHelper.sol": {
        "CrossMsgHelper": [
          {
            "start": 3283,
            "length": 20
          },
          {
            "start": 4584,
            "length": 20
          },
          {
            "start": 5081,
            "length": 20
          },
          {
            "start": 23913,
            "length": 20
          }
        ]
      },
      "src/lib/EpochVoteSubmissionHelper.sol": {
        "EpochVoteSubmissionHelper": [
          {
            "start": 7142,
            "length": 20
          },
          {
            "start": 25929,
            "length": 20
          }
        ]
      },
      "src/lib/ExecutableQueueHelper.sol": {
        "ExecutableQueueHelper": [
          {
            "start": 6994,
            "length": 20
          },
          {
            "start": 7062,
            "length": 20
          },
          {
            "start": 25553,
            "length": 20
          }
        ]
      },
      "src/lib/StorableMsgHelper.sol": {
        "StorableMsgHelper": [
          {
            "start": 21370,
            "length": 20
          },
          {
            "start": 23628,
            "length": 20
          }
        ]
      },
      "src/lib/SubnetIDHelper.sol": {
        "SubnetIDHelper": [
          {
            "start": 701,
            "length": 20
          },
          {
            "start": 2008,
            "length": 20
          },
          {
            "start": 2582,
            "length": 20
          },
          {
            "start": 3381,
            "length": 20
          },
          {
            "start": 7938,
            "length": 20
          },
          {
            "start": 11413,
            "length": 20
          },
          {
            "start": 12212,
            "length": 20
          },
          {
            "start": 12587,
            "length": 20
          },
          {
            "start": 20892,
            "length": 20
          },
          {
            "start": 21128,
            "length": 20
          },
          {
            "start": 22175,
            "length": 20
          },
          {
            "start": 23078,
            "length": 20
          },
          {
            "start": 23452,
            "length": 20
          },
          {
            "start": 24779,
            "length": 20
          },
          {
            "start": 25158,
            "length": 20
          },
          {
            "start": 25229,
            "length": 20
          }
        ]
      }
    }
  },
  "methodIdentifiers": {
    "MIN_CHECKPOINT_PERIOD()": "a1ada303",
    "MIN_COLLATERAL_AMOUNT()": "91be4d41",
    "addStake()": "5a627dbc",
    "appliedTopDownNonce()": "8789f83b",
    "bottomUpCheckPeriod()": "06c46853",
    "bottomUpCheckpointAtEpoch(uint64)": "6cb2ecee",
    "bottomUpCheckpointHashAtEpoch(uint64)": "133f74ea",
    "bottomUpCheckpoints(uint64)": "2cc14ea2",
    "bottomUpNonce()": "41b6a2e8",
    "commitChildCheck(((uint64,address[]),uint64,uint256,((((uint64,address[]),address),((uint64,address[]),address),uint256,uint64,bytes4,bytes),bool)[],((uint64,address[]),bytes32[])[],bytes32,bytes))": "59265195",
    "crossMsgFee()": "24729425",
    "executableQueue()": "10d500e1",
    "fund((uint64,address[]))": "cfb3452f",
    "getGenesisEpoch()": "51392fc0",
    "getNetworkName()": "94074b03",
    "getSubnet((uint64,address[]))": "c66c66a1",
    "getSubnetTopDownMsg((uint64,address[]),uint256)": "0ea746f2",
    "getSubnetTopDownMsgsLength((uint64,address[]))": "9d3070b5",
    "getTopDownMsgs((uint64,address[]))": "88f6aea5",
    "hasValidatorVotedForSubmission(uint64,address)": "66d7bbbc",
    "initGenesisEpoch(uint64)": "13f35388",
    "initialized()": "158ef93e",
    "kill()": "41c0e1b5",
    "lastVotingExecutedEpoch()": "ad81e244",
    "majorityPercentage()": "599c7bd1",
    "minStake()": "375b3c0a",
    "postbox(bytes32)": "8cfd78e7",
    "postboxHasOwner(bytes32,address)": "3c8fe6bf",
    "propagate(bytes32)": "25bf0db6",
    "register()": "1aa3a008",
    "release()": "86d1a69f",
    "releaseRewards(uint256)": "f8703bb8",
    "releaseStake(uint256)": "45f54485",
    "sendCrossMessage(((((uint64,address[]),address),((uint64,address[]),address),uint256,uint64,bytes4,bytes),bool))": "f871fd22",
    "setMembership(address[],uint256[])": "f75bc557",
    "submissionPeriod()": "185fde7e",
    "submitTopDownCheckpoint((uint64,((((uint64,address[]),address),((uint64,address[]),address),uint256,uint64,bytes4,bytes),bool)[]))": "5dfb9892",
    "subnets(bytes32)": "02e30f9a",
    "topDownCheckPeriod()": "7d9740f4",
    "totalSubnets()": "a2b67158",
    "totalWeight()": "96c82e57",
    "validatorNonce()": "e17a684f",
    "validatorSet(uint256,address)": "223d9056",
    "whitelistPropagator(bytes32,address[])": "11c5080e"
  },
  "id": 25
}