{
  "abi": [
    {
      "inputs": [
        {
          "components": [
            {
              "components": [
                {
                  "internalType": "uint64",
                  "name": "root",
                  "type": "uint64"
                },
                {
                  "internalType": "address[]",
                  "name": "route",
                  "type": "address[]"
                }
              ],
              "internalType": "struct SubnetID",
              "name": "networkName",
              "type": "tuple"
            },
            {
              "internalType": "uint64",
              "name": "bottomUpCheckPeriod",
              "type": "uint64"
            },
            {
              "internalType": "uint64",
              "name": "topDownCheckPeriod",
              "type": "uint64"
            },
            {
              "internalType": "uint256",
              "name": "msgFee",
              "type": "uint256"
            },
            {
              "internalType": "uint8",
              "name": "majorityPercentage",
              "type": "uint8"
            }
          ],
          "internalType": "struct Gateway.ConstructorParams",
          "name": "params",
          "type": "tuple"
        }
      ],
      "stateMutability": "nonpayable",
      "type": "constructor"
    },
    {
      "inputs": [
        {
          "internalType": "address",
          "name": "target",
          "type": "address"
        }
      ],
      "name": "AddressEmptyCode",
      "type": "error"
    },
    {
      "inputs": [
        {
          "internalType": "address",
          "name": "account",
          "type": "address"
        }
      ],
      "name": "AddressInsufficientBalance",
      "type": "error"
    },
    {
      "inputs": [],
      "name": "AlreadyInitialized",
      "type": "error"
    },
    {
      "inputs": [],
      "name": "AlreadyRegisteredSubnet",
      "type": "error"
    },
    {
      "inputs": [],
      "name": "CallFailed",
      "type": "error"
    },
    {
      "inputs": [],
      "name": "CannotReleaseZero",
      "type": "error"
    },
    {
      "inputs": [],
      "name": "CannotSendCrossMsgToItself",
      "type": "error"
    },
    {
      "inputs": [],
      "name": "EpochAlreadyExecuted",
      "type": "error"
    },
    {
      "inputs": [],
      "name": "EpochNotVotable",
      "type": "error"
    },
    {
      "inputs": [],
      "name": "FailedInnerCall",
      "type": "error"
    },
    {
      "inputs": [],
      "name": "InconsistentPrevCheckpoint",
      "type": "error"
    },
    {
      "inputs": [],
      "name": "InsufficientFunds",
      "type": "error"
    },
    {
      "inputs": [],
      "name": "InvalidActorAddress",
      "type": "error"
    },
    {
      "inputs": [],
      "name": "InvalidCheckpointEpoch",
      "type": "error"
    },
    {
      "inputs": [],
      "name": "InvalidCheckpointSource",
      "type": "error"
    },
    {
      "inputs": [],
      "name": "InvalidCrossMsgDestinationAddress",
      "type": "error"
    },
    {
      "inputs": [],
      "name": "InvalidCrossMsgDestinationSubnet",
      "type": "error"
    },
    {
      "inputs": [],
      "name": "InvalidCrossMsgNonce",
      "type": "error"
    },
    {
      "inputs": [],
      "name": "InvalidCrossMsgsSortOrder",
      "type": "error"
    },
    {
      "inputs": [],
      "name": "InvalidMajorityPercentage",
      "type": "error"
    },
    {
      "inputs": [],
      "name": "InvalidPostboxOwner",
      "type": "error"
    },
    {
      "inputs": [],
      "name": "MessagesNotSorted",
      "type": "error"
    },
    {
      "inputs": [],
      "name": "NotEmptySubnetCircSupply",
      "type": "error"
    },
    {
      "inputs": [],
      "name": "NotEnoughBalance",
      "type": "error"
    },
    {
      "inputs": [],
      "name": "NotEnoughFee",
      "type": "error"
    },
    {
      "inputs": [],
      "name": "NotEnoughFunds",
      "type": "error"
    },
    {
      "inputs": [],
      "name": "NotEnoughFundsForMembership",
      "type": "error"
    },
    {
      "inputs": [],
      "name": "NotEnoughFundsToRelease",
      "type": "error"
    },
    {
      "inputs": [],
      "name": "NotEnoughSubnetCircSupply",
      "type": "error"
    },
    {
      "inputs": [],
      "name": "NotInitialized",
      "type": "error"
    },
    {
      "inputs": [],
      "name": "NotRegisteredSubnet",
      "type": "error"
    },
    {
      "inputs": [],
      "name": "NotSignableAccount",
      "type": "error"
    },
    {
      "inputs": [],
      "name": "NotSystemActor",
      "type": "error"
    },
    {
      "inputs": [],
      "name": "NotValidator",
      "type": "error"
    },
    {
      "inputs": [],
      "name": "PostboxNotExist",
      "type": "error"
    },
    {
      "inputs": [],
      "name": "ReentrancyGuardReentrantCall",
      "type": "error"
    },
    {
      "inputs": [],
      "name": "SubnetNotActive",
      "type": "error"
    },
    {
      "inputs": [],
      "name": "ValidatorAlreadyVoted",
      "type": "error"
    },
    {
      "inputs": [],
      "name": "ValidatorWeightIsZero",
      "type": "error"
    },
    {
      "inputs": [],
      "name": "ValidatorsAndWeightsLengthMismatch",
      "type": "error"
    },
    {
      "inputs": [],
      "name": "MIN_CHECKPOINT_PERIOD",
      "outputs": [
        {
          "internalType": "uint8",
          "name": "",
          "type": "uint8"
        }
      ],
      "stateMutability": "view",
      "type": "function"
    },
    {
      "inputs": [],
      "name": "MIN_COLLATERAL_AMOUNT",
      "outputs": [
        {
          "internalType": "uint256",
          "name": "",
          "type": "uint256"
        }
      ],
      "stateMutability": "view",
      "type": "function"
    },
    {
      "inputs": [],
      "name": "addStake",
      "outputs": [],
      "stateMutability": "payable",
      "type": "function"
    },
    {
      "inputs": [],
      "name": "appliedTopDownNonce",
      "outputs": [
        {
          "internalType": "uint64",
          "name": "",
          "type": "uint64"
        }
      ],
      "stateMutability": "view",
      "type": "function"
    },
    {
      "inputs": [],
      "name": "bottomUpCheckPeriod",
      "outputs": [
        {
          "internalType": "uint64",
          "name": "",
          "type": "uint64"
        }
      ],
      "stateMutability": "view",
      "type": "function"
    },
    {
      "inputs": [
        {
          "internalType": "uint64",
          "name": "epoch",
          "type": "uint64"
        }
      ],
      "name": "bottomUpCheckpointAtEpoch",
      "outputs": [
        {
          "internalType": "bool",
          "name": "exists",
          "type": "bool"
        },
        {
          "components": [
            {
              "components": [
                {
                  "internalType": "uint64",
                  "name": "root",
                  "type": "uint64"
                },
                {
                  "internalType": "address[]",
                  "name": "route",
                  "type": "address[]"
                }
              ],
              "internalType": "struct SubnetID",
              "name": "source",
              "type": "tuple"
            },
            {
              "internalType": "uint64",
              "name": "epoch",
              "type": "uint64"
            },
            {
              "internalType": "uint256",
              "name": "fee",
              "type": "uint256"
            },
            {
              "components": [
                {
                  "components": [
                    {
                      "components": [
                        {
                          "components": [
                            {
                              "internalType": "uint64",
                              "name": "root",
                              "type": "uint64"
                            },
                            {
                              "internalType": "address[]",
                              "name": "route",
                              "type": "address[]"
                            }
                          ],
                          "internalType": "struct SubnetID",
                          "name": "subnetId",
                          "type": "tuple"
                        },
                        {
                          "internalType": "address",
                          "name": "rawAddress",
                          "type": "address"
                        }
                      ],
                      "internalType": "struct IPCAddress",
                      "name": "from",
                      "type": "tuple"
                    },
                    {
                      "components": [
                        {
                          "components": [
                            {
                              "internalType": "uint64",
                              "name": "root",
                              "type": "uint64"
                            },
                            {
                              "internalType": "address[]",
                              "name": "route",
                              "type": "address[]"
                            }
                          ],
                          "internalType": "struct SubnetID",
                          "name": "subnetId",
                          "type": "tuple"
                        },
                        {
                          "internalType": "address",
                          "name": "rawAddress",
                          "type": "address"
                        }
                      ],
                      "internalType": "struct IPCAddress",
                      "name": "to",
                      "type": "tuple"
                    },
                    {
                      "internalType": "uint256",
                      "name": "value",
                      "type": "uint256"
                    },
                    {
                      "internalType": "uint64",
                      "name": "nonce",
                      "type": "uint64"
                    },
                    {
                      "internalType": "bytes4",
                      "name": "method",
                      "type": "bytes4"
                    },
                    {
                      "internalType": "bytes",
                      "name": "params",
                      "type": "bytes"
                    }
                  ],
                  "internalType": "struct StorableMsg",
                  "name": "message",
                  "type": "tuple"
                },
                {
                  "internalType": "bool",
                  "name": "wrapped",
                  "type": "bool"
                }
              ],
              "internalType": "struct CrossMsg[]",
              "name": "crossMsgs",
              "type": "tuple[]"
            },
            {
              "components": [
                {
                  "components": [
                    {
                      "internalType": "uint64",
                      "name": "root",
                      "type": "uint64"
                    },
                    {
                      "internalType": "address[]",
                      "name": "route",
                      "type": "address[]"
                    }
                  ],
                  "internalType": "struct SubnetID",
                  "name": "source",
                  "type": "tuple"
                },
                {
                  "internalType": "bytes32[]",
                  "name": "checks",
                  "type": "bytes32[]"
                }
              ],
              "internalType": "struct ChildCheck[]",
              "name": "children",
              "type": "tuple[]"
            },
            {
              "internalType": "bytes32",
              "name": "prevHash",
              "type": "bytes32"
            },
            {
              "internalType": "bytes",
              "name": "proof",
              "type": "bytes"
            }
          ],
          "internalType": "struct BottomUpCheckpoint",
          "name": "checkpoint",
          "type": "tuple"
        }
      ],
      "stateMutability": "view",
      "type": "function"
    },
    {
      "inputs": [
        {
          "internalType": "uint64",
          "name": "epoch",
          "type": "uint64"
        }
      ],
      "name": "bottomUpCheckpointHashAtEpoch",
      "outputs": [
        {
          "internalType": "bool",
          "name": "",
          "type": "bool"
        },
        {
          "internalType": "bytes32",
          "name": "",
          "type": "bytes32"
        }
      ],
      "stateMutability": "view",
      "type": "function"
    },
    {
      "inputs": [
        {
          "internalType": "uint64",
          "name": "",
          "type": "uint64"
        }
      ],
      "name": "bottomUpCheckpoints",
      "outputs": [
        {
          "components": [
            {
              "internalType": "uint64",
              "name": "root",
              "type": "uint64"
            },
            {
              "internalType": "address[]",
              "name": "route",
              "type": "address[]"
            }
          ],
          "internalType": "struct SubnetID",
          "name": "source",
          "type": "tuple"
        },
        {
          "internalType": "uint64",
          "name": "epoch",
          "type": "uint64"
        },
        {
          "internalType": "uint256",
          "name": "fee",
          "type": "uint256"
        },
        {
          "internalType": "bytes32",
          "name": "prevHash",
          "type": "bytes32"
        },
        {
          "internalType": "bytes",
          "name": "proof",
          "type": "bytes"
        }
      ],
      "stateMutability": "view",
      "type": "function"
    },
    {
      "inputs": [],
      "name": "bottomUpNonce",
      "outputs": [
        {
          "internalType": "uint64",
          "name": "",
          "type": "uint64"
        }
      ],
      "stateMutability": "view",
      "type": "function"
    },
    {
      "inputs": [
        {
          "components": [
            {
              "components": [
                {
                  "internalType": "uint64",
                  "name": "root",
                  "type": "uint64"
                },
                {
                  "internalType": "address[]",
                  "name": "route",
                  "type": "address[]"
                }
              ],
              "internalType": "struct SubnetID",
              "name": "source",
              "type": "tuple"
            },
            {
              "internalType": "uint64",
              "name": "epoch",
              "type": "uint64"
            },
            {
              "internalType": "uint256",
              "name": "fee",
              "type": "uint256"
            },
            {
              "components": [
                {
                  "components": [
                    {
                      "components": [
                        {
                          "components": [
                            {
                              "internalType": "uint64",
                              "name": "root",
                              "type": "uint64"
                            },
                            {
                              "internalType": "address[]",
                              "name": "route",
                              "type": "address[]"
                            }
                          ],
                          "internalType": "struct SubnetID",
                          "name": "subnetId",
                          "type": "tuple"
                        },
                        {
                          "internalType": "address",
                          "name": "rawAddress",
                          "type": "address"
                        }
                      ],
                      "internalType": "struct IPCAddress",
                      "name": "from",
                      "type": "tuple"
                    },
                    {
                      "components": [
                        {
                          "components": [
                            {
                              "internalType": "uint64",
                              "name": "root",
                              "type": "uint64"
                            },
                            {
                              "internalType": "address[]",
                              "name": "route",
                              "type": "address[]"
                            }
                          ],
                          "internalType": "struct SubnetID",
                          "name": "subnetId",
                          "type": "tuple"
                        },
                        {
                          "internalType": "address",
                          "name": "rawAddress",
                          "type": "address"
                        }
                      ],
                      "internalType": "struct IPCAddress",
                      "name": "to",
                      "type": "tuple"
                    },
                    {
                      "internalType": "uint256",
                      "name": "value",
                      "type": "uint256"
                    },
                    {
                      "internalType": "uint64",
                      "name": "nonce",
                      "type": "uint64"
                    },
                    {
                      "internalType": "bytes4",
                      "name": "method",
                      "type": "bytes4"
                    },
                    {
                      "internalType": "bytes",
                      "name": "params",
                      "type": "bytes"
                    }
                  ],
                  "internalType": "struct StorableMsg",
                  "name": "message",
                  "type": "tuple"
                },
                {
                  "internalType": "bool",
                  "name": "wrapped",
                  "type": "bool"
                }
              ],
              "internalType": "struct CrossMsg[]",
              "name": "crossMsgs",
              "type": "tuple[]"
            },
            {
              "components": [
                {
                  "components": [
                    {
                      "internalType": "uint64",
                      "name": "root",
                      "type": "uint64"
                    },
                    {
                      "internalType": "address[]",
                      "name": "route",
                      "type": "address[]"
                    }
                  ],
                  "internalType": "struct SubnetID",
                  "name": "source",
                  "type": "tuple"
                },
                {
                  "internalType": "bytes32[]",
                  "name": "checks",
                  "type": "bytes32[]"
                }
              ],
              "internalType": "struct ChildCheck[]",
              "name": "children",
              "type": "tuple[]"
            },
            {
              "internalType": "bytes32",
              "name": "prevHash",
              "type": "bytes32"
            },
            {
              "internalType": "bytes",
              "name": "proof",
              "type": "bytes"
            }
          ],
          "internalType": "struct BottomUpCheckpoint",
          "name": "commit",
          "type": "tuple"
        }
      ],
      "name": "commitChildCheck",
      "outputs": [],
      "stateMutability": "nonpayable",
      "type": "function"
    },
    {
      "inputs": [],
      "name": "crossMsgFee",
      "outputs": [
        {
          "internalType": "uint256",
          "name": "",
          "type": "uint256"
        }
      ],
      "stateMutability": "view",
      "type": "function"
    },
    {
      "inputs": [],
      "name": "executableQueue",
      "outputs": [
        {
          "internalType": "uint64",
          "name": "period",
          "type": "uint64"
        },
        {
          "internalType": "uint64",
          "name": "first",
          "type": "uint64"
        },
        {
          "internalType": "uint64",
          "name": "last",
          "type": "uint64"
        }
      ],
      "stateMutability": "view",
      "type": "function"
    },
    {
      "inputs": [
        {
          "components": [
            {
              "internalType": "uint64",
              "name": "root",
              "type": "uint64"
            },
            {
              "internalType": "address[]",
              "name": "route",
              "type": "address[]"
            }
          ],
          "internalType": "struct SubnetID",
          "name": "subnetId",
          "type": "tuple"
        }
      ],
      "name": "fund",
      "outputs": [],
      "stateMutability": "payable",
      "type": "function"
    },
    {
      "inputs": [],
      "name": "getGenesisEpoch",
      "outputs": [
        {
          "internalType": "uint64",
          "name": "",
          "type": "uint64"
        }
      ],
      "stateMutability": "view",
      "type": "function"
    },
    {
      "inputs": [],
      "name": "getNetworkName",
      "outputs": [
        {
          "components": [
            {
              "internalType": "uint64",
              "name": "root",
              "type": "uint64"
            },
            {
              "internalType": "address[]",
              "name": "route",
              "type": "address[]"
            }
          ],
          "internalType": "struct SubnetID",
          "name": "",
          "type": "tuple"
        }
      ],
      "stateMutability": "view",
      "type": "function"
    },
    {
      "inputs": [
        {
          "components": [
            {
              "internalType": "uint64",
              "name": "root",
              "type": "uint64"
            },
            {
              "internalType": "address[]",
              "name": "route",
              "type": "address[]"
            }
          ],
          "internalType": "struct SubnetID",
          "name": "subnetId",
          "type": "tuple"
        }
      ],
      "name": "getSubnet",
      "outputs": [
        {
          "internalType": "bool",
          "name": "",
          "type": "bool"
        },
        {
          "components": [
            {
              "internalType": "enum Status",
              "name": "status",
              "type": "uint8"
            },
            {
              "internalType": "uint64",
              "name": "topDownNonce",
              "type": "uint64"
            },
            {
              "internalType": "uint64",
              "name": "appliedBottomUpNonce",
              "type": "uint64"
            },
            {
              "internalType": "uint256",
              "name": "stake",
              "type": "uint256"
            },
            {
              "internalType": "uint256",
              "name": "genesisEpoch",
              "type": "uint256"
            },
            {
              "internalType": "uint256",
              "name": "circSupply",
              "type": "uint256"
            },
            {
              "components": [
                {
                  "internalType": "uint64",
                  "name": "root",
                  "type": "uint64"
                },
                {
                  "internalType": "address[]",
                  "name": "route",
                  "type": "address[]"
                }
              ],
              "internalType": "struct SubnetID",
              "name": "id",
              "type": "tuple"
            },
            {
              "components": [
                {
                  "components": [
                    {
                      "internalType": "uint64",
                      "name": "root",
                      "type": "uint64"
                    },
                    {
                      "internalType": "address[]",
                      "name": "route",
                      "type": "address[]"
                    }
                  ],
                  "internalType": "struct SubnetID",
                  "name": "source",
                  "type": "tuple"
                },
                {
                  "internalType": "uint64",
                  "name": "epoch",
                  "type": "uint64"
                },
                {
                  "internalType": "uint256",
                  "name": "fee",
                  "type": "uint256"
                },
                {
                  "components": [
                    {
                      "components": [
                        {
                          "components": [
                            {
                              "components": [
                                {
                                  "internalType": "uint64",
                                  "name": "root",
                                  "type": "uint64"
                                },
                                {
                                  "internalType": "address[]",
                                  "name": "route",
                                  "type": "address[]"
                                }
                              ],
                              "internalType": "struct SubnetID",
                              "name": "subnetId",
                              "type": "tuple"
                            },
                            {
                              "internalType": "address",
                              "name": "rawAddress",
                              "type": "address"
                            }
                          ],
                          "internalType": "struct IPCAddress",
                          "name": "from",
                          "type": "tuple"
                        },
                        {
                          "components": [
                            {
                              "components": [
                                {
                                  "internalType": "uint64",
                                  "name": "root",
                                  "type": "uint64"
                                },
                                {
                                  "internalType": "address[]",
                                  "name": "route",
                                  "type": "address[]"
                                }
                              ],
                              "internalType": "struct SubnetID",
                              "name": "subnetId",
                              "type": "tuple"
                            },
                            {
                              "internalType": "address",
                              "name": "rawAddress",
                              "type": "address"
                            }
                          ],
                          "internalType": "struct IPCAddress",
                          "name": "to",
                          "type": "tuple"
                        },
                        {
                          "internalType": "uint256",
                          "name": "value",
                          "type": "uint256"
                        },
                        {
                          "internalType": "uint64",
                          "name": "nonce",
                          "type": "uint64"
                        },
                        {
                          "internalType": "bytes4",
                          "name": "method",
                          "type": "bytes4"
                        },
                        {
                          "internalType": "bytes",
                          "name": "params",
                          "type": "bytes"
                        }
                      ],
                      "internalType": "struct StorableMsg",
                      "name": "message",
                      "type": "tuple"
                    },
                    {
                      "internalType": "bool",
                      "name": "wrapped",
                      "type": "bool"
                    }
                  ],
                  "internalType": "struct CrossMsg[]",
                  "name": "crossMsgs",
                  "type": "tuple[]"
                },
                {
                  "components": [
                    {
                      "components": [
                        {
                          "internalType": "uint64",
                          "name": "root",
                          "type": "uint64"
                        },
                        {
                          "internalType": "address[]",
                          "name": "route",
                          "type": "address[]"
                        }
                      ],
                      "internalType": "struct SubnetID",
                      "name": "source",
                      "type": "tuple"
                    },
                    {
                      "internalType": "bytes32[]",
                      "name": "checks",
                      "type": "bytes32[]"
                    }
                  ],
                  "internalType": "struct ChildCheck[]",
                  "name": "children",
                  "type": "tuple[]"
                },
                {
                  "internalType": "bytes32",
                  "name": "prevHash",
                  "type": "bytes32"
                },
                {
                  "internalType": "bytes",
                  "name": "proof",
                  "type": "bytes"
                }
              ],
              "internalType": "struct BottomUpCheckpoint",
              "name": "prevCheckpoint",
              "type": "tuple"
            },
            {
              "components": [
                {
                  "components": [
                    {
                      "components": [
                        {
                          "components": [
                            {
                              "internalType": "uint64",
                              "name": "root",
                              "type": "uint64"
                            },
                            {
                              "internalType": "address[]",
                              "name": "route",
                              "type": "address[]"
                            }
                          ],
                          "internalType": "struct SubnetID",
                          "name": "subnetId",
                          "type": "tuple"
                        },
                        {
                          "internalType": "address",
                          "name": "rawAddress",
                          "type": "address"
                        }
                      ],
                      "internalType": "struct IPCAddress",
                      "name": "from",
                      "type": "tuple"
                    },
                    {
                      "components": [
                        {
                          "components": [
                            {
                              "internalType": "uint64",
                              "name": "root",
                              "type": "uint64"
                            },
                            {
                              "internalType": "address[]",
                              "name": "route",
                              "type": "address[]"
                            }
                          ],
                          "internalType": "struct SubnetID",
                          "name": "subnetId",
                          "type": "tuple"
                        },
                        {
                          "internalType": "address",
                          "name": "rawAddress",
                          "type": "address"
                        }
                      ],
                      "internalType": "struct IPCAddress",
                      "name": "to",
                      "type": "tuple"
                    },
                    {
                      "internalType": "uint256",
                      "name": "value",
                      "type": "uint256"
                    },
                    {
                      "internalType": "uint64",
                      "name": "nonce",
                      "type": "uint64"
                    },
                    {
                      "internalType": "bytes4",
                      "name": "method",
                      "type": "bytes4"
                    },
                    {
                      "internalType": "bytes",
                      "name": "params",
                      "type": "bytes"
                    }
                  ],
                  "internalType": "struct StorableMsg",
                  "name": "message",
                  "type": "tuple"
                },
                {
                  "internalType": "bool",
                  "name": "wrapped",
                  "type": "bool"
                }
              ],
              "internalType": "struct CrossMsg[]",
              "name": "topDownMsgs",
              "type": "tuple[]"
            }
          ],
          "internalType": "struct Subnet",
          "name": "",
          "type": "tuple"
        }
      ],
      "stateMutability": "view",
      "type": "function"
    },
    {
      "inputs": [
        {
          "components": [
            {
              "internalType": "uint64",
              "name": "root",
              "type": "uint64"
            },
            {
              "internalType": "address[]",
              "name": "route",
              "type": "address[]"
            }
          ],
          "internalType": "struct SubnetID",
          "name": "subnetId",
          "type": "tuple"
        },
        {
          "internalType": "uint256",
          "name": "index",
          "type": "uint256"
        }
      ],
      "name": "getSubnetTopDownMsg",
      "outputs": [
        {
          "components": [
            {
              "components": [
                {
                  "components": [
                    {
                      "components": [
                        {
                          "internalType": "uint64",
                          "name": "root",
                          "type": "uint64"
                        },
                        {
                          "internalType": "address[]",
                          "name": "route",
                          "type": "address[]"
                        }
                      ],
                      "internalType": "struct SubnetID",
                      "name": "subnetId",
                      "type": "tuple"
                    },
                    {
                      "internalType": "address",
                      "name": "rawAddress",
                      "type": "address"
                    }
                  ],
                  "internalType": "struct IPCAddress",
                  "name": "from",
                  "type": "tuple"
                },
                {
                  "components": [
                    {
                      "components": [
                        {
                          "internalType": "uint64",
                          "name": "root",
                          "type": "uint64"
                        },
                        {
                          "internalType": "address[]",
                          "name": "route",
                          "type": "address[]"
                        }
                      ],
                      "internalType": "struct SubnetID",
                      "name": "subnetId",
                      "type": "tuple"
                    },
                    {
                      "internalType": "address",
                      "name": "rawAddress",
                      "type": "address"
                    }
                  ],
                  "internalType": "struct IPCAddress",
                  "name": "to",
                  "type": "tuple"
                },
                {
                  "internalType": "uint256",
                  "name": "value",
                  "type": "uint256"
                },
                {
                  "internalType": "uint64",
                  "name": "nonce",
                  "type": "uint64"
                },
                {
                  "internalType": "bytes4",
                  "name": "method",
                  "type": "bytes4"
                },
                {
                  "internalType": "bytes",
                  "name": "params",
                  "type": "bytes"
                }
              ],
              "internalType": "struct StorableMsg",
              "name": "message",
              "type": "tuple"
            },
            {
              "internalType": "bool",
              "name": "wrapped",
              "type": "bool"
            }
          ],
          "internalType": "struct CrossMsg",
          "name": "",
          "type": "tuple"
        }
      ],
      "stateMutability": "view",
      "type": "function"
    },
    {
      "inputs": [
        {
          "components": [
            {
              "internalType": "uint64",
              "name": "root",
              "type": "uint64"
            },
            {
              "internalType": "address[]",
              "name": "route",
              "type": "address[]"
            }
          ],
          "internalType": "struct SubnetID",
          "name": "subnetId",
          "type": "tuple"
        }
      ],
      "name": "getSubnetTopDownMsgsLength",
      "outputs": [
        {
          "internalType": "uint256",
          "name": "",
          "type": "uint256"
        }
      ],
      "stateMutability": "view",
      "type": "function"
    },
    {
      "inputs": [
        {
          "components": [
            {
              "internalType": "uint64",
              "name": "root",
              "type": "uint64"
            },
            {
              "internalType": "address[]",
              "name": "route",
              "type": "address[]"
            }
          ],
          "internalType": "struct SubnetID",
          "name": "subnetId",
          "type": "tuple"
        }
      ],
      "name": "getTopDownMsgs",
      "outputs": [
        {
          "components": [
            {
              "components": [
                {
                  "components": [
                    {
                      "components": [
                        {
                          "internalType": "uint64",
                          "name": "root",
                          "type": "uint64"
                        },
                        {
                          "internalType": "address[]",
                          "name": "route",
                          "type": "address[]"
                        }
                      ],
                      "internalType": "struct SubnetID",
                      "name": "subnetId",
                      "type": "tuple"
                    },
                    {
                      "internalType": "address",
                      "name": "rawAddress",
                      "type": "address"
                    }
                  ],
                  "internalType": "struct IPCAddress",
                  "name": "from",
                  "type": "tuple"
                },
                {
                  "components": [
                    {
                      "components": [
                        {
                          "internalType": "uint64",
                          "name": "root",
                          "type": "uint64"
                        },
                        {
                          "internalType": "address[]",
                          "name": "route",
                          "type": "address[]"
                        }
                      ],
                      "internalType": "struct SubnetID",
                      "name": "subnetId",
                      "type": "tuple"
                    },
                    {
                      "internalType": "address",
                      "name": "rawAddress",
                      "type": "address"
                    }
                  ],
                  "internalType": "struct IPCAddress",
                  "name": "to",
                  "type": "tuple"
                },
                {
                  "internalType": "uint256",
                  "name": "value",
                  "type": "uint256"
                },
                {
                  "internalType": "uint64",
                  "name": "nonce",
                  "type": "uint64"
                },
                {
                  "internalType": "bytes4",
                  "name": "method",
                  "type": "bytes4"
                },
                {
                  "internalType": "bytes",
                  "name": "params",
                  "type": "bytes"
                }
              ],
              "internalType": "struct StorableMsg",
              "name": "message",
              "type": "tuple"
            },
            {
              "internalType": "bool",
              "name": "wrapped",
              "type": "bool"
            }
          ],
          "internalType": "struct CrossMsg[]",
          "name": "",
          "type": "tuple[]"
        }
      ],
      "stateMutability": "view",
      "type": "function"
    },
    {
      "inputs": [
        {
          "internalType": "uint64",
          "name": "epoch",
          "type": "uint64"
        },
        {
          "internalType": "address",
          "name": "submitter",
          "type": "address"
        }
      ],
      "name": "hasValidatorVotedForSubmission",
      "outputs": [
        {
          "internalType": "bool",
          "name": "",
          "type": "bool"
        }
      ],
      "stateMutability": "view",
      "type": "function"
    },
    {
      "inputs": [
        {
          "internalType": "uint64",
          "name": "genesisEpoch",
          "type": "uint64"
        }
      ],
      "name": "initGenesisEpoch",
      "outputs": [],
      "stateMutability": "nonpayable",
      "type": "function"
    },
    {
      "inputs": [],
      "name": "initialized",
      "outputs": [
        {
          "internalType": "bool",
          "name": "",
          "type": "bool"
        }
      ],
      "stateMutability": "view",
      "type": "function"
    },
    {
      "inputs": [],
      "name": "kill",
      "outputs": [],
      "stateMutability": "nonpayable",
      "type": "function"
    },
    {
      "inputs": [],
      "name": "lastVotingExecutedEpoch",
      "outputs": [
        {
          "internalType": "uint64",
          "name": "",
          "type": "uint64"
        }
      ],
      "stateMutability": "view",
      "type": "function"
    },
    {
      "inputs": [],
      "name": "majorityPercentage",
      "outputs": [
        {
          "internalType": "uint8",
          "name": "",
          "type": "uint8"
        }
      ],
      "stateMutability": "view",
      "type": "function"
    },
    {
      "inputs": [],
      "name": "minStake",
      "outputs": [
        {
          "internalType": "uint256",
          "name": "",
          "type": "uint256"
        }
      ],
      "stateMutability": "view",
      "type": "function"
    },
    {
      "inputs": [
        {
          "internalType": "bytes32",
          "name": "",
          "type": "bytes32"
        }
      ],
      "name": "postbox",
      "outputs": [
        {
          "components": [
            {
              "components": [
                {
                  "components": [
                    {
                      "internalType": "uint64",
                      "name": "root",
                      "type": "uint64"
                    },
                    {
                      "internalType": "address[]",
                      "name": "route",
                      "type": "address[]"
                    }
                  ],
                  "internalType": "struct SubnetID",
                  "name": "subnetId",
                  "type": "tuple"
                },
                {
                  "internalType": "address",
                  "name": "rawAddress",
                  "type": "address"
                }
              ],
              "internalType": "struct IPCAddress",
              "name": "from",
              "type": "tuple"
            },
            {
              "components": [
                {
                  "components": [
                    {
                      "internalType": "uint64",
                      "name": "root",
                      "type": "uint64"
                    },
                    {
                      "internalType": "address[]",
                      "name": "route",
                      "type": "address[]"
                    }
                  ],
                  "internalType": "struct SubnetID",
                  "name": "subnetId",
                  "type": "tuple"
                },
                {
                  "internalType": "address",
                  "name": "rawAddress",
                  "type": "address"
                }
              ],
              "internalType": "struct IPCAddress",
              "name": "to",
              "type": "tuple"
            },
            {
              "internalType": "uint256",
              "name": "value",
              "type": "uint256"
            },
            {
              "internalType": "uint64",
              "name": "nonce",
              "type": "uint64"
            },
            {
              "internalType": "bytes4",
              "name": "method",
              "type": "bytes4"
            },
            {
              "internalType": "bytes",
              "name": "params",
              "type": "bytes"
            }
          ],
          "internalType": "struct StorableMsg",
          "name": "message",
          "type": "tuple"
        },
        {
          "internalType": "bool",
          "name": "wrapped",
          "type": "bool"
        }
      ],
      "stateMutability": "view",
      "type": "function"
    },
    {
      "inputs": [
        {
          "internalType": "bytes32",
          "name": "",
          "type": "bytes32"
        },
        {
          "internalType": "address",
          "name": "",
          "type": "address"
        }
      ],
      "name": "postboxHasOwner",
      "outputs": [
        {
          "internalType": "bool",
          "name": "",
          "type": "bool"
        }
      ],
      "stateMutability": "view",
      "type": "function"
    },
    {
      "inputs": [
        {
          "internalType": "bytes32",
          "name": "msgCid",
          "type": "bytes32"
        }
      ],
      "name": "propagate",
      "outputs": [],
      "stateMutability": "payable",
      "type": "function"
    },
    {
      "inputs": [],
      "name": "register",
      "outputs": [],
      "stateMutability": "payable",
      "type": "function"
    },
    {
      "inputs": [],
      "name": "release",
      "outputs": [],
      "stateMutability": "payable",
      "type": "function"
    },
    {
      "inputs": [
        {
          "internalType": "uint256",
          "name": "amount",
          "type": "uint256"
        }
      ],
      "name": "releaseRewards",
      "outputs": [],
      "stateMutability": "nonpayable",
      "type": "function"
    },
    {
      "inputs": [
        {
          "internalType": "uint256",
          "name": "amount",
          "type": "uint256"
        }
      ],
      "name": "releaseStake",
      "outputs": [],
      "stateMutability": "nonpayable",
      "type": "function"
    },
    {
      "inputs": [
        {
          "components": [
            {
              "internalType": "uint64",
              "name": "root",
              "type": "uint64"
            },
            {
              "internalType": "address[]",
              "name": "route",
              "type": "address[]"
            }
          ],
          "internalType": "struct SubnetID",
          "name": "destination",
          "type": "tuple"
        },
        {
          "components": [
            {
              "components": [
                {
                  "components": [
                    {
                      "components": [
                        {
                          "internalType": "uint64",
                          "name": "root",
                          "type": "uint64"
                        },
                        {
                          "internalType": "address[]",
                          "name": "route",
                          "type": "address[]"
                        }
                      ],
                      "internalType": "struct SubnetID",
                      "name": "subnetId",
                      "type": "tuple"
                    },
                    {
                      "internalType": "address",
                      "name": "rawAddress",
                      "type": "address"
                    }
                  ],
                  "internalType": "struct IPCAddress",
                  "name": "from",
                  "type": "tuple"
                },
                {
                  "components": [
                    {
                      "components": [
                        {
                          "internalType": "uint64",
                          "name": "root",
                          "type": "uint64"
                        },
                        {
                          "internalType": "address[]",
                          "name": "route",
                          "type": "address[]"
                        }
                      ],
                      "internalType": "struct SubnetID",
                      "name": "subnetId",
                      "type": "tuple"
                    },
                    {
                      "internalType": "address",
                      "name": "rawAddress",
                      "type": "address"
                    }
                  ],
                  "internalType": "struct IPCAddress",
                  "name": "to",
                  "type": "tuple"
                },
                {
                  "internalType": "uint256",
                  "name": "value",
                  "type": "uint256"
                },
                {
                  "internalType": "uint64",
                  "name": "nonce",
                  "type": "uint64"
                },
                {
                  "internalType": "bytes4",
                  "name": "method",
                  "type": "bytes4"
                },
                {
                  "internalType": "bytes",
                  "name": "params",
                  "type": "bytes"
                }
              ],
              "internalType": "struct StorableMsg",
              "name": "message",
              "type": "tuple"
            },
            {
              "internalType": "bool",
              "name": "wrapped",
              "type": "bool"
            }
          ],
          "internalType": "struct CrossMsg",
          "name": "crossMsg",
          "type": "tuple"
        }
      ],
      "name": "sendCross",
      "outputs": [],
      "stateMutability": "payable",
      "type": "function"
    },
    {
      "inputs": [
        {
          "internalType": "address[]",
          "name": "validators",
          "type": "address[]"
        },
        {
          "internalType": "uint256[]",
          "name": "weights",
          "type": "uint256[]"
        }
      ],
      "name": "setMembership",
      "outputs": [],
      "stateMutability": "nonpayable",
      "type": "function"
    },
    {
      "inputs": [],
      "name": "submissionPeriod",
      "outputs": [
        {
          "internalType": "uint64",
          "name": "",
          "type": "uint64"
        }
      ],
      "stateMutability": "view",
      "type": "function"
    },
    {
      "inputs": [
        {
          "components": [
            {
              "internalType": "uint64",
              "name": "epoch",
              "type": "uint64"
            },
            {
              "components": [
                {
                  "components": [
                    {
                      "components": [
                        {
                          "components": [
                            {
                              "internalType": "uint64",
                              "name": "root",
                              "type": "uint64"
                            },
                            {
                              "internalType": "address[]",
                              "name": "route",
                              "type": "address[]"
                            }
                          ],
                          "internalType": "struct SubnetID",
                          "name": "subnetId",
                          "type": "tuple"
                        },
                        {
                          "internalType": "address",
                          "name": "rawAddress",
                          "type": "address"
                        }
                      ],
                      "internalType": "struct IPCAddress",
                      "name": "from",
                      "type": "tuple"
                    },
                    {
                      "components": [
                        {
                          "components": [
                            {
                              "internalType": "uint64",
                              "name": "root",
                              "type": "uint64"
                            },
                            {
                              "internalType": "address[]",
                              "name": "route",
                              "type": "address[]"
                            }
                          ],
                          "internalType": "struct SubnetID",
                          "name": "subnetId",
                          "type": "tuple"
                        },
                        {
                          "internalType": "address",
                          "name": "rawAddress",
                          "type": "address"
                        }
                      ],
                      "internalType": "struct IPCAddress",
                      "name": "to",
                      "type": "tuple"
                    },
                    {
                      "internalType": "uint256",
                      "name": "value",
                      "type": "uint256"
                    },
                    {
                      "internalType": "uint64",
                      "name": "nonce",
                      "type": "uint64"
                    },
                    {
                      "internalType": "bytes4",
                      "name": "method",
                      "type": "bytes4"
                    },
                    {
                      "internalType": "bytes",
                      "name": "params",
                      "type": "bytes"
                    }
                  ],
                  "internalType": "struct StorableMsg",
                  "name": "message",
                  "type": "tuple"
                },
                {
                  "internalType": "bool",
                  "name": "wrapped",
                  "type": "bool"
                }
              ],
              "internalType": "struct CrossMsg[]",
              "name": "topDownMsgs",
              "type": "tuple[]"
            }
          ],
          "internalType": "struct TopDownCheckpoint",
          "name": "checkpoint",
          "type": "tuple"
        }
      ],
      "name": "submitTopDownCheckpoint",
      "outputs": [],
      "stateMutability": "nonpayable",
      "type": "function"
    },
    {
      "inputs": [
        {
          "internalType": "bytes32",
          "name": "",
          "type": "bytes32"
        }
      ],
      "name": "subnets",
      "outputs": [
        {
          "internalType": "enum Status",
          "name": "status",
          "type": "uint8"
        },
        {
          "internalType": "uint64",
          "name": "topDownNonce",
          "type": "uint64"
        },
        {
          "internalType": "uint64",
          "name": "appliedBottomUpNonce",
          "type": "uint64"
        },
        {
          "internalType": "uint256",
          "name": "stake",
          "type": "uint256"
        },
        {
          "internalType": "uint256",
          "name": "genesisEpoch",
          "type": "uint256"
        },
        {
          "internalType": "uint256",
          "name": "circSupply",
          "type": "uint256"
        },
        {
          "components": [
            {
              "internalType": "uint64",
              "name": "root",
              "type": "uint64"
            },
            {
              "internalType": "address[]",
              "name": "route",
              "type": "address[]"
            }
          ],
          "internalType": "struct SubnetID",
          "name": "id",
          "type": "tuple"
        },
        {
          "components": [
            {
              "components": [
                {
                  "internalType": "uint64",
                  "name": "root",
                  "type": "uint64"
                },
                {
                  "internalType": "address[]",
                  "name": "route",
                  "type": "address[]"
                }
              ],
              "internalType": "struct SubnetID",
              "name": "source",
              "type": "tuple"
            },
            {
              "internalType": "uint64",
              "name": "epoch",
              "type": "uint64"
            },
            {
              "internalType": "uint256",
              "name": "fee",
              "type": "uint256"
            },
            {
              "components": [
                {
                  "components": [
                    {
                      "components": [
                        {
                          "components": [
                            {
                              "internalType": "uint64",
                              "name": "root",
                              "type": "uint64"
                            },
                            {
                              "internalType": "address[]",
                              "name": "route",
                              "type": "address[]"
                            }
                          ],
                          "internalType": "struct SubnetID",
                          "name": "subnetId",
                          "type": "tuple"
                        },
                        {
                          "internalType": "address",
                          "name": "rawAddress",
                          "type": "address"
                        }
                      ],
                      "internalType": "struct IPCAddress",
                      "name": "from",
                      "type": "tuple"
                    },
                    {
                      "components": [
                        {
                          "components": [
                            {
                              "internalType": "uint64",
                              "name": "root",
                              "type": "uint64"
                            },
                            {
                              "internalType": "address[]",
                              "name": "route",
                              "type": "address[]"
                            }
                          ],
                          "internalType": "struct SubnetID",
                          "name": "subnetId",
                          "type": "tuple"
                        },
                        {
                          "internalType": "address",
                          "name": "rawAddress",
                          "type": "address"
                        }
                      ],
                      "internalType": "struct IPCAddress",
                      "name": "to",
                      "type": "tuple"
                    },
                    {
                      "internalType": "uint256",
                      "name": "value",
                      "type": "uint256"
                    },
                    {
                      "internalType": "uint64",
                      "name": "nonce",
                      "type": "uint64"
                    },
                    {
                      "internalType": "bytes4",
                      "name": "method",
                      "type": "bytes4"
                    },
                    {
                      "internalType": "bytes",
                      "name": "params",
                      "type": "bytes"
                    }
                  ],
                  "internalType": "struct StorableMsg",
                  "name": "message",
                  "type": "tuple"
                },
                {
                  "internalType": "bool",
                  "name": "wrapped",
                  "type": "bool"
                }
              ],
              "internalType": "struct CrossMsg[]",
              "name": "crossMsgs",
              "type": "tuple[]"
            },
            {
              "components": [
                {
                  "components": [
                    {
                      "internalType": "uint64",
                      "name": "root",
                      "type": "uint64"
                    },
                    {
                      "internalType": "address[]",
                      "name": "route",
                      "type": "address[]"
                    }
                  ],
                  "internalType": "struct SubnetID",
                  "name": "source",
                  "type": "tuple"
                },
                {
                  "internalType": "bytes32[]",
                  "name": "checks",
                  "type": "bytes32[]"
                }
              ],
              "internalType": "struct ChildCheck[]",
              "name": "children",
              "type": "tuple[]"
            },
            {
              "internalType": "bytes32",
              "name": "prevHash",
              "type": "bytes32"
            },
            {
              "internalType": "bytes",
              "name": "proof",
              "type": "bytes"
            }
          ],
          "internalType": "struct BottomUpCheckpoint",
          "name": "prevCheckpoint",
          "type": "tuple"
        }
      ],
      "stateMutability": "view",
      "type": "function"
    },
    {
      "inputs": [],
      "name": "topDownCheckPeriod",
      "outputs": [
        {
          "internalType": "uint64",
          "name": "",
          "type": "uint64"
        }
      ],
      "stateMutability": "view",
      "type": "function"
    },
    {
      "inputs": [],
      "name": "totalSubnets",
      "outputs": [
        {
          "internalType": "uint64",
          "name": "",
          "type": "uint64"
        }
      ],
      "stateMutability": "view",
      "type": "function"
    },
    {
      "inputs": [],
      "name": "totalWeight",
      "outputs": [
        {
          "internalType": "uint256",
          "name": "",
          "type": "uint256"
        }
      ],
      "stateMutability": "view",
      "type": "function"
    },
    {
      "inputs": [],
      "name": "validatorNonce",
      "outputs": [
        {
          "internalType": "uint256",
          "name": "",
          "type": "uint256"
        }
      ],
      "stateMutability": "view",
      "type": "function"
    },
    {
      "inputs": [
        {
          "internalType": "uint256",
          "name": "",
          "type": "uint256"
        },
        {
          "internalType": "address",
          "name": "",
          "type": "address"
        }
      ],
      "name": "validatorSet",
      "outputs": [
        {
          "internalType": "uint256",
          "name": "",
          "type": "uint256"
        }
      ],
      "stateMutability": "view",
      "type": "function"
    },
    {
      "inputs": [
        {
          "internalType": "bytes32",
          "name": "msgCid",
          "type": "bytes32"
        },
        {
          "internalType": "address[]",
          "name": "owners",
          "type": "address[]"
        }
      ],
      "name": "whitelistPropagator",
      "outputs": [],
      "stateMutability": "nonpayable",
      "type": "function"
    }
  ],
  "bytecode": {
    "object": "0x610140604081815234620004b8576200688b803803809162000022828662000510565b84398201906020928381840312620004b85780516001600160401b0391828211620004b857019360a085850312620004b85782519160a0830183811082821117620004de578085528651828111620004b85787018581880312620004b8576200008b82620004f4565b620000968162000534565b82528381015190838211620004b857019580601f88011215620004b857865190838211620004de5760059782891b90885193620000d68884018662000510565b84528680850192820101928311620004b8578601905b828210620004bd5750505060c085015283526200010b82870162000534565b928281019384526200011f85880162000534565b91858201838152608060608a015199606085019a8b52015160ff811694858203620004b85783916080860152169060019660009588875560648111620004a75760805286600a93848110600014620004a0575083955b8660a0528560018060401b03199716876002541617600255518581511660049788541617875501518051908582116200048d576801000000000000000082116200048d5788908c838154915580841062000460575b50908694939291018c89528989208b8a5b848110620004415750505050508290670de0b6b3a764000060c05251168381106000146200043b5750825b60e0525116818110156200042d57509791849197925b610100998a5251976101209889528751906200023882620004f4565b80835416825288519081858754918281520196885285882090885b8b8282106200040e57505050506200026f828697038362000510565b84830191825289519586946310c5511f60e31b8652850152606484019251166024840152519088604484015281518091528360848401920190865b89828210620003ed57505050508190038173__$a0fe38a9a81205afccc10810b09a4d3f45$__5af4928315620003e35782936200039a575b50505062000388575b50519061634192836200054a8439608051838181611b4501526161d6015260a0518381816119b401528181612f6901526161a1015260c051838181611add0152818161288d01528181612b620152612de6015260e05183818161346d0152615c8b01525182610ec40152518181816105930152818161096b01528181610dc001528181612c2b01528181612d710152818161530101526157410152f35b60ff19601154161760115538620002eb565b9080929350813d8311620003db575b620003b5818362000510565b81010312620003d75751908115158203620003d45750388080620002e2565b80fd5b5080fd5b503d620003a9565b85513d84823e3d90fd5b83516001600160a01b031685528996889650948501949093019201620002aa565b83546001600160a01b03168a5298909701978a97928101920162000253565b90509791849197926200021c565b62000206565b83516001600160a01b031683820155899750928c01928d9101620001db565b8d8a528b84848c2092830192015b8281106200047e575050620001ca565b8b81558c94508d91016200046e565b634e487b7160e01b885260418752602488fd5b9562000175565b89516375c3b42760e01b8152600490fd5b600080fd5b81516001600160a01b0381168103620004b8578152908601908601620000ec565b634e487b7160e01b600052604160045260246000fd5b604081019081106001600160401b03821117620004de57604052565b601f909101601f19168101906001600160401b03821190821017620004de57604052565b51906001600160401b0382168203620004b85756fe6080604052600436101561001257600080fd5b6000803560e01c806302e30f9a1461349c57806306c46853146134575780630ea746f21461339f57806310d500e11461336257806311c5080e1461314c578063133f74ea146130a257806313f3538814612fbb578063158ef93e14612f98578063185fde7e14612f535780631aa3a00814612dd8578063223d905614612d945780632472942514612d5957806325bf0db614612c175780632cc14ea214612b85578063375b3c0a14612b4a5780633c8fe6bf14612b0157806341b6a2e814612ad857806341c0e1b5146128da57806345f544851461283057806351392fc0146128055780635926519514611b69578063599c7bd114611b2b5780635a627dbc14611a8d5780635dfb989214610f9a57806366d7bbbc14610f345780636cb2ecee14610ef35780637d9740f414610eae57806386d1a69f14610d6e5780638789f83b14610d4357806388f6aea514610cff5780638cfd78e714610cab57806391be4d4114610c8857806394074b0314610c4f57806396c82e5714610c315780639d3070b514610bed578063a1ada30314610bd1578063a2b6715814610ba8578063ad81e24414610b7f578063c3c36055146108dc578063c66c66a114610720578063cfb3452f14610541578063e17a684f14610523578063f75bc557146103185763f8703bb81461020157600080fd5b34610315576020806003193601126103115760043561021e6142f1565b80156102ff5761022d33615e4e565b9290156102ed578061024460046102659501613689565b60405180958192632cff562160e11b83528460048401526024830190613a57565b038173__$a0fe38a9a81205afccc10810b09a4d3f45$__5af49081156102e25784916102a7575b506102a092506001600160a01b03166142a2565b6001815580f35b905082813d83116102db575b6102bd81836135e6565b810103126102d7576102d16102a0926140cd565b3861028c565b8280fd5b503d6102b3565b6040513d86823e3d90fd5b604051630e991abd60e41b8152600490fd5b60405163c79cad7b60e01b8152600490fd5b5080fd5b80fd5b5034610315576040366003190112610315576001600160401b036004358181116102d75761034a903690600401613d83565b906024359081116102d757366023820112156102d75780600401359161036f836136ff565b9161037d60405193846135e6565b83835260209360248585019160051b8301019136831161051f576024869101915b83831061050f5750505050604051635d3f8a6960e01b8152336004820152838160248173__$e800e3908cdbb6b1b5bd452383a17b18f7$__5af49081156105045785916104cb575b50156104b95780518251036104a757600e805492600019841461049357600180940182558594835193875b858110610420578888600c5580f35b6001600160a01b036104328284614d0b565b511680610442575b508601610411565b61044f82869a939a614d0b565b51801561048157889261047a9288548d52600d875260408d2090600052865281604060002055614258565b979061043a565b60405163389b457d60e01b8152600490fd5b634e487b7160e01b86526011600452602486fd5b60405163465f0a7d60e01b8152600490fd5b60405163f0d97f3b60e01b8152600490fd5b90508381813d83116104fd575b6104e281836135e6565b810103126104f9576104f39061409b565b386103e6565b8480fd5b503d6104d8565b6040513d87823e3d90fd5b823581529181019186910161039e565b8680fd5b50346103155780600319360112610315576020600e54604051908152f35b5061054b36613e30565b604051630972932760e21b8152336004820152602090818160248173__$e800e3908cdbb6b1b5bd452383a17b18f7$__5af49081156102e25784916106e7575b50156106d5577f0000000000000000000000000000000000000000000000000000000000000000908134106106c3576105c48234614265565b846040518080936302334d7960e51b8252606060048301526105e960648301896146f0565b903360248401526044830152038173__$33b79814e84bf6cf5e47244090b19ce5f8$__5af48015610504576106359461062e61024492859489916106a1575b50615623565b3690613de9565b038173__$a0fe38a9a81205afccc10810b09a4d3f45$__5af49081156102e257849161066a575b506106679250615d88565b80f35b905082813d831161069a575b61068081836135e6565b810103126102d757610694610667926140cd565b3861065c565b503d610676565b6106bd91503d808b833e6106b581836135e6565b810190614baa565b38610628565b6040516334472ad760e11b8152600490fd5b604051630a23da2b60e31b8152600490fd5b90508181813d8311610719575b6106fe81836135e6565b810103126107155761070f9061409b565b3861058b565b8380fd5b503d6106f4565b50346103155761072f36613e30565b9061079361078e6040519361074385613594565b8385528360208601528360408601528360608601528360808601528360a086015261076c613fef565b60c0860152610779614009565b60e08601526060610100809601523690613de9565b615f65565b929091604051936107a385613594565b80549160ff83169060068210156108c8575085526020850191600160401b60019003808260081c16845280604088019260481c1682526001830154606088019081526002840154906080890191825260038501549260a08a019384526004860161080c90613689565b60c08b01908152948161082160068901613910565b9760e08d01988952600e01610835906138ba565b988a8d01998a526040519c8d9c15158d5260208d016040905260408d0190519061085e91613a34565b511660608b0152511660808901525160a08801525160c08701525160e0860152516101208094860152610160850161089591613a57565b905190603f19938486830301908601526108ae91613c12565b905191838203016101408401526108c491613bb6565b0390f35b634e487b7160e01b81526021600452602490fd5b50600319604036820112610311576001600160401b036004358181116107155761090a903690600401613de9565b9060243590811161071557610923903690600401613eea565b604051630972932760e21b8152336004820152602090818160248173__$e800e3908cdbb6b1b5bd452383a17b18f7$__5af4908115610b74578691610b3b575b50156106d5577f000000000000000000000000000000000000000000000000000000000000000034106106c35773__$a0fe38a9a81205afccc10810b09a4d3f45$__9260405163c836244d60e01b8152604060048201528281806109dc6109cd6044830187613a57565b8a838203016024840152614c9e565b0381885af4908115610b30578791610afb575b50610ae9573460408451015103610ad75782518201518201516001600160a01b031615610ac557610a8594610a76948792848651015152845151610a31613609565b905233848651510152610a4385614e66565b96909551946040860151950151516040519889948593849363089032d560e01b8552604060048601526044850190613a57565b90838203016024840152614c9e565b03915af490811561050457610667948692610aa1575b5061529c565b610abe9192503d8088833e610ab681836135e6565b810190614184565b9038610a9b565b604051637c5d310960e11b8152600490fd5b604051631036b5ad60e31b8152600490fd5b604051632f3335ff60e21b8152600490fd5b90508281813d8311610b29575b610b1281836135e6565b8101031261051f57610b239061409b565b386109ef565b503d610b08565b6040513d89823e3d90fd5b90508181813d8311610b6d575b610b5281836135e6565b81010312610b6957610b639061409b565b38610963565b8580fd5b503d610b48565b6040513d88823e3d90fd5b50346103155780600319360112610315576001546040516001600160401b039091168152602090f35b50346103155780600319360112610315576006546040516001600160401b039091168152602090f35b50346103155780600319360112610315576020604051600a8152f35b503461031557602036600319011261031557600435906001600160401b038211610315576020600e610c2561078e3660048701613de9565b90500154604051908152f35b50346103155780600319360112610315576020600c54604051908152f35b5034610315578060031936011261031557610c68613fef565b506108c4610c74613609565b604051918291602083526020830190613a57565b50346103155780600319360112610315576020604051670de0b6b3a76400008152f35b5034610315576020366003190112610315576040610cf391600435815260086020522060ff6009610cdb83613824565b92015416604051928392604084526040840190613b23565b90151560208301520390f35b503461031557610d1a61078e36610d1536613e30565b613de9565b90156102ed57610d2f600e6108c492016138ba565b604051918291602083526020830190613bb6565b5034610315578060031936011261031557600b546040805191901c6001600160401b03168152602090f35b508060031936011261031557604051630972932760e21b815233600482015260208160248173__$e800e3908cdbb6b1b5bd452383a17b18f7$__5af4908115610e6a578291610e75575b50156106d5577f00000000000000000000000000000000000000000000000000000000000000008034106106c357610df09034614265565b81604051808093632c9680ef60e01b825260606004830152610e1460648301614c9e565b903360248401526044830152038173__$33b79814e84bf6cf5e47244090b19ce5f8$__5af48015610e6a57610667918391610e50575b50615714565b610e6491503d8085833e6106b581836135e6565b38610e4a565b6040513d84823e3d90fd5b90506020813d8211610ea6575b81610e8f602093836135e6565b8101031261031157610ea09061409b565b38610db8565b3d9150610e82565b50346103155780600319360112610315576040517f00000000000000000000000000000000000000000000000000000000000000006001600160401b03168152602090f35b503461031557602036600319011261031557610f15610f10613d2f565b614d2f565b906108c460405192839215158352604060208401526040830190613c12565b5034610315576040366003190112610315576040610f50613d2f565b91610f59613d59565b92600180841b03168152601260205260038282208054835201602052209060018060a01b0316600052602052602060ff604060002054166040519015158152f35b503461031557610fa936613e30565b604051630972932760e21b815233600482015260208160248173__$e800e3908cdbb6b1b5bd452383a17b18f7$__5af4908115611a82578391611a48575b50156106d557610ff6816144a1565b6001546001600160401b03918216918116821115611a365760401c6001600160401b0316908181116119a3575b5050600e548252600d60205260408220336000526020526040600020549060ff601154161561199157811561197f57611086602061106381840184614906565b604051638984147560e01b815260048101849052938492839260248401916147df565b038173__$33b79814e84bf6cf5e47244090b19ce5f8$__5af49081156102e2578491611945575b5015611933576001600160401b036110c4826144a1565b1683526012602052604083209060408136031261071557604051926110e88461354b565b6110f182613d45565b845260208201356001600160401b038111610b6957820136601f82011215610b695761114794611129602092369084813591016149fe565b8282015260405180968192630edf122560e41b835260048301614e22565b038173__$1cd67d4dc9e627f0bec7928aa480e7d951$__5af49384156105045785946118fa575b50611178826144a1565b600c5491869285549182895260038701602052604089203360005260205260ff604060002054166118e85782889161124b948b526003890160205260408b20336000526020526040600020600160ff19825416179055600189016111dd828254614258565b9055818b526004890160205260408b20838c5260205261120260408c20918254614258565b9055808a526004880160205260408a2090600289019182548c5260205260408b2054908b526004890160205260408b20838c5260205260408b2054116118e0575b5050856161d2565b60048110156118cc5786919060038103611873575061126981616191565b156117ef575050506001925b808552600583016020526112c96020604087206112ab60016040519261129a8461354b565b818060401b038154168452016138ba565b8282015260405180938192632d34315760e01b835260048301614e22565b038173__$1cd67d4dc9e627f0bec7928aa480e7d951$__5af4908115610b745786916117b5575b5061142a575b50506060916113c9575b50805115611336575b61066790604051611319816135cb565b838152604051906113298261354b565b848252602082015261578a565b60025460401c6001600160401b03169061134f82616191565b61135b575b9050611309565b508152601260205261136f60408220614df7565b805461137a816136ff565b9161138860405193846135e6565b81835283526020808420849184015b8383106113ab575050505061066790611354565b600a60206001926113bb85613890565b815201920192019190611397565b6113d39150614df7565b80546113de816136ff565b916113ec60405193846135e6565b81835283526020808420849184015b83831061140c575050505038611300565b600a602060019261141c85613890565b8152019201920191906113fb565b84526005820160205260408420611469906001906001600160401b0361144f856144a1565b16828060401b031982541617815501916020810190614906565b9061147482846143f3565b918552602085208592805b83851061148e575050506112f6565b611498818361448c565b6114a2818061493b565b6114ac818061448c565b6114e56114b9828061448c565b6001600160401b036114ca826144a1565b89546001600160401b03191691161788556020810190614906565b906001600160401b038211611786576001880190611503838361420c565b908d5260208d208d5b83811061179a5750505060028701916001600160a01b03915061153190602001614950565b82546001600160a01b03191691161790556003850161158e611556602084018461448c565b91611561838061448c565b906001600160401b03611573836144a1565b82546001600160401b03191691161790556020810190614906565b906001600160401b0382116117865760048801906115ac838361420c565b908d5260208d208d5b83811061176b5750505060058701916001600160a01b0391506115da90602001614950565b82546001600160a01b03191691161790556040810135600686015560078501906001600160401b0361160e606083016144a1565b83546001600160401b03191691161782556080810135916001600160e01b0319831683036117675761164d9261164391614964565b60a0810190614987565b906001600160401b038211611753576116768261166d6008890154613744565b600889016149b9565b8a90601f83116001146116e35760209392918c91836116d8575b50508160011b916000199060031b1c19161760088601555b01359081151582036116d4576020600a916116c8600194600988016140a8565b0193019401939161147f565b8880fd5b013590503880611690565b600887018c5260208c20918c5b601f198516811061173b575091839160019360209695601f19811610611721575b505050811b0160088601556116a8565b0135600019600384901b60f8161c19169055388080611711565b909260206001819286860135815501940191016116f0565b634e487b7160e01b8b52604160045260248bfd5b8b80fd5b600190602061177985614950565b94019381840155016115b5565b634e487b7160e01b8d52604160045260248dfd5b60019060206117a885614950565b940193818401550161150c565b90506020813d6020116117e7575b816117d0602093836135e6565b81010312610b69576117e19061409b565b386112f0565b3d91506117c3565b94919473__$b7b8687e33476c74e3b4e0a64c4768a343$__3b156103115760405163199b9ca560e01b8152600260048201526001600160401b039091166024820152818160448173__$b7b8687e33476c74e3b4e0a64c4768a343$__5af48015610e6a5761185f575b5050611275565b61186890613581565b6104f9578438611858565b90506002915094919403611275578473__$e0f829f5071d7e628aa77eca0c12e35bc2$__803b15610311578160249160405192838092635a27a53960e11b82528960048301525af48015610e6a5761185f575050611275565b634e487b7160e01b87526021600452602487fd5b558638611243565b6040516337138f5f60e11b8152600490fd5b9093506020813d60201161192b575b81611916602093836135e6565b810103126119265751923861116e565b600080fd5b3d9150611909565b604051630bd9169f60e01b8152600490fd5b90506020813d602011611977575b81611960602093836135e6565b81010312610715576119719061409b565b386110ad565b3d9150611953565b604051632ec5b44960e01b8152600490fd5b6040516321c4e35760e21b8152600490fd5b036001600160401b038111611a20577f00000000000000000000000000000000000000000000000000000000000000006001600160401b03168015611a0c576001600160401b0391821606166119fa573880611023565b60405163b4f68f9760e01b8152600490fd5b634e487b7160e01b84526012600452602484fd5b634e487b7160e01b600052601160045260246000fd5b604051631f30cc6360e21b8152600490fd5b90506020813d602011611a7a575b81611a63602093836135e6565b810103126102d757611a749061409b565b38610fe7565b3d9150611a56565b6040513d85823e3d90fd5b5080600319360112610315573415610ad757611aa833615e4e565b90156102ed5760018101611abd348254614258565b80915581549060ff82166006811015611b1757600314611adb578380f35b7f00000000000000000000000000000000000000000000000000000000000000001115611b0757808380f35b60ff191660021790553880808380f35b634e487b7160e01b85526021600452602485fd5b5034610315578060031936011261031557602060405160ff7f0000000000000000000000000000000000000000000000000000000000000000168152f35b503461031557600319602036820112610311576001600160401b03600435116103115760e090600435360301126103155760ff601154161561199157611bdd6020611bbc36610d1560048035018061448c565b60405180938192632cff562160e11b83528460048401526024830190613a57565b038173__$a0fe38a9a81205afccc10810b09a4d3f45$__5af48015610e6a5782906127ca575b611c0d9150614a6d565b336001600160a01b03909116036127b857611c2733615e4e565b905060ff81541660068110156127a4576002036127925760088101546001600160401b0390811690611c5d6004356024016144a1565b1611156127805760a460043501356126dd575b611c78615c81565b9115612683575b73__$1cd67d4dc9e627f0bec7928aa480e7d951$__3b156107155783604051809263445cc97560e01b825284600483015260a06024830152611d32611ce3611cd16004356004016004356004016146a7565b60e060a48601526101848501906146f0565b6001600160401b03611cf9600435602401613d45565b1660c48501526044600435013560e4850152611d1f6064600435016004356004016146bb565b85830360a31901610104870152906147df565b611d466084600435016004356004016146bb565b60a31985840301610124860152808352602083019060208160051b850101938388915b8383106125f15750505050505090611db0839260a46004350135610144850152611d9d60c46004350160043560040161478c565b85830360a31901610164870152906147be565b600f6044840152601060648401526001600160401b039091166084830152038173__$1cd67d4dc9e627f0bec7928aa480e7d951$__5af480156102e2576125de575b508290611e09606460043501600435600401614906565b8591505b80821061257c57505090611e2e6003611e3493015460446004350135614258565b90614258565b60038201549080821061256a57611e4a91614265565b6003820155611e8f611e6060048035018061448c565b6001600160401b03611e71826144a1565b16600684019060018060401b03198254161790556020810190614906565b906001600160401b038211612556576007830190611ead838361420c565b90845260208420845b83811061253b5785856001600160401b03611ed56004356024016144a1565b1660018060401b0319600883015416176008820155604460043501356009820155611f0a606460043501600435600401614906565b600a830191611f1982846143f3565b918452602084208492805b83851061229b578686611f41608460043501600435600401614906565b9190600160401b83116121df57600b82015483600b840155808410612238575b50600b82018452602084208491805b8584106120c35786600d8660a46004350135600c8201550190611f9d60c460043501600435600401614987565b9092906001600160401b0381116120af57611fc281611fbc8454613744565b846149b9565b82601f821160011461204c57839482939492612041575b50508160011b916000199060031b1c19161790555b61203161202361202b61200560048035018061448c565b612019606460043501600435600401614906565b9390913690613de9565b9236916149fe565b9061578a565b6106676044600435013533615d88565b013590508480611fd9565b601f198216948385526020852091855b87811061209757508360019596971061207d575b505050811b019055611fee565b0135600019600384901b60f8161c19169055848080612070565b9092602060018192868601358155019401910161205c565b634e487b7160e01b83526041600452602483fd5b6120cd818361448c565b6121066120da828061448c565b6001600160401b036120eb826144a1565b87546001600160401b03191691161786556020810190614906565b906001600160401b038211612224576001860190612124838361420c565b908a5260208a208a5b8381106122095750505050806020612146920190614906565b906001600160401b0382116121f557600160401b82116121df5760028501548260028701558083106121b2575b5060028501895260208920895b83811061219e57505050506003602060019201930193019291611f70565b600190602084359401938184015501612180565b600286016000526020600020908382015b81830181106121d3575050612173565b600081556001016121c3565b634e487b7160e01b600052604160045260246000fd5b634e487b7160e01b89526041600452602489fd5b600190602061221785614950565b940193818401550161212d565b634e487b7160e01b8a52604160045260248afd5b6003818102048103611a20576003848102048403611a2057600b830160005260206000208460030281015b8260030282018110612276575050611f61565b80600060039255612289600182016141e8565b61229560028201614457565b01612263565b6122a5818361448c565b6122af818061493b565b6122b9818061448c565b6122c66114b9828061448c565b906001600160401b03821161250c5760018801906122e4838361420c565b908c5260208c208c5b8381106125205750505060028701916001600160a01b03915061231290602001614950565b82546001600160a01b031916911617905560038501612337611556602084018461448c565b906001600160401b03821161250c576004880190612355838361420c565b908c5260208c208c5b8381106124f15750505060058701916001600160a01b03915061238390602001614950565b82546001600160a01b0319169116179055604081013560068601556001600160401b036123b2606083016144a1565b600787018054919092166001600160401b0319909116178155608082013591906001600160e01b0319831683036124ed576123f09261164391614964565b906001600160401b038211612224576124108261166d6008890154613744565b8990601f831160011461247d5760209392918b9183612472575b50508160011b916000199060031b1c19161760088601555b013590811515820361246e576020600a91612462600194600988016140a8565b01930194019391611f24565b8780fd5b013590508b8061242a565b600887018b5260208b20918b5b601f19851681106124d5575091839160019360209695601f198116106124bb575b505050811b016008860155612442565b0135600019600384901b60f8161c191690558b80806124ab565b9092602060018192868601358155019401910161248a565b8a80fd5b60019060206124ff85614950565b940193818401550161235e565b634e487b7160e01b8c52604160045260248cfd5b600190602061252e85614950565b94019381840155016122ed565b600190602061254985614950565b9401938184015501611eb6565b634e487b7160e01b84526041600452602484fd5b604051631d36ca1560e21b8152600490fd5b9092612592606460043501600435600401614906565b8510156125ca5760019160406125ba6125b46125c2948960051b81019061448c565b8061493b565b013590614258565b930190611e0d565b634e487b7160e01b87526032600452602487fd5b6125ea90939193613581565b9138611df2565b92959194975092959750601f1982820301865261260e87846146a7565b9061263861262d61261f84806146a7565b6040845260408401906146f0565b9260208101906146bb565b82840360209093019290925281835290916001600160fb1b03831161267f5760208092819260019560051b80928483013701019801960193018b9795939289979592611d69565b8d80fd5b600482036126ae575b6002820180546001600160401b0319166001600160401b038316179055611c7f565b60045482546001600160401b0319166001600160401b03919091161782556126d860018301614636565b61268c565b61270860206126ee60068401613910565b604051809381926339aa47fb60e01b83526004830161450a565b038173__$1cd67d4dc9e627f0bec7928aa480e7d951$__5af4908115611a8257839161274e575b5060043560a4013514611c70576040516312232e5d60e11b8152600490fd5b90506020813d602011612778575b81612769602093836135e6565b810103126102d757513861272f565b3d915061275c565b60405163fae4eadb60e01b8152600490fd5b60405163c18316bf60e01b8152600490fd5b634e487b7160e01b83526021600452602483fd5b604051637f39132760e11b8152600490fd5b506020813d6020116127fd575b816127e4602093836135e6565b81010312610311576127f8611c0d916140cd565b611c03565b3d91506127d7565b50346103155780600319360112610315576001546040805191901c6001600160401b03168152602090f35b5034610315576020806003193601126103115760043561284e6142f1565b80156102ff5761285d33615e4e565b9290156102ed5760018301928354938385106128c85760048392610244926128888761026599614265565b8091557f0000000000000000000000000000000000000000000000000000000000000000116128b8575b01613689565b805460ff191660031781556128b2565b6040516379b33e7960e01b8152600490fd5b50346103155780600319360112610315576128f433615e4e565b90156102ed57600380820154612ac6576001828101546006549093919291906001600160401b0380821660001901818111612ab2576001600160401b03199092169116176006556129709061294b90600401613689565b604051906390ba52cf60e01b8252818060209485938460048401526024830190613a57565b038173__$a0fe38a9a81205afccc10810b09a4d3f45$__5af4908115610b74578691612a85575b5085526007815260408520928584558581850155600290868286015586848601558660048601556129ca600586016141e8565b8660068601556129dc600786016141e8565b8660088601558660098601556129f4600a86016143ab565b600b85019283549388815584612a2e575b8861066789612a28600e8b85600c820155612a22600d8201614314565b016143ab565b336142a2565b8486029486860403612a715788528720928301925b838110612a505780612a05565b8088869255612a608382016141e8565b612a6b848201614457565b01612a43565b634e487b7160e01b89526011600452602489fd5b90508181813d8311612aab575b612a9c81836135e6565b81010312610b69575138612997565b503d612a92565b634e487b7160e01b88526011600452602488fd5b604051637c67c70160e11b8152600490fd5b5034610315578060031936011261031557600b546040516001600160401b039091168152602090f35b50346103155760403660031901126103155760ff6040602092612b22613d59565b6004358252600985528282206001600160a01b03909116825284522054604051911615158152f35b503461031557806003193601126103155760206040517f00000000000000000000000000000000000000000000000000000000000000008152f35b503461031557602036600319011261031557612bfa906001600160401b03906108c49060409083612bb4613d2f565b168152600a60205220612bc681613689565b9260028201541690600381015490612be560076006830154920161377e565b9160405196879660a0885260a0880190613a57565b936020870152604086015260608501528382036080850152613afe565b5060031960203682011261031157600435907f0000000000000000000000000000000000000000000000000000000000000000908134106106c35782845260096020526040842033855260205260ff60408520541615612d4757828452600860205260408420612c8e612c8982613890565b614e66565b9186610a76612ca4600360068501549401613689565b612cca604051978893849363089032d560e01b8552604060048601526044850190613a57565b038173__$a0fe38a9a81205afccc10810b09a4d3f45$__5af4908115610b3057612d1896612d12958993612d2b575b5088526008602052612d0d6040892061435d565b61529c565b34614265565b80612d21575080f35b61066790336142a2565b612d409193503d808b833e610ab681836135e6565b9138612cf9565b6040516377f0d98160e11b8152600490fd5b503461031557806003193601126103155760206040517f00000000000000000000000000000000000000000000000000000000000000008152f35b5034610315576040366003190112610315576040602091612db3613d59565b6004358252600d84528282206001600160a01b03909116825283522054604051908152f35b5080600319360112610315577f00000000000000000000000000000000000000000000000000000000000000003410610ad757612e3381612e17613609565b6040518093819263aa5106cb60e01b83523390600484016141a9565b038173__$a0fe38a9a81205afccc10810b09a4d3f45$__5af4908115610e6a578291612f39575b50612e6481615f65565b90612f275781516004820180546001600160401b03199081166001600160401b039384161790915560209384015180519294919392916005840191868411612f13578190612eb2858561420c565b0191875280872090875b848110612ef8575050505050346001820155600260ff1982541617815560024391015560065491612eee818416614240565b1691161760065580f35b83516001600160a01b03168382015592810192600101612ebc565b634e487b7160e01b88526041600452602488fd5b604051631b538cdf60e11b8152600490fd5b612f4d91503d8084833e610ab681836135e6565b38612e5a565b50346103155780600319360112610315576040517f00000000000000000000000000000000000000000000000000000000000000006001600160401b03168152602090f35b5034610315578060031936011261031557602060ff601154166040519015158152f35b503461031557602036600319011261031557612fd5613d2f565b604051635d3f8a6960e01b815233600482015260208160248173__$e800e3908cdbb6b1b5bd452383a17b18f7$__5af4908115611a82578391613069575b50156104b95760115460ff81166130585760018054600160401b600160801b03191660409390931b600160401b600160801b031692909217825560ff19161760115580f35b60405162dc149f60e41b8152600490fd5b90506020813d821161309a575b81613083602093836135e6565b810103126102d7576130949061409b565b38613013565b3d9150613076565b503461031557602080600319360112610311576130e1816130c4610f10613d2f565b604094919451809481926339aa47fb60e01b83526004830161450a565b038173__$1cd67d4dc9e627f0bec7928aa480e7d951$__5af49182156102e2578492613119575b506040809450519215158352820152f35b9080925081813d8311613145575b61313181836135e6565b810103126107155760409350519038613108565b503d613127565b5034610315576040366003190112610315576001600160401b036004356024358281116107155736602382011215610715578060040135928311610715576024810190602436918560051b01011161071557818452600960209080825260408620338752825260ff8060408820541615612d4757848752600883526131db6131d660408920613890565b6162c8565b6040516131e7816135cb565b888152604051906131f78261354b565b898252858201526040519061320b8261354b565b8152888582015260405161321e816135cb565b8981526040519061322e8261354b565b8a825286820152604051906132428261354b565b8152898682015260405190613256826135cb565b8a82526040519261326684613566565b83528683015289604083015289606083015289608083015260a0820152604051906132908261354b565b815288858201526040516132c0816132b2888201948986526040830190613b94565b03601f1981018352826135e6565b5190201461335057865b8681106132d5578780f35b6001906001600160a01b03806132f46132ef848c8b614d1f565b614950565b16613301575b50016132ca565b61330f6132ef838b8a614d1f565b90888b5285875260408b20911690818b5286528360408b2054166132fa57878a5284865260408a20908a528552604089208260ff19825416179055386132fa565b604051632449894160e01b8152600490fd5b503461031557806003193601126103155760606002546040519060018060401b03908181168352818160401c16602084015260801c166040820152f35b5034610315576040366003190112610315576004356001600160401b0381116103115761343d6134306108c4936133dd613443943690600401613de9565b9060206040516133ec8161354b565b6040516133f881613566565b613400614049565b815261340a614049565b83820152836040820152836060820152836080820152606060a082015281520152615f65565b6024359150600e01614069565b50613890565b604051918291602083526020830190613b94565b50346103155780600319360112610315576040517f00000000000000000000000000000000000000000000000000000000000000006001600160401b03168152602090f35b503461031557602036600319011261031557604090600435815260076020522080546108c460018301549261353d60028201549160038101546134ed60066134e660048501613689565b9301613910565b9360405197876135018a60ff819b16613a34565b60018060401b0390818160081c1660208b015260481c1660408901526060880152608087015260a08601526101008060c0870152850190613a57565b9083820360e0850152613c12565b604081019081106001600160401b038211176121df57604052565b60c081019081106001600160401b038211176121df57604052565b6001600160401b0381116121df57604052565b61012081019081106001600160401b038211176121df57604052565b60e081019081106001600160401b038211176121df57604052565b602081019081106001600160401b038211176121df57604052565b601f909101601f19168101906001600160401b038211908210176121df57604052565b604051906136168261354b565b6004546001600160401b0316825260405160058054808352600091825260209185916000805160206162ec833981519152918591858301915b8682821061366a57505050613666925003846135e6565b0152565b85546001600160a01b031684526001958601958995509301920161364f565b906040516136968161354b565b809260018060401b03815416825260018091019160405191828481955492838652602080960191600052856000209060005b878682106136e05750505050613666925003846135e6565b83546001600160a01b03168552899550909301929181019181016136c8565b6001600160401b0381116121df5760051b60200190565b906040516137238161354b565b6020819361373081613689565b8352600201546001600160a01b0316910152565b90600182811c92168015613774575b602083101461375e57565b634e487b7160e01b600052602260045260246000fd5b91607f1691613753565b906040519182600082549261379284613744565b90818452600194858116908160001461380157506001146137be575b50506137bc925003836135e6565b565b9093915060005260209081600020936000915b8183106137e95750506137bc935082010138806137ae565b855488840185015294850194879450918301916137d1565b9150506137bc94506020925060ff191682840152151560051b82010138806137ae565b9060405161383181613566565b60a061388b6008839561384381613716565b855261385160038201613716565b60208601526006810154604086015260078101546001600160401b0381166060870152841b6001600160e01b03191660808601520161377e565b910152565b9060405161389d8161354b565b602060ff600983956138ae81613824565b85520154161515910152565b9081546138c6816136ff565b926138d460405194856135e6565b818452600090815260208082208186015b8484106138f3575050505050565b600a8360019261390285613890565b8152019201930192906138e5565b90604091825190613920826135b0565b819361392b82613689565b835260029060018060401b03828401541660209081860152600390818501548387015261395a600486016138ba565b60608701526005850190815493613970856136ff565b9561397d825197886135e6565b85875260009384528284209184908489015b8887106139bd57505050505050505050600760c09261388b926080860152600681015460a08601520161377e565b87868351926139cb8461354b565b6139d488613689565b84528688019385518084875491828152019689528489209089905b808210613a1957505050613a078160019703826135e6565b8382015281520195019601959361398f565b8254895297909501968e96508c9560019283019201906139ef565b906006821015613a415752565b634e487b7160e01b600052602160045260246000fd5b80516001600160401b03168252602090810151604082840181905281519084018190526060909301929082019160005b828110613a95575050505090565b83516001600160a01b031685529381019392810192600101613a87565b906020613ac88351604084526040840190613a57565b928101516001600160a01b031691015290565b60005b838110613aee5750506000910152565b8181015183820152602001613ade565b90602091613b1781518092818552858086019101613adb565b601f01601f1916010190565b613b919160a0613b51613b3f845160c0855260c0850190613ab2565b60208501518482036020860152613ab2565b926040810151604084015260018060401b03606082015116606084015263ffffffff60e01b608082015116608084015201519060a0818403910152613afe565b90565b90602080613bab8451604085526040850190613b23565b930151151591015290565b908082519081815260208091019281808460051b8301019501936000915b848310613be45750505050505090565b9091929394958480613c02600193601f198682030187528a51613b94565b9801930193019194939290613bd4565b919091613c28815160e0855260e0850190613a57565b9260209160018060401b03838201511683830152613c5c604095868301518785015260608301518482036060860152613bb6565b9460808201519383870360808501528451908188528088019281808460051b8b0101970193600091825b858410613cb75750505050505050613b919394508060a060c092015160a084015201519060c0818403910152613afe565b9091929380959699601f198d82030185528a5182613cdc825187855287850190613a57565b910151918381830391015282808351928381520192019084905b808210613d165750505090806001929b0194019401929594939190613c86565b9193806001929486518152019401920188939291613cf6565b600435906001600160401b038216820361192657565b35906001600160401b038216820361192657565b602435906001600160a01b038216820361192657565b35906001600160a01b038216820361192657565b81601f8201121561192657803591613d9a836136ff565b92613da860405194856135e6565b808452602092838086019260051b820101928311611926578301905b828210613dd2575050505090565b838091613dde84613d6f565b815201910190613dc4565b91906040838203126119265760405190613e028261354b565b8193613e0d81613d45565b83526020810135916001600160401b0383116119265760209261388b9201613d83565b6003199060208183011261192657600435916001600160401b03831161192657826040920301126119265760040190565b9190916040818403126119265760405190613e7b8261354b565b90928391908135906001600160401b0382116119265782613ea56020949261388b94869401613de9565b855201613d6f565b35906001600160e01b03198216820361192657565b6001600160401b0381116121df57601f01601f191660200190565b3590811515820361192657565b9190604092838183031261192657835191613f048361354b565b829482359260018060401b03938481116119265781019360c08585031261192657825190613f3182613566565b85358181116119265785613f46918801613e61565b8252602095868101358281116119265786613f62918301613e61565b878401528481013585840152613f7a60608201613d45565b6060840152613f8b60808201613ead565b608084015260a081013591821161192657019284601f8501121561192657833594613fc1613fb887613ec2565b925192836135e6565b858252868686010111611926576000868661388b9782809801838601378301015260a0820152855201613edd565b60405190613ffc8261354b565b6060602083600081520152565b60405190614016826135b0565b606060c083614023613fef565b815260006020820152600060408201528280820152826080820152600060a08201520152565b604051906140568261354b565b6000602083614063613fef565b81520152565b805482101561408557600052600a602060002091020190600090565b634e487b7160e01b600052603260045260246000fd5b5190811515820361192657565b9060ff801983541691151516179055565b51906001600160401b038216820361192657565b51906001600160a01b038216820361192657565b919060408382031261192657604051926140fa8461354b565b83614104826140b9565b815260208281015190926001600160401b03821161192657019280601f85011215611926578351614134816136ff565b9461414260405196876135e6565b818652848087019260051b8201019283116119265784809101915b83831061416c57505050500152565b8190614177846140cd565b815201910190849061415d565b906020828203126119265781516001600160401b03811161192657613b9192016140e1565b906141c1602091949394604084526040840190613a57565b6001600160a01b03909416910152565b8181106141dc575050565b600081556001016141d1565b805460008255806141f7575050565b6137bc916000526020600020908101906141d1565b90600160401b81116121df5781549080835581811061422a57505050565b6137bc92600052602060002091820191016141d1565b6001600160401b0390811660010191908211611a2057565b91908201809211611a2057565b91908203918211611a2057565b3d1561429d573d9061428382613ec2565b9161429160405193846135e6565b82523d6000602084013e565b606090565b8147106142df576000918291829182916001600160a01b03165af16142c5614272565b50156142cd57565b604051633204506f60e01b8152600490fd5b60405163356680b760e01b8152600490fd5b600260005414614302576002600055565b604051633ee5aeb560e01b8152600490fd5b61431e8154613744565b9081614328575050565b81601f6000931160011461433a575055565b908083918252614359601f60208420940160051c8401600185016141d1565b5555565b6009600091828155614371600182016141e8565b826002820155826003820155614389600482016141e8565b8260058201558260068201558260078201556143a760088201614314565b0155565b805460008255806143ba575050565b600a918183029183830403611a20576000526020600020908101905b8181106143e257505050565b806143ed849261435d565b016143d6565b90600160401b81116121df5781549080835581811061441157505050565b600a928284029284840403611a20578184029184830403611a2057600052602060002091820191015b81811061444657505050565b80614451849261435d565b0161443a565b8054906000908181558261446a57505050565b815260208120918201915b82811061448157505050565b818155600101614475565b903590603e1981360301821215611926570190565b356001600160401b03811681036119265790565b90815180825260208092019182818360051b82019501936000915b8483106144e05750505050505090565b90919293949584806144fa83856001950387528a51613b94565b98019301930191949392906144d0565b919091602090818152614529845160e084840152610100830190613a57565b9060018060401b0383860151169460409586830152858101516060830152614563606082015193601f1994858583030160808601526144b5565b95608082015194848489030160a08501528551908189528089019281808460051b8c0101980193600091825b8584106145c05750505050505050613b9194955060c08160a060e09301518285015201519282850301910152613afe565b909192938a8a8e8398999d030185528b51826145e3825187855287850190613a57565b910151918381830391015282808351928381520192019084905b80821061461d5750505090806001929c019401940192959493919061458f565b91938060019294865181520194019201889392916145fd565b600581146146a457600554906001600160401b0382116121df5761465a828261420c565b6000908152602081206000805160206162ec83398151915280545b848410614683575050505050565b600191820180546001600160a01b0390921684860155939091019290614675565b50565b9035603e1982360301811215611926570190565b9035601e1982360301811215611926570160208101919035906001600160401b038211611926578160051b3603831361192657565b60408201916001600160401b0361470683613d45565b168152606061471a602093848101906146bb565b839195604086839601525201929160005b828110614739575050505090565b909192938280600192838060a01b0361475189613d6f565b1681520195019392910161472b565b90602061477061261f84806146a7565b926001600160a01b0390614785908301613d6f565b1691015290565b9035601e1982360301811215611926570160208101919035906001600160401b03821161192657813603831361192657565b908060209392818452848401376000828201840152601f01601f1916010190565b909182815260208091019283918160051b8501948460009081925b85841061480c57505050505050505090565b9091929394959697818103885261482389846146a7565b90813560be1983360301811215610b6957828892836148f1816148ea60019882970160408087526148db61485783806146a7565b9261486e60c09485858c01526101008b0190614760565b9261487b878301836146a7565b94614895603f19956060978d898982850301910152614760565b95608092840135838d01528f806148b29160401b03918501613d45565b169160a092838d01526148ce63ffffffff60e01b918501613ead565b16908b015281019061478c565b918884030160e08901526147be565b9401613edd565b15159101529a019801969594019291906147fa565b903590601e198136030182121561192657018035906001600160401b03821161192657602001918160051b3603831361192657565b90359060be1981360301821215611926570190565b356001600160a01b03811681036119265790565b805463ffffffff60401b191660a09290921c63ffffffff60401b16919091179055565b903590601e198136030182121561192657018035906001600160401b0382116119265760200191813603831361192657565b9190601f81116149c857505050565b6137bc926000526020600020906020601f840160051c830193106149f4575b601f0160051c01906141d1565b90915081906149e7565b92919092614a0b846136ff565b91614a1960405193846135e6565b829480845260208094019060051b8301928284116119265780915b848310614a4357505050505050565b82356001600160401b038111611926578691614a628684938601613eea565b815201920191614a34565b600080600160401b600160a01b03831660ff60981b14614aa8575b15614aa457614a9690614abb565b90614a9f575090565b905090565b5090565b50506001600160401b0381166001614a88565b60009081526016600a6020836002607f60991b015afa9181519161040a8360018060a01b03169360a01c61ffff1603614b11575b83158015614b06575b614aff5750565b9250829150565b5060163d1415614af8565b60009350915081614aef565b9190916040818403126119265760405190614b378261354b565b805191938492906001600160401b0382116119265782614b606020949261388b948694016140e1565b8552016140cd565b81601f82011215611926578051614b7e81613ec2565b92614b8c60405194856135e6565b8184526020828401011161192657613b919160208085019101613adb565b906020828203126119265781516001600160401b03928382116119265701916040838303126119265760405192614be08461354b565b805182811161192657810160c0818503126119265760405190614c0282613566565b80518481116119265785614c17918301614b1d565b825260208101518481116119265785614c31918301614b1d565b602083015260408101516040830152614c4c606082016140b9565b606083015260808101516001600160e01b03198116810361192657608083015260a081015193841161192657614c9694602094614c899201614b68565b60a082015284520161409b565b602082015290565b6004546001600160401b03168152604060208083018290526005805492840183905260009081526060909301926000805160206162ec83398151915292915b828210614ceb575050505090565b83546001600160a01b031685529384019360019384019390910190614cdd565b80518210156140855760209160051b010190565b91908110156140855760051b0190565b614d37614009565b506001600160401b03166000908152600a602090815260408220614d8390614d5e90613910565b9282845160405180948192630c133d1360e31b83528460048401526024830190613a57565b038173__$a0fe38a9a81205afccc10810b09a4d3f45$__5af4928315614dea578193614db1575b5050501591565b9091809350813d8311614de3575b614dc981836135e6565b810103126103155750614ddb9061409b565b388080614daa565b503d614dbf565b50604051903d90823e3d90fd5b60059060028101546000520160205260016040600020614e1e828060401b03825416616077565b0190565b602080825282516001600160401b0316828201529190910151604080830152613b9191606001906144b5565b90816020910312611926575160028110156119265790565b906020918281510151519273__$a0fe38a9a81205afccc10810b09a4d3f45$__604090815195630c133d1360e31b87526004938085890152602497818180614eb08c820187613a57565b0381875af49081156152915760009161525c575b5061524c57835163c836244d60e01b80825286820186905289959493909291828180614f08614ef66044830187613a57565b6003199b8c8483030190840152614c9e565b0381885af49081156152415760009161520c575b506151fc5784938a93889784898c5197614f4f895151998b519b8c9463f47ad7eb60e01b86528501526044840190613b23565b9084838303019083015260608b82019160018060401b03809e541681528c8582015260055480935201906005600052836000209060005b8181106151da575050508190038173__$386b5c41ce93e8b832daf8008b3d30ae09$__5af49687156151cf576000976151a0575b508c600096600289101561518e5789918c9160018b14615074575b50505050505050505061505a5715614ffe575b505050614ff6919250615623565b600090600190565b600b54928284831c169283146150465750600160401b600160801b031990921660019190910190911b600160401b600160801b031617600b559091508190614ff63880614fe8565b60118791634e487b7160e01b600052526000fd5b50939450505061506981615714565b510151151590600090565b8392916150af916150a08c9a9b9c96519b8c968796631ccc893360e11b88528701526044860190613a57565b91878584030190850152613a57565b0381865af49485156151845788928794928f8d938899615162575b50906150f9916150eb87519a8b988997889788528701526044860190613a57565b918483030190840152614c9e565b03915af492831561515657819361511d575b505050153880808080878a8e83614fd5565b9091809350813d831161514f575b61513581836135e6565b8101031261031557506151479061409b565b38808061510b565b503d61512b565b508451903d90823e3d90fd5b6150f99291995061517c903d808b833e610ab681836135e6565b9890916150ca565b88513d86823e3d90fd5b50634e487b7160e01b875260218b5286fd5b6151c1919750853d87116151c8575b6151b981836135e6565b810190614e4e565b9538614fba565b503d6151af565b88513d6000823e3d90fd5b82546001600160a01b031684528a958d95509093019260019283019201614f86565b845163461e815d60e01b81528790fd5b908382813d831161523a575b61522281836135e6565b8101031261031557506152349061409b565b38614f1c565b503d615218565b86513d6000823e3d90fd5b5050505163461e815d60e01b8152fd5b908282813d831161528a575b61527281836135e6565b8101031261031557506152849061409b565b38614ec4565b503d615268565b85513d6000823e3d90fd5b90929161536c575b506152ac5750565b60206152d39160405180938192632cff562160e11b83528460048401526024830190613a57565b038173__$a0fe38a9a81205afccc10810b09a4d3f45$__5af4801561536057600090615326575b6137bc91507f000000000000000000000000000000000000000000000000000000000000000090615d88565b6020823d8211615358575b8161533e602093836135e6565b8101031261031557506153536137bc916140cd565b6152fa565b3d9150615331565b6040513d6000823e3d90fd5b8047106142df5760008080809360635af1615385614272565b50156142cd57386152a4565b815180518051805184546001600160401b03199081166001600160401b039283161786556020928301518051969793969395949293600193848a0193929091908682116121df5790898093926153e7838861420c565b01600095865283862087875b8481106155c3575050505091015160028a0180546001600160a01b03199081166001600160a01b0393841617909155878a01518051805160038e0180548816918b169190911790558b0151805191945091929160048d0190898311612f13578c9061545e848461420c565b019087528b8720888d89905b8582106155af5793505050506154bf95949392915060058d019301511690825416179055604086015160068a01556007890190856060880151169082541617815563ffffffff60e01b60808701511690614964565b60a060088801940151805193841161559b576154e5846154df8754613744565b876149b9565b8691601f851160011461553057936137bc98979593819382936009999794615525575b50501b916000199060031b1c19161790555b0151151591016140a8565b015192503880615508565b9190601f949394198416868452888420935b818110615586575091600997959391856137bc9b9a9896941061556d575b505050811b01905561551a565b015160001960f88460031b161c19169055388080615560565b82840151855593860193928901928901615542565b634e487b7160e01b82526041600452602482fd5b86855116940193818401550189908e61546a565b83516001600160a01b0316838201558d96909301928991016153f3565b8054600160401b8110156121df576155fd91600182018155614069565b91909161560d576137bc91615391565b634e487b7160e01b600052600060045260246000fd5b615666600061565560208451015151604051938492839263089032d560e01b8452604060048501526044840190613a57565b828103600319016024840152614c9e565b038173__$a0fe38a9a81205afccc10810b09a4d3f45$__5af4801561536057615697916000916156fb575b50615f65565b9190156102ed57600e826137bc935460018060401b038160081c16806060865101526156cb610100600160481b0391614240565b60081b1690610100600160481b0319161781556040835101516156f360038301918254614258565b9055016155e0565b61570e913d8091833e610ab681836135e6565b38615691565b61576761571f615c81565b93915050600460018060401b039384600b5416606084510152600381016156f37f00000000000000000000000000000000000000000000000000000000000000008254614258565b600b5490615776818316614240565b6001600160401b0319909216911617600b55565b81519160005b83811061579d5750505050565b806157b46157ad60019385614d0b565b51856157ba565b01615790565b81516020908101518101519192916001600160a01b0390811615610ac55781835101515173__$a0fe38a9a81205afccc10810b09a4d3f45$__94604095865191630c133d1360e31b9182845260049387858201528781806158206024998a830190613a57565b0381855af4908115615c7657600091615c41575b50615c315788885163ffffffff60e01b60808201511615615c12575b50508751926158748a519463f47ad7eb60e01b86528b878701526044860190613b23565b88858061588c6003199485838203018c840152614c9e565b038173__$386b5c41ce93e8b832daf8008b3d30ae09$__5af4948515615bd857908b8b8b93600098615be3575b50906158f7846158e995949351015151928251958694859463c836244d60e01b86528d8601526044850190613a57565b90838203018c840152614c9e565b0381865af4908115615bd857600091615ba3575b5061595a5750505050505061591f836162c8565b80600052600883526159348486600020615391565b60005260098252818460002093515101511660005252600020600160ff19825416179055565b90919293955060028499979895991015615b8f5790839291600189969514615a84575b50505015615a11575b916159a960009385519788948594635c46fefb60e11b8652850152830190613b94565b038173__$33b79814e84bf6cf5e47244090b19ce5f8$__5af4908115615a0757506159d2575050565b3d806000843e6159e281846135e6565b820190828203126119265781516001600160401b038111611926576146a49201614b68565b513d6000823e3d90fd5b600b54815160600151919250906001600160401b0382861c811691168103615a7457600093869390926159a992600160401b600160801b0390615a5390614240565b600160401b600160801b031990921691881b1617600b559193506159869050565b845163a57cadff60e01b81528490fd5b8795919293949551928391825282888301528180615aa48d820188613a57565b03915af490811561524157908794939291600091615b54575b5015615acb575b808061597d565b615ad791929350615f65565b9015615b445780548351606001516001600160401b03604883901c811691168103615b3457879493929190600160481b600160881b0390615b1790614240565b60481b16600160481b600160881b03199190911617905538615ac4565b865163a57cadff60e01b81528690fd5b8451630e991abd60e41b81528490fd5b9192939482813d8311615b88575b615b6c81836135e6565b81010312610315575090615b828794939261409b565b38615abd565b503d615b62565b88602187634e487b7160e01b600052526000fd5b908982813d8311615bd1575b615bb981836135e6565b810103126103155750615bcb9061409b565b3861590b565b503d615baf565b8b513d6000823e3d90fd5b84809493929950615c066158f7926158e9973d84116151c8576151b981836135e6565b999293945094506158b9565b01514710615c21578838615850565b885163569d45cf60e11b81528490fd5b885163461e815d60e01b81528490fd5b908882813d8311615c6f575b615c5781836135e6565b810103126103155750615c699061409b565b38615834565b503d615c4d565b8a513d6000823e3d90fd5b6001600160401b037f000000000000000000000000000000000000000000000000000000000000000081168015615d725781615cc08282431604614240565b1602908116908103611a20578060009081526020600a8152615d0b604083209282615cea85613689565b60405180948192630c133d1360e31b83528460048401526024830190613a57565b038173__$a0fe38a9a81205afccc10810b09a4d3f45$__5af4928315614dea578193615d39575b5050501592565b9091809350813d8311615d6b575b615d5181836135e6565b810103126103155750615d639061409b565b388080615d32565b503d615d47565b634e487b7160e01b600052601260045260246000fd5b8115615dea57615d9790614a6d565b604051632a7edd8f60e21b60208201908152602480830194909452928152606081016001600160401b038111828210176121df57604052516146a492600091829182855af1615de4614272565b91615dee565b5050565b9015615e2c57815115615dff575090565b803b15615e0a575090565b604051639996b31560e01b81526001600160a01b039091166004820152602490fd5b50805115615e3c57805190602001fd5b604051630a12f52160e11b8152600490fd5b6001600160a01b03919082811615615f5357604051615e6c8161354b565b6004546001600160401b03168152604051600580548083526000918252909560208084019588959094909390926000805160206162ec833981519152919087905b828210615f375750505050615ec782615ee59703836135e6565b82015260405163aa5106cb60e01b81529384928392600484016141a9565b038173__$a0fe38a9a81205afccc10810b09a4d3f45$__5af4908115611a825783615f18939492615f1c575b5050615f65565b9091565b615f3092503d8091833e610ab681836135e6565b3880615f11565b835481168a52988401988b985060019384019390910190615ead565b6040516370e4510960e01b8152600490fd5b615fa373__$a0fe38a9a81205afccc10810b09a4d3f45$__91604051906390ba52cf60e01b8252818060209485938460048401526024830190613a57565b0381865af490811561536057600091616048575b5090615ffa916000526007815280604060002093615fd760048601613689565b906040518080968194630c133d1360e31b83528660048401526024830190613a57565b03915af490811561536057600091616014575b5090501591565b82813d8311616041575b61602881836135e6565b81010312610315575061603a9061409b565b803861600d565b503d61601e565b908282813d8311616070575b61605e81836135e6565b81010312610315575051615ffa615fb7565b503d616054565b61608081616191565b156146a457604051634953836d60e11b8152600260048201526001600160401b03918216602482018190529173__$b7b8687e33476c74e3b4e0a64c4768a343$__9190602082604481865af48015615360578492600091616154575b50616141575b5050803b15611926576000604491604051928380926394ecccfd60e01b8252600260048301528660248301525af4801561536057616132575b50600180546001600160401b031916919091179055565b61613b90613581565b3861611b565b60025460401c1603615dea5781386160e2565b9192506020823d8211616189575b8161616f602093836135e6565b81010312610315575090616183849261409b565b386160dc565b3d9150616162565b6001546001600160401b039081167f0000000000000000000000000000000000000000000000000000000000000000821601818111611a2057811691161490565b60ff7f000000000000000000000000000000000000000000000000000000000000000016808302908382041483151715611a20576064900460405191637d2ef4e560e11b835280600484015260208360248173__$e0f829f5071d7e628aa77eca0c12e35bc2$__5af492831561536057600093616294575b5060010154908082111561628b57808311616282576162729261626c91614265565b92614265565b111561627d57600190565b600290565b50505050600390565b50505050600090565b90926020823d82116162c0575b816162ae602093836135e6565b8101031261031557505191600161624a565b3d91506162a1565b6040516162e5816132b26020820194602086526040830190613b94565b5190209056fe036b6384b5eca791c62761152d0c79bb0604c104a5fb6f4eb0703f3154bb3db0a26469706673582212208a74d08c25d28ca1486b00634d93fe21d14c50ae5ed8cd790870443c5ae2a78d64736f6c63430008130033",
    "linkReferences": {
      "src/lib/AccountHelper.sol": {
        "AccountHelper": [
          {
            "start": 2317,
            "length": 20
          },
          {
            "start": 2738,
            "length": 20
          },
          {
            "start": 3722,
            "length": 20
          },
          {
            "start": 4831,
            "length": 20
          },
          {
            "start": 5390,
            "length": 20
          },
          {
            "start": 13626,
            "length": 20
          }
        ]
      },
      "src/lib/CheckpointHelper.sol": {
        "CheckpointHelper": [
          {
            "start": 5781,
            "length": 20
          },
          {
            "start": 6167,
            "length": 20
          },
          {
            "start": 8651,
            "length": 20
          },
          {
            "start": 8988,
            "length": 20
          },
          {
            "start": 11350,
            "length": 20
          },
          {
            "start": 13871,
            "length": 20
          }
        ]
      },
      "src/lib/CrossMsgHelper.sol": {
        "CrossMsgHelper": [
          {
            "start": 2883,
            "length": 20
          },
          {
            "start": 4974,
            "length": 20
          },
          {
            "start": 5588,
            "length": 20
          },
          {
            "start": 24311,
            "length": 20
          }
        ]
      },
      "src/lib/EpochVoteSubmissionHelper.sol": {
        "EpochVoteSubmissionHelper": [
          {
            "start": 7630,
            "length": 20
          },
          {
            "start": 26480,
            "length": 20
          }
        ]
      },
      "src/lib/ExecutableQueueHelper.sol": {
        "ExecutableQueueHelper": [
          {
            "start": 7486,
            "length": 20
          },
          {
            "start": 7554,
            "length": 20
          },
          {
            "start": 26104,
            "length": 20
          }
        ]
      },
      "src/lib/StorableMsgHelper.sol": {
        "StorableMsgHelper": [
          {
            "start": 21728,
            "length": 20
          },
          {
            "start": 24026,
            "length": 20
          }
        ]
      },
      "src/lib/SubnetIDHelper.sol": {
        "SubnetIDHelper": [
          {
            "start": 701,
            "length": 20
          },
          {
            "start": 1971,
            "length": 20
          },
          {
            "start": 2947,
            "length": 20
          },
          {
            "start": 3804,
            "length": 20
          },
          {
            "start": 8491,
            "length": 20
          },
          {
            "start": 11966,
            "length": 20
          },
          {
            "start": 12824,
            "length": 20
          },
          {
            "start": 13185,
            "length": 20
          },
          {
            "start": 21201,
            "length": 20
          },
          {
            "start": 21437,
            "length": 20
          },
          {
            "start": 22561,
            "length": 20
          },
          {
            "start": 23476,
            "length": 20
          },
          {
            "start": 23850,
            "length": 20
          },
          {
            "start": 25177,
            "length": 20
          },
          {
            "start": 25651,
            "length": 20
          },
          {
            "start": 25780,
            "length": 20
          }
        ]
      }
    }
  },
  "methodIdentifiers": {
    "MIN_CHECKPOINT_PERIOD()": "a1ada303",
    "MIN_COLLATERAL_AMOUNT()": "91be4d41",
    "addStake()": "5a627dbc",
    "appliedTopDownNonce()": "8789f83b",
    "bottomUpCheckPeriod()": "06c46853",
    "bottomUpCheckpointAtEpoch(uint64)": "6cb2ecee",
    "bottomUpCheckpointHashAtEpoch(uint64)": "133f74ea",
    "bottomUpCheckpoints(uint64)": "2cc14ea2",
    "bottomUpNonce()": "41b6a2e8",
    "commitChildCheck(((uint64,address[]),uint64,uint256,((((uint64,address[]),address),((uint64,address[]),address),uint256,uint64,bytes4,bytes),bool)[],((uint64,address[]),bytes32[])[],bytes32,bytes))": "59265195",
    "crossMsgFee()": "24729425",
    "executableQueue()": "10d500e1",
    "fund((uint64,address[]))": "cfb3452f",
    "getGenesisEpoch()": "51392fc0",
    "getNetworkName()": "94074b03",
    "getSubnet((uint64,address[]))": "c66c66a1",
    "getSubnetTopDownMsg((uint64,address[]),uint256)": "0ea746f2",
    "getSubnetTopDownMsgsLength((uint64,address[]))": "9d3070b5",
    "getTopDownMsgs((uint64,address[]))": "88f6aea5",
    "hasValidatorVotedForSubmission(uint64,address)": "66d7bbbc",
    "initGenesisEpoch(uint64)": "13f35388",
    "initialized()": "158ef93e",
    "kill()": "41c0e1b5",
    "lastVotingExecutedEpoch()": "ad81e244",
    "majorityPercentage()": "599c7bd1",
    "minStake()": "375b3c0a",
    "postbox(bytes32)": "8cfd78e7",
    "postboxHasOwner(bytes32,address)": "3c8fe6bf",
    "propagate(bytes32)": "25bf0db6",
    "register()": "1aa3a008",
    "release()": "86d1a69f",
    "releaseRewards(uint256)": "f8703bb8",
    "releaseStake(uint256)": "45f54485",
    "sendCross((uint64,address[]),((((uint64,address[]),address),((uint64,address[]),address),uint256,uint64,bytes4,bytes),bool))": "c3c36055",
    "setMembership(address[],uint256[])": "f75bc557",
    "submissionPeriod()": "185fde7e",
    "submitTopDownCheckpoint((uint64,((((uint64,address[]),address),((uint64,address[]),address),uint256,uint64,bytes4,bytes),bool)[]))": "5dfb9892",
    "subnets(bytes32)": "02e30f9a",
    "topDownCheckPeriod()": "7d9740f4",
    "totalSubnets()": "a2b67158",
    "totalWeight()": "96c82e57",
    "validatorNonce()": "e17a684f",
    "validatorSet(uint256,address)": "223d9056",
    "whitelistPropagator(bytes32,address[])": "11c5080e"
  },
  "id": 27
}