{
  "_format": "hh-sol-artifact-1",
  "contractName": "SubnetActor",
  "sourceName": "contracts/SubnetActor.sol",
  "abi": [
    {
      "inputs": [
        {
          "components": [
            {
              "components": [
                {
                  "internalType": "address[]",
                  "name": "route",
                  "type": "address[]"
                }
              ],
              "internalType": "struct SubnetID",
              "name": "parentId",
              "type": "tuple"
            },
            {
              "internalType": "string",
              "name": "name",
              "type": "string"
            },
            {
              "internalType": "address",
              "name": "ipcGatewayAddr",
              "type": "address"
            },
            {
              "internalType": "enum ConsensusType",
              "name": "consensus",
              "type": "uint8"
            },
            {
              "internalType": "uint256",
              "name": "minActivationCollateral",
              "type": "uint256"
            },
            {
              "internalType": "uint64",
              "name": "minValidators",
              "type": "uint64"
            },
            {
              "internalType": "uint64",
              "name": "bottomUpCheckPeriod",
              "type": "uint64"
            },
            {
              "internalType": "uint64",
              "name": "topDownCheckPeriod",
              "type": "uint64"
            },
            {
              "internalType": "uint8",
              "name": "majorityPercentage",
              "type": "uint8"
            },
            {
              "internalType": "bytes",
              "name": "genesis",
              "type": "bytes"
            }
          ],
          "internalType": "struct SubnetActor.ConstructParams",
          "name": "params",
          "type": "tuple"
        }
      ],
      "stateMutability": "nonpayable",
      "type": "constructor"
    },
    {
      "inputs": [],
      "name": "CallerHasNoStake",
      "type": "error"
    },
    {
      "inputs": [],
      "name": "CheckpointNotChained",
      "type": "error"
    },
    {
      "inputs": [],
      "name": "CollateralIsZero",
      "type": "error"
    },
    {
      "inputs": [],
      "name": "CollateralStillLockedInSubnet",
      "type": "error"
    },
    {
      "inputs": [],
      "name": "EpochAlreadyExecuted",
      "type": "error"
    },
    {
      "inputs": [],
      "name": "EpochNotVotable",
      "type": "error"
    },
    {
      "inputs": [],
      "name": "InvalidMajorityPercentage",
      "type": "error"
    },
    {
      "inputs": [],
      "name": "MessagesNotSorted",
      "type": "error"
    },
    {
      "inputs": [],
      "name": "NoRewardsSentForDistribution",
      "type": "error"
    },
    {
      "inputs": [],
      "name": "NoValidatorsInSubnet",
      "type": "error"
    },
    {
      "inputs": [],
      "name": "NotAccount",
      "type": "error"
    },
    {
      "inputs": [],
      "name": "NotAllValidatorsHaveLeft",
      "type": "error"
    },
    {
      "inputs": [],
      "name": "NotEnoughBalanceForRewards",
      "type": "error"
    },
    {
      "inputs": [],
      "name": "NotGateway",
      "type": "error"
    },
    {
      "inputs": [],
      "name": "NotValidator",
      "type": "error"
    },
    {
      "inputs": [],
      "name": "SubnetAlreadyKilled",
      "type": "error"
    },
    {
      "inputs": [],
      "name": "SubnetNotActive",
      "type": "error"
    },
    {
      "inputs": [],
      "name": "ValidatorAlreadyVoted",
      "type": "error"
    },
    {
      "inputs": [],
      "name": "WrongCheckpointSource",
      "type": "error"
    },
    {
      "inputs": [],
      "name": "bottomUpCheckPeriod",
      "outputs": [
        {
          "internalType": "uint64",
          "name": "",
          "type": "uint64"
        }
      ],
      "stateMutability": "view",
      "type": "function"
    },
    {
      "inputs": [
        {
          "internalType": "uint64",
          "name": "",
          "type": "uint64"
        }
      ],
      "name": "committedCheckpoints",
      "outputs": [
        {
          "components": [
            {
              "internalType": "address[]",
              "name": "route",
              "type": "address[]"
            }
          ],
          "internalType": "struct SubnetID",
          "name": "source",
          "type": "tuple"
        },
        {
          "internalType": "uint64",
          "name": "epoch",
          "type": "uint64"
        },
        {
          "internalType": "uint256",
          "name": "fee",
          "type": "uint256"
        },
        {
          "internalType": "bytes32",
          "name": "prevHash",
          "type": "bytes32"
        }
      ],
      "stateMutability": "view",
      "type": "function"
    },
    {
      "inputs": [],
      "name": "consensus",
      "outputs": [
        {
          "internalType": "enum ConsensusType",
          "name": "",
          "type": "uint8"
        }
      ],
      "stateMutability": "view",
      "type": "function"
    },
    {
      "inputs": [],
      "name": "executableQueue",
      "outputs": [
        {
          "internalType": "uint64",
          "name": "period",
          "type": "uint64"
        },
        {
          "internalType": "uint64",
          "name": "first",
          "type": "uint64"
        },
        {
          "internalType": "uint64",
          "name": "last",
          "type": "uint64"
        }
      ],
      "stateMutability": "view",
      "type": "function"
    },
    {
      "inputs": [],
      "name": "genesis",
      "outputs": [
        {
          "internalType": "bytes",
          "name": "",
          "type": "bytes"
        }
      ],
      "stateMutability": "view",
      "type": "function"
    },
    {
      "inputs": [],
      "name": "genesisEpoch",
      "outputs": [
        {
          "internalType": "uint64",
          "name": "",
          "type": "uint64"
        }
      ],
      "stateMutability": "view",
      "type": "function"
    },
    {
      "inputs": [],
      "name": "getParent",
      "outputs": [
        {
          "components": [
            {
              "internalType": "address[]",
              "name": "route",
              "type": "address[]"
            }
          ],
          "internalType": "struct SubnetID",
          "name": "",
          "type": "tuple"
        }
      ],
      "stateMutability": "view",
      "type": "function"
    },
    {
      "inputs": [
        {
          "internalType": "uint64",
          "name": "epoch",
          "type": "uint64"
        },
        {
          "internalType": "address",
          "name": "submitter",
          "type": "address"
        }
      ],
      "name": "hasValidatorVotedForSubmission",
      "outputs": [
        {
          "internalType": "bool",
          "name": "",
          "type": "bool"
        }
      ],
      "stateMutability": "view",
      "type": "function"
    },
    {
      "inputs": [],
      "name": "ipcGatewayAddr",
      "outputs": [
        {
          "internalType": "address",
          "name": "",
          "type": "address"
        }
      ],
      "stateMutability": "view",
      "type": "function"
    },
    {
      "inputs": [],
      "name": "join",
      "outputs": [],
      "stateMutability": "payable",
      "type": "function"
    },
    {
      "inputs": [],
      "name": "kill",
      "outputs": [],
      "stateMutability": "nonpayable",
      "type": "function"
    },
    {
      "inputs": [],
      "name": "lastVotingExecutedEpoch",
      "outputs": [
        {
          "internalType": "uint64",
          "name": "",
          "type": "uint64"
        }
      ],
      "stateMutability": "view",
      "type": "function"
    },
    {
      "inputs": [],
      "name": "leave",
      "outputs": [],
      "stateMutability": "nonpayable",
      "type": "function"
    },
    {
      "inputs": [],
      "name": "majorityPercentage",
      "outputs": [
        {
          "internalType": "uint8",
          "name": "",
          "type": "uint8"
        }
      ],
      "stateMutability": "view",
      "type": "function"
    },
    {
      "inputs": [],
      "name": "minActivationCollateral",
      "outputs": [
        {
          "internalType": "uint256",
          "name": "",
          "type": "uint256"
        }
      ],
      "stateMutability": "view",
      "type": "function"
    },
    {
      "inputs": [],
      "name": "minValidators",
      "outputs": [
        {
          "internalType": "uint64",
          "name": "",
          "type": "uint64"
        }
      ],
      "stateMutability": "view",
      "type": "function"
    },
    {
      "inputs": [],
      "name": "name",
      "outputs": [
        {
          "internalType": "string",
          "name": "",
          "type": "string"
        }
      ],
      "stateMutability": "view",
      "type": "function"
    },
    {
      "inputs": [],
      "name": "prevExecutedCheckpointHash",
      "outputs": [
        {
          "internalType": "bytes32",
          "name": "",
          "type": "bytes32"
        }
      ],
      "stateMutability": "view",
      "type": "function"
    },
    {
      "inputs": [],
      "name": "reward",
      "outputs": [],
      "stateMutability": "payable",
      "type": "function"
    },
    {
      "inputs": [
        {
          "internalType": "address",
          "name": "",
          "type": "address"
        }
      ],
      "name": "stake",
      "outputs": [
        {
          "internalType": "uint256",
          "name": "",
          "type": "uint256"
        }
      ],
      "stateMutability": "view",
      "type": "function"
    },
    {
      "inputs": [],
      "name": "status",
      "outputs": [
        {
          "internalType": "enum Status",
          "name": "",
          "type": "uint8"
        }
      ],
      "stateMutability": "view",
      "type": "function"
    },
    {
      "inputs": [],
      "name": "submissionPeriod",
      "outputs": [
        {
          "internalType": "uint64",
          "name": "",
          "type": "uint64"
        }
      ],
      "stateMutability": "view",
      "type": "function"
    },
    {
      "inputs": [
        {
          "components": [
            {
              "components": [
                {
                  "internalType": "address[]",
                  "name": "route",
                  "type": "address[]"
                }
              ],
              "internalType": "struct SubnetID",
              "name": "source",
              "type": "tuple"
            },
            {
              "internalType": "uint64",
              "name": "epoch",
              "type": "uint64"
            },
            {
              "internalType": "uint256",
              "name": "fee",
              "type": "uint256"
            },
            {
              "components": [
                {
                  "components": [
                    {
                      "components": [
                        {
                          "components": [
                            {
                              "internalType": "address[]",
                              "name": "route",
                              "type": "address[]"
                            }
                          ],
                          "internalType": "struct SubnetID",
                          "name": "subnetId",
                          "type": "tuple"
                        },
                        {
                          "internalType": "address",
                          "name": "rawAddress",
                          "type": "address"
                        }
                      ],
                      "internalType": "struct IPCAddress",
                      "name": "from",
                      "type": "tuple"
                    },
                    {
                      "components": [
                        {
                          "components": [
                            {
                              "internalType": "address[]",
                              "name": "route",
                              "type": "address[]"
                            }
                          ],
                          "internalType": "struct SubnetID",
                          "name": "subnetId",
                          "type": "tuple"
                        },
                        {
                          "internalType": "address",
                          "name": "rawAddress",
                          "type": "address"
                        }
                      ],
                      "internalType": "struct IPCAddress",
                      "name": "to",
                      "type": "tuple"
                    },
                    {
                      "internalType": "uint256",
                      "name": "value",
                      "type": "uint256"
                    },
                    {
                      "internalType": "uint64",
                      "name": "nonce",
                      "type": "uint64"
                    },
                    {
                      "internalType": "bytes4",
                      "name": "method",
                      "type": "bytes4"
                    },
                    {
                      "internalType": "bytes",
                      "name": "params",
                      "type": "bytes"
                    }
                  ],
                  "internalType": "struct StorableMsg",
                  "name": "message",
                  "type": "tuple"
                },
                {
                  "internalType": "bool",
                  "name": "wrapped",
                  "type": "bool"
                }
              ],
              "internalType": "struct CrossMsg[]",
              "name": "crossMsgs",
              "type": "tuple[]"
            },
            {
              "components": [
                {
                  "components": [
                    {
                      "internalType": "address[]",
                      "name": "route",
                      "type": "address[]"
                    }
                  ],
                  "internalType": "struct SubnetID",
                  "name": "source",
                  "type": "tuple"
                },
                {
                  "internalType": "bytes32[]",
                  "name": "checks",
                  "type": "bytes32[]"
                }
              ],
              "internalType": "struct ChildCheck[]",
              "name": "children",
              "type": "tuple[]"
            },
            {
              "internalType": "bytes32",
              "name": "prevHash",
              "type": "bytes32"
            }
          ],
          "internalType": "struct BottomUpCheckpoint",
          "name": "checkpoint",
          "type": "tuple"
        }
      ],
      "name": "submitCheckpoint",
      "outputs": [],
      "stateMutability": "nonpayable",
      "type": "function"
    },
    {
      "inputs": [],
      "name": "topDownCheckPeriod",
      "outputs": [
        {
          "internalType": "uint64",
          "name": "",
          "type": "uint64"
        }
      ],
      "stateMutability": "view",
      "type": "function"
    },
    {
      "inputs": [],
      "name": "totalStake",
      "outputs": [
        {
          "internalType": "uint256",
          "name": "",
          "type": "uint256"
        }
      ],
      "stateMutability": "view",
      "type": "function"
    },
    {
      "inputs": [
        {
          "internalType": "uint256",
          "name": "index",
          "type": "uint256"
        }
      ],
      "name": "validatorAt",
      "outputs": [
        {
          "internalType": "address",
          "name": "",
          "type": "address"
        }
      ],
      "stateMutability": "view",
      "type": "function"
    },
    {
      "inputs": [],
      "name": "validatorCount",
      "outputs": [
        {
          "internalType": "uint256",
          "name": "",
          "type": "uint256"
        }
      ],
      "stateMutability": "view",
      "type": "function"
    },
    {
      "stateMutability": "payable",
      "type": "receive"
    }
  ],
  "bytecode": "0x610160604052346200073c576200495780380390816200001f816200075c565b91823960208183810103126200073c578051916001600160401b0383116200073c5761014083830182840103126200073c576040519261014084016001600160401b03811185821017620005ee576040819052838201516001600160401b0381116200073c578285010160208185870103126200073c5761016086016001600160401b03811183821017620005ee576040528051906001600160401b0382116200073c5701838501601f820112156200073c578051906001600160401b038211620005ee578160051b602080620000f88184016200075c565b8095815201918301019186880183116200073c57602001905b828210620007415750505081528452828101602001516001600160401b0381116200073c5781840101828401601f820112156200073c576200015d908385019060208151910162000797565b60208501526200017260408285010162000782565b60408501526060818401015160068110156200073c576060850152608081840101516080850152620001a960a082850101620007f7565b60a0850152620001be60c082850101620007f7565b60c0850152620001d360e082850101620007f7565b60e0850152610100818401015160ff811681036200073c576101008501528281016101200151906001600160401b0382116200073c5783010190808301601f830112156200073c576200022e92019060208151910162000797565b61012082015261010081015160c082015160016000556001600160401b03169060ff16606481116200072a57608052600a811015620007245750600a5b60a0819052600280546001600160401b0319166001600160401b039283161790558151518051918211620005ee57680100000000000000008211620005ee576020906005548360055580841062000703575b50016005600052602060002060005b838110620006e557602085015180519086906001600160401b038311620005ee57620002fa60045462000825565b601f811162000692575b50602090601f84116001146200061e5761012093916000918362000612575b50508160011b916000199060031b1c1916176004555b60408101516001600160a01b031660c05260608101516001906200035d8162000862565b620003688162000862565b60ff199060ff82600654169116176006556080830151670de0b6b3a7640000908181106000146200060a57505b60e052818060401b0360a08401511661014052818060401b0360e084015116600a8110600014620006045750600a5b61010052818060401b0360a05116845260095416176009550151805160018060401b038111620005ee57620003fb600a5462000825565b601f81116200058f575b50602091601f8211600114620005255791819260009262000519575b50508160011b916000199060031b1c191617600a555b60018054600160401b600160801b03191690556040516140d3908162000884823960805181818161207c0152613f9f015260a0518181816115cb015281816124b80152613f6b015260c051818181601d015281816117370152818161194f01528181611bd401528181611c400152818161213a015281816123bd01528181613aac0152613bb6015260e05181818161186601528181611891015281816118bb01528181611a9c01528181611e5c015281816122410152818161226d015261229801526101005181611fb3015261012051816126280152610140518161199e0152f35b01519050828062000421565b601f19821692600a60005260206000209160005b85811062000576575083600195106200055c575b505050811b01600a5562000437565b015160001960f88460031b161c191690558280806200054d565b9192602060018192868501518155019401920162000539565b600a600052620005dc907fc65a7bb8d6351c1cf70c95a316cc6a92839c986682d98bc35f958f4883f9d2a8601f840160051c81019160208510620005e3575b601f0160051c01906200080c565b8262000405565b9091508190620005ce565b634e487b7160e01b600052604160045260246000fd5b620003c4565b905062000395565b01519050848062000323565b90600460005260206000209160005b601f198616811062000679575091849160019361012096601f198116106200065f575b505050811b0160045562000339565b015160001960f88460031b161c1916905584808062000650565b919260206001819286850151815501940192016200062d565b6004600052620006de907f8a35acfbc15ff81a39ae7d344fd709f28e8600b4aa8c65c6b64bfe7fe36bd19b601f860160051c81019160208710620005e357601f0160051c01906200080c565b8362000304565b82516001600160a01b031681830155602090920191600101620002cc565b6200071d906005600052848460002091820191016200080c565b38620002bd565b6200026b565b6040516375c3b42760e01b8152600490fd5b600080fd5b60208091620007508462000782565b81520191019062000111565b6040519190601f01601f191682016001600160401b03811183821017620005ee57604052565b51906001600160a01b03821682036200073c57565b919291906001600160401b038111620005ee57602091620007c1601f8301601f191684016200075c565b94828652828201116200073c5760005b828110620007e55750509060009184010152565b818101518682018501528301620007d1565b51906001600160401b03821682036200073c57565b81811062000818575050565b600081556001016200080c565b90600182811c9216801562000857575b60208310146200084157565b634e487b7160e01b600052602260045260246000fd5b91607f169162000835565b600611156200086d57565b634e487b7160e01b600052602160045260246000fdfe608080604052600436101561005f575b50361561001b57600080fd5b7f00000000000000000000000000000000000000000000000000000000000000006001600160a01b0316330361004d57005b60405163e7e601db60e01b8152600490fd5b600090813560e01c90816306c46853146126095750806306fdde03146125385780630f43a6771461251a57806310d500e1146124dc578063185fde7e14612498578063200d2ed214612472578063228cb733146123a7578063264762041461236a57806332e0aa1f1461233257806341c0e1b5146120a0578063599c7bd1146120625780635f832dbf1461204457806366d7bbbc14611fd75780637d9740f414611f9357806380f7602114611f3e5780638b0e9f3f14611f205780638ef3f76114611ef65780639890374814611e7f5780639e33bd0214611e44578063a7f0b3de14611d5e578063ad81e24414611d37578063b688a363146119ec578063b70e6be6146119c2578063c5ab22411461197e578063cfca282414611939578063d66d9e19146116775763dfe199780361000f573461167457600319602036820112610e32576001600160401b0360043511610e325760c0906004353603011261167457604051630972932760e21b815233600482015260208160248173__$32813765d87f0bbc231ef494a6a627f37b$__5af4908115610e27578291611655575b501561164357610213602460043501612ce1565b6001600160401b036001549116906001600160401b0381168211156116315760401c6001600160401b031680821191826115b0575b505061159e57600260ff6009541661025f81612761565b0361158c57338152600d60205260408120541561157a576102b360206102923661028d600480350180612cf5565b612d21565b604051809381926390ba52cf60e01b835284600484015260248301906127bf565b038173__$3fbe32418a9ca7804328967972fb037388$__5af4908115610e27578291611548575b50610326826040516102eb816126af565b604051610302816102fb81612805565b0382612700565b81526040518093819263aa5106cb60e01b83526040600484015260448301906127bf565b306024830152038173__$3fbe32418a9ca7804328967972fb037388$__5af490811561144057839161144b575b5090602061037c92604051809481926390ba52cf60e01b835284600484015260248301906127bf565b038173__$3fbe32418a9ca7804328967972fb037388$__5af491821561144057839261140c575b50036113fa576103bd606460043501600435600401612dba565b604051918291638984147560e01b835280602484016020600486015252604483019060448160051b85010192809287915b83831061127c578887602081808a038173__$c0560e63386df2470ca6214f90e7038fc9$__5af4908115610e2757829161125d575b501561124b576001600160401b0361043f602460043501612ce1565b168152600f6020526040812033825260086020526040822054604051610464816126ca565b6001600160401b036004356004013511610e235761048b3660048035808201350101612d21565b815261049b6024600435016127ab565b602082015260043560448101356040830152606401356001600160401b0381116110455736602382600435010112156110455760048181350101356104df81612d0a565b916104ed6040519384612700565b81835260208301903660248460051b836004350101011161104157876024826004350101925b60248560051b8460043501010184106110495750505050506060820152608460043501356001600160401b0381116110455736602382600435010112156110455760048181350101359061056682612d0a565b916105746040519384612700565b808352602083013660248360051b8560043501010111611041576024836004350101905b60248360051b856004350101018210610f0d57505050508160209160806105e194015260a4600435013560a0820152604051809381926339aa47fb60e01b835260048301612f54565b038173__$0a9cb18d668a182017fbed71517bdc4411$__5af4908115610f02578491610ecb575b50610617602460043501612ce1565b600754928593855480885260038701602052604088203360005260205260ff60406000205416610eb9576106e4928186928a526003890160205260408a20336000526020526040600020600160ff198254161790556001890161067b83825461298a565b90556004890191818b528260205260408b20848c526020526106a260408c2091825461298a565b9055808a528160205260408a209160028a019283548c5260205260408b2054918b5260205260408a20838b5260205260408a205411610eb1575b505085613f9b565b6004811015610e9d5785919060038103610e36575061070281613f5b565b15610da3575060019250505b808452600583016020526107436020610729604087206131b8565b604051809381926322ea8d8960e11b835260048301612f54565b038173__$0a9cb18d668a182017fbed71517bdc4411$__5af4908115610d98578591610d69575b506107b6575b50156107825761077f906139fa565b80f35b506001600160401b0360025460401c1661079b81613f5b565b6107a3575080f35b8152600f60205261077f604082206139fa565b835260058201602052604083206107da6107d4600480350180612cf5565b80612dba565b906001600160401b038211610d55576107f382846133a1565b82865260208620865b838110610d3a5750505050600181016001600160401b03610821602460043501612ce1565b166001600160401b031982541617905560446004350135600282015560038101610855606460043501600435600401612dba565b9061086082846133fe565b918652602086208692805b8385106109b25750505050506004810161088f608460043501600435600401612dba565b919061089b8383613577565b908652602086208691805b8484106108c4575050505050600560a4600435013591015583610770565b6108ce81836133e9565b6108db6107d48280612cf5565b906001600160401b03821161099e576108f482876133a1565b858c5260208c208c5b8381106109835750505050806020610916920190612dba565b906001600160401b03821161096f5760018501906109348383613534565b908b5260208b208b5b83811061095b575050505060026020600192019301930192916108a6565b60019060208435940193818401550161093d565b634e487b7160e01b8b52604160045260248bfd5b6001906020610991856133d5565b94019381840155016108fd565b634e487b7160e01b8c52604160045260248cfd5b6109bc81836133e9565b9060be198236030182351215610c2c576109d982358301806133e9565b6109e66107d48280612cf5565b906001600160401b038211610d0b576109ff82886133a1565b868d5260208d208d5b838110610d1f5750505060018601916001600160a01b039150610a2d906020016133d5565b82546001600160a01b0319169116179055610a4f8235830160208101906133e9565b610a5c6107d48280612cf5565b906001600160401b038211610d0b576002870190610a7a83836133a1565b908d5260208d208d5b838110610cf05750505060038601916001600160a01b039150610aa8906020016133d5565b82546001600160a01b0319169116179055813582016040810135600486015560058501906001600160401b0390610ae190606001612ce1565b825467ffffffffffffffff1916911617815582358301608001356001600160e01b031981168103610cec5781546bffffffff0000000000000000191660a09190911c63ffffffff60401b161790558135820136819003601e190160a0909101351215610c2c576001600160401b038235830160a0810135013511610c2c578135820160a08101350180353603602090910113610c2c57610b9e60a0833584010135833584010135610b95600687015461264c565b600687016134ef565b896001601f8435850160a081013501351114610c47578a908335840160a08101350135610c30575b506000198335840160a08101350135600381901b9190911c1990911660019190911b1760068501555b60208201358015159003610c2c576020600891610c20826001950135600788019060ff801983541691151516179055565b0193019401939161086b565b8980fd5b8335840160a081013501016020013590508b610bc6565b600685018b5260208b20908b5b8435850160a08101350135601f19168110610cc857508335840160a08101350135601f19811610610c9d575b50508135820160a08101350135600190811b016006850155610bef565b8335840160a08101350190810160200135600019913560031b60f8169190911c191690558a80610c80565b8435850160a081013501820160209081013584556001909301929182019101610c54565b8b80fd5b6001906020610cfe856133d5565b9401938184015501610a83565b634e487b7160e01b8d52604160045260248dfd5b6001906020610d2d856133d5565b9401938184015501610a08565b6001906020610d48856133d5565b94019381840155016107fc565b634e487b7160e01b86526041600452602486fd5b610d8b915060203d602011610d91575b610d838183612700565b810190612972565b8561076a565b503d610d79565b6040513d87823e3d90fd5b73__$88f0b3a7bab8ecb2fea9a8f5f75de2c742$__3b15610e32576001600160401b036040519163199b9ca560e01b835260026004840152166024820152818160448173__$88f0b3a7bab8ecb2fea9a8f5f75de2c742$__5af48015610e2757610e0f575b505061070e565b610e1890612686565b610e23578385610e08565b8380fd5b6040513d84823e3d90fd5b5080fd5b9050600291500361070e5773__$d26482cb557e208ab49c238f67c0ea9bf4$__3b15610e235783604051635a27a53960e11b8152846004820152818160248173__$d26482cb557e208ab49c238f67c0ea9bf4$__5af48015610e2757610e0f57505061070e565b634e487b7160e01b86526021600452602486fd5b5583886106dc565b6040516337138f5f60e11b8152600490fd5b90506020813d602011610efa575b81610ee660209383612700565b81010312610ef5575184610608565b600080fd5b3d9150610ed9565b6040513d86823e3d90fd5b6001600160401b0382351161103d57604060043585018335013603602319011261103d57604051610f3d816126e5565b6001600160401b0360248435876004350101013511610c2c57610f6f3660248535600435890101818101350101612d21565b81526044833586600435010101356001600160401b0381116110395736604382863589600435010101011215611039576024818535886004350101010135610fb681612d0a565b91610fc46040519384612700565b81835260208301903660448460051b838a358d6004350101010101116110355760448188358b60043501010101915b60448460051b838a358d6004350101010101831061102557505050506020808301919091529082529182019101610598565b8235815260209283019201610ff3565b8d80fd5b8a80fd5b8880fd5b8780fd5b8480fd5b6001600160401b03843511610e32576040600435840185350136036023190112610e32576040519061107a826126e5565b602485358560043501010135906001600160401b038211610e235760c06004358601873501830136036023190112610e2357604051926110b9846126ca565b6001600160401b03602484893589600435010101013511611045576110ef36602489356004358a01018601818101350101612ed3565b84526001600160401b03604484893589600435010101013511611045576111283660043588018935018501604481013501602401612ed3565b6020850152600435860187350183016064810135604086015261114d906084016127ab565b606085015261116760a48489358960043501010101612eb1565b608085015260c4838835886004350101010135936001600160401b0385116112475736604386868b358b60043501010101011215611247576111b7602486868b358b600435010101010135612adc565b6111c46040519182612700565b60043588018935018501860160248101358083523691016044011161124357602496602096879687918a916004358d018e3501810182018084013590604401878601378d358d6004350101010101358301015260a082015281526112316044883588600435010101612ec6565b83820152815201930192899150610513565b8680fd5b8580fd5b604051630bd9169f60e01b8152600490fd5b611276915060203d602011610d9157610d838183612700565b82610423565b919395509193604319878203018352876112968784612def565b60be198136030181351215610e3257604083526112cb6112b98235830180612def565b60c06040860152610100850190612e03565b926112f46112e0833584016020810190612def565b94606095603f198483030187850152612e03565b6001600160401b0361131860809660408680350101358886015285803501016127ab565b169460a0958684015261133763ffffffff60e01b918580350101612eb1565b1660c08301528235830136819003601e1901908601351215610e23576001600160401b038335840186810135013511610e235782358301858101350180353603602090910113610e2357818103603f190160e08301528235830180860135018035808352600196602096879687969294601f949193929190880187890137823583018581013501358601870152856113d0838201612ec6565b151591015281199281803501918035010135013501160101970193019301909286959492936103ee565b6040516375ecc72d60e01b8152600490fd5b9091506020813d602011611438575b8161142860209383612700565b81010312610ef5575190386103a3565b3d915061141b565b6040513d85823e3d90fd5b90503d8084833e61145c8183612700565b6020828281010312610e23578151906001600160401b03821161104557602082840182850103126110455760405192611494846126af565b82810151926001600160401b03841161124357828201601f858385010101121561124357838183010151916114c883612d0a565b946114d66040519687612700565b8386526020860194820160208560051b838686010101011161103d57818301810160200194925b60208560051b8383860101010186106115225750505092845250602091506103539050565b8551936001600160a01b03851685036110395760208181968293520196019593506114fd565b90506020813d602011611572575b8161156360209383612700565b81010312610ef55751386102da565b3d9150611556565b604051632ec5b44960e01b8152600490fd5b60405163c18316bf60e01b8152600490fd5b60405163b4f68f9760e01b8152600490fd5b0390506001600160401b03811161161d576001600160401b037f00000000000000000000000000000000000000000000000000000000000000001690811561160957906001600160401b03809216061615153880610248565b634e487b7160e01b83526012600452602483fd5b634e487b7160e01b82526011600452602482fd5b604051631f30cc6360e21b8152600490fd5b60405163b7150de560e01b8152600490fd5b61166e915060203d602011610d9157610d838183612700565b386101ff565b80fd5b5034611674578060031936011261167457611690612a86565b604051630972932760e21b815233600482015260208160248173__$32813765d87f0bbc231ef494a6a627f37b$__5af4908115610e2757829161191b575b501561164357600960ff8154166116e481612761565b60048114908115611907575b506118f557338252600860205260408220541561157a5733825260086020526040822054826040812055600790611728818354612a79565b825561173333612bf7565b50837f00000000000000000000000000000000000000000000000000000000000000006001600160a01b0316803b15610e32578180916024604051809481936345f5448560e01b83528860048401525af18015610e27576118e1575b505061179b9033612af7565b81549060ff82166117ab81612761565b60018114806118b6575b156117d057505050600260ff198254161790555b6001815580f35b6117d981612761565b600281148061188c575b156117fb57505050600360ff198254161790556117c9565b61180481612761565b6003811480611861575b1561182657505050600260ff198254161790556117c9565b80611832600492612761565b149081611857575b50611847575b50506117c9565b60ff191660051790553880611840565b905054153861183a565b5081547f0000000000000000000000000000000000000000000000000000000000000000111561180e565b5081547f0000000000000000000000000000000000000000000000000000000000000000116117e3565b5081547f000000000000000000000000000000000000000000000000000000000000000011156117b5565b6118ea90612686565b610e2357833861178f565b60405163248c8efb60e11b8152600490fd5b6005915061191481612761565b14386116f0565b611933915060203d8111610d9157610d838183612700565b386116ce565b50346116745780600319360112611674576040517f00000000000000000000000000000000000000000000000000000000000000006001600160a01b03168152602090f35b503461167457806003193601126116745760206040516001600160401b037f0000000000000000000000000000000000000000000000000000000000000000168152f35b503461167457806003193601126116745760206001600160401b0360015460401c16604051908152f35b508060031936011261167457604051630972932760e21b8152336004820152602090818160248173__$32813765d87f0bbc231ef494a6a627f37b$__5af4908115611440578391611d1a575b50156116435760099060ff825416611a4f81612761565b60048114908115611d06575b506118f5573415611cf4573383526008815260408320611a7c34825461298a565b90556007611a8b34825461298a565b8155338452600882526040842054917f0000000000000000000000000000000000000000000000000000000000000000809310159081611cde575b5080611cbd575b611cae575b600160ff845416611ae281612761565b03611c3d5783815483811015611bd2575b50505b82549160ff831690611b0782612761565b6001821480611bc7575b15611b285750505050600260ff1982541617905580f35b611b3182612761565b6002821480611bbd575b15611b525750505050600360ff1982541617905580f35b611b5b82612761565b600382149081611bb1575b5015611b7d57505050600260ff1982541617905580f35b80611b89600492612761565b149081611ba7575b50611b9b57505080f35b60ff1916600517905580f35b9050541538611b91565b90508254101538611b66565b5080835410611b3b565b508083541015611b11565b7f00000000000000000000000000000000000000000000000000000000000000006001600160a01b0316803b15611c39578290600460405180948193630354740160e31b83525af18015610e275715611af357611c2e90612686565b610e23578338611af3565b8280fd5b837f00000000000000000000000000000000000000000000000000000000000000006001600160a01b0316803b15610e325781600491604051928380926316989f6f60e21b825234905af18015610e2757611c9a575b5050611af6565b611ca390612686565b610e23578338611c93565b611cb7336129fa565b50611ad2565b5060ff60065416611ccd81612761565b151580611acd5750600c5415611acd565b600d915033600052526040600020541538611ac6565b604051635a78c58160e11b8152600490fd5b60059150611d1381612761565b1438611a5b565b611d319150823d8411610d9157610d838183612700565b38611a38565b503461167457806003193601126116745760206001600160401b0360015416604051908152f35b50346116745780600319360112611674576040516000600a54611d808161264c565b80845290600190818116908115611e1d5750600114611dc2575b611dbe84611daa81860382612700565b604051918291602083526020830190612721565b0390f35b600a600090815292507fc65a7bb8d6351c1cf70c95a316cc6a92839c986682d98bc35f958f4883f9d2a85b828410611e05575050508101602001611daa82611d9a565b80546020858701810191909152909301928101611ded565b60ff191660208087019190915292151560051b85019092019250611daa9150839050611d9a565b503461167457806003193601126116745760206040517f00000000000000000000000000000000000000000000000000000000000000008152f35b503461167457602036600319011261167457611ee29060406001600160401b039182611ea9612795565b168152600b60205220611ebb816128b1565b916001820154169060056002820154910154906040519485946080865260808601906127bf565b926020850152604084015260608301520390f35b5034611674578060031936011261167457602060ff6006541660405190611f1c81612761565b8152f35b50346116745780600319360112611674576020600754604051908152f35b50346116745780600319360112611674576060604051611f5d816126af565b52611dbe604051611f6d816126af565b604051611f7d816102fb81612805565b81526040519182916020835260208301906127bf565b503461167457806003193601126116745760206040516001600160401b037f0000000000000000000000000000000000000000000000000000000000000000168152f35b503461167457604036600319011261167457611ff1612795565b6024356001600160a01b0381169290839003610ef5576001600160401b03604092168152600f602052600382822080548352016020522090600052602052602060ff604060002054166040519015158152f35b50346116745780600319360112611674576020600e54604051908152f35b5034611674578060031936011261167457602060405160ff7f0000000000000000000000000000000000000000000000000000000000000000168152f35b5034611674578060031936011261167457604051630972932760e21b815233600482015260208160248173__$32813765d87f0bbc231ef494a6a627f37b$__5af4908115610e27578291612314575b5015611643576009805460ff811661210681612761565b60048114908115612300575b506118f557476122ee57600c54158015906122e3575b6122d15760ff199081166004178255827f00000000000000000000000000000000000000000000000000000000000000006001600160a01b0316803b15610e325781906004604051809481936341c0e1b560e01b83525af18015610f02576122be575b5081549060ff821661219c81612761565b6001811480612292575b156121b957506002915082541617905580f35b6121c281612761565b6002811480612267575b156121df57506003915082541617905580f35b6121e881612761565b600381148061223b575b1561220557506002915082541617905580f35b80612211600492612761565b1480612231575b612223575b50505080f35b16600517905538808061221d565b5060075415612218565b506007547f000000000000000000000000000000000000000000000000000000000000000011156121f2565b506007547f0000000000000000000000000000000000000000000000000000000000000000116121cc565b506007547f000000000000000000000000000000000000000000000000000000000000000011156121a6565b6122ca90939193612686565b913861218b565b604051636b62255160e11b8152600490fd5b506007541515612128565b60405163cc91bf0560e01b8152600490fd5b6005915061230d81612761565b1438612112565b61232c915060203d8111610d9157610d838183612700565b386120ef565b50346116745760203660031901126116745760206123516004356129ad565b905460405160039290921b1c6001600160a01b03168152f35b5034611674576020366003190112611674576004356001600160a01b03811690819003610e32578160409160209352600883522054604051908152f35b5080600319360112611674576001600160a01b037f00000000000000000000000000000000000000000000000000000000000000008116330361004d576123ec612a86565b600c549047341561246057821561244e57821161243c5781470490835b83811061241857846001815580f35b8061243684846124296001956129ad565b90549060031b1c16612af7565b01612409565b604051633074cabf60e11b8152600490fd5b60405163efa9c8f160e01b8152600490fd5b604051634b48988b60e11b8152600490fd5b5034611674578060031936011261167457602060ff6009541660405190611f1c81612761565b503461167457806003193601126116745760206040516001600160401b037f0000000000000000000000000000000000000000000000000000000000000000168152f35b50346116745780600319360112611674576060600254604051906001600160401b03908181168352818160401c16602084015260801c166040820152f35b50346116745780600319360112611674576020600c54604051908152f35b5034611674578060031936011261167457604051908060045461255a8161264c565b808552916001918083169081156125df5750600114612584575b611dbe85611daa81870382612700565b9250600483527f8a35acfbc15ff81a39ae7d344fd709f28e8600b4aa8c65c6b64bfe7fe36bd19b5b8284106125c7575050508101602001611daa82611dbe612574565b805460208587018101919091529093019281016125ac565b869550611dbe96935060209250611daa94915060ff191682840152151560051b8201019293612574565b905034610e325781600319360112610e32576020906001600160401b037f0000000000000000000000000000000000000000000000000000000000000000168152f35b90600182811c9216801561267c575b602083101461266657565b634e487b7160e01b600052602260045260246000fd5b91607f169161265b565b6001600160401b03811161269957604052565b634e487b7160e01b600052604160045260246000fd5b602081019081106001600160401b0382111761269957604052565b60c081019081106001600160401b0382111761269957604052565b604081019081106001600160401b0382111761269957604052565b90601f801991011681019081106001600160401b0382111761269957604052565b919082519283825260005b84811061274d575050826000602080949584010152601f8019910116010190565b60208183018101518483018201520161272c565b6006111561276b57565b634e487b7160e01b600052602160045260246000fd5b35906001600160a01b0382168203610ef557565b600435906001600160401b0382168203610ef557565b35906001600160401b0382168203610ef557565b60209081604081850192519482815285518094520193019160005b8281106127e8575050505090565b83516001600160a01b0316855293810193928101926001016127da565b6005549081815260208091019160056000527f036b6384b5eca791c62761152d0c79bb0604c104a5fb6f4eb0703f3154bb3db0916000905b82821061284b575050505090565b83546001600160a01b03168552938401936001938401939091019061283d565b90815480825260208092019260005281600020916000905b828210612891575050505090565b83546001600160a01b031685529384019360019384019390910190612883565b906128d26040516128c1816126af565b6128d981946040519384809261286b565b0383612700565b52565b90600092918054916128ed8361264c565b91828252600193848116908160001461294f575060011461290f575b50505050565b90919394506000526020928360002092846000945b83861061293b575050505001019038808080612909565b805485870183015294019385908201612924565b9294505050602093945060ff191683830152151560051b01019038808080612909565b90816020910312610ef557518015158103610ef55790565b9190820180921161299757565b634e487b7160e01b600052601160045260246000fd5b600c548110156129e457600c6000527fdf6966c971051c3d54ec59162606531493a51404a002842f56009d7e5cf4a8c70190600090565b634e487b7160e01b600052603260045260246000fd5b6000818152600d6020526040812054612a7457600c54600160401b811015612a60579082612a4c612a3384600160409601600c556129ad565b819391549060031b600019811b9283911b169119161790565b9055600c54928152600d6020522055600190565b634e487b7160e01b82526041600452602482fd5b905090565b9190820391821161299757565b600260005414612a97576002600055565b60405162461bcd60e51b815260206004820152601f60248201527f5265656e7472616e637947756172643a207265656e7472616e742063616c6c006044820152606490fd5b6001600160401b03811161269957601f01601f191660200190565b814710612bb2576000918291829182916001600160a01b03165af13d15612bad573d612b2281612adc565b90612b306040519283612700565b8152600060203d92013e5b15612b4257565b60405162461bcd60e51b815260206004820152603a60248201527f416464726573733a20756e61626c6520746f2073656e642076616c75652c207260448201527f6563697069656e74206d617920686176652072657665727465640000000000006064820152608490fd5b612b3b565b60405162461bcd60e51b815260206004820152601d60248201527f416464726573733a20696e73756666696369656e742062616c616e63650000006044820152606490fd5b6000818152600d60205260408120549091908015612cdc5760001990808201818111612cc857600c5490838201918211612cb457808203612c80575b505050600c548015612c6c57810190612c4b826129ad565b909182549160031b1b19169055600c558152600d6020526040812055600190565b634e487b7160e01b84526031600452602484fd5b612c9e612c8f612a33936129ad565b90549060031b1c9283926129ad565b90558452600d6020526040842055388080612c33565b634e487b7160e01b86526011600452602486fd5b634e487b7160e01b85526011600452602485fd5b505090565b356001600160401b0381168103610ef55790565b903590601e1981360301821215610ef5570190565b6001600160401b0381116126995760051b60200190565b919060208084830312610ef557604051906001600160401b03818301818111848210176126995760405282958035918211610ef557019280601f85011215610ef5578335612d6e81612d0a565b94612d7c6040519687612700565b818652838087019260051b820101928311610ef5578301905b828210612da3575050505052565b838091612daf84612781565b815201910190612d95565b903590601e1981360301821215610ef557018035906001600160401b038211610ef557602001918160051b36038313610ef557565b9035603e1982360301811215610ef5570190565b601e1991908035368290038401811215610ef557810160408352606083019381359082360301811215610ef557019081356020809301946001600160401b038211610ef5578160051b36038613610ef55781908460408701525260808401949060005b818110612e8c57506001600160a01b0392612e85925084019050612781565b1691015290565b9091958480600192838060a01b03612ea38b612781565b168152019701929101612e66565b35906001600160e01b031982168203610ef557565b35908115158203610ef557565b919091604081840312610ef55760405190604082016001600160401b0390838110828211176126995760405282948235918211610ef55782612f1e60209492612f2694869401612d21565b855201612781565b910152565b906020612f4183516040845260408401906127bf565b928101516001600160a01b031691015290565b60209182825280519060c0918285850152612f7460e091828601906127bf565b906001600160401b039586818501511691604092838801528285015197606098898901528886015198601f1995608093878b830301858c01528b51938483528683019187808760051b8601019e01946000945b87861061309057505050505050505084015196838782030160a08801528751928382528282019083808660051b8501019a01956000935b86851061301757505050505050505060a0015191015290565b90919293948b838383999a9e030186528c518261303b8251888552888501906127bf565b91015191838183039101528280835192838152019201906000905b8082106130775750505090806001929d019501950193969594929190612ffe565b9193806001929486518152019401920189939291613056565b9091929394959d9c9b9a97969f9e898f828f91838f88908f8f908499958f8f928d8899030190525197885191848952825182868b01526101008a016130d491612f2b565b8784015190603f1997888c830301908c01526130ef91612f2b565b94830151848a01528d830151169260a093848a015263ffffffff60e01b908301511690880152015191858203018b86015261312991612721565b93015115159101529f019501956001019495939291909f96979a9b9c9d9e9f612fc7565b9060405161315a816126e5565b60208193613167816128b1565b8352600101546001600160a01b0316910152565b90815480825260208092019260005281600020916000905b8282106131a1575050505090565b835485529384019360019384019390910190613193565b906040918251906131c8826126ca565b81936131d3826128b1565b83526001600160401b036001908082850154166020908187015260029081860154858801526003860192835461320881612d0a565b9161321588519384612700565b81835260009586528386208691888686015b8585106132c5575050505050506060880152600486019081549361324a85612d0a565b9661325781519889612700565b85885282880193825282822091935b86851061328757505050505050505060a09160059160808501520154910152565b858489928451613296816126e5565b61329f876128b1565b815285516132b3816102fb81898c0161317b565b83820152815201930194019391613266565b876008918d8b6006829e9c9e51926132dc846126e5565b6132fd8151936132eb856126ca565b6132f48c61314d565b85528b0161314d565b8684015260048a01548184015261333e8a6128d26005820154938c8516606088015260a09463ffffffff60e01b90861b1660808801525180958193016128dc565b820152815260ff6007880154161515838201528152019301930192918990989698613227565b81811061336f575050565b60008155600101613364565b8054600082558061338a575050565b61339f91600052602060002090810190613364565b565b90600160401b8111612699578154908083558181106133bf57505050565b61339f9260005260206000209182019101613364565b356001600160a01b0381168103610ef55790565b903590603e1981360301821215610ef5570190565b600160401b821161269957805482825580831061341a57505050565b6001600160fd1b0381811682036129975783168303612997576000918252602090818320600391821b810194821b015b848110613458575050505050565b8061346460089261337b565b84600181818401556134786002840161337b565b8185840155816004840155600582818501556006840191613499835461264c565b90816134af575b5050505060078201550161344a565b601f928383116001146134cc5750505050555b84388080806134a0565b6134e3938587528a87209301901c82019101613364565b818681209155556134c2565b9190601f81116134fe57505050565b61339f926000526020600020906020601f840160051c8301931061352a575b601f0160051c0190613364565b909150819061351d565b600160401b82116126995780549180825582811061355157505050565b60009182526020822092830192015b82811061356c57505050565b818155600101613560565b90600160401b81116126995781549181815582821061359557505050565b6001600160ff1b0383811684036129975782168203612997576000908152602090818120600194851b810193851b015b8381106135d3575050505050565b6135dc8161337b565b848101805490838155816135f5575b50506002016135c5565b835285848420918201915b82811061360d57506135eb565b848155018690613600565b818114613681578154916001600160401b0383116126995761363a83836133a1565b60005260206000209060005260206000208154916000925b848410613660575050505050565b600191820180546001600160a01b0390921684860155939091019290613652565b5050565b9080821461368157613697815461264c565b906001600160401b0382116126995781906136bc826136b6865461264c565b866134ef565b600090601f83116001146136f3576000926136e8575b50508160011b916000199060031b1c1916179055565b0154905038806136d2565b81526020808220858352818320935090601f1985169083905b82821061374657505090846001959493921061372d575b505050811b019055565b015460001960f88460031b161c19169055388080613723565b849581929585015481556001809101960194019061370c565b8181146136815781549161377383836133fe565b6000526020600020906000526020600020906000905b8382106137965750505050565b80600191841415806137b4575b506008809101930191019091613789565b806137e1575b506137db600760ff81840154169086019060ff801983541691151516179055565b386137a3565b806138af575b5060028085019082018082141580613869575b505050600481810154908501556005808201805491860180546001600160401b0390931667ffffffffffffffff19841681178255915463ffffffff60401b166bffffffffffffffffffffffff199093169091179190911790556138636006808301908601613685565b386137ba565b61389f575b5050600380850190838060a01b0390830154166bffffffffffffffffffffffff60a01b8254161790553880806137fa565b6138a891613618565b388061386e565b6138e0575b8180850190838060a01b0390830154166bffffffffffffffffffffffff60a01b825416179055386137e7565b6138ea8185613618565b6138b4565b818114613681578154916001600160401b038311612699576139118383613534565b60005260206000209060005260206000208154916000925b848410613937575050505050565b6001809192019384549281850155019290613929565b818114613681578154916139618383613577565b6000526020600020906000526020600020906000905b8382106139845750505050565b80600191841415806139a2575b506002809101930191019091613977565b6139bb575b6139b58183018584016138ef565b38613991565b6139c58185613618565b6139a7565b90604081526020604082015260206139e5606083018461286b565b6001909301546001600160a01b031691015290565b600060028201548152600582016020526040812091600e54600584015403613d9b57509060018101613a356001600160401b03825416613e4b565b6001600160401b038154168352600b602052604083208281141580613d2f575b5050613a7f6020613a65846131b8565b604051809381926339aa47fb60e01b835260048301612f54565b038173__$0a9cb18d668a182017fbed71517bdc4411$__5af4908115610f02578491613cfd575b50600e557f00000000000000000000000000000000000000000000000000000000000000006001600160a01b03163b15611c395790826040518093630eb4e56d60e01b82526020600483015260c06024830152602060e48301526001600160401b03613b1661010484018661286b565b91541660448301526002840154606483015260038401906023198382030160848401528154808252602082019160208260051b820101938652602086209286915b838310613c4b57505050505060048401906023198382030160a48401528154808252602082019160208260051b820101938652602086209286915b838310613bf75750505050506005829394015460c483015203818360018060a01b037f0000000000000000000000000000000000000000000000000000000000000000165af18015610e2757613be6575050565b613bf08291612686565b6116745750565b929550929695509260206002613c39600193601f1986820301875260408152836040820152613c29606082018c61286b565b9084818303910152848b0161317b565b98019301930188959693889592613b92565b929550929695509260206008600192601f198582030186526040815260c06040820152613cdc8a613c99613c836101008501836139ca565b6002603f199384878403016060880152016139ca565b9060048d0154608085015260058d015460a0906001600160401b0381168287015263ffffffff60e01b911b1660c08501528382030160e084015260068c016128dc565b908360ff60078d015416151591015298019301930188959693889592613b57565b90506020813d602011613d27575b81613d1860209383612700565b81010312610ef5575138613aa6565b3d9150613d0b565b613d8c575b600181016001600160401b038354166001600160401b031982541617905560028301546002820155613d6c600384016003830161375f565b613d7c600484016004830161394d565b6005808401549101553880613a55565b613d968382613618565b613d34565b73__$d26482cb557e208ab49c238f67c0ea9bf4$__90813b15611c39578290602460405180948193635a27a53960e11b835260048301525af48015610e2757613e3c575b50906001600160401b03600173__$88f0b3a7bab8ecb2fea9a8f5f75de2c742$__92015416813b15611c395782906044604051809481936394ecccfd60e01b83526002600484015260248301525af48015610e2757613be6575050565b613e4590612686565b38613ddf565b613e5481613f5b565b15613f585773__$88f0b3a7bab8ecb2fea9a8f5f75de2c742$__6040805192634953836d60e11b8452600260048501526001600160401b0380911693846024820152602081604481875af4908115613f4d57600091613f2f575b5080613f1f575b61290957823b15610ef55760006044938351948580926394ecccfd60e01b8252600260048301528860248301525af48015613f1457613f05575b5050506001600160401b03196001541617600155565b82116126995752388080613eef565b82513d6000823e3d90fd5b508381600254841c161415613eb5565b613f47915060203d8111610d9157610d838183612700565b38613eae565b83513d6000823e3d90fd5b50565b6001600160401b038060015416817f0000000000000000000000000000000000000000000000000000000000000000160181811161299757811691161490565b60ff7f000000000000000000000000000000000000000000000000000000000000000016808302908382041483151715612997576064900460405191637d2ef4e560e11b835280600484015260208360248173__$d26482cb557e208ab49c238f67c0ea9bf4$__5af49283156140915760009361405d575b506001015490808211156140545780831161404b5761403b9261403591612a79565b92612a79565b111561404657600190565b600290565b50505050600390565b50505050600090565b90926020823d8211614089575b8161407760209383612700565b81010312611674575051916001614013565b3d915061406a565b6040513d6000823e3d90fdfea26469706673582212208bf8c7f6c9db68378f6cf4038bf1f2725b18fe8db7d07eea7774b6bd0dcd238264736f6c63430008110033",
  "linkReferences": {
    "contracts/lib/AccountHelper.sol": {
      "AccountHelper": [
        {
          "length": 20,
          "start": 2656
        },
        {
          "length": 20,
          "start": 7983
        },
        {
          "length": 20,
          "start": 8857
        },
        {
          "length": 20,
          "start": 10576
        }
      ]
    },
    "contracts/lib/CheckpointHelper.sol": {
      "CheckpointHelper": [
        {
          "length": 20,
          "start": 3689
        },
        {
          "length": 20,
          "start": 4043
        },
        {
          "length": 20,
          "start": 17159
        }
      ]
    },
    "contracts/lib/CrossMsgHelper.sol": {
      "CrossMsgHelper": [
        {
          "length": 20,
          "start": 3204
        }
      ]
    },
    "contracts/lib/EpochVoteSubmissionHelper.sol": {
      "EpochVoteSubmissionHelper": [
        {
          "length": 20,
          "start": 5831
        },
        {
          "length": 20,
          "start": 5883
        },
        {
          "length": 20,
          "start": 17953
        },
        {
          "length": 20,
          "start": 18547
        }
      ]
    },
    "contracts/lib/ExecutableQueueHelper.sol": {
      "ExecutableQueueHelper": [
        {
          "length": 20,
          "start": 5673
        },
        {
          "length": 20,
          "start": 5740
        },
        {
          "length": 20,
          "start": 18033
        },
        {
          "length": 20,
          "start": 18143
        }
      ]
    },
    "contracts/lib/SubnetIDHelper.sol": {
      "SubnetIDHelper": [
        {
          "length": 20,
          "start": 2875
        },
        {
          "length": 20,
          "start": 2996
        },
        {
          "length": 20,
          "start": 3076
        }
      ]
    }
  },
  "deployedLinkReferences": {
    "contracts/lib/AccountHelper.sol": {
      "AccountHelper": [
        {
          "length": 20,
          "start": 476
        },
        {
          "length": 20,
          "start": 5803
        },
        {
          "length": 20,
          "start": 6677
        },
        {
          "length": 20,
          "start": 8396
        }
      ]
    },
    "contracts/lib/CheckpointHelper.sol": {
      "CheckpointHelper": [
        {
          "length": 20,
          "start": 1509
        },
        {
          "length": 20,
          "start": 1863
        },
        {
          "length": 20,
          "start": 14979
        }
      ]
    },
    "contracts/lib/CrossMsgHelper.sol": {
      "CrossMsgHelper": [
        {
          "length": 20,
          "start": 1024
        }
      ]
    },
    "contracts/lib/EpochVoteSubmissionHelper.sol": {
      "EpochVoteSubmissionHelper": [
        {
          "length": 20,
          "start": 3651
        },
        {
          "length": 20,
          "start": 3703
        },
        {
          "length": 20,
          "start": 15773
        },
        {
          "length": 20,
          "start": 16367
        }
      ]
    },
    "contracts/lib/ExecutableQueueHelper.sol": {
      "ExecutableQueueHelper": [
        {
          "length": 20,
          "start": 3493
        },
        {
          "length": 20,
          "start": 3560
        },
        {
          "length": 20,
          "start": 15853
        },
        {
          "length": 20,
          "start": 15963
        }
      ]
    },
    "contracts/lib/SubnetIDHelper.sol": {
      "SubnetIDHelper": [
        {
          "length": 20,
          "start": 695
        },
        {
          "length": 20,
          "start": 816
        },
        {
          "length": 20,
          "start": 896
        }
      ]
    }
  }
}