{
  "abi": [
    {
      "inputs": [
        {
          "components": [
            {
              "components": [
                {
                  "internalType": "uint64",
                  "name": "root",
                  "type": "uint64"
                },
                {
                  "internalType": "address[]",
                  "name": "route",
                  "type": "address[]"
                }
              ],
              "internalType": "struct SubnetID",
              "name": "parentId",
              "type": "tuple"
            },
            {
              "internalType": "bytes32",
              "name": "name",
              "type": "bytes32"
            },
            {
              "internalType": "address",
              "name": "ipcGatewayAddr",
              "type": "address"
            },
            {
              "internalType": "enum ConsensusType",
              "name": "consensus",
              "type": "uint8"
            },
            {
              "internalType": "uint256",
              "name": "minActivationCollateral",
              "type": "uint256"
            },
            {
              "internalType": "uint64",
              "name": "minValidators",
              "type": "uint64"
            },
            {
              "internalType": "uint64",
              "name": "bottomUpCheckPeriod",
              "type": "uint64"
            },
            {
              "internalType": "uint64",
              "name": "topDownCheckPeriod",
              "type": "uint64"
            },
            {
              "internalType": "uint8",
              "name": "majorityPercentage",
              "type": "uint8"
            },
            {
              "internalType": "bytes",
              "name": "genesis",
              "type": "bytes"
            }
          ],
          "internalType": "struct SubnetActor.ConstructParams",
          "name": "params",
          "type": "tuple"
        }
      ],
      "stateMutability": "nonpayable",
      "type": "constructor"
    },
    {
      "inputs": [
        {
          "internalType": "address",
          "name": "account",
          "type": "address"
        }
      ],
      "name": "AddressInsufficientBalance",
      "type": "error"
    },
    {
      "inputs": [],
      "name": "CallerHasNoStake",
      "type": "error"
    },
    {
      "inputs": [],
      "name": "CheckpointNotChained",
      "type": "error"
    },
    {
      "inputs": [],
      "name": "CollateralIsZero",
      "type": "error"
    },
    {
      "inputs": [],
      "name": "CollateralStillLockedInSubnet",
      "type": "error"
    },
    {
      "inputs": [],
      "name": "EpochAlreadyExecuted",
      "type": "error"
    },
    {
      "inputs": [],
      "name": "EpochNotVotable",
      "type": "error"
    },
    {
      "inputs": [],
      "name": "FailedInnerCall",
      "type": "error"
    },
    {
      "inputs": [],
      "name": "GatewayCannotBeZero",
      "type": "error"
    },
    {
      "inputs": [],
      "name": "InvalidMajorityPercentage",
      "type": "error"
    },
    {
      "inputs": [],
      "name": "MessagesNotSorted",
      "type": "error"
    },
    {
      "inputs": [],
      "name": "NoRewardToWithdraw",
      "type": "error"
    },
    {
      "inputs": [],
      "name": "NoValidatorsInSubnet",
      "type": "error"
    },
    {
      "inputs": [],
      "name": "NotAccount",
      "type": "error"
    },
    {
      "inputs": [],
      "name": "NotAllValidatorsHaveLeft",
      "type": "error"
    },
    {
      "inputs": [],
      "name": "NotEnoughBalanceForRewards",
      "type": "error"
    },
    {
      "inputs": [],
      "name": "NotGateway",
      "type": "error"
    },
    {
      "inputs": [],
      "name": "NotValidator",
      "type": "error"
    },
    {
      "inputs": [],
      "name": "ReentrancyGuardReentrantCall",
      "type": "error"
    },
    {
      "inputs": [],
      "name": "SubnetAlreadyKilled",
      "type": "error"
    },
    {
      "inputs": [],
      "name": "SubnetNotActive",
      "type": "error"
    },
    {
      "inputs": [],
      "name": "ValidatorAlreadyVoted",
      "type": "error"
    },
    {
      "inputs": [],
      "name": "WorkerAddressInvalid",
      "type": "error"
    },
    {
      "inputs": [],
      "name": "WrongCheckpointSource",
      "type": "error"
    },
    {
      "inputs": [],
      "name": "MIN_CHECKPOINT_PERIOD",
      "outputs": [
        {
          "internalType": "uint8",
          "name": "",
          "type": "uint8"
        }
      ],
      "stateMutability": "view",
      "type": "function"
    },
    {
      "inputs": [],
      "name": "MIN_COLLATERAL_AMOUNT",
      "outputs": [
        {
          "internalType": "uint256",
          "name": "",
          "type": "uint256"
        }
      ],
      "stateMutability": "view",
      "type": "function"
    },
    {
      "inputs": [
        {
          "internalType": "address",
          "name": "",
          "type": "address"
        }
      ],
      "name": "accumulatedRewards",
      "outputs": [
        {
          "internalType": "uint256",
          "name": "",
          "type": "uint256"
        }
      ],
      "stateMutability": "view",
      "type": "function"
    },
    {
      "inputs": [],
      "name": "bottomUpCheckPeriod",
      "outputs": [
        {
          "internalType": "uint64",
          "name": "",
          "type": "uint64"
        }
      ],
      "stateMutability": "view",
      "type": "function"
    },
    {
      "inputs": [
        {
          "internalType": "uint64",
          "name": "",
          "type": "uint64"
        }
      ],
      "name": "committedCheckpoints",
      "outputs": [
        {
          "components": [
            {
              "internalType": "uint64",
              "name": "root",
              "type": "uint64"
            },
            {
              "internalType": "address[]",
              "name": "route",
              "type": "address[]"
            }
          ],
          "internalType": "struct SubnetID",
          "name": "source",
          "type": "tuple"
        },
        {
          "internalType": "uint64",
          "name": "epoch",
          "type": "uint64"
        },
        {
          "internalType": "uint256",
          "name": "fee",
          "type": "uint256"
        },
        {
          "internalType": "bytes32",
          "name": "prevHash",
          "type": "bytes32"
        },
        {
          "internalType": "bytes",
          "name": "proof",
          "type": "bytes"
        }
      ],
      "stateMutability": "view",
      "type": "function"
    },
    {
      "inputs": [],
      "name": "configurationNumber",
      "outputs": [
        {
          "internalType": "uint64",
          "name": "",
          "type": "uint64"
        }
      ],
      "stateMutability": "view",
      "type": "function"
    },
    {
      "inputs": [],
      "name": "consensus",
      "outputs": [
        {
          "internalType": "enum ConsensusType",
          "name": "",
          "type": "uint8"
        }
      ],
      "stateMutability": "view",
      "type": "function"
    },
    {
      "inputs": [],
      "name": "currentSubnetHash",
      "outputs": [
        {
          "internalType": "bytes32",
          "name": "",
          "type": "bytes32"
        }
      ],
      "stateMutability": "view",
      "type": "function"
    },
    {
      "inputs": [],
      "name": "executableQueue",
      "outputs": [
        {
          "internalType": "uint64",
          "name": "period",
          "type": "uint64"
        },
        {
          "internalType": "uint64",
          "name": "first",
          "type": "uint64"
        },
        {
          "internalType": "uint64",
          "name": "last",
          "type": "uint64"
        }
      ],
      "stateMutability": "view",
      "type": "function"
    },
    {
      "inputs": [],
      "name": "genesis",
      "outputs": [
        {
          "internalType": "bytes",
          "name": "",
          "type": "bytes"
        }
      ],
      "stateMutability": "view",
      "type": "function"
    },
    {
      "inputs": [],
      "name": "getGenesisEpoch",
      "outputs": [
        {
          "internalType": "uint64",
          "name": "",
          "type": "uint64"
        }
      ],
      "stateMutability": "view",
      "type": "function"
    },
    {
      "inputs": [],
      "name": "getParent",
      "outputs": [
        {
          "components": [
            {
              "internalType": "uint64",
              "name": "root",
              "type": "uint64"
            },
            {
              "internalType": "address[]",
              "name": "route",
              "type": "address[]"
            }
          ],
          "internalType": "struct SubnetID",
          "name": "",
          "type": "tuple"
        }
      ],
      "stateMutability": "view",
      "type": "function"
    },
    {
      "inputs": [],
      "name": "getValidatorSet",
      "outputs": [
        {
          "components": [
            {
              "components": [
                {
                  "internalType": "address",
                  "name": "addr",
                  "type": "address"
                },
                {
                  "internalType": "uint256",
                  "name": "weight",
                  "type": "uint256"
                },
                {
                  "components": [
                    {
                      "internalType": "uint8",
                      "name": "addrType",
                      "type": "uint8"
                    },
                    {
                      "internalType": "bytes",
                      "name": "payload",
                      "type": "bytes"
                    }
                  ],
                  "internalType": "struct FvmAddress",
                  "name": "workerAddr",
                  "type": "tuple"
                },
                {
                  "internalType": "string",
                  "name": "netAddresses",
                  "type": "string"
                }
              ],
              "internalType": "struct SubnetActor.ValidatorInfo[]",
              "name": "validators",
              "type": "tuple[]"
            },
            {
              "internalType": "uint64",
              "name": "configurationNumber",
              "type": "uint64"
            }
          ],
          "internalType": "struct SubnetActor.ValidatorSet",
          "name": "",
          "type": "tuple"
        }
      ],
      "stateMutability": "view",
      "type": "function"
    },
    {
      "inputs": [],
      "name": "getValidators",
      "outputs": [
        {
          "internalType": "address[]",
          "name": "",
          "type": "address[]"
        }
      ],
      "stateMutability": "view",
      "type": "function"
    },
    {
      "inputs": [
        {
          "internalType": "uint64",
          "name": "epoch",
          "type": "uint64"
        },
        {
          "internalType": "address",
          "name": "submitter",
          "type": "address"
        }
      ],
      "name": "hasValidatorVotedForSubmission",
      "outputs": [
        {
          "internalType": "bool",
          "name": "",
          "type": "bool"
        }
      ],
      "stateMutability": "view",
      "type": "function"
    },
    {
      "inputs": [],
      "name": "ipcGatewayAddr",
      "outputs": [
        {
          "internalType": "address",
          "name": "",
          "type": "address"
        }
      ],
      "stateMutability": "view",
      "type": "function"
    },
    {
      "inputs": [
        {
          "internalType": "string",
          "name": "netAddr",
          "type": "string"
        },
        {
          "components": [
            {
              "internalType": "uint8",
              "name": "addrType",
              "type": "uint8"
            },
            {
              "internalType": "bytes",
              "name": "payload",
              "type": "bytes"
            }
          ],
          "internalType": "struct FvmAddress",
          "name": "workerAddr",
          "type": "tuple"
        }
      ],
      "name": "join",
      "outputs": [],
      "stateMutability": "payable",
      "type": "function"
    },
    {
      "inputs": [],
      "name": "kill",
      "outputs": [],
      "stateMutability": "nonpayable",
      "type": "function"
    },
    {
      "inputs": [],
      "name": "lastVotingExecutedEpoch",
      "outputs": [
        {
          "internalType": "uint64",
          "name": "",
          "type": "uint64"
        }
      ],
      "stateMutability": "view",
      "type": "function"
    },
    {
      "inputs": [],
      "name": "leave",
      "outputs": [],
      "stateMutability": "nonpayable",
      "type": "function"
    },
    {
      "inputs": [],
      "name": "majorityPercentage",
      "outputs": [
        {
          "internalType": "uint8",
          "name": "",
          "type": "uint8"
        }
      ],
      "stateMutability": "view",
      "type": "function"
    },
    {
      "inputs": [],
      "name": "minActivationCollateral",
      "outputs": [
        {
          "internalType": "uint256",
          "name": "",
          "type": "uint256"
        }
      ],
      "stateMutability": "view",
      "type": "function"
    },
    {
      "inputs": [],
      "name": "minValidators",
      "outputs": [
        {
          "internalType": "uint64",
          "name": "",
          "type": "uint64"
        }
      ],
      "stateMutability": "view",
      "type": "function"
    },
    {
      "inputs": [],
      "name": "name",
      "outputs": [
        {
          "internalType": "bytes32",
          "name": "",
          "type": "bytes32"
        }
      ],
      "stateMutability": "view",
      "type": "function"
    },
    {
      "inputs": [],
      "name": "prevExecutedCheckpointHash",
      "outputs": [
        {
          "internalType": "bytes32",
          "name": "",
          "type": "bytes32"
        }
      ],
      "stateMutability": "view",
      "type": "function"
    },
    {
      "inputs": [
        {
          "internalType": "uint256",
          "name": "amount",
          "type": "uint256"
        }
      ],
      "name": "reward",
      "outputs": [],
      "stateMutability": "nonpayable",
      "type": "function"
    },
    {
      "inputs": [
        {
          "internalType": "address",
          "name": "",
          "type": "address"
        }
      ],
      "name": "stake",
      "outputs": [
        {
          "internalType": "uint256",
          "name": "",
          "type": "uint256"
        }
      ],
      "stateMutability": "view",
      "type": "function"
    },
    {
      "inputs": [],
      "name": "status",
      "outputs": [
        {
          "internalType": "enum Status",
          "name": "",
          "type": "uint8"
        }
      ],
      "stateMutability": "view",
      "type": "function"
    },
    {
      "inputs": [],
      "name": "submissionPeriod",
      "outputs": [
        {
          "internalType": "uint64",
          "name": "",
          "type": "uint64"
        }
      ],
      "stateMutability": "view",
      "type": "function"
    },
    {
      "inputs": [
        {
          "components": [
            {
              "components": [
                {
                  "internalType": "uint64",
                  "name": "root",
                  "type": "uint64"
                },
                {
                  "internalType": "address[]",
                  "name": "route",
                  "type": "address[]"
                }
              ],
              "internalType": "struct SubnetID",
              "name": "source",
              "type": "tuple"
            },
            {
              "internalType": "uint64",
              "name": "epoch",
              "type": "uint64"
            },
            {
              "internalType": "uint256",
              "name": "fee",
              "type": "uint256"
            },
            {
              "components": [
                {
                  "components": [
                    {
                      "components": [
                        {
                          "components": [
                            {
                              "internalType": "uint64",
                              "name": "root",
                              "type": "uint64"
                            },
                            {
                              "internalType": "address[]",
                              "name": "route",
                              "type": "address[]"
                            }
                          ],
                          "internalType": "struct SubnetID",
                          "name": "subnetId",
                          "type": "tuple"
                        },
                        {
                          "internalType": "address",
                          "name": "rawAddress",
                          "type": "address"
                        }
                      ],
                      "internalType": "struct IPCAddress",
                      "name": "from",
                      "type": "tuple"
                    },
                    {
                      "components": [
                        {
                          "components": [
                            {
                              "internalType": "uint64",
                              "name": "root",
                              "type": "uint64"
                            },
                            {
                              "internalType": "address[]",
                              "name": "route",
                              "type": "address[]"
                            }
                          ],
                          "internalType": "struct SubnetID",
                          "name": "subnetId",
                          "type": "tuple"
                        },
                        {
                          "internalType": "address",
                          "name": "rawAddress",
                          "type": "address"
                        }
                      ],
                      "internalType": "struct IPCAddress",
                      "name": "to",
                      "type": "tuple"
                    },
                    {
                      "internalType": "uint256",
                      "name": "value",
                      "type": "uint256"
                    },
                    {
                      "internalType": "uint64",
                      "name": "nonce",
                      "type": "uint64"
                    },
                    {
                      "internalType": "bytes4",
                      "name": "method",
                      "type": "bytes4"
                    },
                    {
                      "internalType": "bytes",
                      "name": "params",
                      "type": "bytes"
                    }
                  ],
                  "internalType": "struct StorableMsg",
                  "name": "message",
                  "type": "tuple"
                },
                {
                  "internalType": "bool",
                  "name": "wrapped",
                  "type": "bool"
                }
              ],
              "internalType": "struct CrossMsg[]",
              "name": "crossMsgs",
              "type": "tuple[]"
            },
            {
              "components": [
                {
                  "components": [
                    {
                      "internalType": "uint64",
                      "name": "root",
                      "type": "uint64"
                    },
                    {
                      "internalType": "address[]",
                      "name": "route",
                      "type": "address[]"
                    }
                  ],
                  "internalType": "struct SubnetID",
                  "name": "source",
                  "type": "tuple"
                },
                {
                  "internalType": "bytes32[]",
                  "name": "checks",
                  "type": "bytes32[]"
                }
              ],
              "internalType": "struct ChildCheck[]",
              "name": "children",
              "type": "tuple[]"
            },
            {
              "internalType": "bytes32",
              "name": "prevHash",
              "type": "bytes32"
            },
            {
              "internalType": "bytes",
              "name": "proof",
              "type": "bytes"
            }
          ],
          "internalType": "struct BottomUpCheckpoint",
          "name": "checkpoint",
          "type": "tuple"
        }
      ],
      "name": "submitCheckpoint",
      "outputs": [],
      "stateMutability": "nonpayable",
      "type": "function"
    },
    {
      "inputs": [],
      "name": "topDownCheckPeriod",
      "outputs": [
        {
          "internalType": "uint64",
          "name": "",
          "type": "uint64"
        }
      ],
      "stateMutability": "view",
      "type": "function"
    },
    {
      "inputs": [],
      "name": "totalStake",
      "outputs": [
        {
          "internalType": "uint256",
          "name": "",
          "type": "uint256"
        }
      ],
      "stateMutability": "view",
      "type": "function"
    },
    {
      "inputs": [
        {
          "internalType": "uint256",
          "name": "index",
          "type": "uint256"
        }
      ],
      "name": "validatorAt",
      "outputs": [
        {
          "internalType": "address",
          "name": "",
          "type": "address"
        }
      ],
      "stateMutability": "view",
      "type": "function"
    },
    {
      "inputs": [],
      "name": "validatorCount",
      "outputs": [
        {
          "internalType": "uint256",
          "name": "",
          "type": "uint256"
        }
      ],
      "stateMutability": "view",
      "type": "function"
    },
    {
      "inputs": [
        {
          "internalType": "address",
          "name": "",
          "type": "address"
        }
      ],
      "name": "validatorNetAddresses",
      "outputs": [
        {
          "internalType": "string",
          "name": "",
          "type": "string"
        }
      ],
      "stateMutability": "view",
      "type": "function"
    },
    {
      "inputs": [
        {
          "internalType": "address",
          "name": "",
          "type": "address"
        }
      ],
      "name": "validatorWorkerAddresses",
      "outputs": [
        {
          "internalType": "uint8",
          "name": "addrType",
          "type": "uint8"
        },
        {
          "internalType": "bytes",
          "name": "payload",
          "type": "bytes"
        }
      ],
      "stateMutability": "view",
      "type": "function"
    },
    {
      "inputs": [],
      "name": "withdraw",
      "outputs": [],
      "stateMutability": "nonpayable",
      "type": "function"
    },
    {
      "stateMutability": "payable",
      "type": "receive"
    }
  ],
  "bytecode": {
    "object": "0x6101c08060405234620008135762005012803803809162000021828562000834565b83396020828281010312620008135781516001600160401b0381116200081357610140818401838501031262000813576040519261014084016001600160401b038111858210176200075657604052808201516001600160401b03811162000813576200009690848301908484010162000882565b8452602082820101516020850152620000b46040838301016200086d565b604085015260608282010151600181101562000813576060850152608082820101516080850152620000eb60a08383010162000858565b60a08501526200010060c08383010162000858565b60c08501526200011560e08383010162000858565b60e0850152610100828201015160ff81168103620008135761010085015280820161012001516001600160401b0381116200081357838201601f82858501010112156200081357818301810151926001600160401b0384116200075657604051946200018c601f8601601f19166020018762000834565b84865283016020858484870101010111620008135760005b848110620007f957868660006020888301015261012082015260ff6101008201511660018060401b0360c08301511690600160005560648111620007e757608052600a811015620007e15750600a5b60a0819052600280546001600160401b03199081166001600160401b039384161790915582518051600f8054909316908416179091556020015180519182116200075657680100000000000000008211620007565760209060105483601055808410620007c0575b50016010600052602060002060005b838110620007a257602085015161018052604085015185906001600160a01b031615620007905760408101516001600160a01b03166101405260608101519060018210156200077a5761012091610160526080810151670de0b6b3a7640000908181106000146200077257505b60c05260a08101516001600160401b03908116835260e082015116600a8110156200076c5750600a5b60e05260a0516001600160401b03908116610100526005805460ff60401b1916680100000000000000001790559101518051909181116200075657601154600181811c911680156200074b575b60208210146200073557601f8111620006d6575b506020601f8211600114620006695781926000926200065d575b50508160011b916000199060031b1c1916176011555b6040516200039f8162000818565b600f546001600160401b031681526040516010805480835260009182527f1b6847dc741a1b0cd08d278845f9d819d87b734759afb55fe2de5cb82a9ae67291839160208301915b8181106200063a575050620003fe9250038262000834565b602082015262000442600073__$a0fe38a9a81205afccc10810b09a4d3f45$__926040518093819263aa5106cb60e01b835260406004840152604483019062000951565b3060248301520381855af4908115620005d957600091620005e5575b506020906200048a9260405180809581946390ba52cf60e01b8352866004840152602483019062000951565b03915af4908115620005d9576000916200059e575b506101a090815260018054600160401b600160801b0319169055600580546001600160401b03191690556040516146639182620009af83396080518281816125b6015261453b015260a051828181611a6a015281816129430152614506015260c05182818161038d01528181611d1b01526120e1015260e05182611f4f01526101005182612a1e015261012051826107da015261014051828181601d015281816102fb015281816104f701528181611b6601528181612159015281816121d001528181612697015281816127a001528181614003015261411a01526101605182611e18015261018051826129e50152518181816108210152610a120152f35b906020823d602011620005d0575b81620005bb6020938362000834565b81010312620005cd575051816200049f565b80fd5b3d9150620005ac565b6040513d6000823e3d90fd5b903d8082843e620005f7818462000834565b82019160208184031262000636578051916001600160401b038311620005cd57506020926200048a94926200062d920162000882565b9150916200045e565b5080fd5b84546001600160a01b0316835260019485019486945060209093019201620003e6565b0151905082806200037b565b601160005260206000209060005b601f1984168110620006bd575060019383601f19811610620006a3575b505050811b0160115562000391565b015160001960f88460031b161c1916905582808062000694565b9091602060018192858801518155019301910162000677565b601160005262000723907f31ecc21a745e3968a04e9570e4425bc18fa8019c68028196b546d1669c200c68601f840160051c810191602085106200072a575b601f0160051c019062000938565b8262000361565b909150819062000715565b634e487b7160e01b600052602260045260246000fd5b90607f16906200034d565b634e487b7160e01b600052604160045260246000fd5b62000300565b9050620002d7565b634e487b7160e01b600052602160045260246000fd5b604051638b3ddc3360e01b8152600490fd5b82516001600160a01b0316818301556020909201916001016200026a565b620007da9060106000528484600020918201910162000938565b846200025b565b620001f3565b6040516375c3b42760e01b8152600490fd5b8060208092858588010101015182828901015201620001a4565b600080fd5b604081019081106001600160401b038211176200075657604052565b601f909101601f19168101906001600160401b038211908210176200075657604052565b51906001600160401b03821682036200081357565b51906001600160a01b03821682036200081357565b9190916040818403126200081357604051926200089f8462000818565b83620008ab8362000858565b81526020838101516001600160401b039491939185821162000813570181601f820112156200081357805194851162000756578460051b9060405195620008f58684018862000834565b86528480870192820101928311620008135784809101915b8383106200091d57505050500152565b81906200092a846200086d565b81520191019084906200090d565b81811062000944575050565b6000815560010162000938565b80516001600160401b03168252602090810151604082840181905281519084018190526060909301929082019160005b82811062000990575050505090565b83516001600160a01b0316855293810193928101926001016200098156fe60a080604052600436101561005f575b50361561001b57600080fd5b7f00000000000000000000000000000000000000000000000000000000000000006001600160a01b0316330361004d57005b60405163e7e601db60e01b8152600490fd5b600090813560e01c90816304fda3d414612a4d5750806306c4685314612a0857806306fdde03146129cd5780630f43a677146129af57806310d500e114612972578063185fde7e1461292d578063200d2ed2146128fe57806323a35705146128c3578063264762041461288a57806332e0aa1f146128525780633ccfd60b1461272657806341c0e1b51461260557806351392fc0146125da578063599c7bd11461259c5780635f832dbf1461257e57806366d7bbbc146125135780636cf6970a14611fb757806373f273fc14611f7e5780637d9740f414611f3957806380f7602114611e7a5780638b0e9f3f14611e5c5780638ef3f76114611e0257806391be4d4114611ddf5780639890374814611d3e5780639e33bd0214611d03578063a1ada30314611ce7578063a7f0b3de14611c05578063a9fb763c14611b44578063ad81e24414611b1b578063b10836ee146108ce578063b7ab4db514610844578063c18f64aa14610809578063c5ab2241146107c4578063cf33125014610526578063cfca2824146104e1578063d4e25bab146104705763d66d9e190361000f573461046d578060031936011261046d57600281541461045b5760028155604051630972932760e21b815233600482015260208160248173__$e800e3908cdbb6b1b5bd452383a17b18f7$__5af490811561037d57829161042d575b501561041b5760ff60055460401c166006811015610407576005146103f557338152600b602052604081205480156103e357338252600b6020528160408120556102a681600454612fb0565b6004556102b233613052565b506005546001600160401b036102c9818316612e4e565b6001600160401b031983169116908117600581905560401c60ff1660068110156103cf57600214610388575b508290507f00000000000000000000000000000000000000000000000000000000000000006001600160a01b0316803b15610379578180916024604051809481936345f5448560e01b83528860048401525af1801561037d57610365575b5061035e8233612fd8565b6001815580f35b61036e90612ad6565b610379578138610353565b5080fd5b6040513d84823e3d90fd5b6004547f000000000000000000000000000000000000000000000000000000000000000011156102f5576001600160481b031990911617600360401b1760055538806102f5565b634e487b7160e01b85526021600452602485fd5b604051632ec5b44960e01b8152600490fd5b60405163248c8efb60e11b8152600490fd5b634e487b7160e01b82526021600452602482fd5b60405163b7150de560e01b8152600490fd5b61044e915060203d8111610454575b6104468183612b6b565b810190612e13565b3861025a565b503d61043c565b604051633ee5aeb560e01b8152600490fd5b80fd5b503461046d57602036600319011261046d576001906040906001600160a01b03610498612a72565b168152600e602052206104c160ff825416916104ba6040518095819301612d7d565b0383612b6b565b6104dd6040519283928352604060208401526040830190612c34565b0390f35b503461046d578060031936011261046d576040517f00000000000000000000000000000000000000000000000000000000000000006001600160a01b03168152602090f35b503461046d578060031936011261046d5760405161054381612b1a565b6060808252826020809301526008549261055c84613165565b9361056a6040519586612b6b565b808552601f1961057982613165565b01825b818110610784575050815b8181106106745750506005546040516001600160401b03918216959192916105ae82612b1a565b815284810195865260405194808652848601915194604082880152855180935260808088019083818660051b8b0101980195925b8584106105f8578a51881660408b01528989038af35b9091929394959785806106636001938d607f199082030188528c5190858060a01b0382511681528382015184820152866106538560408501518b604086015260ff8151168c8601520151604060a085015260c0840190612c34565b9201519087818403910152612c34565b9a01940194019295949391906105e2565b610740610685829794959697612f02565b9190549161069284612f02565b9054600391821b1c6001600160a01b039081168952600b8b52604089205491949190806106be88612f02565b905490881b1c168a52600e8c5260408a2092816106da89612f02565b905490891b1c168b52600d8d5260408b2094604051976106f989612b50565b1b1c1685528a85015260016107326040519261071484612b1a565b60ff815416845261072b6040518094819301612d7d565b0382612b6b565b8a8201526040840152612b8e565b8682015261074e82856133b8565b5261075981846133b8565b506000198114610770576001019493929194610587565b634e487b7160e01b84526011600452602484fd5b9480809794959660405161079781612b50565b87815287838201526107a761339e565b60408201528880820152828288010152019050959493929561057c565b503461046d578060031936011261046d576040517f00000000000000000000000000000000000000000000000000000000000000006001600160401b03168152602090f35b503461046d578060031936011261046d5760206040517f00000000000000000000000000000000000000000000000000000000000000008152f35b503461046d578060031936011261046d5760085461086181613165565b9161086f6040519384612b6b565b818352601f1961087e83613165565b013660208501375b8181106108a357604051602080825281906104dd90820186612c9e565b806108af600192612f02565b838060a01b0391549060031b1c166108c782866133b8565b5201610886565b503461046d57600319602036820112610379576001600160401b03600435116103795760e0906004353603011261046d57604051630972932760e21b815233600482015260208160248173__$e800e3908cdbb6b1b5bd452383a17b18f7$__5af490811561037d578291611afc575b501561041b5761095160246004350161313c565b6001546001600160401b03918216918116821115611aea5760401c6001600160401b031690818111611a59575b505060ff60055460401c16600681101561040757600203611a475733815260096020526040812054156103e3576109e860206109c7366109c2600480350180613150565b61317c565b604051809381926390ba52cf60e01b8352846004840152602483019061321f565b038173__$a0fe38a9a81205afccc10810b09a4d3f45$__5af490811561037d578291611a15575b507f000000000000000000000000000000000000000000000000000000000000000003611a0357610a4a60646004350160043560040161327a565b906040518092638984147560e01b825280602483016020600485015252604482019060448160051b84010193809287915b888484106118ca5786602081808b038173__$33b79814e84bf6cf5e47244090b19ce5f8$__5af490811561037d5782916118ab575b5015611899576001600160401b03610acc60043560240161313c565b168152600a60205260408120338252600b6020526040822054604051610af181612aff565b6004803501356001600160401b03811161166c57610b1690600436918135010161317c565b8152610b26602460043501612c8a565b602082015260043560448101356040830152606401356001600160401b03811161166c57366023826004350101121561166c57600481813501013590610b6b82613165565b91610b796040519384612b6b565b80835260208301913660248360051b836004350101011161176a576024816004350101925b60248360051b83600435010101841061176e57505050506060820152600435608401356001600160401b03811161166c57366023826004350101121561166c57600481813501013590610bf082613165565b91610bfe6040519384612b6b565b80835260208301913660248360051b836004350101011161176a576024816004350101925b60248360051b8360043501010184106116705750505050608082015260043560a481013560a083015260c401356001600160401b03811161166c57610c9491610c75602092600436918135010161341d565b60c0820152604051809381926339aa47fb60e01b83526004830161348d565b038173__$1cd67d4dc9e627f0bec7928aa480e7d951$__5af490811561166157849161162a575b50610cca60246004350161313c565b600454928593855480885260038701602052604088203360005260205260ff6040600020541661161857610d97928186928a526003890160205260408a20336000526020526040600020600160ff1982541617905560018901610d2e838254612e2b565b90556004890191818b528260205260408b20848c52602052610d5560408c20918254612e2b565b9055808a528160205260408a209160028a019283548c5260205260408b2054918b5260205260408a20838b5260205260408a205411611610575b505085614537565b60048110156115fc57859190600381036115a65750610db5816144f6565b1561152b575060019250505b80845260058301602052610df66020610ddc604087206136f7565b604051809381926322ea8d8960e11b83526004830161348d565b038173__$1cd67d4dc9e627f0bec7928aa480e7d951$__5af4908115611520578591611501575b50610e69575b5015610e3557610e3290613f4d565b80f35b5060025460401c6001600160401b0316610e4e816144f6565b610e56575080f35b8152600a602052610e3260408220613f4d565b83526005820160205260408320610eb3610e87600480350180613150565b6001600160401b03610e988261313c565b84546001600160401b0319169116178355602081019061327a565b906001600160401b038211611078576001830190610ed183836138da565b90865260208620865b8381106114e6575050506002820190506001600160401b03610f0060043560240161313c565b82546001600160401b0319169116179055600480356044810135600384015582820191610f329160648101910161327a565b90610f3d8284613922565b918652602086208692805b8385106111ab57505050505060058101610f6c60846004350160043560040161327a565b9190610f788383613a86565b908652602086208691805b84841061108c57505050505060079060a46004350135600682015501610fb360c460043501600435600401612ed0565b906001600160401b038211611078578190610fd882610fd28654612a9c565b86612e7d565b8690601f8311600114611012578792611007575b50508160011b916000199060031b1c19161790555b83610e23565b013590508680610fec565b84885260208820925090601f198416885b8181106110605750908460019594939210611046575b505050811b019055611001565b0135600019600384901b60f8161c19169055868080611039565b91936020600181928787013581550195019201611023565b634e487b7160e01b86526041600452602486fd5b6110968183613150565b6110cf6110a38280613150565b6001600160401b036110b48261313c565b87546001600160401b0319169116178655602081019061327a565b906001600160401b0382116111975760018601906110ed83836138da565b908c5260208c208c5b83811061117c575050505080602061110f92019061327a565b906001600160401b03821161116857600285019061112d8383613a43565b908b5260208b208b5b83811061115457505050506003602060019201930193019291610f83565b600190602084359401938184015501611136565b634e487b7160e01b8b52604160045260248bfd5b600190602061118a8561390e565b94019381840155016110f6565b634e487b7160e01b8c52604160045260248cfd5b6111b58183613150565b803560be19823603018112156114e2576111d182820180613150565b61120a6111de8280613150565b6001600160401b036111ef8261313c565b89546001600160401b0319169116178855602081019061327a565b906001600160401b0382116114b3578d90600189019061122a84836138da565b915260208e208e5b8381106114c75750505060028701916001600160a01b0391506112579060200161390e565b82546001600160a01b0319169116179055600385016112b761127f8484016020810190613150565b9161128a8380613150565b906001600160401b0361129c8361313c565b82546001600160401b0319169116179055602081019061327a565b906001600160401b0382116114b3578d9060048901906112d784836138da565b915260208e208e5b8381106114985750505060058701916001600160a01b0391506113049060200161390e565b82546001600160a01b0319169116179055818101604081013560068701556007860191906001600160401b039061133d9060600161313c565b83546001600160401b031916911617825582810160800135916001600160e01b031983168303611494576113809261137491613a20565b820160a0810190612ed0565b906001600160401b038211611197576113a9826113a06008890154612a9c565b60088901612e7d565b8b908c601f8411600114611423579183929160209594611418575b50508160011b916000199060031b1c19161760088601555b0135908115158203611414576020600a91611408600194600988019060ff801983541691151516179055565b01930194019391610f48565b8980fd5b013590508d806113c4565b50600887018d5260208d20918d5b601f198516811061147c575091839160019360209695601f19811610611462575b505050811b0160088601556113dc565b0135600019600384901b60f8161c191690558d8080611452565b90926020600181928686013581550194019101611431565b8c80fd5b60019060206114a68561390e565b94019381840155016112df565b634e487b7160e01b8e52604160045260248efd5b60019060206114d58561390e565b9401938184015501611232565b8a80fd5b60019060206114f48561390e565b9401938184015501610eda565b61151a915060203d602011610454576104468183612b6b565b85610e1d565b6040513d87823e3d90fd5b73__$b7b8687e33476c74e3b4e0a64c4768a343$__90813b156115a25760405163199b9ca560e01b8152600260048201526001600160401b039091166024820152908290829060449082905af4801561037d5761158a575b5050610dc1565b61159390612ad6565b61159e578385611583565b8380fd5b8280fd5b90506002915003610dc1578373__$e0f829f5071d7e628aa77eca0c12e35bc2$__803b15610379578160249160405192838092635a27a53960e11b82528960048301525af4801561037d5761158a575050610dc1565b634e487b7160e01b86526021600452602486fd5b558388610d8f565b6040516337138f5f60e11b8152600490fd5b90506020813d602011611659575b8161164560209383612b6b565b81010312611654575184610cbb565b600080fd5b3d9150611638565b6040513d86823e3d90fd5b8480fd5b83356001600160401b038111611414578260043501016040602319823603011261141457604051906116a182612b1a565b60248101356001600160401b038111611766576116c4906024369184010161317c565b825260448101356001600160401b038111611766573660438284010112156117665760248183010135906116f782613165565b926117056040519485612b6b565b82845260208401913660448560051b83850101011161176257604481830101925b60448560051b838501010184106117525750505050602080840192909252509082529384019301610c23565b8335815260209384019301611726565b8e80fd5b8b80fd5b8780fd5b83356001600160401b038111611414578260043501016023199160408383360301126114e257604051906117a182612b1a565b60248301356001600160401b0381116114945760c090840194853603011261176657604051916117d083612b35565b60248501356001600160401b038111611895576117f390602436918801016133cc565b835260448501356001600160401b0381116118955761181890602436918801016133cc565b60208401526064850135604084015261183360848601612c8a565b606084015261184460a4860161337c565b608084015260c48501356001600160401b03811161189557604460209586956118776024998a611884963692010161341d565b60a0820152845201613391565b838201528152019401939050610b9e565b8d80fd5b604051630bd9169f60e01b8152600490fd5b6118c4915060203d602011610454576104468183612b6b565b82610ab0565b919395509193956043198882030184526118e487846132af565b90813560be198336030181121561159e576040825282019161190683806132af565b61191d60c0918260408601526101008501906132c3565b9361192b60208201826132af565b611943603f19966060928888830301848901526132c3565b9260809160408401358388015261196260018060401b03918501612c8a565b169160a0928388015261197e63ffffffff60e01b91850161337c565b1690860152810135601e19823603018112156119ff57018035906001600160401b0382116119ff576020019381360385136119ff5760206119e08180989660019a86839a849a888b030160e0890152818a52848a013782878901015201613391565b1515910152601f80199101160101970193019301909286949293610a7b565b8680fd5b6040516375ecc72d60e01b8152600490fd5b90506020813d602011611a3f575b81611a3060209383612b6b565b81010312611654575138610a0f565b3d9150611a23565b60405163c18316bf60e01b8152600490fd5b036001600160401b038111611ad6577f00000000000000000000000000000000000000000000000000000000000000006001600160401b03168015611ac2576001600160401b039182160616611ab057388061097e565b60405163b4f68f9760e01b8152600490fd5b634e487b7160e01b83526012600452602483fd5b634e487b7160e01b82526011600452602482fd5b604051631f30cc6360e21b8152600490fd5b611b15915060203d602011610454576104468183612b6b565b3861093d565b503461046d578060031936011261046d576001546040516001600160401b039091168152602090f35b503461046d5760208060031936011261037957600435906001600160a01b03907f00000000000000000000000000000000000000000000000000000000000000008216330361004d57600854928315611bf357838110611be15783900491845b848110611baf578580f35b8082611bbc600193612f02565b90549060031b1c168752600c845260408720611bd9868254612e2b565b905501611ba4565b604051633074cabf60e11b8152600490fd5b60405163efa9c8f160e01b8152600490fd5b503461046d578060031936011261046d57604051600090601154611c2881612a9c565b808352600191808316908115611cbf5750600114611c65575b6104dd83611c5181870382612b6b565b604051918291602083526020830190612c34565b6011600090815260209450917f31ecc21a745e3968a04e9570e4425bc18fa8019c68028196b546d1669c200c685b828410611cac57505050810190910190611c5181611c41565b8054858501870152928501928101611c93565b6104dd9550611c5193506020915091849260ff191682840152151560051b8201019350611c41565b503461046d578060031936011261046d576020604051600a8152f35b503461046d578060031936011261046d5760206040517f00000000000000000000000000000000000000000000000000000000000000008152f35b503461046d57602036600319011261046d57611dc2906001600160401b03906104dd9060409083611d6d612c74565b1681526007602052206007611d8182612d48565b93600283015416916003810154611dae600683015492611da76040518096819301612d7d565b0384612b6b565b60405196879660a0885260a0880190612cdb565b936020870152604086015260608501528382036080850152612c34565b503461046d578060031936011261046d576020604051670de0b6b3a76400008152f35b503461046d578060031936011261046d576040517f00000000000000000000000000000000000000000000000000000000000000006001811015611e4857602092508152f35b634e487b7160e01b83526021600452602483fd5b503461046d578060031936011261046d576020600454604051908152f35b503461046d578060031936011261046d57611e9361339e565b50604051611ea081612b1a565b600f546001600160401b03168152604051601080548083526000918252602092917f1b6847dc741a1b0cd08d278845f9d819d87b734759afb55fe2de5cb82a9ae67291839185830191905b86828210611f1a57505050611f0292500382612b6b565b818301526104dd604051928284938452830190612cdb565b85546001600160a01b0316845260019586019587955093019201611eeb565b503461046d578060031936011261046d576040517f00000000000000000000000000000000000000000000000000000000000000006001600160401b03168152602090f35b503461046d57602036600319011261046d576020906040906001600160a01b03611fa6612a72565b168152600c83522054604051908152f35b506003199060403683011261046d57600435916001600160401b03908184116115a257366023850112156115a25783600401359180831161159e576024943686858301011161166c5785359180831161250f5760408360040194843603011261250f57604051630972932760e21b81523360048201526020929083818a8173__$e800e3908cdbb6b1b5bd452383a17b18f7$__5af49081156125045788916124e7575b501561041b5760ff60055460401c1660068110156124d4576005146103f5576001948560ff61208883612ec2565b160361249b57601461209c8a870183612ed0565b905003612489573415612477578891338952600b8552604089206120c1348254612e2b565b90556120cf34600454612e2b565b600455338952600b85526040892054977f000000000000000000000000000000000000000000000000000000000000000080991015612263575b505050505050506005549060ff8260401c169060068210156122505784955081146000146121bf57505060045490811015612144575b505080f35b6005805460ff60401b1916600160411b1790557f00000000000000000000000000000000000000000000000000000000000000006001600160a01b0316803b156121bb578290600460405180948193630354740160e31b83525af1801561037d571561213f575b6121b490612ad6565b61046d5780f35b5050fd5b60039193501461222a575b508190507f00000000000000000000000000000000000000000000000000000000000000006001600160a01b0316803b156122275781600491604051928380926316989f6f60e21b825234905af1801561037d576121ab57505080f35b50fd5b600454101561223a575b806121ca565b60ff60401b1916600160411b1760055538612234565b634e487b7160e01b855260216004528585fd5b60055485612272818316612e4e565b6001600160401b0319909216911617600555336000908152600987526040902054612109576122a033612f33565b50338a52600d865260408a20916122c1826122bb8554612a9c565b85612e7d565b8a90601f83116001146123fe5794829161231c968d936123f1575b505050600019600383901b1c191690881b1790555b338852600e8452888660408a2060ff61230985612ec2565b1660ff1982541617815501950190612ed0565b92909183116123de57829161233b836123358754612a9c565b87612e7d565b8791601f841160011461237b57508792612370575b5050600019600383901b1c191690831b1790555b38808086818080612109565b013590503880612350565b91869450601f198416868a52838a20938a905b8282106123c557505084116123ab575b505050811b019055612364565b0135600019600384901b60f8161c1916905538808061239e565b838501358655899790950194928301929081019061238e565b634e487b7160e01b875260416004528787fd5b01013590508b38806122dc565b8b908a9392601f1984168684528a8420935b8b828210612451575050908461231c999210612435575b50505050811b0190556122f1565b60001960f88660031b161c199201013516905538808d81612427565b92969094849698999a8885949601013581550195019201918e97969593918c9593612410565b604051635a78c58160e11b8152600490fd5b6040516349590f3360e11b8152600490fd5b60405162461bcd60e51b8152600481018590526012818b0152711059191c881b9bdd081cdd5c1c1bdc9d195960721b6044820152606490fd5b634e487b7160e01b885260216004528888fd5b6124fe9150843d8611610454576104468183612b6b565b3861205a565b6040513d8a823e3d90fd5b8580fd5b503461046d57604036600319011261046d5761252d612c74565b6024356001600160a01b038116929083900361165457604091600180841b03168152600a602052600382822080548352016020522090600052602052602060ff604060002054166040519015158152f35b503461046d578060031936011261046d576020600654604051908152f35b503461046d578060031936011261046d57602060405160ff7f0000000000000000000000000000000000000000000000000000000000000000168152f35b503461046d578060031936011261046d576001546040805191901c6001600160401b03168152602090f35b503461046d578060031936011261046d57604051630972932760e21b815233600482015260208160248173__$e800e3908cdbb6b1b5bd452383a17b18f7$__5af490811561037d578291612708575b501561041b5760055460ff8160401c166006811015611e48576005146103f557600854158015906126fd575b6126eb5760ff60401b1916600560401b17600555807f00000000000000000000000000000000000000000000000000000000000000006001600160a01b0316803b15612227578180916004604051809481936341c0e1b560e01b83525af1801561037d576121ab5750f35b604051636b62255160e11b8152600490fd5b506004541515612680565b612720915060203d8111610454576104468183612b6b565b38612654565b503461046d578060031936011261046d57604051630972932760e21b815233600482015260208160248173__$e800e3908cdbb6b1b5bd452383a17b18f7$__5af490811561037d578291612834575b501561041b57338152600c6020526040812054801561282257338252600c60205260408220829055817f00000000000000000000000000000000000000000000000000000000000000006001600160a01b0316803b15610379578190602460405180948193631f0e077760e31b83528760048401525af1801561281757612802575b50610e329033612fd8565b91612810610e329293612ad6565b91906127f7565b6040513d85823e3d90fd5b6040516367300f9160e11b8152600490fd5b61284c915060203d8111610454576104468183612b6b565b38612775565b503461046d57602036600319011261046d576020612871600435612f02565b905460405160039290921b1c6001600160a01b03168152f35b503461046d57602036600319011261046d576020906040906001600160a01b036128b2612a72565b168152600b83522054604051908152f35b503461046d57602036600319011261046d576104dd90611c51906040906001600160a01b036128f0612a72565b168152600d60205220612b8e565b503461046d578060031936011261046d5760ff60055460401c16604051906006811015611e4857602092508152f35b503461046d578060031936011261046d576040517f00000000000000000000000000000000000000000000000000000000000000006001600160401b03168152602090f35b503461046d578060031936011261046d5760606002546040519060018060401b03908181168352818160401c16602084015260801c166040820152f35b503461046d578060031936011261046d576020600854604051908152f35b503461046d578060031936011261046d5760206040517f00000000000000000000000000000000000000000000000000000000000000008152f35b503461046d578060031936011261046d576040517f00000000000000000000000000000000000000000000000000000000000000006001600160401b03168152602090f35b9050346103795781600319360112610379576005546001600160401b03168152602090f35b600435906001600160a01b038216820361165457565b35906001600160a01b038216820361165457565b90600182811c92168015612acc575b6020831014612ab657565b634e487b7160e01b600052602260045260246000fd5b91607f1691612aab565b6001600160401b038111612ae957604052565b634e487b7160e01b600052604160045260246000fd5b60e081019081106001600160401b03821117612ae957604052565b604081019081106001600160401b03821117612ae957604052565b60c081019081106001600160401b03821117612ae957604052565b608081019081106001600160401b03821117612ae957604052565b601f909101601f19168101906001600160401b03821190821017612ae957604052565b9060405191826000825492612ba284612a9c565b908184526001948581169081600014612c115750600114612bce575b5050612bcc92500383612b6b565b565b9093915060005260209081600020936000915b818310612bf9575050612bcc93508201013880612bbe565b85548884018501529485019487945091830191612be1565b915050612bcc94506020925060ff191682840152151560051b8201013880612bbe565b919082519283825260005b848110612c60575050826000602080949584010152601f8019910116010190565b602081830181015184830182015201612c3f565b600435906001600160401b038216820361165457565b35906001600160401b038216820361165457565b90815180825260208080930193019160005b828110612cbe575050505090565b83516001600160a01b031685529381019392810192600101612cb0565b9060406020612cff93600180841b0381511684520151918160208201520190612c9e565b90565b90815480825260208092019260005281600020916000905b828210612d28575050505090565b83546001600160a01b031685529384019360019384019390910190612d1a565b9060016020604051612d5981612b1a565b612d798195848060401b038154168352611da76040518096819301612d02565b0152565b9060009291805491612d8e83612a9c565b918282526001938481169081600014612df05750600114612db0575b50505050565b90919394506000526020928360002092846000945b838610612ddc575050505001019038808080612daa565b805485870183015294019385908201612dc5565b9294505050602093945060ff191683830152151560051b01019038808080612daa565b90816020910312611654575180151581036116545790565b91908201809211612e3857565b634e487b7160e01b600052601160045260246000fd5b6001600160401b0390811660010191908211612e3857565b818110612e71575050565b60008155600101612e66565b9190601f8111612e8c57505050565b612bcc926000526020600020906020601f840160051c83019310612eb8575b601f0160051c0190612e66565b9091508190612eab565b3560ff811681036116545790565b903590601e198136030182121561165457018035906001600160401b0382116116545760200191813603831361165457565b600854811015612f1d57600860005260206000200190600090565b634e487b7160e01b600052603260045260246000fd5b600081815260096020526040812054612fab57600854600160401b811015612f97579082612f83612f6c84600160409601600855612f02565b819391549060031b91821b91600019901b19161790565b905560085492815260096020522055600190565b634e487b7160e01b82526041600452602482fd5b905090565b91908203918211612e3857565b6001600160401b038111612ae957601f01601f191660200190565b81471061303a576000918291829182916001600160a01b03165af13d15613035573d61300381612fbd565b906130116040519283612b6b565b8152600060203d92013e5b1561302357565b604051630a12f52160e11b8152600490fd5b61301c565b60405163cd78605960e01b8152306004820152602490fd5b60008181526009602052604081205490919080156131375760001990808201818111613123576008549083820191821161310f578082036130db575b50505060085480156130c7578101906130a682612f02565b909182549160031b1b19169055600855815260096020526040812055600190565b634e487b7160e01b84526031600452602484fd5b6130f96130ea612f6c93612f02565b90549060031b1c928392612f02565b905584526009602052604084205538808061308e565b634e487b7160e01b86526011600452602486fd5b634e487b7160e01b85526011600452602485fd5b505090565b356001600160401b03811681036116545790565b903590603e1981360301821215611654570190565b6001600160401b038111612ae95760051b60200190565b9190604083820312611654576040519261319584612b1a565b8361319f82612c8a565b815260209180830135906001600160401b03821161165457019280601f850112156116545783356131cf81613165565b946131dd6040519687612b6b565b818652848087019260051b8201019283116116545784809101915b83831061320757505050500152565b819061321284612a88565b81520191019084906131f8565b80516001600160401b03168252602090810151604082840181905281519084018190526060909301929082019160005b82811061325d575050505090565b83516001600160a01b03168552938101939281019260010161324f565b903590601e198136030182121561165457018035906001600160401b03821161165457602001918160051b3603831361165457565b9035603e1982360301811215611654570190565b906132ce82806132af565b604082526001600160401b039260808301846132e984612c8a565b16604085015260209283810135601e19823603018112156116545701908382359201958211611654578160051b36038613611654578190604060608701525260a08401949060005b81811061335757506001600160a01b0392613350925084019050612a88565b1691015290565b9091958480600192838060a01b0361336e8b612a88565b168152019701929101613331565b35906001600160e01b03198216820361165457565b3590811515820361165457565b604051906133ab82612b1a565b6060602083600081520152565b8051821015612f1d5760209160051b010190565b91909160408184031261165457604051906133e682612b1a565b90928391908135906001600160401b0382116116545782613410602094926134189486940161317c565b855201612a88565b910152565b81601f820112156116545780359061343482612fbd565b926134426040519485612b6b565b8284526020838301011161165457816000926020809301838601378301015290565b90602061347a835160408452604084019061321f565b928101516001600160a01b031691015290565b919060209081845280519360e0838201526134ae610100958683019061321f565b9160018060401b0380858301511690604091828501528183015197606098898601528884015198601f19966080938888830301858901528b51928383528a8301948b808660051b8601019e016080526000935b8585106135dc575050505050505082015194848489030160a08501528551908189528089019281808460051b8c01019801936000915b84831061356757505050505050612cff94955060c08160a060e09301518285015201519282850301910152612c34565b90919289898d8397989c030184528a518261358982518685528685019061321f565b91015191838183039101528280835192838152019201906000905b8082106135c35750505090806001929b01930193019194939290613537565b91938060019294865181520194019201879392916135a4565b9091929394959d8c8f82828f61366e8e8a8f8d9786958c60019c030190528b83608051519961361d8b5193838c528451908c60c095869101528c0190613464565b88840151603f198c83038101888e0152969161363891613464565b96840151858c0152830151169260a093848b015263ffffffff60e01b9083015116908901520151908683030160e0870152612c34565b930151151591015260808051830190529f0196950193929190613501565b9060405161369981612b1a565b602081936136a681612d48565b8352600201546001600160a01b0316910152565b90815480825260208092019260005281600020916000905b8282106136e0575050505090565b8354855293840193600193840193909101906136d2565b9060409182519061370782612aff565b819361371282612d48565b835260018060401b036002908082850154166020908187015260039081860154858801526004860192835461374681613165565b9161375388519384612b6b565b818352600095865283862086918585015b8484106138175750505050506060880152600586019081549361378685613165565b9561379388519788612b6b565b85875282870193825282822091935b8685106137d8575050505050505060c092611da78593612d799360806007980152600683015460a0860152518096819301612d7d565b85846001928b516137e881612b1a565b6137f187612d48565b81528c516138058161072b818a8c016136ba565b838201528152019301940193916137a2565b600a876001928d8b6008829e9c9e519261383084612b1a565b61385181519361383f85612b35565b6138488c61368c565b85528b0161368c565b8684015260068a0154818401526138928a6104ba6007820154938c8516606088015260a09463ffffffff60e01b90861b166080880152518095819301612d7d565b820152815260ff600988015416151583820152815201930193019291979597613764565b805460008255806138c5575050565b612bcc91600052602060002090810190612e66565b90600160401b8111612ae9578154908083558181106138f857505050565b612bcc9260005260206000209182019101612e66565b356001600160a01b03811681036116545790565b600160401b8211612ae95780549082815581831061393f57505050565b600a928284029284840403612e38578084029084820403612e3857600091825260209081832093840193015b838110613979575050505050565b808386925583600161398c8184016138b6565b8160028401558160038401556139a4600484016138b6565b600590828285015582600685015582600785015560088401906139c78254612a9c565b90816139dd575b5050505060098201550161396b565b8490601f948584116001146139fe57505050509050555b83388080806139ce565b8493958395613a1994528a86209601901c8501908501612e66565b55556139f4565b805463ffffffff60401b191660a09290921c63ffffffff60401b16919091179055565b600160401b8211612ae957805491808255828110613a6057505050565b60009182526020822092830192015b828110613a7b57505050565b818155600101613a6f565b600160401b8211612ae957805490828155818310613aa357505050565b6003928284029284840403612e38578084029084820403612e3857600091825260209081832093840193015b838110613add575050505050565b80838692556001613aef8183016138b6565b6002820180549086815581613b08575b50505001613acf565b8652848620908101905b81811015613aff578681558894508201613b12565b818114613b90578154916001600160401b038311612ae957613b4983836138da565b60005260206000209060005260206000208154916000925b848410613b6f575050505050565b600191820180546001600160a01b0390921684860155939091019290613b61565b5050565b90808214613b9057613ba68154612a9c565b906001600160401b038211612ae9578190613bc582610fd28654612a9c565b600090601f8311600114613bfc57600092613bf1575b50508160011b916000199060031b1c1916179055565b015490503880613bdb565b81526020808220858352818320935090601f1985169083905b828210613c4f575050908460019594939210613c36575b505050811b019055565b015460001960f88460031b161c19169055388080613c2c565b8495819295850154815560018091019601940190613c15565b818114613b9057815491613c7c8383613922565b6000526020600020906000526020600020906000905b838210613c9f5750505050565b8060019184141580613cbd575b50600a809101930191019091613c92565b80613cea575b50613ce4600960ff81840154169086019060ff801983541691151516179055565b38613cac565b80613db5575b5060038085019082018082141580613d5b575b50505060068082015490850155613d456007808601908301848060401b03815416858060401b031983541617825563ffffffff60e01b905460a01b1690613a20565b613d556008808301908601613b94565b38613cc3565b613d88575b5050600580850190838060a01b039083015416838060a01b0319825416179055388080613d03565b838060401b03905416838060401b0319825416179055613dae6004808301908601613b27565b3880613d60565b613dde575b600280850190838060a01b039083015416838060a01b031982541617905538613cf0565b818060401b03815416828060401b0319855416178455613e0382808301908601613b27565b613dba565b818114613b90578154916001600160401b038311612ae957613e2a8383613a43565b60005260206000209060005260206000208154916000925b848410613e50575050505050565b6001809192019384549281850155019290613e42565b818114613b9057815491613e7a8383613a86565b6000526020600020906000526020600020906000905b838210613e9d5750505050565b8060019184141580613ebb575b506003809101930191019091613e90565b613ed6575b613ed06002808301908601613e08565b38613eaa565b818060401b03815416828060401b0319855416178455613efb82808301908601613b27565b613ec0565b80546001600160401b03168252604060208301819052612cff920190600101612d02565b90604081526020613f386040830184613f00565b6002909301546001600160a01b031691015290565b60006002820154815260058201602052604081209160065460068401540361433b5750600282018054919291613f8b906001600160401b03166143ec565b80546001600160401b03168352600760205260408320828114159081614295575b5050613fd66020613fbc846136f7565b604051809381926339aa47fb60e01b83526004830161348d565b038173__$1cd67d4dc9e627f0bec7928aa480e7d951$__5af4908115611661578491614263575b506006557f00000000000000000000000000000000000000000000000000000000000000006001600160a01b03163b156115a25790826040518093635926519560e01b82526020600483015260e0602483015261405e610104830185613f00565b90546001600160401b03166044830152600384015460648301528181036023190160848301526004840180548083529084526020808520600583901b84018201939092918691908101905b8383106141b257505050505060058401906023198382030160a48401528154808252602082019160208260051b820101938652602086209286915b838310614163575050505050614115906007856006859697015460c48601526023198584030160e486015201612d7d565b0381837f00000000000000000000000000000000000000000000000000000000000000006001600160a01b03165af1801561037d57614152575050565b61415c8291612ad6565b61046d5750565b9295509296955092602060036141a0600193601f198682030187526040815261418f604082018c613f00565b908481830391015260028b016136ba565b980193019301889596938895926140e4565b92955092969550926020600a600192601f19858203018652604081526142428a60c08060408501526141e8610100850183613f24565b906007614205603f19938488820301606089015260038601613f24565b9360068101546080880152015460a090898060401b0381168288015263ffffffff60e01b911b16908501528382030160e084015260088c01612d7d565b908360ff60098d0154161515910152980193019301889596938895926140a9565b90506020813d60201161428d575b8161427e60209383612b6b565b81010312611654575138613ffd565b3d9150614271565b61430291614309575b82546002820180546001600160401b0319166001600160401b0392909216919091179055600384810154908201556142dc6004808601908301613c68565b6142ec6005850160058301613e66565b6006840154600682015560078085019101613b94565b3880613fac565b835481546001600160401b0319166001600160401b03919091161781556143366001858101908301613b27565b61429e565b73__$e0f829f5071d7e628aa77eca0c12e35bc2$__90813b156115a2578290602460405180948193635a27a53960e11b835260048301525af4801561037d576143dd575b5060029091015473__$b7b8687e33476c74e3b4e0a64c4768a343$__906001600160401b0316813b156115a25782906044604051809481936394ecccfd60e01b83526002600484015260248301525af4801561037d57614152575050565b6143e690612ad6565b3861437f565b6143f5816144f6565b156144f357604051634953836d60e11b8152600260048201526001600160401b03918216602482018190529173__$b7b8687e33476c74e3b4e0a64c4768a343$__9190602082604481865af480156144b65784926000916144d5575b506144c2575b5050803b15611654576000604491604051928380926394ecccfd60e01b8252600260048301528660248301525af480156144b6576144a7575b50600180546001600160401b031916919091179055565b6144b090612ad6565b38614490565b6040513d6000823e3d90fd5b60025460401c1603613b90578138614457565b6144ed915060203d8111610454576104468183612b6b565b38614451565b50565b6001546001600160401b039081167f0000000000000000000000000000000000000000000000000000000000000000821601818111612e3857811691161490565b60ff7f000000000000000000000000000000000000000000000000000000000000000016808302908382041483151715612e38576064900460405191637d2ef4e560e11b835280600484015260208360248173__$e0f829f5071d7e628aa77eca0c12e35bc2$__5af49283156144b6576000936145f9575b506001015490808211156145f0578083116145e7576145d7926145d191612fb0565b92612fb0565b11156145e257600190565b600290565b50505050600390565b50505050600090565b90926020823d8211614625575b8161461360209383612b6b565b8101031261046d5750519160016145af565b3d915061460656fea2646970667358221220171bfe54ce1e227e287f299b1efe6f5b4f631a11dcd6bfd8db31c7a0ab77b4ca64736f6c63430008130033",
    "linkReferences": {
      "src/lib/AccountHelper.sol": {
        "AccountHelper": [
          {
            "start": 3046,
            "length": 20
          },
          {
            "start": 4809,
            "length": 20
          },
          {
            "start": 10726,
            "length": 20
          },
          {
            "start": 12256,
            "length": 20
          },
          {
            "start": 12545,
            "length": 20
          }
        ]
      },
      "src/lib/CheckpointHelper.sol": {
        "CheckpointHelper": [
          {
            "start": 5703,
            "length": 20
          },
          {
            "start": 6057,
            "length": 20
          },
          {
            "start": 18825,
            "length": 20
          }
        ]
      },
      "src/lib/CrossMsgHelper.sol": {
        "CrossMsgHelper": [
          {
            "start": 5180,
            "length": 20
          }
        ]
      },
      "src/lib/EpochVoteSubmissionHelper.sol": {
        "EpochVoteSubmissionHelper": [
          {
            "start": 8035,
            "length": 20
          },
          {
            "start": 19692,
            "length": 20
          },
          {
            "start": 20282,
            "length": 20
          }
        ]
      },
      "src/lib/ExecutableQueueHelper.sol": {
        "ExecutableQueueHelper": [
          {
            "start": 7900,
            "length": 20
          },
          {
            "start": 19767,
            "length": 20
          },
          {
            "start": 19922,
            "length": 20
          }
        ]
      },
      "src/lib/SubnetIDHelper.sol": {
        "SubnetIDHelper": [
          {
            "start": 1035,
            "length": 20
          },
          {
            "start": 5019,
            "length": 20
          }
        ]
      }
    }
  },
  "methodIdentifiers": {
    "MIN_CHECKPOINT_PERIOD()": "a1ada303",
    "MIN_COLLATERAL_AMOUNT()": "91be4d41",
    "accumulatedRewards(address)": "73f273fc",
    "bottomUpCheckPeriod()": "06c46853",
    "committedCheckpoints(uint64)": "98903748",
    "configurationNumber()": "04fda3d4",
    "consensus()": "8ef3f761",
    "currentSubnetHash()": "c18f64aa",
    "executableQueue()": "10d500e1",
    "genesis()": "a7f0b3de",
    "getGenesisEpoch()": "51392fc0",
    "getParent()": "80f76021",
    "getValidatorSet()": "cf331250",
    "getValidators()": "b7ab4db5",
    "hasValidatorVotedForSubmission(uint64,address)": "66d7bbbc",
    "ipcGatewayAddr()": "cfca2824",
    "join(string,(uint8,bytes))": "6cf6970a",
    "kill()": "41c0e1b5",
    "lastVotingExecutedEpoch()": "ad81e244",
    "leave()": "d66d9e19",
    "majorityPercentage()": "599c7bd1",
    "minActivationCollateral()": "9e33bd02",
    "minValidators()": "c5ab2241",
    "name()": "06fdde03",
    "prevExecutedCheckpointHash()": "5f832dbf",
    "reward(uint256)": "a9fb763c",
    "stake(address)": "26476204",
    "status()": "200d2ed2",
    "submissionPeriod()": "185fde7e",
    "submitCheckpoint(((uint64,address[]),uint64,uint256,((((uint64,address[]),address),((uint64,address[]),address),uint256,uint64,bytes4,bytes),bool)[],((uint64,address[]),bytes32[])[],bytes32,bytes))": "b10836ee",
    "topDownCheckPeriod()": "7d9740f4",
    "totalStake()": "8b0e9f3f",
    "validatorAt(uint256)": "32e0aa1f",
    "validatorCount()": "0f43a677",
    "validatorNetAddresses(address)": "23a35705",
    "validatorWorkerAddresses(address)": "d4e25bab",
    "withdraw()": "3ccfd60b"
  },
  "id": 28
}